:020000040800F2
:10000000401701200D130008355B0008F9120008A5
:10001000F9120008F9120008F912000800000000A7
:10002000000000000000000000000000D1130008E4
:10003000F9120008000000006D1300081D290008D7
:1000400055150008551500085515000855150008E8
:1000500055150008551500085515000855150008D8
:1000600055150008551500085515000855150008C8
:1000700055150008551500085515000855150008B8
:1000800055150008551500085515000855150008A8
:100090005515000855150008551500085515000898
:1000A0005515000855150008551500085515000888
:1000B0005515000855150008551500085515000878
:1000C0005515000855150008551500085515000868
:1000D0005515000855150008551500085515000858
:1000E0005515000855150008551500085515000848
:1000F0005515000855150008551500085515000838
:100100005515000855150008551500085515000827
:100110005515000855150008551500085515000817
:100120005515000855150008551500085515000807
:1001300055150008551500085515000855150008F7
:1001400055150008551500085515000855150008E7
:1001500055150008551500085515000855150008D7
:1001600055150008551500085515000855150008C7
:1001700055150008551500085515000855150008B7
:1001800055150008551500085515000855150008A7
:100190005515000855150008551500085515000897
:1001A0005515000855150008551500085515000887
:1001B0005515000855150008551500085515000877
:0801C000551500085515000853
:1001C80081F0004102E000BF83F0004330B54FEA00
:1001D80041044FEA430594EA050F08BF90EA020F6D
:1001E8001FBF54EA000C55EA020C7FEA645C7FEA00
:1001F800655C00F0E2804FEA5454D4EB5555B8BF23
:100208006D420CDD2C4480EA020281EA030382EA93
:10021800000083EA010180EA020281EA0303362D25
:1002280088BF30BD11F0004F4FEA01314FF4801CF8
:100238004CEA113102D0404261EB410113F0004F0A
:100248004FEA03334CEA133302D0524263EB4303C1
:1002580094EA050F00F0A780A4F10104D5F1200E5F
:100268000DDB02FA0EFC22FA05F2801841F10001BA
:1002780003FA0EF2801843FA05F359410EE0A5F18E
:1002880020050EF1200E012A03FA0EFC28BF4CF0BF
:10029800020C43FA05F3C01851EBE37101F0004575
:1002A80007D54FF0000EDCF1000C7EEB00006EEB82
:1002B8000101B1F5801F1BD3B1F5001F0CD349080C
:1002C8005FEA30004FEA3C0C04F101044FEA445263
:1002D80012F5800F80F09A80BCF1004F08BF5FEAEA
:1002E800500C50F1000041EB045141EA050130BDCA
:1002F8005FEA4C0C404141EB0101013C28BFB1F5DC
:10030800801FE9D291F0000F04BF01460020B1FA26
:1003180081F308BF2033A3F10B03B3F120020CDAF9
:100328000C3208DD02F1140CC2F10C0201FA0CF0D7
:1003380021FA02F10CE002F11402D8BFC2F1200C3C
:1003480001FA02F120FA0CFCDCBF41EA0C019040F2
:10035800E41AA2BF01EB0451294330BD6FEA04043B
:100368001F3C1CDA0C340EDC04F11404C4F1200226
:1003780020FA04F001FA02F340EA030021FA04F338
:1003880045EA030130BDC4F10C04C4F1200220FA8F
:1003980002F001FA04F340EA0300294630BD21FACD
:1003A80004F0294630BD94F0000F83F4801306BF93
:1003B80081F480110134013D4EE77FEA645C18BF87
:1003C8007FEA655C29D094EA050F08BF90EA020F1E
:1003D80005D054EA000C04BF1946104630BD91EA16
:1003E800030F1EBF0021002030BD5FEA545C05D119
:1003F8004000494128BF41F0004130BD14F5800458
:100408003CBF01F5801130BD01F0004545F0FE41CB
:1004180041F470014FF0000030BD7FEA645C1ABF00
:10042800194610467FEA655C1CBF0B46024650EA37
:10043800013406BF52EA033591EA030F41F4002163
:1004480030BD00BF90F0000F04BF0021704730B5E9
:100458004FF4806404F132044FF000054FF00001BE
:1004680050E700BF90F0000F04BF0021704730B57F
:100478004FF4806404F1320410F0004548BF404254
:100488004FF000013EE700BF42004FEAE2014FEAA9
:1004980031014FEA02701FBF12F07F4393F07F4F84
:1004A80081F06051704732F07F4208BF704793F087
:1004B8007F4F04BF41F40021704730B54FF460749A
:1004C80001F0004521F000411CE700BF50EA01029D
:1004D80008BF704730B54FF000050AE050EA010246
:1004E80008BF704730B511F0004502D5404261EBB6
:1004F80041014FF4806404F132045FEA915C3FF4F7
:10050800D8AE4FF003025FEADC0C18BF03325FEA93
:10051800DC0C18BF033202EBDC02C2F1200300FA44
:1005280003FC20FA02F001FA03FE40EA0E0021FA69
:1005380002F11444BDE600BF4FEA4102B2F1E043C4
:1005480024BFB3F5001CDCF1FE5C0DD901F0004CB2
:100558004FEAC0024CEA5070B2F1004F40EB830002
:1005680008BF20F00100704711F0804F21D113F12E
:100578003872BCBF01F00040704741F480114FEA67
:100588005252C2F11802C2F1200C10FA0CF320FAF0
:1005980002F018BF40F001004FEAC1234FEAD3230D
:1005A80003FA0CFC40EA0C0023FA02F34FEA430377
:1005B800CCE77FEA625307D150EA01331EBF4FF000
:1005C800FE4040F44000704701F0004040F0FE401B
:1005D80040F40000704700BF53B94AB9002908BF6A
:1005E80000281CBF4FF0FF314FF0FF3000F00CB86F
:1005F800ADF1080C6DE904CE00F012F8DDF804E066
:10060800DDE9022304B07047704700BF10F8012BE2
:1006180011F8013B012A28BF9A42F7D0D01A704737
:100628002DE9F04786468C460846089E15467446CE
:100638001946002B40F0C2808542B2FA82F245D9B1
:100648004AB1C2F1200300FA02FC2EFA03F39540E6
:1006580043EA0C0C94404FEA154EA8B2BCFBFEF8D6
:10066800230C0EFB18CC08FB00F943EA0C43994510
:1006780028D9EB1808F1FF3704D2994502D9A8F117
:1006880002072B44A3EB0903A4B2B3FBFEFC0EFB49
:100698001C330CFB00F044EA0344A04214D92C1983
:1006A8000CF1FF3304D2A04202D9ACF102032C446E
:1006B800241A43EA07401EB1D44000233460736013
:1006C800BDE8F0874746DDE76346F1E792BB431B89
:1006D80001214FEA154EAFB2B3FBFEFC200C0EFB16
:1006E8001C330CFB07F840EA0343984562D9EB1822
:1006F8000CF1FF3004D2984502D9ACF102002B442A
:10070800A3EB0803A4B2B3FBFEFC0EFB1C330CFBEB
:1007180007F744EA0344A7424ED92C190CF1FF33DA
:1007280004D2A74202D9ACF102032C44E41B43EAE9
:100738000040C0E7C2F1200320FA03F19540904041
:100748002EFA03F303434FEA154EAFB2B1FBFEFC9A
:100758000EFB1C10190C0CFB07F841EA00418845F8
:1007680004FA02F422D969180CF1FF3004D2884542
:1007780002D9ACF102002944A1EB08019BB2B1FBFC
:10078800FEFC0EFB1C110CFB07F743EA01439F42DA
:100798000ED9EB180CF1FF3104D29F4202D9ACF10B
:1007A80002012B44DB1B41EA004192E76046E3E784
:1007B8006146F7E76046A3E76346B7E7834206D991
:1007C80016B9002108467BE7C6E900E0F9E7B3FA65
:1007D80083F78FB9834201D3724508D8BEEB020470
:1007E80060EB030301209C461EB9002168E73846E8
:1007F800FAE7C6E9004CF8E7C7F1200CBB4022FA3B
:100808000CF41C432EFA0CF120FA0CF3B840014307
:100818004FEA14490EFA07F5B3FBF9F81FFA84FEFC
:1008280009FB18300B0C08FB0EFA43EA00439A4503
:1008380002FA07F240D9E31808F1FF3004D29A45CA
:1008480002D9A8F102002344A3EB0A0389B2B3FB3F
:10085800F9F809FB183308FB0EFE41EA03418E45FF
:100868002CD9611808F1FF3304D28E4502D9A8F1BA
:100878000203214443EA0040A0FB0298A1EB0E01C9
:100888004145CE46434602D306D14D4504D2B9EB85
:10089800020E68EB04030138002EA6D0B5EB0E0259
:1008A80061EB030101FA0CFC22FA07F34CEA03039B
:1008B800F940C6E9003198E74046C5E74346D9E71D
:1008C8002DE9F04F054687B0214F04AA0121BB68E6
:1008D800384602935B689847002832DB1D4B4FF07F
:1008E800FF39DFF87480DDE9044AA4FB03B203FB97
:1008F8000A2358460393039913A3D3E90023FFF768
:100908006BFED945039B064678EB030319D3A5FB79
:1009180004B405FB0A4458460BA3D3E90023214637
:10092800FFF75AFED945034678EB040409D38642FB
:1009380007D30022012138460092029A14683246F1
:10094800A04707B0BDE8F08F00CA9A3B000000003E
:10095800F86F0008002D3101FFC99A3B014802F0E9
:10096800B9BB00BF900001202DE9F341204DAC68D0
:10097800636C4BBB636B73BB1D4E1E4CDFF87880FA
:10098800AF68BB6923B301220DF1070130469847D0
:1009980001281DD19DF807107B68304698479DF8BF
:1009A80007200D2A01D00A2A1AD12268002308F844
:1009B80002302360002200230F49104805F091FD02
:1009C8000F4802F0D7FBDBE7284698470028D1D12B
:1009D80002B0BDE8F081064898470028CCD1F7E777
:1009E8002368302B9EBF591C08F803202160C7E7F5
:1009F800DC6F00084C03012000050120F4000120F1
:100A08001C01012070B500238CB001930022002343
:100A180001A90E4805F065FD0D4B02AA03F1200659
:100A280015461868083353F8041C1446B34203C427
:100A38002246F6D118689B882060A38000220023F4
:100A48002946044805F04DFD0CB070BDCC000120CE
:100A5800167A0008A4000120F0B52F4D95B02F4E4E
:100A68002F4805F04DF84FF0FF3207A94FF0FF333C
:100A7800284602F053FA04AB01AA314607A803F04E
:100A8800C1F84FF0FF324FF0FF33264802F0A6FBC3
:100A9800254907A8FFF7BAFD78B94FF0FF324FF0A4
:100AA800FF33224802F09EFA214B01221A70FFF709
:100AB80055FF204805F024F8D5E701A805F0E7FD23
:100AC800009004A805F0E3FD009B0446C3F164030D
:100AD800642B009301D91848ECE74FF0FF334FF02F
:100AE800FF32124802F07EFA114B1F78FFF736FFEB
:100AF8000FB91248DEE7002200236946104805F0C6
:100B0800F0FC00990F48C1F1640104F0F9FF214697
:100B18000D4804F0F5FFA6E7F4000120577A000815
:100B28003C7A00081C0101205F7A0008900001202F
:100B380058000120657A00088F7A0008A37A000817
:100B4800CC000120CB7A0008E37A00082DE9F041B7
:100B58004FF4D011BCB0544804F033FF4FF4D01117
:100B6800524804F02EFF524805F08DFC002800F092
:100B78009680504805F087FC002800F090804E4C85
:100B8800204605F080FC002800F089804FF4803171
:100B98004A4804F016FF0028C0F28180A56823693E
:100BA800AE69002E7BD01B684FF0A072032120464F
:100BB80013F0080F14BF4FF000734FF08063B04775
:100BC80000286CDB3E493F4B4B6008238B60EB6988
:100BD80013B1012220469847354CA3682BB19B6C72
:100BE8001BB10022384920469847A3689B6A0BB17D
:100BF8002F48984700220023344D14A8344F354914
:100C0800CDE9062300230522CDE90133CDE90323ED
:100C180000934FF48062304B02F062FB4FF0FF32DA
:100C28004FF0FF330AA92D4802F078F9DFF8B080B9
:100C3800044670B90AA92B4804F062FF4FF0FF324E
:100C48004FF0FF33284602F0CDF988F80040FFF74F
:100C580085FE002609960022002309A9224802F0F1
:100C68005DF94FF0FF324FF0FF33284602F0BAF932
:100C780098F80040FFF772FE7CB131460A4804F04C
:100C8800C0FE0A48012104F0BCFE09986423784399
:100C9800B0FBF3F0FFF714FEC0E72046FAE70020A8
:100CA8003CB0BDE8F08100BF787600087076000897
:100CB800DC6F0008F86F0008C46E0008687600084A
:100CC800400301200D0A0008710900089000012066
:100CD800002D310140050120610A0008A40001200F
:100CE80058000120ED7A0008CC000120014B1B6858
:100CF800184700BF00000120014B1860704700BF73
:100D08000000012030B585B004460D4610220021B0
:100D1800684605F0B4FC02232A4621468DF80230C5
:100D28006846034B019303F09FF805B030BD00BF40
:100D3800F50C000880B505460E461746984602F0A1
:100D480003FDDFF82090034606F00CF804464246FF
:100D580049F8003039463046A84754F8090000F0F1
:100D6800EBFA00BF08000000034A0020536823F094
:100D780002035360704700BF002004E0064B1A6866
:100D880042F400721A601A6842F480721A60034BC7
:100D9800034A1A60704700BF003C02404800012027
:100DA8000024F400014B036003207047807600089C
:100DB80006480021064A08B5121A04F0AFFE054895
:100DC800054A0021121A04F0A9FE08BD30010120CD
:100DD8003805012000000020000000200A480B4AC6
:100DE8000B49121A08B504F09BFE0A480A4A0B4937
:100DF800121A04F095FE0A480A4A0B49121ABDE86D
:100E0800084004F08DBE00BF000001202C01012025
:100E1800F88000080000012000000120F880000888
:100E280000000020000000202482000838B5054694
:100E38000C4699B11048D1E90123096804F060FE15
:100E4800E1680E48D4E9042304F05AFEE1690C482D
:100E580004F056FEA1690B4804F052FE012D05D19D
:100E6800EFF305810848103904F04AFE2146284668
:100E7800BDE8384001F0B8BE2C7B00085C7B000858
:100E88008C7B00089C7B0008CB7B000830BFFFF7F9
:100E9800FDBF00BF2DE9F0410B4E0546DFF82C8061
:100EA800324606EB0807CC1B0949204605F0D9FB5A
:100EB800A019083C4246002105F0E1FB07F10800B3
:100EC800C5F89040BDE8F08100000000080000006F
:100ED800D0730008054B5A699B689A4204D0044AAB
:100EE800536843F080535360704700BFD404012017
:100EF80000ED00E02DE9F843324D8046324889463E
:100F0800174604F0FDFDAB6ADE0622D511242F48F2
:100F180004F0F6FDAB6A1D0703D512242C4804F033
:100F2800EFFD284DAB6A980715D52A4804F0E8FD6F
:100F38006E6BAB6A190642D53146274804F0E0FDCE
:100F4800B9F1000F03D0AB6A23F08003AB6213241E
:100F580003E01024DEE76FF015061A4DAB6ADA07D6
:100F680003D514241D4804F0CBFDAB6A9B0603D5BA
:100F780015241B4804F0C4FD124B9A6AD50602D406
:100F88009A6A90070AD55B68190507D54146304625
:100F980000F092FA10B180F309880224094B9A6A8A
:100FA800920603D55A6A22F400525A629A6A204677
:100FB80042F0FF029A6200233B70BDE8F8836FF0AD
:100FC8001506C4E700ED00E0DF7B0008F67B0008AB
:100FD8002A7C00083E7C0008577C00086E7C0008CC
:100FE8008E7C000810B51D4C1D4804F089FDA36ACD
:100FF800990130D51B4804F083FD1E20A36ADA014D
:1010080003D5194804F07CFD1F20144CA36A1B0368
:1010180003D5164804F074FD2120A36A590303D5AB
:10102800134804F06DFD22200C4CA36A9A0303D5E3
:10103800104804F065FD2320A36ADB0303D50E489E
:1010480004F05EFD2420054A936A6FEA03436FEAC1
:101058001343936210BD1D20D0E700BF00ED00E0F0
:10106800BE7C0008D77C0008EB7C0008067D0008E1
:10107800257D00084B7D0008667D000870B5244C6E
:10108800064624480D4604F03BFDA36AD90435D52D
:10109800214804F035FD1720A36A1A0503D51F4817
:1010A80004F02EFD18201A4CA36A9B050FD51C4886
:1010B80004F026FDA16BA36A180407D5194804F0AB
:1010C8001FFD1EB1A36A23F40043A3621920104C2C
:1010D800A36A590503D5144804F012FD1A20A36A1F
:1010E800DA050DD5114804F00BFD1B20084A936A58
:1010F80043F47F43936200232B7070BD1620CBE727
:10110800A36A9B04F2D50A4804F0FAFC1C20EDE718
:1011180000ED00E0927D0008A97D00082A7C000807
:10112800BB7D0008D57D0008EB7D0008077E000820
:101138008E7C00085D4B2DE9F0415F688AB004465B
:101148000025C7F3080685F31188BFF36F8F02F0F7
:101158007F43B3F17F4F06D102F00C03082B13D164
:10116800534804F0CDFC00252C464FF00008F31E30
:101178008DF80780092B00F28780DFE803F00A7BEF
:101188007F7785858585858310074CBF0C460125AB
:10119800EBE7464E474804F0B3FC8DF80780F36A46
:1011A8009A0704D5444804F0ABFC002330E0F36A06
:1011B800002B01DA4148F6E7F36A5B00F5D54048B1
:1011C80004F09EFC7369A26943F480737361BFF3F2
:1011D8004F8FBFF36F8F736932F8022C23F480733B
:1011E8007361BFF34F8FBFF36F8F4DF602739A424F
:1011F80009D0B36ADBB25BB30DF1070201212046C7
:10120800FFF778FE34E021682E4804F079FC236863
:101218009DF80720CAB902AE04F1200720680834F7
:1012280054F8041C3246BC4203C21646F6D1099A49
:10123800B5B3C2F3080121B96FEA52226FEA42221C
:10124800099202A91846FFF7F1FD0AB0BDE8F0813E
:10125800B36A13F47F4F05D00DF107010120FFF7A2
:101268000DFF05E0B36AB3F5803F9ED3FFF7BAFEE2
:101278000346CDE70DF107020021C0E70DF1070194
:101288000020ECE710488EE717F4F87F0F4B104961
:10129800A6F1100218BF19460E4804F031FC84E785
:1012A80022F4FF7222F00102CAE700BF00ED00E05D
:1012B8004E7E00087A7E0008927E0008B47E000800
:1012C800C37E0008E37E0008007F0008357E000822
:1012D800207E0008257F0008044B5A6942F010025E
:1012E8005A615A6922F008025A61704700ED00E01D
:1012F800EFF30880EFF3098101B57246FFF71AFF93
:1013080001BD00BF0A4880F30888102080F31188C7
:1013180008484FF40461401880F30988EFF31480FB
:101328000221084380F31488BFF36F8F00F090F810
:101338004017012080090120084B9B6883420BD18C
:10134800EFF3058343B1064B5A6842F080525A6066
:101358005A6A22F400425A6202F0FCB9D40401200D
:1013680000ED00E015498A684FF030001044EFF3B3
:10137800098C80E8F01F102080F31288BFF36F8F6C
:101388000F4F4FF000664A698A603E60D2F89000BD
:101398000C4C2060D2F894000023C2F8943080F3FB
:1013A800118804B5104600F0EFF8BDE8044002F1DA
:1013B800300090E8F01F8CF309887047D4040120AE
:1013C80004ED00E0500301201EF0040F0CBFEFF302
:1013D8000880EFF30980816911F8021C0229FFD007
:1013E80001B5724604F09EFB01BD00BF40B2002863
:1013F80007DB0123410900F01F00024A834042F83D
:101408002130704700E100E040B2013100284FEA86
:101418000111C9B206DB00F1604000F5614080F8B7
:101428000013704700F00F00014B1954704700BFBC
:1014380014ED00E0044B054A23F07F039360BFF3EB
:101448004F8FBFF36F8F70470000000800ED00E07A
:1014580008B5FFF7EFFF0B4AD2F8883023F4700382
:10146800C2F88830EFF3148323F0040383F314885D
:10147800BFF36F8FFFF79CFCFFF7B0FC00F05AF842
:1014880001F07EFC00ED00E042F8203C203A009B91
:1014980008495360019B21F001019360029B91610F
:1014A800D3604FF08073D36100230265C0F8943095
:1014B800704700BF3D0D00080A4A0346906878B19E
:1014C80013F1160FD0F8800005D0A0F140029A421F
:1014D80005D8834203D2814228BF002070470020EC
:1014E800704700BFD404012015460D4A0E4608B5C2
:1014F8000C4B9060D0F890201A6000F045F82C460C
:1015080086F309880020044B9847204600210022D2
:101518000023024C20470000515B00083D0D0008E5
:10152800D404012050030120014B10221A61704796
:1015380000ED00E0002304481021C2180133622B9B
:1015480082F80013F9D1704700E100E008B5EFF325
:101558000583064A103B02EBC30152F83300496881
:101568008847BDE80840FFF7B5BC00BF1470000805
:10157800024B0121024A034800F078B80000052018
:1015880000000120B0760008D0F880204021054BEB
:10159800403A18461A60044AC3E90112012100F0D2
:1015A8006FB800BF5403012000000B15084AC2F8A9
:1015B80098000B6823F01F03034343F01003C2F89D
:1015C8009C308B6843F00103C2F8A030704700BF1D
:1015D80000ED00E02DE9F0430E4685B01F460446B5
:1015E8004FF00009DFF85480B14523DA6068D8B1BC
:1015F8003FB1411E08421BD11F2819D9236819423F
:1016080016D12368019304F0B3FAA3680343D0B258
:101618000393D8F89050C5F30725013DA84207D891
:1016280001A9FFF7C3FF421C09F101090C34DBE7EC
:101638006FF01502104605B0BDE8F08300ED00E03C
:10164800044B0522C3F89420BFF34F8FBFF36F8F6D
:10165800704700BF00ED00E0BFF35F8F024B002230
:10166800C3F89420704700BF00ED00E010B5034CAC
:1016780001232278FFF7AEFF207010BD320501204C
:101688000B4A08B500231278FFF7A4FF10F1160FD4
:1016980007D0084A0021D2F89030C3F307239842B4
:1016A80000DB08BDC2F898000130C2F8A010F2E7CC
:1016B8003205012000ED00E05C4B2DE9F0435C4C65
:1016C80085B0D3F890302568C3F307239D4200F214
:1016D800A98000200C26FFF7BFFF85421BD1554C7F
:1016E8006846554F2570FFF75DFB00250646DFF875
:1016F8003C81DFF84891AE4214D1237800204B4951
:10170800D1F89020C2F307229342C0F285800020CE
:10171800FFF796FF45E0616806FB0011FFF746FFFB
:101728000130DAE700984FEA051C00EB0511CB6899
:101738003B40B3F5000F4DD00AD8B3F5001F33D0A6
:10174800B3F5800F3BD0B3F5801F13D00135D2E736
:10175800B3F1007F47D0B3F1805F4DD0B3F1807F04
:10176800F4D150F80C30886804F002FA4A6840F066
:10177800887009E050F80C30886804F0F9F940F0F6
:1017880088504A6840F4302003902078CDE901233E
:10179800D8F89030C3F30723013B984235D96FF04E
:1017A800150005B0BDE8F08350F80C30886804F0E7
:1017B800DFF940F088504A6840F40020E4E750F828
:1017C8000C30886804F0D4F940F0C0604A6840F4EE
:1017D8000030D9E750F80C30886804F0C9F94A6835
:1017E80040F08270D0E750F80C30886804F0C0F9F7
:1017F8004A6840F48020C7E750F80C30886804F045
:10180800B7F94A6840EA0900BEE701A9FFF7CEFE2A
:1018180023780133237099E7C1F898300133C1F870
:10182800A0006DE74FF0FF30BBE700BF00ED00E020
:10183800BC760008320501200000F0FF000002110C
:1018480008B5024B1B689847002008BD60030120BB
:10185800034B044A1860937843F00203937070476F
:1018680060030120040001200649074821F0070110
:10187800C1F1005208B502F5A02204F002F90020D7
:1018880008BD00BF7B1801206403012013B50C4C70
:10189800204604F0F8FD68B10A4A6B4692E8030056
:1018A800A26883E8030012683AB1194620469047B7
:1018B80002B010BD6FF01200FAE76FF05700F7E7BB
:1018C800386E0008D07300081F2809D8012303FACE
:1018D80000F0044B5B6998430CBF0120002070475F
:1018E80000207047003C014000F01F0201231F2820
:1018F80003FA02F303D8034A0020536170476FF0DC
:1019080015007047003C0140044B18440023013384
:1019180000F8012B9942FADC704700BF59000120FA
:101928002DE9F041054600260F4F4FF00108F4B2AB
:101938006B78A34201D8BDE8F0812B781C4420467F
:10194800FFF7C2FF68B12046FFF7CEFF57F83430E3
:101958003BB107EBC40204F01F04516808FA04F015
:1019680098470136E3E700BF70030120034660B1E2
:10197800B0FA80F2C2F11F02D2B205498856054A70
:1019880011680B431360FFF731BDFF22F5E700BF75
:1019980059000120003C0140024A136823EA000371
:1019A80013607047003C0140032921D8DFE801F0AB
:1019B800020C10190F4B9A6822EA00029A60DA6842
:1019C80022EA0002DA6070470A4B9A680243F5E798
:1019D800084BDA680243DA609A6822EA00029A60E1
:1019E8007047044B9A6802439A60DA681043D860DB
:1019F800704700BF003C014030B5B0B1B0FA80F389
:101A0800C3F11F03DBB20B4850F833408C4204D1BA
:101A180000EBC3056D68954205D044B940F8331012
:101A280000EBC3004260002030BDFF23EBE76FF0FE
:101A38000F00F9E77003012060B1B0FA80F3C3F139
:101A48001F03DBB2044A002142F8331002EBC30241
:101A580051607047FF23F5E77003012000F003028F
:101A68000F23043292009340074A43EA9000C3B21E
:101A7800023352F82320030C93FAA3F302EA10402E
:101A8800B3FA83F3D84070470038014038B5354B76
:101A980014460D4618680B888208C3F30B03112BF4
:101AA80019D8FBB1013B102B1CD8DFE803F00B124F
:101AB80009125026301B24520B1B1B1B1B3C4600D3
:101AC8004FF4FA4020602B68B3F5805F43D20020C2
:101AD80038BD0020F6E7382BF4D006D823F00403ED
:101AE800302BEFD06FF08500F2E7442B0DD0A82BF8
:101AF800E8D0402BF6D11046E4E700F0EFF81923C0
:101B0800B0FBF3F04FF4D87358434008DAE700F01D
:101B1800E5F81923B0FBF3F04FF4D87358430923C1
:101B2800B0FBF3F0CEE700F00DF91923B0FBF3F0AA
:101B38004FF4C07358430523F2E700F003F9192363
:101B4800B0FBF3F04FF4C07358432823E8E7064886
:101B5800B8E75000B6E7C3F313330133B0FBF3F033
:101B68002060B4E74800012040787D01112808D89A
:101B7800054BC34013F0010F14BF00206FF0850020
:101B880070476FF085007047EA0E030070B54E4D40
:101B980000F0FEF84D4C284604F0E9F800F086FF06
:101BA800A3684B4AC3F30313D35C20FA03F61378F4
:101BB8001D41AE4202D2284600F0A6FF236823F456
:101BC80080232360236843F4803323603F4B1A68E3
:101BD8009103FCD55A6F42F001025A675A6F920777
:101BE800FCD59A6802F00C02082A17D11A689407E3
:101BF80007D41A6842F001021A60344A1368980739
:101C0800FCD5324B9A6822F003029A609A6812F067
:101C18000C0FFBD19A6822F0F0029A602B4C2368D3
:101C280023F08073236023689901FCD4294AD2F8F1
:101C3800043823F44033C2F80438D2F8043823F0C7
:101C4800706343F01063C2F8043800F04BF823685F
:101C580043F0807323601D4C23689A01FCD500F083
:101C680075F8236843F08053236023689B00FCD5F4
:101C7800A36823F0F003A360A36823F0030343F0F1
:101C88000203A360114CA36803F00C03082BFAD1DC
:101C9800AE4202D3284600F037FF0F4B00200A4A15
:101CA8001A60A36823F4E05343F4A053A360A36825
:101CB80023F4604343F40043A360D4F88C3023F04A
:101CC8008073C4F88C3070BD00E6DF0C0038024029
:101CD8007480000800300240480001200048704726
:101CE80040787D01114B12495A681140114A0A4344
:101CF80011495A605A681140104A0A435A601A68D2
:101D080042F080721A60A3F5E4331A6842F4803214
:101D18001A605A68D203FCD51A6842F400321A6075
:101D2800074A53689B03FCD5704700BF0038024040
:101D38000080BCFF196C40000080BFF0196C40099E
:101D4800007000400048704740787D010E4A536893
:101D580023F4800323F03F0343F4800343F0190383
:101D680053600A4BD2F888100B4043F0A04343F469
:101D7800C043C2F88830D2F88C3023F4403343F49F
:101D88000033C2F88C307047003802403F80FF8F24
:101D9800064B82B01A6C42F080521A641B6C03F036
:101DA80080530193019B02B0704700BF0038024086
:101DB80008B5074804F067FB38B10648FFF748FD47
:101DC8000448FEF799FF002008BD6FF01200FBE7FA
:101DD800DC6F0008E11D00080A2838B50446074DE5
:101DE80004D1AB680D2128465B689847AB68E1B21F
:101DF80002485B689847204638BD00BFDC6F000882
:101E08002DE9F843D0F804801746D0F810900D4615
:101E1800D8F808001E4603F009FFB7F5001F04466E
:101E280016D1D8F808402846FFF718FE84420CD18E
:101E3800294603F0FBFE0446FFF7AEFD2046FFF7F8
:101E4800FBFD00212046FFF7AFFD0020BDE8F88329
:101E5800B7F5800F20D0B6F1806F19D0B6F1C06FFA
:101E680018D0B6F1007F1AD102264A460F492046FB
:101E7800FFF7C2FDB0B9D8F80810284603F0DBFE1A
:101E880020463146FFF790FD2046FFF76FFDDCE75F
:101E98000126EAE70326E8E76FF08500D6E76FF04A
:101EA8001500D3E76FF00F00D0E700BFF95F000817
:101EB80038B50369044658600A4D284604F0E3FA29
:101EC80060B1AB6861681B680C3123B1284698473C
:101ED80000EAE07038BD6FF05700F9E76FF01200C4
:101EE800F8E700BF386E00082DE9F047044600EB1C
:101EF800C10600251C4FB44201D1002014E020681F
:101F0800C30600F01F0911D4656845F02005C0F329
:101F1800481AC0F34420192823D857F82080B8F16C
:101F2800000F0DD16FF01200BDE8F087B9F1100F66
:101F380004D0B9F1110FEAD16568E8E73025E6E782
:101F4800404604F0A0FA0028ECD04B462A460AF096
:101F58000F01404604F062F8002804F10804CADAC8
:101F6800E2E76FF01500DFE7B87700082DE9F041E8
:101F78000C461946436804F1FF3CBDF818701D680B
:101F8800BCF1050F21D8B5F1804F06D0994885429C
:101F980003D0B2F5803F00F229819748032C50F80E
:101FA8002C6007F4807009D978B9344682B92B6A55
:101FB80023EA04032B620020BDE8F0810028F4D056
:101FC8008E4850F82C40002CF0D16FF01500F3E744
:101FD8009B68002B40F0988002F1FF3807F001025F
:101FE800B4F5807F4FEA420200F0AB8000F29E8099
:101FF800102C00F0A88000F29580012C00F0A5803C
:10200800042C08BF012018BF08207D4F2B6A385CBC
:10201800022707FA00FE8240284623EA0E031343EC
:102028002B62784B53F82C309847C5F82C802B6AD4
:1020380034EA0303BFD0B6F5807F00F09B8000F23E
:102048008E80102E00F0988000F28580012E00F01E
:102058009580042E08BF012318BF08236A4F05F195
:1020680018016A48B4F5807F17F803C010F803E038
:10207800674B51F80C2003FA0EF322EA03034FF0E2
:10208800600202FA0EF243EA020341F80C3000F053
:102098008A807DD8102C00F0888075D8012C00F03B
:1020A8008680042C08BF012318BF0823DFF864C109
:1020B800B6F5807F6A681CF803C04FF4807303FA92
:1020C8000CF322EA03036B602B6A44EA03042C62D4
:1020D8002B6843F080032B607ED072D8102E7DD001
:1020E8006BD8012E7CD0042E08BF012318BF08230B
:1020F800FA5CC05C08238C58834023438B506B697F
:1021080043F001036B6156E7102B01D1013963E7F6
:1021180023F04000202801D0402B67D149084FEA1E
:1021280052085BE7402C08BF03206CE7B4F5805FDA
:102138000DD0B4F5803F0CD0B4F5806F08BF0520F2
:1021480061E7042061E702205FE700205DE70620E1
:102158005BE7072059E7402E08BF03237CE7B6F565
:10216800805F0DD0B6F5803F0CD0B6F5806F08BF04
:10217800052371E7042371E73B466FE700236DE70A
:1021880006236BE7072369E7402C08BF03238BE787
:10219800B4F5805F0DD0B4F5803F0CD0B4F5806FF6
:1021A80008BF052380E7042380E702237EE7002396
:1021B8007CE706237AE7072378E7402E08BF032346
:1021C80094E7B6F5805F0DD0B6F5803F0CD0B6F534
:1021D800806F08BF052389E7042389E7022387E77F
:1021E800002385E7062383E7072381E76FF085004F
:1021F800E2E600BF000C0040887800087C78000800
:1022080028800008647800083A80000831800008B7
:10221800730001001F8000082DE9F7434668D0F8D5
:1022280010803468564F384604F02DF9002800F025
:10223800A180D7F808903169D9F800302BB96FF030
:102248005705284603B0BDE8F08338469847051E71
:10225800F7DB7369012B40F290803169D9F81830A7
:102268000831002BEBD00022384698470546002855
:10227800E7D13169D9F80C300831002BDFD06A4634
:102288003846984700280FDB009BD8E90101C8F8B9
:1022980000308368DB6803B1984701AA0021B06960
:1022A80003F0D4FE002801DA0546CAE7019B0022A4
:1022B80019791868FFF718FE0028F5DB7368002203
:1022C800A362304BE2629C4212D0B4F1804F29D015
:1022D800A3F57C439C4225D003F580639C4221D022
:1022E80003F580639C421DD003F578439C4224D1BA
:1022F8002368B16823F070030B432360236823F439
:10230800407323602263636CF26823F0FF03134376
:102318006364636C43F400436364236843F001031C
:1023280023608EE72368B26823F0700313432360A9
:10233800236823F44073236009E0134B9C42F7D0D1
:10234800124B9C4209D11A6822F440721A60F36851
:10235800002BE2D06FF0850573E70D4B9C42E7D068
:102368000C4B9C42E4D00C4B9C42E1D00B4B9C4262
:10237800EDD1DDE76FF0120563E76FF0150560E753
:10238800386E000800000140004001400044014050
:102398000048014000180040001C00400020004098
:1023A80043681B6803F1080252E8002F42F001025B
:1023B80003F1080040E800210029F3D1154A9342AF
:1023C8001BD0A2F54C42934217D002F5806293428B
:1023D80013D002F5806293420FD002F580629342D7
:1023E8000BD002F54442934207D0A2F51C42934217
:1023F80003D002F58062934203D15A6842F040024A
:102408005A6053E8002F42F4807243E80021002903
:10241800F7D170470010014043681B6803F10802B8
:1024280052E8002F22F0010203F1080040E80021E1
:102438000029F3D1154A93421BD0A2F54C4293428E
:1024480017D002F58062934213D002F5806293425E
:102458000FD002F5806293420BD002F544429342BA
:1024680007D0A2F51C42934203D002F58062934242
:1024780003D15A6822F040025A6053E8002F22F430
:10248800807243E800210029F7D17047001001400D
:10249800F8B50C46036941681D682379012B15D0EE
:1024A8009F1E7E427E41B6026279022A96BF474F3E
:1024B8004FF4005737F81270A279022A09D0042A7B
:1024C80031D0003B18BF01231B0306E04FF4C06660
:1024D800EAE7B3FA83F35B091B07E2790968012A83
:1024E80014BF4FF0000C4FF4407CA5421ED10A687F
:1024F80022F0805222F4B05232431A430A604B68E9
:1025080023F440533B434B6043681A68936823F4B1
:10251800407343EA0C0393602968406803F093FE14
:1025280000EAE070F8BD4FF48053D6E7D1F800E038
:102538000EF4C06E764506D0D1F800E02EF4C06ED9
:102548004EEA06060E6041680E68716801F4405153
:102558008F4204D0716821F4405139437160416859
:102568000E68316801F010218B4204D0316821F0E7
:1025780010210B433360436819688B6803F4407378
:102588009C4505D08B6823F4407343EA0C038B60A9
:1025980043681B689968490405D5032A09D09A68D5
:1025A80022F4804204E0032A03D19A6842F480426C
:1025B8009A6021682B68994206D0406803F043FE70
:1025C8000028AFDB23682B600020ABE7107A0008F7
:1025D8002DE9F34147680646786803F054FF20B9AF
:1025E8006FF0120002B0BDE8F0817868396983683D
:1025F8001B68002B00F0978098470028F2DB01AA9F
:102608000021786A03F022FD0028EBDB019B002201
:1026180019791868FFF768FC0028E3DB75683369E7
:102628002C68D3F80080236823F001032360A8688E
:1026380003F029FF0028D3D0D5E902018368DB68BD
:1026480003B1984754E8003F43F00C0344E80032D4
:10265800002AF7D141463046FFF71AFF002802DA70
:102668006FF01500BEE72B7E1BB1A36843F008038B
:10267800A3606B7E1BB1636843F400436360AB7E69
:102688001BB1636843F480336360EB7E1BB16368FE
:1026980043F4003363602B7F002B38D0234B9C42DC
:1026A8001BD0A3F54C439C4217D003F580639C4292
:1026B80013D003F580639C420FD003F580639C42DE
:1026C8000BD003F544439C4207D0A3F51C439C421E
:1026D80003D003F580639C42C2D173681A6893687B
:1026E80043F48043936023686A7F23F0787343EA56
:1026F800425323602368AA7F23F4F81343EA024372
:102708002360EB7F1BB1A36843F40043A3602368F5
:1027180043F001032360E3699B02FCD53046BB6AA2
:10272800984700205EE76FF057005BE70010014014
:10273800F8B5436802460E4691F805E01C6803693F
:1027480008791D6801288B7913D1BEF1020F69D968
:10275800022B1F464FF4C0614FF4005C7AD0042B63
:1027680073D000287BD0C31E012B70D86FF0850072
:10277800F8BD02280AD1BEF1020F5FD9022B1F460D
:102788004FF480610BD04FF4005CE8E7BEF1020F14
:1027980057D9022B1F4656D100286BD00021C31EE3
:1027A800012BE3D90020022703237345DED103F070
:1027B800B4FCB842DAD1F37903B3012B62D1334BBD
:1027C8009C421BD0A3F54C439C4217D003F5806371
:1027D8009C4213D003F580639C420FD003F58063BD
:1027E8009C420BD003F544439C4207D0A3F51C43FD
:1027F8009C4203D003F580639C42B7D123683146DD
:10280800104623F001032360FFF742FE0028ADDBEA
:10281800236843F00103236096E8030085E803007A
:102828000020A5E74FF4C061194F022B37F81EC0EE
:102838001F4694D170B94FF0805010E04FF480617A
:10284800F2E70021F0E700219DE700288ED14FF440
:10285800805004E0C31E012B88D902270020BCF554
:10286800805F0BD0BCF5405F0AD0BCF1000F9BD154
:1028780001239AE701464FF0805095E7002394E73B
:10288800022392E7032B9AD070E700BF00100140A3
:10289800107A00084FF0E0230F4910B59C691A69B7
:1028A80008689B6902F480320C4934B993B903462D
:1028B8004AB90A681044C01A10BD002B08BF034665
:1028C8000AB9A342F5D90A6802440A604FF0E02227
:1028D8001269EEE70446F3E7D0040120CC04012096
:1028E800084B1022002083F82320074B074A1A6060
:1028F800013A074B18604FF0E0235A6107229861AC
:102908001A61704700ED00E0D0040120C04B0300BD
:10291800CC040120684620F007018D4619B5FFF761
:10292800B9FF1049104B0868D3E90042001942F179
:102938000002C3E900020D4A00230B600C4BD2E9E8
:102948000041001BB0FBF3F043431B1941F10001A8
:10295800C2E9003101F0DEF8FEF7BCFABDE8194023
:1029680085467047CC040120380101203001012040
:10297800C04B03002DE9F041DFF8DC8099B1421C1F
:102988000BD14FF0E022136923F0010313614FF0DC
:102998007F43C8F80030BDE8F081D8F8006001280E
:1029A80006DC002708E0431CD8F80060F7D14C206B
:1029B8004D28A8BF4D20471EEFF31185102383F340
:1029C8001288BFF36F8FFFF765FF244C4FF0E023A9
:1029D8009969D4E9002380184FF0000243F10003FD
:1029E800C4E900031E4B1A601E4B1A68831A2FD4C1
:1029F800DFF874C00CFB073303F5523303F2BF331F
:102A0800B3FBFCF7131A43F2BC420CFB07339342A7
:102A180038BF1346154A934228BF1346C8F80030FA
:102A28004FF0E022013B906953610023814293619A
:102A3800A1EB0003D4E9001238BF9B195B1842F1DF
:102A48000002C4E9003285F31188BFF36F8FA2E753
:102A580043F2BC43E2E700BFD00401203801012063
:102A6800CC04012030010120C04B0300007DFA0096
:102A780038B5EFF31185102383F31288BFF36F8FF6
:102A8800074B1C68074B1B68E41AFFF703FF85F325
:102A98001188BFF36F8F044B2044B0FBF3F038BDAF
:102AA8003801012030010120C04B0300134908B54B
:102AB8008B6803F00C03042B1BD0082B1BD14A682E
:102AC8004B68496802F03F0213F48003C1F3881190
:102AD8001ABF0B4800230B48A1FB0001FDF77CFD42
:102AE800064B5B68C3F3014301335B00B0FBF3F0B3
:102AF80008BD0348FCE70348FAE700BF0038024076
:102B080040787D010024F40000285DD02F4B1A681E
:102B18001B6802F44042B2F5404F33D113F48033BE
:102B280010D102F10F6202F58C52904248D8284A1F
:102B3800904247D8274A904235D8274A904209D927
:102B480002230DE0254B984238D8234B98424FF08A
:102B5800060305D8224A904202D9012B38BF012327
:102B680020490A6822F00F021A430A600A6802F034
:102B78000F02934202D00A6802F00F02981A18BF97
:102B88000120704703F44043B3F5004F05D103F12A
:102B98000F6303F5A343984212D80D4B984211D8FE
:102BA8000C4B984201D90323DAE70B4B9842C7D85C
:102BB8000B4B984294BF00230123D1E70723CFE7AB
:102BC8000523CDE70423CBE70120704700700040C0
:102BD800000E2707804A5D05008793038058840C00
:102BE80080C3C901003C024038B5EFF311851023BA
:102BF80083F31288BFF36F8F064B9C6803F056FC73
:102C080085F31188BFF36F8F2046BDE83840FEF783
:102C180093BB00BFD404012038B50A4B53F82040B9
:102C2800013053F82050A54200D838BD606830B153
:102C3800037EDB0701D403F00EFC0834F3E72368B6
:102C48009847FAE74C7900082A4B0122032070B50F
:102C5800294C86B0294D1A70FFF7DEFF00F0BAFF45
:102C68000420FFF7D9FF26463034AE4210D3224C59
:102C780000F0F6FC224EAC4226D300F005FDFDF72D
:102C880065FF204A137B23F00103137306B070BD60
:102C980054F80C3C059354F8103C049354F8143C35
:102CA800039354F8183C029354F81C3C019354F8CD
:102CB800203C009354E90A2354E90C0100F0B4FACB
:102CC80054F8303C5E65CEE7D4E90A23B3F1FF3F00
:102CD80008BFB2F1FF3F05D052EA0301206803D1D3
:102CE80000F00EFD3034C6E73146183000F082FEA1
:102CF800F8E700BF33050120247300082473000897
:102D0800D5650008E001012070B5A023164E86B0F5
:102D1800012203FB0066154B154D044605930F234E
:102D28001449CDE9033200234FF4A072CDE90133F1
:102D3800142303FB00554FF4C0700F4B00FB041124
:102D48003046009500F070FA737B0C4A23F00403B8
:102D5800EE602C7473734FF4046304FB0333134461
:102D68006B6006B070BD00BF400101208480000880
:102D7800D4040120C0110120BB640008800901208F
:102D8800BFB50020FFF748FF274B83F30888274C7F
:102D98000025F023264F84F82230E57725766576DE
:102DA800A57684F82050636A43F4E0236362FEF753
:102DB80093FAFEF7B9FB4FF0FF33A362E362FEF725
:102DC8007BFC1C4CFEF7D4FB1B4800F0B5FAFDF762
:102DD800D5FF0120FFF720FF0220FFF71DFF00F0BD
:102DE80087FC164B012216495C612046154B00955D
:102DF80005930523CDE90155CDE903323B464FF450
:102E0800806200F011FA627B0646204622F0040236
:102E1800627303F0AFFB2846FFF776FF3A46314668
:102E28002046FEF761FB00BFC011012000ED00E065
:102E3800512C0008E001012080020120D404012067
:102E480040130120898000082DE9F34104460E460D
:102E58009DF8200004F10808EFF31187102181F391
:102E68001288BFF36F8F256AE1688D4242D22568C8
:102E7800AC421AD0CDB1284603F026FB05F1180064
:102E880003F0BFFBA26800243146286903F0E9FB80
:102E98002846C5F8984003F06DFB4046394600F0D7
:102EA800B9FB204602B0BDE8F081A268A8B131465E
:102EB800E06903F0D6FBE369A268134462699342B0
:102EC800E36101D12369E361236A002001332362AE
:102ED80087F31188BFF36F8FE4E7A16923699942EB
:102EE800314604BF6369A361A069801AA06103F039
:102EF800B8FBE9E752EA03010AD007494046896866
:102F08000E613946CDE90023224600F0EFFAC9E701
:102F18006FF02200DCE700BFD4040120F7B50446B7
:102F2800084604F10807EFF31186102181F312888F
:102F3800BFF36F8F216A00293AD0A268A16903F014
:102F480090FBA369A2682568134462699342A36150
:102F580004BF2369A361AC42236A03F1FF332362F0
:102F680034D02846002D32D003F0AEFA05F118000F
:102F780003F047FBA2682969E06903F072FBE36983
:102F8800A2682846134462699342E36104BF236937
:102F9800E361236A013323620024C5F8984003F0F3
:102FA800E9FA3846314600F035FB204603B0F0BD5B
:102FB80052EA030110D00A49896808613146384647
:102FC800CDE90023224600F091FAEFE7002086F3CE
:102FD8001188BFF36F8FE9E76FF02200F7E700BFB2
:102FE800D40401202DE9F341044617461E46EFF3A9
:102FF8001188102383F31288BFF36F8FC368334A95
:103008007BB180689168884219D057EA060318D1C5
:1030180088F31188BFF36F8F6FF00F0002B0BDE81F
:10302800F081916891F90E1001332161E360936892
:10303800A36088F31188BFF36F8F0020EEE7216942
:10304800F2E791F90E106FF07E0290F90E30994276
:10305800A8BF19469142B8BF11468B422DDD03F037
:1030680047FA0546224641461948CDE9007600F060
:103078003DFA0028E1D0EFF31186102383F312887C
:10308800BFF36F8FA068D0B1236821699C420AD032
:103098004BB193F90E309942A8BF19466FF07E03E1
:1030A8009942B8BF194603F023FA40B1314608489F
:1030B80000F0B0FA6FF00A00B0E70025D2E7002D63
:1030C800F4D186F31188BFF36F8FF3E7D40401209E
:1030D80034050120F8B583680546002B40D0234A03
:1030E800926893423FD1C368012B03D9013BC36067
:1030F8000020F8BDEFF31187102383F31288BFF384
:103108006F8F0169806803F0F3F92C68A54207D135
:103118000023C5E9023387F31188BFF36F8FE7E710
:10312800002CF5D0002604F11800D4E90032136011
:103138005A60637BA66023F00203C4E900666373E8
:1031480003F05FFAAC6094F90E3020462B61C4F8A6
:10315800986003F00FFA3946054800F05BFAC7E7B4
:103168006FF01500C5E74FF0FF30C2E7D404012027
:103178003405012070B5EFF31186102383F312880C
:10318800BFF36F8F0468A0421BD0D4B1002504F1AF
:103198001800D4E9003213605A60637BA56023F0FD
:1031A8000203C4E90055637303F02BFA2046C4F800
:1031B800985003F0DFF931460748BDE8704000F049
:1031C80029BAD0E902329A4218BF0133836086F3E4
:1031D8001188BFF36F8F70BD3405012013B5EFF36D
:1031E8001181102484F31288BFF36F8F846844B16F
:1031F800013C846081F31188BFF36F8F002002B017
:1032080010BD52EA030406D181F31188BFF36F8F12
:103218006FF00F00F3E7CDE900230246014800F004
:1032280065F9ECE7340501202DE9FF4707320E4622
:103238009846109922F0070200F1580301730421FF
:103248007F320446417306F1400A22F03F02119F83
:10325800C0E9163300233F2AA2F1400983600F9882
:10326800E373A073C4E9063305D883F31188BFF369
:103278006F8F084602DFB51820462946FDF70AFE7B
:1032880007300E9B314620F007000026C4F888005E
:103298002D1A20462A46C4E920A902930D9B0193C2
:1032A8000C9B00934346FEF7EFF8666597B11F2223
:1032B800394604F1600003F0FBF984F87F60074B9E
:1032C8009B680BB1D3F88C302846C4F88C3004B016
:1032D800BDE8F08784F86070F1E700BFD4040120EE
:1032E800F0B5002587B004460595109D04950F9DFF
:1032F80003950E9D02950D9D01950C9DDDE91276B5
:103308000095FFF791FFB6F1FF3F08BFB7F1FF3F08
:1033180005D056EA070305D1204600F0F1F920460A
:1033280007B0F0BD3A46334604F11800014900F0F1
:1033380061FBF4E7D565000840F20113838100239F
:10334800C0E92033C0F88C30014B9860704700BF4B
:10335800D40401200A4A6FF00A019368C3F8981050
:103368000849C3F894004B6843F080534B6000232E
:1033780083F31188BFF36F8F9368D3F89800704771
:10338800D404012000ED00E070B590F90D20437BD6
:10339800002A36DBD90634D11B4C63F07F03224662
:1033A8004373E16952F8183F934207D1C0E90021FD
:1033B8000860E06111E09942F8D01B68002BF5D055
:1033C80090F90E5093F90E60B542F4D0AE42F2DD9A
:1033D8005968C0E9003108605860A569954200D075
:1033E80005B9E568A3685A7BD20604D1DA897F2A31
:1033F80001D9AA6932B1AB4202D0284600F07AFA64
:10340800656170BD6361FCE7D404012038B590F9AB
:103418000D200146437B002A04DA03F07F0343733F
:1034280003F06EF80D4D2A46AB6852F8184F9442D7
:1034380000D004B9EC688B4207D05A7BD20604D17D
:10344800DA897F2A01D9A2692AB1A34202D020468B
:1034580000F050FA23466B6138BD00BFD404012048
:10346800B3F1FF3F08BFB2F1FF3F03D00249183064
:1034780000F0C0BA704700BFD565000838B5194CD0
:10348800A168E0690B68814214BF1A4600224968A6
:103498000B605960A368E1692AB9134AC3E900219E
:1034A8000B60E3610CE093F90E0092F90E50A8420C
:1034B80014D0854212DD5168C3E900210B605360C6
:1034C800A569094B9D4200D005B9E568A3689D42EE
:1034D80002D0284600F00EFA656138BD9142DCD072
:1034E8001268D9E7D4040120EC040120F8B50E4B8A
:1034F8000C4611460D4A9868DDE906671060EFF33F
:103508001182102282F31288BFF36F8F9D682846BC
:1035180003F008F8284632463B46FFF7A1FF20464D
:10352800BDE8F840FFF716BFD4040120F4040120D9
:10353800F8B50446EFF31187102383F31288BFF31D
:103548006F8F437B49B203F01F02002A0CBF01268C
:10355800002639D103F07F032D4D437302F0D0FFCD
:10356800437B2A46817363F07F03437352F8183F05
:10357800934227D1E869C4E900200460EC610FE0B8
:103588009842F8D01B68002BF5D093F90EC061451E
:10359800F6D08C45F4DD5968C4E900310C605C60F4
:1035A800AC69944200D004B9EC68AB689C4202D084
:1035B800204600F09FF96C6187F31188BFF36F8F85
:1035C8003046F8BDE869DEE79B071ED5856802F03E
:1035D80097FF81732B689D4209D16B68C4E900533A
:1035E8001C606C60E8E76A689342F6D01B68002BA1
:1035F800F3D093F90E209142F5D08A42F3DD5A6850
:10360800C4E9003214605C60D6E78173D4E700BF78
:10361800D404012049B9EFF3058030B9054B5A6944
:103628009B689A4201D0FFF795BE81F31188BFF3DA
:103638006F8F7047D4040120034648B9EFF3058221
:1036480032B9064A51699268914201D0FFF782BEA9
:1036580083F31188BFF36F8F704700BFD404012034
:10366800EFF31181102383F31288BFF36F8F054B9B
:103678009A68D37B013BD37381F31188BFF36F8FB3
:10368800704700BFD404012070B5EFF311861023F2
:1036980083F31288BFF36F8F144DAB68DA7B013266
:1036A800DA732A4652F8184F944200D004B9EC68ED
:1036B8005A7BD20604D1DA897F2A01D9A2692AB1B4
:1036C800A34202D0204600F015F923466B6186F329
:1036D8001188BFF36F8FEFF31180102383F31288E3
:1036E800BFF36F8FBDE87040FFF7A6BFD404012079
:1036F800024B03F11802C3E906227047D4040120E3
:1037080038B50446EFF31185102383F31288BFF30D
:103718006F8F437B5B070FD5183002F072FF637B16
:10372800204623F004036373FFF72EFE294605485D
:10373800BDE83840FFF76EBF85F31188BFF36F8F80
:1037480038BD00BF34050120014B9868704700BFA1
:10375800D40401202DE9F8430446077BEFF31185D3
:10376800102383F31288BFF36F8F437B190705D5A6
:1037780085F31188BFF36F8FBDE8F883D90943F04B
:1037880008025DD14273A36813B1204602F0C0FE5F
:1037980004F1180004F1580802F033FFA66DB04593
:1037A80011D04FF0000976B1304602F0B1FE06F1B3
:1037B800180002F026FF3046C6F89890FFF7E4FD9F
:1037C800A66DB045EFD1DFF8C080D8F808309C422C
:1037D8003ED1EFF30589B9F1000918BF4FF001098F
:1037E800D8F81860294A964200D00EB9D8F80C606B
:1037F800B34202D0304600F07DF82046C8F8146085
:1038080002F09FF9B9F1000F02D02148FFF794FDAB
:10381800D8F808309C4231D1EFF3058373BB227B83
:10382800D20718D42846FFF795FDFB07A4D5002337
:1038380083F31188BFF36F8F0423184602DF9BE7D9
:1038480003F07F0343F00803437302F059FE9AE73D
:103858004FF00009C4E785F31188BFF36F8F83F336
:103868001188BFF36F8F0423184602DFEFF311802E
:10387800102383F31288BFF36F8FD4E785F3118881
:10388800BFF36F8FD1E700BFD4040120EC040120FF
:1038980080020120427B034612F01F0210D10A4920
:1038A80088420DD00949086868B1D9897F2909D8A3
:1038B80093F90E20064B1B689A42B8BF0020704748
:1038C8000020704710467047400101204C0001203D
:1038D800F8040120044B0122C01A044BC0105843BD
:1038E800034B1A54704700BF20030120ABAAAAAAB1
:1038F800340501200D4B70B51E7CFFF7CBFF0C4D36
:10390800044606EB460305EBC305284602F079FE9C
:10391800084B00229A553CB1621E28460649D31727
:10392800BDE8704000F066B870BD00BFD404012047
:103938002003012034050120DD38000838B5EFF3F5
:103948001185102383F31288BFF36F8F0F4B104A32
:103958009C681068A04206D1FFF7CCFF85F3118858
:10396800BFF36F8F38BD00211B7C1160094AD35CFF
:10397800002BF3D02046FFF78DFF0028EED0637BA5
:10398800DB0601D1FFF77AFD2046E5E7D4040120E4
:10399800F404012034050120024B1868984208BF3E
:1039A8000020704750000120034B1B680BB9FFF73C
:1039B8005FB80020704700BFFC04012030B570B12B
:1039C8000B4B5B6898420AD0036843B1D3E90421E2
:1039D800D0E90445121941EB0501C3E90421D0E9F6
:1039E800003213605A600023C0E9003330BD00BFC5
:1039F80050000120B3F1FF3F08BFB2F1FF3F2DE9AE
:103A0800F84F0446994615461F467AD08160EFF371
:103A18001188102383F31288BFF36F8FB9F1000F59
:103A2800DFF8E4A020DBFFF7BFFF0135064649F1C8
:103A380000092D18DAE9002749EBE0734FF0010976
:103A4800C4E90453AD1843EB0707FFF7A5FFDFF8F8
:103A5800BCE00346DEF804A0EBB9C4E900EACAF802
:103A68000040CEF8044028E0DAE900126FF00103C4
:103A78005B1A4FF0FF3161EB02025B1B62EB09023C
:103A8800012B4FF0000972F10001BCBF0123002295
:103A9800C0E90432D9E7D3E9041CD4E904208A42F6
:103AA80070EB0C0B24DA891A5A686CEB0000C3E936
:103AB8000410C4E9003214605C60FFF76DFF8442B3
:103AC8000ED1134B1B685BB9B9F1000F02D1FFF798
:103AD8006BFF0646304602F07DFD0021FEF74AFFE7
:103AE80088F31188BFF36F8F28463946BDE8F88FF1
:103AF800521A60EB0C009A45C4E90420ADD01B684B
:103B0800AAE700252F46EFE73803012050000120DF
:103B1800FC0401202DE9F047EFF31185102383F30E
:103B28001288BFF36F8FDFF8A4900026DFF8A0801B
:103B38000027C9F80000FFF72FFFD9F80030D8E9AF
:103B480000ECD91750B1D0E90442A34271EB020A44
:103B58001CDAE41A62EB0102C0E9044213EB0E031B
:103B68004FF000044CEB01012046C9F80040C8E9B9
:103B7800003102F02FFD2146FEF7FCFE85F3118887
:103B8800BFF36F8FBDE8F047FFF7D8BE14EB0E0206
:103B98004CEBE473C0E90467C8E90023FFF70EFFA4
:103BA80085F31188BFF36F8F83689847EFF311850A
:103BB800102383F31288BFF36F8FD9F800301B1BD3
:103BC800C9F80030FFF7E8FEB7E700BFFC040120A2
:103BD80038030120014801F093BF00BF8E80000820
:103BE80038B5064C064DAC4201D3002038BDD4E9A7
:103BF80001122046143402F02CFDF4E79000012055
:103C0800900001200EB470B58BB00FAC054654F887
:103C1800046B2022002102A802F031FD01238DF857
:103C28000A302246064B0493314602A806950194B1
:103C380000F0FCFD0BB0BDE8704003B0704700BF5A
:103C48001D6D0008242A2DE9F041044601D8012AF7
:103C580049D103F087F8354B16221A5001B10C6090
:103C68000020BDE8F08135462E4616F8010B2028C5
:103C7800F9D0A0F10907042F0346F4D92B2834D032
:103C88002D2835D14FF0010C6B78AE1C302B36D176
:103C9800307840F0200078282DD132F010002AD159
:103CA80073783446102202360CF10047013F002099
:103CB800B7FBF2FE02FB1E78392B82BF03F1FF33FC
:103CC80043F02003263B303B9A421FD9704502D867
:103CD80019D1984517D24CF0020C3546344615F8E0
:103CE800013B2E46E8E70546BEE74FF0000CCBE760
:103CF8004FF0000CCAE7002A08BF0822D4E7002AC0
:103D080008BF0A22D0E700FB0230E6E701B10C60E9
:103D18001CF0010F18BF40421CF0020FA1D003F0A5
:103D280021F8024B22221A5038469AE70C0000006C
:103D38002DE9F04101260746B24201DCBDE8F081D9
:103D48003B461F4613F8014B002CF7D0252CF8D121
:103D58001C78252C07F10207F2D00023DFF8048134
:103D68009C461D461F2D18D8A4F1200EBEF1100F39
:103D780009D9A4F1300EBEF1090F1ED80A2404FB9C
:103D880003E3202504E028FA0EFE1EF0010F06D0FA
:103D980017F8014B002CE5D128E07F2D1CD8A4F1A1
:103DA800300EBEF1090FE9D9242C10D1BCF1000F57
:103DB80046D0B34246D00023EAE724F0040EBEF111
:103DC8002A0FF8D06C2C09D145F08005E0E724F0E3
:103DD800040EBEF12A0FEED06C2C22D06C2C1BD80E
:103DE800682C23D06A2C28D04C2C26D0BCF1000F8C
:103DF800A4D0B445A0D144F02007A7F1650CBCF1CC
:103E0800020F0B6801D9612F1ED1073323F0070376
:103E180008330B6001368EE7742CB9D07A2CB7D0F2
:103E2800E4E72C0648BF45F40075CDE7EC0548BF2C
:103E380045F4007545F48075AAE745F42075A7E7B1
:103E48009C46B8E76324D6E7692C02D007D8632CD0
:103E580003D02F0601D5AC05D7D40433D9E7732C8A
:103E6800F6E700BF892801002DE9F04F95B04368B7
:103E78000393837880469807CDE9081217D50D92E9
:103E88000B4600251F78A7B1252F16D001330793BD
:103E9800039B414638469847002805F1010580F202
:103EA800398498F8023043F0040388F802304FF060
:103EB800FF35284615B0BDE8F08F5F789A1C252F8E
:103EC8000792E5D000242646A246A346BBF11F0F61
:103ED80032D8A7F12003102B0AD8DFE803F0240911
:103EE800092A0909091B09090922092709091900C9
:103EF800A7F13003092B2DD92A2F39D154B90D9B9D
:103F08001BF0400F53F8042B0D9329D0164601E0FF
:103F18004BF0010B079B13F8017B0793002FD5D1BA
:103F28005BE04BF0020B4BF0040BF3E74BF0080B94
:103F3800F0E74BF0100BEDE7BBF17F0F3FD8A7F18F
:103F48003003092BD8D81BF0400F03D00A2202FBFC
:103F58000636DFE70A2202FB0A3A4BF0200BD9E7C4
:103F6800B2F1000AF9DACAF1000A4BF0280BD1E7DE
:103F78002E2F05D11BF0400F9BD14BF0400BC9E70A
:103F8800242F1CD1002C00F04281099B0D931BF0BB
:103F9800400F0AD1524608980DA9FFF7C9FE0D9B9C
:103FA8001A1DD3F800A00D92B4E7324608980DA95F
:103FB800FFF7BEFE0D9B1A1D1E680D92AAE76C2F17
:103FC80000F0128100F20981682F00F015816A2F34
:103FD80000F01A814C2F00F0178134B1099B089822
:103FE8000D9322460DA9FFF7A3FE002E47F02009E6
:103FF800B8BF2BF0400BA9F16503BCBF1FFA8BFBC0
:104008000026022B40F20881B9F1610F40F0678267
:10401800FF4307F0200306930D9B073323F00703A4
:104028001BF0400FD3E9000103F1080208BF4FF06D
:10403800FF36069B0D9200930EAA334602F0B3FD9D
:104048000130C3B2B3424BF4C054049301DB049B68
:104058005E1E01230E9F0593A3464FF0700907F1DA
:104068000903122B0DD907F16303C62B40F20F8108
:1040780007F2E73340F2CE72934294BF032304233E
:1040880005939DF83C2002F00C0312F0010240F069
:1040980019811BF0020F40F012811BF0040400F09C
:1040A800F880002B40F0118120231BF4405F1FD1C2
:1040B800049A5032002E6A4408BF0126133A049924
:1040C80021B112F8011D302900F036811BF0100FC4
:1040D800049A18BF3246391DC0F23381B74280F2C4
:1040E8003081BA424BF4005B40F32D817E1C961B55
:1040F8001BF400520A9200F0288127EAE774013481
:1041080003B10134002E00F02881721C1444A2452A
:10411800CCBFAAEB040400241BF0090F04D12C44E3
:10412800A54240F01F81002443B118464146039B35
:104138009847002805F10105FFF6B3AE1BF4006FA0
:1041480013D0039B4146302098470028FFF6A9AEBC
:10415800069BC3F178004146039B00F0F80098479E
:10416800002805F10205FFF69CAE1BF0080F05D1EB
:104178002C44AC4240F00281254600240A9B002BC7
:1041880000F01C8127EAE77AA7EB0A077642049B2E
:10419800BB4284BF0EABFB180AF1FF3A88BF5879BF
:1041A800039B98BF3020564505F10109414600F3AD
:1041B800EF809847002807F10107FFF672AEBAF1C1
:1041C800FF3F08D1039B41462E2098470028FFF661
:1041D80068AE05F102094D46D9E7742F3FF49AAE4F
:1041E8007A2F3FF497AEF8E61BF0800F18BF4BF418
:1041F800007B4BF0800B8DE61BF4807F18BF4BF4DF
:10420800007B4BF4807B85E64BF4207B82E62646D8
:10421800B3465446B2467DE6FF4307F020030693B3
:104228000D9B073323F007031BF0400F03F108022F
:1042380008BF0626B9F1650FD3E900010D9213D125
:10424800731C0022DBB24BF4805B1446112BCDE9C2
:10425800002428BF11230EAA01F03AF8C3B2049330
:1042680002230E9F0593FAE6B9F1660F05D14BF4C8
:10427800005B344601221123E8E7F3B2012B4FF02B
:10428800000238BF012314464FF06509DEE7022318
:10429800F6E6002B3FF409AFBAF1030F3BDC9DF8BB
:1042A8003C30A64E13F0080FA54B08BF1E463746F4
:1042B800B94617F8010BB0BBAE1BB1447BE033BB6A
:1042C8002B23F2E62BBB2D23EFE62022BAF1040FB5
:1042D80013DD1BF0080FAAF104040FD12C44039B33
:1042E8000492414620209847002805F10105FFF671
:1042F800D8ADA542049AF2D19AB10024039B414655
:1043080010469847002805F10105C8DAC9E52B22AF
:10431800DCE72D22DAE71BF0080FAAF10304BED16F
:10432800DCE71446BBE7069BC01A4146039BC0B2B4
:1043380098470028BCDAB4E504990139C9B2049158
:10434800BDE6561ED4E60026D2E61BF4006F059A99
:104358000CBF032405241444D2E61BF0100F18BF29
:104368000134D4E60B934146039B2020984700284C
:104378000B9B05F10105BFF6D3AE92E5039B4146C1
:1043880030209847002805F10105BFF6F2AE88E510
:1043980098470028FFF685AD1BF0100F0BD0BAF137
:1043A800FF3F08D105F1020941462E20039B98479B
:1043B8000028FFF676AD4D464C4433E29DF83D00AB
:1043C800039B414698470028FFF66BAD002E69DD38
:1043D800039B41462E2098470028FFF662AD4FF018
:1043E800010A049B9A45BBBF0EAB53443020587951
:1043F800039B414698470028D346FFF652AD0AF181
:10440800010A5645EDDA02355D44069BA9EB030027
:104418004146039BC0B298470028FFF642AD002FE3
:10442800B4BF2D202B20039B4146B8BF7F4298473D
:104438000028FFF636AD059B042B41D14FF47A795D
:10444800B7FBF9F606F13000039B4146C0B2984726
:10445800002805F10305FFF624AD09FB16774FF098
:104468006409B7FBF9F606F13000039B4146C0B278
:104478009847002805F10105FFF613AD09FB1677EB
:104488004FF00A09B7FBF9F606F13000039B4146E5
:10449800C0B29847002805F10105FFF602AD09FBF7
:1044A800167715E01BF0100F01D10135ADE7039B1E
:1044B80041462E209847002805F10205A5DAF0E4C8
:1044C800059B032B05F10205C9D0059B012BD7D10C
:1044D80007F1300005F101094146C0B266E7A7F1CE
:1044E8006303122B00F2FF80DFE813F0130057007C
:1044F800FD00FD00FD00FD005700FD00FD00FD0072
:10450800FD00FD001701F800FD00FD002C00FD0076
:10451800B9000D9B1A1D1B680D928DF838300124C7
:104528000EAF1BF0080F2ED03E19B946B1452CD15D
:10453800EF1BB944AAEB04043DE700BFCD80000897
:10454800C98000080D9B1A1D0D921F68AB4B002FE8
:1045580008BF1F461BF0400F14BF31464FF0FF3114
:10456800384602F0B5F80446DBE7039B41462020B5
:1045780098470028FFF695AC013EB442F5D3554460
:10458800AD1BB246D0E75646F7E719F8010B039B77
:10459800414698470028C9DA83E41BF0800F0D9B39
:1045A80035D01BF4007F2DD0073323F00703D3E960
:1045B800000103F108020D922BF0100900291FFADF
:1045C80089F936DA404261EB410149F480690DF11D
:1045D800380B0A235A4602F087F819F0400FA0EB6F
:1045E8000B0B65D029F001025E4592B240F3B28010
:1045F800002F00F0A98019F010033446914626D008
:1046080002345CE01A1D18680D92C117D4E71A1D10
:104618001BF4807F19680D9201D10846F5E71BF459
:10462800007F15BF48B208B241F3C01141F3C03151
:10463800C2E750EA0103CAD11BF0400FC7D0002ED1
:10464800C5D12BF0110B1FFA8BF93446B34640F253
:10465800064319EA03031CBF013400232FE02BF0A3
:10466800100B1FFA8BFB0A231BF080040D9A57D0FE
:104678001BF400711DBF073222F0070202F1080186
:10468800101D19BF0D91D2E900010D90106850EA74
:10469800010252D12BF016091BF0400F1FFA89F9BD
:1046A8004FD0002E4DD12BF0170B1FFA8BF9B346C4
:1046B80019F0100352D0002F4ED10BF1010419F05C
:1046C800080F5ED119F0010F06D0A2456EDDAAEBE6
:1046D800040404EB0B06544622464DE04BF0100B45
:1046E80010237827C0E7B9F1780F04D1C7F1780310
:1046F80043F01003B8E7039B41462520984700285C
:10470800FFF6CFAB039B4146384698470028FFF693
:10471800C8AB0235079BFFF7B5BB08230027A3E703
:10472800111D0D911BF480711068B0D01BF400713D
:104738001ABFC0B2214680B2A9E72BF0060B1FFAB8
:104748008BF90DF1380B45E729F011091FFA89F9A2
:1047580034467CE79146ABE75C4651E75C4676E732
:10476800CDE904234146039B202098470028FFF603
:1047780098AB049A059B01329245F1DC2C1BA518D5
:104788001446F3B1039B4146302098470028FFF6B2
:1047980088AB6FB90135A9462E44A6EB09035B45E2
:1047A80021DC5D460EAE5DBBD944C3E65E4693E7A9
:1047B800023541463846039B98470028EBDAFFF755
:1047C80070BB40F2064319EA030FE4D019F0020F58
:1047D80014BF2B20202019F4806F05F101054146F4
:1047E80018BF2D20E7E7039B414630209847002853
:1047F80009F10109D1DAFFF754BB00BFD1800008E5
:10480800013D039B705D414698470028CBDAFFF7CE
:1048180048BB039B414620209847002805F1010525
:10482800FFF63FAB631B002BF3DC73E72DE9F04F7A
:1048380091B00023029007920E920F9306930D46B3
:1048480015F8016BAEB1202E17D0A6F10903042B81
:1048580013D9252E17D002980FA901F06DFF031E5A
:10486800C0F2F480DBB2B3420BD002990FAA01F078
:104878006DFF069811B0BDE8F08F02980FA901F0FE
:104888006DFF2946DBE74E78252E01F10205E2D0BF
:104898002A2E03BF8E78CD1C012400240027A6F100
:1048A8003003DBB2092B19D9A20723D5242E23D133
:1048B800079B0E9324F00204A4B2002201239F4216
:1048C80015DC42B10E9A7B1E002F4FEA8303D8BF36
:1048D80000231A440E9215F8016BDFE744F0020436
:1048E8000A2215F8016BA4B202FB0737D7E7013398
:1048F8000122E4E74FF0FF376C2E35D007D8682E39
:1049080024D06A2E3FD04C2E37D026B9B1E7742E6A
:1049180036D07A2E34D08948314601F0BCFE0028C2
:10492800A7D014F001030C9301BF0E9B1A1D0E9221
:10493800D3F800A018BF4FF0000A6E2E26D10F9AA8
:1049480000940023504601F01EFF9AE72E78682E47
:1049580004D044F02004A4B20135D6E744F0300472
:104968006E78A4B20235D0E72E786C2E02D044F0CF
:104978000404F0E744F00C04F2E744F00C04A4B299
:1049880015F8016BC1E744F00804F8E7632E1FD15E
:1049980014F0020F08BF012704F0040402980FA9BD
:1049A80001F0CAFE002851DBBAF1000F02D064B151
:1049B8004AF8040B013FF1D10C9B002B7FF461AF47
:1049C800069B0133DBB206935BE70AF8010BF1E7BC
:1049D8005B2E5DD12B785E2B06BF01354FF00109A8
:1049E8004FF0000900260FA9029801F0A5FE002249
:1049F800A8469446114605F1010E18F8013BFBB193
:104A0800F04508D05D2B12D02D2B04D132B90B46BE
:104A180001221946F1E7002A08BF194688424FF0DB
:104A28000002F6DB9842D8BF4FF0010CF1E70028EE
:104A380005DBE14511D102990FAA01F087FECEB935
:104A4800029B9B7813F00C0F3FF413AF069B002BCF
:104A580014BF18464FF0FF300CE7BAF1000F05D02D
:104A680063074CBF4AF8040B0AF8010B013F4FF0EB
:104A78000106B8D1BAF1000F01D145469CE714F000
:104A880004041ABF0023CAF800308AF80040F4E78B
:104A980002980FA901F062FE0028D7DB582E7AD0C1
:104AA800643EF3B2142B00F2BC80142E00F2B980DD
:104AB800DFE806F00BB7B7B7B741B7B7B7B7B76E08
:104AC80071B7B751B70BB7B771004FF00A08029822
:104AD8000FA901F031FE2B2804D02D280AD144F06B
:104AE8004004A4B2013FABD002980FA901F024FE04
:104AF8000028A5DB302876D1B7F1010918D0029833
:104B08000FA901F019FE002812DB40F0200344F041
:104B18008004782BA4B241D138F0100343D1B7F107
:104B2800020905D002980FA901F006FE002861DAF3
:104B3800002637464BE04FF00008C8E7D880000849
:104B4800BAF1000F05D066074CBF4AF8040B0AF803
:104B5800010B013F0FD002980FA901F0EDFD0028CD
:104B680009DB202803D0A0F10903042BE8D8029917
:104B78000FAA01F0EBFDBAF1000F3FF41DAF14F0DE
:104B880004041ABF0023CAF800308AF8004013E76B
:104B98004FF008089BE74FF0100898E7B8F1000FAE
:104BA80008BF4FF00808002637463928034682BF59
:104BB80000F1FF3343F02003263B303B98451CD8D7
:104BC80002990FAA01F0C2FD20067FF539AF6106F0
:104BD80002D5764267EB4707009432463B4650467B
:104BE80001F0D1FDE8E6B946B8F1000FDBD14FF08E
:104BF8000A08D8E74FF01008D5E7A8FB06629E1907
:104C080008FB072244F0800442F10007B9F10109CA
:104C1800A4B2DCD002980FA901F08EFD0028C4DAF6
:104C2800D5E702980FA901F087FD2B28039004D03F
:104C38002D280DD144F04004A4B2013F3FF400AF49
:104C480002980FA901F078FD031E0393FFF6F8AE52
:104C5800039B43F02003692B68D06E2B00F09680ED
:104C68004FF00008CDE904880A234646C1462205CC
:104C780040F1BB80039A42F02002D2B2A2F1610156
:104C8800052900F2B280573AD2B29A4280F0FD80EC
:104C980044F0800BE1051FFA8BFB40F1C9801BF43F
:104CA800807F0BF4007100F0D4800598002A18BFAB
:104CB80040F00100059009B908F10108013F0D9382
:104CC80000F0F88002980FA901F036FD031E039347
:104CD8005C460D9BCBDA21067FF5B2AE2205039A1E
:104CE8004CBF7023652342F0200248BF4FEA880872
:104CF8009A4240F02981B7F1010B00F02781029810
:104D08000FA901F019FD2B28034605D02D2840F0E6
:104D1800EF8044F48064A4B2B7F1020B40F0CC8079
:104D280002990FAA184601F011FD0FE1724EDFF843
:104D3800CC914FF0000816F801BBBBF1000F13D05F
:104D4800013F0DD002980FA901F0F6FC031E07DB06
:104D580043F020035B45EED002990FAA01F0F6FC60
:104D6800674B9E427FF46CAE4046494601F00EFF09
:104D780038B3013F25D002980FA901F0DDFC28289F
:104D880016D002990FAA01F0E1FC1AE05D4EDFF897
:104D980078914FF00008CEE720F02003413B192B13
:104DA80006D9A0F13003092B02D95F287FF448AE59
:104DB800013F3FF445AE02980FA901F0BDFC292838
:104DC800EAD1630606D509F10043CDF828800B9394
:104DD800DDE90A89BAF1000F3FF4EEAD14F00C0FCB
:104DE80000F07181CAE90089E6E5039A303AD2B247
:104DF8009A4240D244F0800BE1051FFA8BFB3FF545
:104E08004EAF0A2B14D114F00C0F1FD104990829A6
:104E18007FF745AF44F4C07B042A1FFA8BFB7FF66B
:104E28003EAF052A4FF0020108BF0022059136E780
:104E380014F00C0F049907D107297FF730AF44F419
:104E4800C07B1FFA8BFB2AE70F29F6E70499102984
:104E5800DEE709B108F1FF38A3FB0661961903FBE9
:104E6800091141F1000956EA09023FF427AF049AF3
:104E78000132049222E7FE2A07D1A2053FF52BAFA3
:104E880044F4007B1FFA8BFB18E7039A42F02002D8
:104E9800782A04F080037FF41EAF002B3FF41BAF89
:104EA80056EA09037FF417AF44F4006B1FFA8BFB33
:104EB800102303E75C460EE702980D930FA901F053
:104EC8003BFC0D9B1F460346A3F13002092A1DD95E
:104ED800184602990FAA01F039FC7B1C04D00299EC
:104EE8000FAA384601F032FCDDE902100FAA1AE7D2
:104EF8004FF0FF37E8E700BFEF8000080000F07FC1
:104F0800F2800008EC8000080000F87F00270A22E1
:104F180040F2D3418F42DCBFA3F1300102FB0717F7
:104F2800BBF1010B0AD00FA9029801F005FCA0F112
:104F38003001092903464FF00A02E9D9600548BF44
:104F48007F42B84403935F46002FCDD156EA090348
:104F580000F0B480210504F00C0240F18C80002A96
:104F680014BF3523182303F101074FF00100A3F103
:104F78001F02C7F1200C00FA02F220FA0CFC594972
:104F8800B84408BF6FF07D0142EA0C02B84086427F
:104F980079EB020751D30127A3F11E02C3F11E0CBE
:104FA800981C07FA02F227FA0CFC42EA0C0207FAEC
:104FB80000F0864279EB020745D2884543DB059A23
:104FC8003243164606F0030003284A4603D006F08B
:104FD800060006280BD1043649F10002B2F5000F8D
:104FE80021BF760846EAC27608F101085208B608D9
:104FF80046EA8276C3F13500C3F11507920882406C
:10500800153B06FA07F726FA03F33A431A43354BDA
:10501800994206FA00F025D1B8F5806F5DDAB2F54D
:10502800801F25D308F2FF3822F4801242EA085381
:1050380008900993DDE90889C3E6B61949EB09091F
:1050480008F1FF38A3E7770847EAC97706F00106B1
:105058003E434FEA590908F10108AAE700185241EE
:1050680008F1FF38B2F5801F34D218F57F7FF5DAE2
:105078004FF00008DAE7059B06F0010018430130FD
:10508800049B8008301849F1000143445AB113F5D4
:10509800A27F13DDB3F59B7F1FDA424600F026F8A6
:1050A800804689468DE613F12D0F07DB272B14DC8C
:1050B800414601F0AFFBFBF7E7F9F1E74FF00008D5
:1050C8004FF000097DE640464946FBF735FACAF835
:1050D800000071E4B8F5806FA4DBDFF80C904FF0A6
:1050E80000086EE602FCFFFF0000F07F2DE9FF4795
:1050F800804616460F46002900F09E80B1FA81F4DA
:10510800341B002E04F10A04C0F29E80304600F0E1
:1051180039FB0444304600F03BFBA4EB0609054686
:105128006946304600F05CFBA9EB05037D336A460F
:105138004046394601F03DFBA64282460D467FDCDB
:10514800B9F13F0F7EDC4FF0FF33A9F1200003FADD
:1051580000F003FA09F2C9F12001024323FA01F130
:105168000A4303FA09F328EA030327EA020213436E
:105178000CBF01200020002D00F08880B5FA85F3CF
:10518800E31A03F23E4340F2FE72934200F3878033
:10519800002B23EAE376CCBF32460122121BA2F28F
:1051A8003341C1F1200CA2F23447A2F253442AFA47
:1051B80001F305FA0CFC43EA0C0325FA04F4C7F1E1
:1051C800200EA2F2544C234305FA0EFE2AFA07F4E5
:1051D80025FA0CFC44EA0E0444EA0C0414F0010F0E
:1051E80025FA01F1C7F1200CA2F2544252D0A8B11D
:1051F8004FF0FF3000FA02F200FA07F4144320FAE5
:105208000CF2B84014432AEA000A03F0010225EA26
:1052180004054AEA020A5AEA050A3BD0013341F179
:105228000002C2F3130253EA020136D0184642EADA
:10523800065104B0BDE8F087B0FA80F420345FE787
:10524800012098E7002096E7C6F10009484600F0DB
:105258009FFA241A484600F09BFAA61B05466946A1
:1052680048462E4400F030FB06F17C036A4640466F
:10527800394601F09EFA82460D464046394600F00E
:1052880097FA81458CBF0020012074E7BAFA8AF3A7
:10529800203375E7C1F31302C8E70136C6E70149B1
:1052A8000020C6E70000F07F1FB502AB0093074A55
:1052B8004FF0CC3301F030FCDDE90201C00840EAD0
:1052C8004170C90805B05DF804FB00BFCDCCCCCC5B
:1052D8002DE9F04F9BB0044605920A460A93C2F3A3
:1052E8000A559DF890300B93D20FC1F3130309921E
:1052F800090D7DB950EA03021BD1059A3023537179
:10530800099B156043F002031371012738461BB04F
:10531800BDE8F08F40F2FF7295424AD10343099BE2
:10532800059A14BF43F0080343F0040313710027E0
:10533800ECE700F0010208924FEA83080122AC4D25
:1053480048EA907887009A461646C5F1000B5846F9
:10535800069200F011FAB5F1FF3FACBF8146A0F10B
:105368000109ABEB090B09EB05035846049300F060
:1053780017FA16A9A0F17D05584600F031FA12ABCC
:10538800069A0193A9EB050510AB029200932046FB
:105398002B4616AA514601F0CAFAB9F1010F044684
:1053A8000D4600F2D280089B002B40F0C5800127F3
:1053B8006BE043F4801A00F001024FEA8A080343C5
:1053C800A5F23545089248EA90784FEA800749D116
:1053D80040F2FE7319420CBF01260026002D32460A
:1053E800B3DB284600F0C2F9032DC8BF013804908A
:1053F80000F0D6F9049B7C305D1B054416A91846BD
:1054080000F062FA12AB019310AB009320462B46D2
:10541800029616AA514601F08AFA049B152B0446F7
:105428000D4600F2868014AB724A009338464FF05E
:10543800CC33414601F070FB149B159A9B0843EA54
:10544800827303EB8303BB42DDE9109A0CD1384623
:10545800414600F0ADF9049B83428CBF0027012729
:10546800002612E00126B9E7089B002B51D1013F25
:1054780048F1FF31B81B61F1000100F099F9049B74
:10548800089F83428CBF002601260B9B002B40F00F
:105498009180DDF828B04FF00008CDE906884FF07C
:1054A8000A0ADDE91001FFF7FFFE129B0E93CDE912
:1054B8000C0118461399FFF7F7FE0C9B0D9A0F91F4
:1054C80098420B469341814680F08E8020462946BB
:1054D800FFF7EAFE0E9A0AFB09F3934214BF00266F
:1054E80006F001060C9B10930D9BCDE911390F9B1B
:1054F8001393079BB8F1000F14BF002707F00107AB
:1055080001330AFB10485FFA88F8079304460D46F2
:10551800C7E7B81C48F1000100F04AF9049B834230
:105528008CBF00200120B9EB00006AF10002CDE930
:10553800100200273E46A8E7109B119A013B42F152
:10554800FF32CDE9103201278AE7B9F13E0FF0D8D2
:105558004FF0FF33A9F1200003FA09F203FA00F033
:10556800C9F1200123FA01F102430A4303FA09F3BE
:1055780027EA030728EA020857EA08070CBF0127A9
:1055880000276DE700FB02FCA1FB00120133624417
:105598008C4275EB020CF5D2049ADDF828B013445E
:1055A800259A1344D20F9342B8BF13469B45A8BF10
:1055B8009B4670E70A21002201230846E8E70AFB18
:1055C80003F0A2FB0A2301310344944275EB030064
:1055D800F5D2594510DDBBF1000F02D154EA05039D
:1055E8000AD00123069371E70A2200230121ECE780
:1055F800CCFBFFFFCDCCCCCC002E2FD04FF00A0A2D
:10560800129B13990D931846FFF74EFE0D9B0C91B4
:105618000AFB00F29A42814620D1DDE91001FFF72A
:1056280043FE0E900D9120462946FFF73DFE0D9B47
:105638000E9A1092CDE911390C9B1393079BB8F180
:10564800000F14BF002707F0010701330AFB1048B9
:105658005FFA88F8079304460D46D1E7DDF8109005
:10566800079B9944002F5AD0B8F1050F57D114F071
:1056780001034AD1069A32B9DDE912239D4208BFD7
:1056880094425FD0069B18194FF00A0445F10001B7
:10569800002201262546A04271EB020755D2EBB144
:1056A800B3451BDA0B9B6BB1259ADDF828B006EBE6
:1056B80009031344012BB8BF01239B45A8BF9B4690
:1056C8005E450BDD05304FF00A024FF0000341F153
:1056D8000001FAF781FF09F10109013E5E45A8BF03
:1056E8005E4637B20FFA89F9059B09FA86F607F183
:1056F8000508013E98444FF00009B9452CDB059B8D
:105708001A461E60099B137100E6069B2BB9DDE95A
:1057180012239D4208BF944209D00123B3E7069B98
:1057280053B9DDE912239D4208BF944204D1089B76
:10573800002BF2D1002EF0D0B8F1040F94BF002353
:105748000123A0E74FF00408F1E705FB02F7A4FBEB
:10575800054201363A449EE70A220023FAF73CFF45
:10576800303208F8012D09F10109C6E7014B584309
:10577800800C704741340100014B5843000D7047BD
:10578800FB2E0B00014B5843C00C70474F9312007F
:10579800024B5843C00C0130704700BF4F931200B2
:1057A800024B5843C00C0130704700BF4F931200A2
:1057B8000A4A70B503464FF0CC3600204FF0333517
:1057C80006FB03F402FB0144A3FB023121449D4282
:1057D80075EB010401D30130F2E770BDCDCCCCCC20
:1057E8002DE9F04F1A23354EB0FBF3FA03FB1A03E9
:1057F80089B004460D4606EB0A1653B9D6E90023CC
:10580800C1E90023D6E90201C5E9020109B0BDE8F2
:10581800F08F2B4A02EBC303D3E9008904AB009352
:10582800D6E902234046494601F076F906AB0093D3
:10583800D6E9002383460F464046494601F06CF9F5
:10584800DDE9066216EB0B0652EB07084FF0000382
:1058580028BF0123814633B1049B059A013342F1E5
:105868000002CDE9043220460391FFF799FF07466D
:105878001A2000FB0AF0FFF793FF3F1A324643460F
:1058880003990097484601F062F94FEA141C0D4A43
:10589800640004F01E0352F82C40DC4004F00304BA
:1058A800241841F10001C5E90041DDE9042300970E
:1058B8003046414601F04BF9A6E700BFA87400083E
:1058C800D8730008647900082DE9F04F1A27DFF82B
:1058D800E4A000F11905B5FBF7F56F433A1A4FEA52
:1058E800051B89B004460E460AEB05150AD1D5E911
:1058F8000023C1E90023D5E90201C6E9020109B084
:10590800BDE8F08F2C4B03EBC203D3E9008904AB4D
:105918000093D5E902234046494601F0FDF85AF8BC
:105928000B206B68013ACDE9020106A963F1000377
:1059380000914046494601F0EFF8DDE906528A46F3
:1059480002996D18039952EB01084FF0000328BF24
:105958000123814633B1049B059A013342F10002C9
:10596800CDE904323846FFF71BFF07462046FFF70C
:1059780017FF3F1A2A46434600974846514601F00A
:10598800E6F84FEA141C0D4A640004F01E0352F8AE
:105998002C40DC4004F003040134241841F10001D8
:1059A800C6E90041DDE9042300972846414601F095
:1059B800CEF8A2E778750008D8730008B87900080F
:1059C800704703460A46F0B41979DB880068134328
:1059D800DC028768066906D513F4402F03D0DA077E
:1059E80048BF83F440230125346823F48012DB0781
:1059F80005FA01F54CBF2C43AC4334603B68F0BC5E
:105A0800184703460A4600681979012303FA01F189
:105A180003691B68194218BF82F0010212B183683A
:105A2800DB68184783681B69FBE700EBC100408807
:105A380040087047F8B50346FFF7F7FFB0FA80F063
:105A4800CA000C468DB2C0F11F00171D063203EBC9
:105A5800800CDCF8106056B9012101FA00F0D96811
:105A68000143D960CCF81040DD539D52F8BDF100D8
:105A78000431585AD85303EBC0009E52C5805D527A
:105A8800F4E7043A2DE9F041CC1D11444FF0000829
:105A980024F0070421F007010E1B0460414604F1BD
:105AA8001000F708C4F80C80B7FA87F2A760C2F1B3
:105AB8002405C2F12002AD009200073500F0DFFD99
:105AC800A4F800802046ED086B0004EBC50243F003
