:020000040800F2
:1000000000170120D50D0008C5480008C10D0008E3
:10001000C10D0008C10D0008C10D0008000000005E
:10002000000000000000000000000000990E000821
:10003000C10D000800000000350E0008E52300088F
:100040001D1000081D1000081D1000081D100008DC
:100050001D1000081D1000081D1000081D100008CC
:100060001D1000081D1000081D1000081D100008BC
:100070001D1000081D1000081D1000081D100008AC
:100080001D1000081D1000081D1000081D1000089C
:100090001D1000081D1000081D1000081D1000088C
:1000A0001D1000081D1000081D1000081D1000087C
:1000B0001D1000081D1000081D1000081D1000086C
:1000C0001D1000081D1000081D1000081D1000085C
:1000D0001D1000081D1000081D1000081D1000084C
:1000E0001D1000081D1000081D1000081D1000083C
:1000F0001D1000081D1000081D1000081D1000082C
:100100001D1000081D1000081D1000081D1000081B
:100110001D1000081D1000081D1000081D1000080B
:100120001D1000081D1000081D1000081D100008FB
:100130001D1000081D1000081D1000081D100008EB
:100140001D1000081D1000081D1000081D100008DB
:100150001D1000081D1000081D1000081D100008CB
:100160001D1000081D1000081D1000081D100008BB
:100170001D1000081D1000081D1000081D100008AB
:100180001D1000081D1000081D1000081D1000089B
:100190001D1000081D1000081D1000081D1000088B
:1001A0001D1000081D1000081D1000081D1000087B
:1001B0001D1000081D1000081D1000081D1000086B
:0801C0001D1000081D100008CD
:1001C80053B94AB9002908BF00281CBF4FF0FF31B6
:1001D8004FF0FF3000F00CB8ADF1080C6DE904CE1B
:1001E80000F012F8DDF804E0DDE9022304B07047FE
:1001F800704700BF10F8012B11F8013B012A28BFF6
:100208009A42F7D0D01A70472DE9F04786468C46B7
:100218000846089E154674461946002B40F0C280D1
:100228008542B2FA82F245D94AB1C2F1200300FAF6
:1002380002FC2EFA03F3954043EA0C0C94404FEA73
:10024800154EA8B2BCFBFEF8230C0EFB18CC08FB1D
:1002580000F943EA0C43994528D9EB1808F1FF3710
:1002680004D2994502D9A8F102072B44A3EB09034C
:10027800A4B2B3FBFEFC0EFB1C330CFB00F044EAFB
:100288000344A04214D92C190CF1FF3304D2A04224
:1002980002D9ACF102032C44241A43EA07401EB1E8
:1002A800D440002334607360BDE8F0874746DDE73B
:1002B8006346F1E792BB431B01214FEA154EAFB2EB
:1002C800B3FBFEFC200C0EFB1C330CFB07F840EACA
:1002D8000343984562D9EB180CF1FF3004D29845D6
:1002E80002D9ACF102002B44A3EB0803A4B2B3FB80
:1002F800FEFC0EFB1C330CFB07F744EA0344A74241
:100308004ED92C190CF1FF3304D2A74202D9ACF113
:1003180002032C44E41B43EA0040C0E7C2F1200377
:1003280020FA03F1954090402EFA03F303434FEA75
:10033800154EAFB2B1FBFEFC0EFB1C10190C0CFBEA
:1003480007F841EA0041884504FA02F422D96918FD
:100358000CF1FF3004D2884502D9ACF102002944DF
:10036800A1EB08019BB2B1FBFEFC0EFB1C110CFBC0
:1003780007F743EA01439F420ED9EB180CF1FF310E
:1003880004D29F4202D9ACF102012B44DB1B41EAA3
:10039800004192E76046E3E76146F7E76046A3E776
:1003A8006346B7E7834206D916B9002108467BE7BA
:1003B800C6E900E0F9E7B3FA83F78FB9834201D3BE
:1003C800724508D8BEEB020460EB030301209C468B
:1003D8001EB9002168E73846FAE7C6E9004CF8E795
:1003E800C7F1200CBB4022FA0CF41C432EFA0CF186
:1003F80020FA0CF3B84001434FEA14490EFA07F506
:10040800B3FBF9F81FFA84FE09FB18300B0C08FB44
:100418000EFA43EA00439A4502FA07F240D9E31874
:1004280008F1FF3004D29A4502D9A8F1020023440A
:10043800A3EB0A0389B2B3FBF9F809FB183308FBED
:100448000EFE41EA03418E452CD9611808F1FF33AD
:1004580004D28E4502D9A8F10203214443EA0040A0
:10046800A0FB0298A1EB0E014145CE46434602D3BC
:1004780006D14D4504D2B9EB020E68EB04030138EE
:10048800002EA6D0B5EB0E0261EB030101FA0CFCBD
:1004980022FA07F34CEA0303F940C6E9003198E76A
:1004A8004046C5E74346D9E72DE9F04F054687B0F2
:1004B800214F04AA0121BB68384602935B6898471C
:1004C800002832DB1D4B4FF0FF39DFF87480DDE97F
:1004D800044AA4FB03B203FB0A2358460393039977
:1004E80013A3D3E90023FFF76BFED945039B064608
:1004F80078EB030319D3A5FB04B405FB0A4458465B
:100508000BA3D3E900232146FFF75AFED94503463A
:1005180078EB040409D3864207D300220121384628
:100528000092029A14683246A04707B0BDE8F08FDF
:1005380000CA9A3B00000000905A0008002D3101C3
:10054800FFC99A3B0023034A03481370034A136008
:1005580004F09EB95800012096640008D8020120D2
:100568002DE9F341204DAC68636C4BBB636B73BBE7
:100578001D4E1E4CDFF87880AF68BB6923B301229B
:100588000DF107013046984701281DD19DF8071045
:100598007B68304698479DF807200D2A01D00A2A23
:1005A8001AD12268002308F8023001222360114B77
:1005B8001A70002200230E490F4804F05AFEDBE7A8
:1005C800284698470028D1D102B0BDE8F0810648F6
:1005D80098470028CCD1F7E72368302B9EBF591CD9
:1005E80008F803202160C7E7745A0008D4020120E4
:1005F8008D0401208C0401209000012070B51B4D52
:100608008EB01B4C1B4E1C4804F042F94FF0FF33D0
:100618004FF0FF3201A9284602F0E4F9237823B904
:100628000021642004F096FEF0E7002313491148E6
:100638002370FFF7DFFD30B9114B012211481A7002
:1006480004F026F9E2E7304604F006FF6428014684
:1006580001D90D48F4E70A4B1B780BB90B48EFE7B3
:100668000B4B18600B4804F013F9CFE790000120FA
:100678008C0401208D040120BF640008DA6400089E
:1006880058000120E06400080A6500081E6500089B
:10069800D802012046650008F0B53A48B1B004F028
:1006A800F7F8394804F0B7FD002868D0374804F057
:1006B800B2FD002863D0364C204604F0ACFD00287B
:1006C8005DD026694FF48032A5680B213368204637
:1006D80023F4006333602B68984700284FDBAF6929
:1006E800002F4CD033684FF0A0720B21204613F432
:1006F800006F14BF4FF000734FF08063B8470028B5
:100708003DDB2449244B4B604FF400638B60EB695D
:1007180013B10122204698471B4CA3682BB19B6C50
:100728001BB100221D4920469847A3689B6A0BB15C
:100738001548984700220023194C08A8194D1A4E4D
:100748001A49CDE9062300230522CDE90133CDE975
:10075800032300934FF48062154B02F003FA2378C9
:1007680003F0FF0023B1286864237043B0FBF3F063
:10077800FFF79AFE0021C82004F0ECFDEFE7002007
:1007880031B0F0BD5E650008745A0008905A000840
:100798005C590008C80201204D05000869050008D9
:1007A80058000120D8020120002D31010005012048
:1007B80005060008014B1B68184700BF0000012010
:1007C800014B1860704700BF0000012030B585B0AC
:1007D80004460D4610220021684604F035FE022327
:1007E8002A4621468DF802306846034B019302F0F1
:1007F80083FF05B030BD00BFBD07000880B50546C2
:100808000E461746984602F0EFFBDFF820900346A5
:1008180004F0F4FF0446424649F8003039463046B1
:10082800A84754F8090000F0EBFA00BF08000000E0
:10083800034A0020536823F002035360704700BF47
:10084800002004E0064B1A6842F400721A601A6825
:1008580042F480721A60034B034A1A60704700BF63
:10086800003C0240480001200024F400014B0360D2
:10087800032070470061000806480021064A08B5B1
:10088800121A04F013F80548054A0021121A04F058
:100898000DF808BDB8000120C404012000000020A4
:1008A800000000200A480B4A0B49121A08B503F049
:1008B800FFFF0A480A4A0B49121A03F0F9FF0A48CF
:1008C8000A4A0B49121ABDE8084003F0F1BF00BFFD
:1008D80000000120B8000120586B0008000001202A
:1008E80000000120586B00080000002000000020D4
:1008F800106C000838B505460C4699B11048D1E986
:100908000123096803F0C4FFE1680E48D4E9042311
:1009180003F0BEFFE1690C4803F0BAFFA1690B4878
:1009280003F0B6FF012D05D1EFF305810848103912
:1009380003F0AEFF21462846BDE8384001F0B8BEB6
:10094800A9650008D9650008096600081966000845
:100958004866000830BFFFF7FDBF00BF2DE9F04132
:100968000B4E0546DFF82C80324606EB0807CC1BF9
:100978000949204604F05AFDA019083C42460021C6
:1009880004F062FD07F10800C5F89040BDE8F08169
:100998000000000008000000685E0008054B5A6966
:1009A8009B689A4204D0044A536843F080535360CA
:1009B800704700BF6004012000ED00E02DE9F84316
:1009C800324D804632488946174603F061FFAB6ACC
:1009D800DE0622D511242F4803F05AFFAB6A1D0703
:1009E80003D512242C4803F053FF284DAB6A98070F
:1009F80015D52A4803F04CFF6E6BAB6A190642D531
:100A08003146274803F044FFB9F1000F03D0AB6A21
:100A180023F08003AB62132403E01024DEE76FF0B9
:100A280015061A4DAB6ADA0703D514241D4803F0DE
:100A38002FFFAB6A9B0603D515241B4803F028FF3C
:100A4800124B9A6AD50602D49A6A90070AD55B684F
:100A5800190507D54146304600F092FA10B180F3E7
:100A680009880224094B9A6A920603D55A6A22F425
:100A780000525A629A6A204642F0FF029A620023A4
:100A88003B70BDE8F8836FF01506C4E700ED00E0A1
:100A98005C66000873660008A7660008BB66000865
:100AA800D4660008EB6600080B67000810B51D4CFB
:100AB8001D4803F0EDFEA36A990130D51B4803F0E9
:100AC800E7FE1E20A36ADA0103D5194803F0E0FE09
:100AD8001F20144CA36A1B0303D5164803F0D8FE45
:100AE8002120A36A590303D5134803F0D1FE22201D
:100AF8000C4CA36A9A0303D5104803F0C9FE2320BF
:100B0800A36ADB0303D50E4803F0C2FE2420054A7E
:100B1800936A6FEA03436FEA1343936210BD1D2083
:100B2800D0E700BF00ED00E03B670008546700080D
:100B38006867000883670008A2670008C86700089C
:100B4800E367000870B5244C064624480D4603F0B8
:100B58009FFEA36AD90435D5214803F099FE1720D2
:100B6800A36A1A0503D51F4803F092FE18201A4CF1
:100B7800A36A9B050FD51C4803F08AFEA16BA36AE4
:100B8800180407D5194803F083FE1EB1A36A23F49D
:100B98000043A3621920104CA36A590503D51448D1
:100BA80003F076FE1A20A36ADA050DD5114803F082
:100BB8006FFE1B20084A936A43F47F439362002325
:100BC8002B7070BD1620CBE7A36A9B04F2D50A48A8
:100BD80003F05EFE1C20EDE700ED00E00F68000862
:100BE80026680008A76600083868000852680008E8
:100BF80068680008846800080B6700085D4B2DE9E9
:100C0800F0415F688AB004460025C7F3080685F3FB
:100C18001188BFF36F8F02F07F43B3F17F4F06D186
:100C280002F00C03082B13D1534803F031FE0025C2
:100C38002C464FF00008F31E8DF80780092B00F2B0
:100C48008780DFE803F00A7B7F7785858585858344
:100C580010074CBF0C460125EBE7464E474803F00A
:100C680017FE8DF80780F36A9A0704D5444803F005
:100C78000FFE002330E0F36A002B01DA4148F6E763
:100C8800F36A5B00F5D5404803F002FE7369A26978
:100C980043F480737361BFF34F8FBFF36F8F736932
:100CA80032F8022C23F480737361BFF34F8FBFF3C4
:100CB8006F8F4DF602739A4209D0B36ADBB25BB309
:100CC8000DF1070201212046FFF778FE34E0216884
:100CD8002E4803F0DDFD23689DF80720CAB902AE4F
:100CE80004F120072068083454F8041C3246BC423A
:100CF80003C21646F6D1099AB5B3C2F3080121B961
:100D08006FEA52226FEA4222099202A91846FFF7B7
:100D1800F1FD0AB0BDE8F081B36A13F47F4F05D046
:100D28000DF107010120FFF70DFF05E0B36AB3F5E8
:100D3800803F9ED3FFF7BAFE0346CDE70DF10702C9
:100D48000021C0E70DF107010020ECE710488EE70D
:100D580017F4F87F0F4B1049A6F1100218BF194677
:100D68000E4803F095FD84E722F4FF7222F0010299
:100D7800CAE700BF00ED00E0CB680008F76800088C
:100D88000F690008316900084069000860690008B7
:100D98007D690008B26800089D680008A26900081B
:100DA800044B5A6942F010025A615A6922F008024B
:100DB8005A61704700ED00E0EFF30880EFF3098116
:100DC80001B57246FFF71AFF01BD00BF0A4880F35C
:100DD8000888102080F3118808484FF404614018EF
:100DE80080F30988EFF314800221084380F3148804
:100DF800BFF36F8F00F090F8001701204009012021
:100E0800084B9B6883420BD1EFF3058343B1064B34
:100E18005A6842F080525A605A6A22F400425A6272
:100E280002F0E8B86004012000ED00E015498A6886
:100E38004FF030001044EFF3098C80E8F01F1020C9
:100E480080F31288BFF36F8F0F4F4FF000664A6927
:100E58008A603E60D2F890000C4C2060D2F8940072
:100E68000023C2F8943080F3118804B5104600F0CE
:100E7800EFF8BDE8044002F1300090E8F01F8CF371
:100E8800098870476004012004ED00E0DC020120BD
:100E98001EF0040F0CBFEFF30880EFF3098081699F
:100EA80011F8021C0229FFD001B5724603F002FDB9
:100EB80001BD00BF40B2002807DB0123410900F053
:100EC8001F00024A834042F82130704700E100E0E9
:100ED80040B2013100284FEA0111C9B206DB00F126
:100EE800604000F5614080F80013704700F00F0083
:100EF800014B1954704700BF14ED00E0044B054A3C
:100F080023F07F039360BFF34F8FBFF36F8F70475A
:100F18000000000800ED00E008B5FFF7EFFF0B4AFE
:100F2800D2F8883023F47003C2F88830EFF31483C2
:100F380023F0040383F31488BFF36F8FFFF79CFC3F
:100F4800FFF7B0FC00F05AF801F07EFC00ED00E07D
:100F580042F8203C203A009B08495360019B21F04D
:100F680001019360029B9161D3604FF08073D3615C
:100F780000230265C0F89430704700BF05080008D8
:100F88000A4A0346906878B113F1160FD0F880002A
:100F980005D0A0F140029A4205D8834203D281428B
:100FA80028BF002070470020704700BF6004012060
:100FB80015460D4A0E4608B50C4B9060D0F89020A7
:100FC8001A6000F045F82C4686F309880020044B87
:100FD80098472046002100220023024C20470000A9
:100FE800E14800080508000860040120DC0201202F
:100FF800014B10221A61704700ED00E000230448FD
:101008001021C2180133622B82F80013F9D17047FE
:1010180000E100E008B5EFF30583064A103B02EB58
:10102800C30152F8330049688847BDE80840FFF714
:10103800B5BC00BFAC5A0008024B0121024A034864
:1010480000F078B800000520000001203061000899
:10105800D0F880204021054B403A18461A60044ACF
:10106800C3E90112012100F06FB800BFE0020120BE
:1010780000000B15084AC2F898000B6823F01F03FC
:10108800034343F01003C2F89C308B6843F001031C
:10109800C2F8A030704700BF00ED00E02DE9F04332
:1010A8000E4685B01F4604464FF00009DFF854800D
:1010B800B14523DA6068D8B13FB1411E08421BD15F
:1010C8001F2819D92368194216D12368019303F000
:1010D80017FCA3680343D0B20393D8F89050C5F324
:1010E8000725013DA84207D801A9FFF7C3FF421C05
:1010F80009F101090C34DBE76FF01502104605B061
:10110800BDE8F08300ED00E0044B0522C3F894200D
:10111800BFF34F8FBFF36F8F704700BF00ED00E044
:10112800BFF35F8F024B0022C3F89420704700BFC3
:1011380000ED00E010B5034C01232278FFF7AEFF65
:10114800207010BDBF0401200B4A08B50023127897
:10115800FFF7A4FF10F1160F07D0084A0021D2F8B4
:101168009030C3F30723984200DB08BDC2F898000B
:101178000130C2F8A010F2E7BF04012000ED00E042
:101188005C4B2DE9F0435C4C85B0D3F89030256872
:10119800C3F307239D4200F2A98000200C26FFF725
:1011A800BFFF85421BD1554C6846554F2570FFF748
:1011B8005DFB00250646DFF83C81DFF84891AE422A
:1011C80014D1237800204B49D1F89020C2F307228C
:1011D8009342C0F285800020FFF796FF45E06168E2
:1011E80006FB0011FFF746FF0130DAE700984FEAE7
:1011F800051C00EB0511CB683B40B3F5000F4DD043
:101208000AD8B3F5001F33D0B3F5800F3BD0B3F540
:10121800801F13D00135D2E7B3F1007F47D0B3F177
:10122800805F4DD0B3F1807FF4D150F80C308868DE
:1012380003F066FB4A6840F0887009E050F80C300B
:10124800886803F05DFB40F088504A6840F430201D
:1012580003902078CDE90123D8F89030C3F3072311
:10126800013B984235D96FF0150005B0BDE8F08311
:1012780050F80C30886803F043FB40F088504A6807
:1012880040F40020E4E750F80C30886803F038FB9D
:1012980040F0C0604A6840F40030D9E750F80C309C
:1012A800886803F02DFB4A6840F08270D0E750F858
:1012B8000C30886803F024FB4A6840F48020C7E7B4
:1012C80050F80C30886803F01BFB4A6840EA0900B4
:1012D800BEE701A9FFF7CEFE23780133237099E713
:1012E800C1F898300133C1F8A0006DE74FF0FF3026
:1012F800BBE700BF00ED00E03C610008BF0401202F
:101308000000F0FF0000021108B5024B1B68984767
:10131800002008BDEC020120034B044A18609378B2
:1013280043F0020393707047EC020120040001208F
:101338000649074821F00701C1F1005208B502F536
:10134800A02203F066FA002008BD00BF6F17012035
:10135800F002012013B50C4C204603F05CFF68B185
:101368000A4A6B4692E80300A26883E80300126801
:101378003AB119462046904702B010BD6FF01200EE
:10138800FAE76FF05700F7E7D0580008685E0008E2
:101398001F2809D8012303FA00F0044B5B6998431E
:1013A8000CBF01200020704700207047003C01401E
:1013B80000F01F0201231F2803FA02F303D8034A8F
:1013C8000020536170476FF015007047003C0140E2
:1013D800044B18440023013300F8012B9942FADC2E
:1013E800704700BF590001202DE9F041054600264D
:1013F8000F4F4FF00108F4B26B78A34201D8BDE853
:10140800F0812B781C442046FFF7C2FF68B12046C4
:10141800FFF7CEFF57F834303BB107EBC40204F0B6
:101428001F04516808FA04F098470136E3E700BF43
:10143800FC020120034660B1B0FA80F2C2F11F023B
:10144800D2B205498856054A11680B431360FFF765
:1014580031BDFF22F5E700BF59000120003C0140E3
:10146800024A136823EA000313607047003C0140F6
:10147800032921D8DFE801F0020C10190F4B9A68F4
:1014880022EA00029A60DA6822EA0002DA6070470B
:101498000A4B9A680243F5E7084BDA680243DA60B8
:1014A8009A6822EA00029A607047044B9A680243DD
:1014B8009A60DA681043D860704700BF003C01406A
:1014C80030B5B0B1B0FA80F3C3F11F03DBB20B48FB
:1014D80050F833408C4204D100EBC3056D68954247
:1014E80005D044B940F8331000EBC3004260002037
:1014F80030BDFF23EBE76FF00F00F9E7FC02012096
:1015080060B1B0FA80F3C3F11F03DBB2044A0021D3
:1015180042F8331002EBC30251607047FF23F5E72E
:10152800FC02012000F003020F23043292009340D2
:10153800074A43EA9000C3B2023352F82320030C4F
:1015480093FAA3F302EA1040B3FA83F3D840704742
:101558000038014038B5354B14460D4618680B88DD
:101568008208C3F30B03112B19D8FBB1013B102BD5
:101578001CD8DFE803F00B1209125026301B245246
:101588000B1B1B1B1B3C46004FF4FA4020602B68CA
:10159800B3F5805F43D2002038BD0020F6E7382B32
:1015A800F4D006D823F00403302BEFD06FF0850079
:1015B800F2E7442B0DD0A82BE8D0402BF6D11046EB
:1015C800E4E700F0EFF81923B0FBF3F04FF4D87319
:1015D80058434008DAE700F0E5F81923B0FBF3F0C8
:1015E8004FF4D87358430923B0FBF3F0CEE700F06B
:1015F8000DF91923B0FBF3F04FF4C07358430523DA
:10160800F2E700F003F91923B0FBF3F04FF4C073CD
:1016180058432823E8E70648B8E75000B6E7C3F37D
:1016280013330133B0FBF3F02060B4E74800012026
:1016380040787D01112808D8054BC34013F0010FED
:1016480014BF00206FF0850070476FF08500704769
:10165800EA0E030070B54E4D00F0FEF84D4C2846DA
:1016680003F04DFA00F086FFA3684B4AC3F3031357
:10167800D35C20FA03F613781D41AE4202D2284605
:1016880000F0A6FF236823F480232360236843F433
:10169800803323603F4B1A689103FCD55A6F42F0A0
:1016A80001025A675A6F9207FCD59A6802F00C0239
:1016B800082A17D11A68940707D41A6842F0010259
:1016C8001A60344A13689807FCD5324B9A6822F09E
:1016D80003029A609A6812F00C0FFBD19A6822F004
:1016E800F0029A602B4C236823F0807323602368F0
:1016F8009901FCD4294AD2F8043823F44033C2F8BB
:101708000438D2F8043823F0706343F01063C2F849
:10171800043800F04BF8236843F0807323601D4CB5
:1017280023689A01FCD500F075F8236843F08053CC
:10173800236023689B00FCD5A36823F0F003A36013
:10174800A36823F0030343F00203A360114CA368CA
:1017580003F00C03082BFAD1AE4202D3284600F05E
:1017680037FF0F4B00200A4A1A60A36823F4E0539E
:1017780043F4A053A360A36823F4604343F40043F5
:10178800A360D4F88C3023F08073C4F88C3070BD1B
:1017980000E6DF0C00380240F16A00080030024021
:1017A800480001200048704740787D01114B1249DC
:1017B8005A681140114A0A4311495A605A6811403F
:1017C800104A0A435A601A6842F080721A60A3F5F8
:1017D800E4331A6842F480321A605A68D203FCD59E
:1017E8001A6842F400321A60074A53689B03FCD512
:1017F800704700BF003802400080BCFF196C4000F1
:101808000080BFF0196C4009007000400048704724
:1018180040787D010E4A536823F4800323F03F0388
:1018280043F4800343F0190353600A4BD2F888103D
:101838000B4043F0A04343F4C043C2F88830D2F8C9
:101848008C3023F4403343F40033C2F88C307047B3
:10185800003802403F80FF8F064B82B01A6C42F07E
:1018680080521A641B6C03F080530193019B02B0F1
:10187800704700BF0038024008B5074803F0CBFCAA
:1018880038B10648FFF748FD0448FEF799FF0020E5
:1018980008BD6FF01200FBE7745A0008A918000889
:1018A8000A2838B50446074D04D1AB680D212846EF
:1018B8005B689847AB68E1B202485B689847204686
:1018C80038BD00BF745A00082DE9F843D0F80480E9
:1018D8001746D0F810900D46D8F808001E4603F0B9
:1018E8006DF8B7F5001F044616D1D8F80840284609
:1018F800FFF718FE84420CD1294603F05FF804462E
:10190800FFF7AEFD2046FFF7FBFD00212046FFF75D
:10191800AFFD0020BDE8F883B7F5800F20D0B6F101
:10192800806F19D0B6F1C06F18D0B6F1007F1AD108
:1019380002264A460F492046FFF7C2FDB0B9D8F83B
:101948000810284603F03FF820463146FFF790FD7F
:101958002046FFF76FFDDCE70126EAE70326E8E704
:101968006FF08500D6E76FF01500D3E76FF00F0032
:10197800D0E700BF894D000838B5036904465860B0
:101988000A4D284603F047FC60B1AB6861681B68E4
:101998000C3123B12846984700EAE07038BD6FF053
:1019A8005700F9E76FF01200F8E700BFD0580008B9
:1019B8002DE9F047044600EBC10600251C4FB44250
:1019C80001D1002014E02068C30600F01F0911D4DB
:1019D800656845F02005C0F3481AC0F3442019286B
:1019E80023D857F82080B8F1000F0DD16FF01200FE
:1019F800BDE8F087B9F1100F04D0B9F1110FEAD1A1
:101A08006568E8E73025E6E7404603F004FC00286F
:101A1800ECD04B462A460AF00F01404603F0C6F9BF
:101A2800002804F10804CADAE2E76FF01500DFE7DE
:101A3800386200082DE9F0410C461946436804F164
:101A4800FF3CBDF818701D68BCF1050F21D8B5F131
:101A5800804F06D09948854203D0B2F5803F00F206
:101A680029819748032C50F82C6007F4807009D915
:101A780078B9344682B92B6A23EA04032B62002022
:101A8800BDE8F0810028F4D08E4850F82C40002C96
:101A9800F0D16FF01500F3E79B68002B40F09880B9
:101AA80002F1FF3807F00102B4F5807F4FEA4202E5
:101AB80000F0AB8000F29E80102C00F0A88000F2AD
:101AC8009580012C00F0A580042C08BF012018BFC8
:101AD80008207D4F2B6A385C022707FA00FE8240F7
:101AE800284623EA0E0313432B62784B53F82C3015
:101AF8009847C5F82C802B6A34EA0303BFD0B6F5A3
:101B0800807F00F09B8000F28E80102E00F098807D
:101B180000F28580012E00F09580042E08BF012375
:101B280018BF08236A4F05F118016A48B4F5807F89
:101B380017F803C010F803E0674B51F80C2003FABC
:101B48000EF322EA03034FF0600202FA0EF243EAB0
:101B5800020341F80C3000F08A807DD8102C00F088
:101B6800888075D8012C00F08680042C08BF0123DA
:101B780018BF0823DFF864C1B6F5807F6A681CF8CF
:101B880003C04FF4807303FA0CF322EA03036B607B
:101B98002B6A44EA03042C622B6843F080032B6011
:101BA8007ED072D8102E7DD06BD8012E7CD0042E1A
:101BB80008BF012318BF0823FA5CC05C08238C58AF
:101BC800834023438B506B6943F001036B6156E7F5
:101BD800102B01D1013963E723F04000202801D000
:101BE800402B67D149084FEA52085BE7402C08BFF1
:101BF80003206CE7B4F5805F0DD0B4F5803F0CD0BE
:101C0800B4F5806F08BF052061E7042061E7022072
:101C18005FE700205DE706205BE7072059E7402ED5
:101C280008BF03237CE7B6F5805F0DD0B6F5803F8B
:101C38000CD0B6F5806F08BF052371E7042371E760
:101C48003B466FE700236DE706236BE7072369E749
:101C5800402C08BF03238BE7B4F5805F0DD0B4F5A3
:101C6800803F0CD0B4F5806F08BF052380E70423BC
:101C780080E702237EE700237CE706237AE7072331
:101C880078E7402E08BF032394E7B6F5805F0DD0B0
:101C9800B6F5803F0CD0B6F5806F08BF052389E7FD
:101CA800042389E7022387E7002385E7062383E7E0
:101CB800072381E76FF08500E2E600BF000C0040D3
:101CC80008630008FC620008A56A0008E4620008CE
:101CD800B76A0008AE6A0008730001009C6A000831
:101CE8002DE9F7434668D0F810803468564F3846D7
:101CF80003F091FA002800F0A180D7F80890316924
:101D0800D9F800302BB96FF05705284603B0BDE865
:101D1800F08338469847051EF7DB7369012B40F2BC
:101D280090803169D9F818300831002BEBD00022A7
:101D38003846984705460028E7D13169D9F80C306C
:101D48000831002BDFD06A463846984700280FDB59
:101D5800009BD8E90101C8F800308368DB6803B14B
:101D6800984701AA0021B06903F038F8002801DA81
:101D78000546CAE7019B002219791868FFF718FE83
:101D88000028F5DB73680022A362304BE2629C42B4
:101D980012D0B4F1804F29D0A3F57C439C4225D0C2
:101DA80003F580639C4221D003F580639C421DD0DB
:101DB80003F578439C4224D12368B16823F070036B
:101DC8000B432360236823F4407323602263636C0E
:101DD800F26823F0FF0313436364636C43F4004326
:101DE8006364236843F0010323608EE72368B268C5
:101DF80023F0700313432360236823F440732360A4
:101E080009E0134B9C42F7D0124B9C4209D11A6847
:101E180022F440721A60F368002BE2D06FF0850557
:101E280073E70D4B9C42E7D00C4B9C42E4D00C4B23
:101E38009C42E1D00B4B9C42EDD1DDE76FF01205DF
:101E480063E76FF0150560E7D0580008000001400F
:101E58000040014000440140004801400018004093
:101E6800001C00400020004043681B6803F1080282
:101E780052E8002F42F0010203F1080040E8002177
:101E88000029F3D1154A93421BD0A2F54C42934244
:101E980017D002F58062934213D002F58062934214
:101EA8000FD002F5806293420BD002F54442934270
:101EB80007D0A2F51C42934203D002F580629342F8
:101EC80003D15A6842F040025A6053E8002F42F4A6
:101ED800807243E800210029F7D1704700100140C3
:101EE80043681B6803F1080252E8002F22F0010240
:101EF80003F1080040E800210029F3D1154A934274
:101F08001BD0A2F54C42934217D002F5806293424F
:101F180013D002F5806293420FD002F5806293429B
:101F28000BD002F54442934207D0A2F51C429342DB
:101F380003D002F58062934203D15A6822F040022E
:101F48005A6053E8002F22F4807243E800210029E8
:101F5800F7D1704700100140F8B50C460369416895
:101F68001D682379012B15D09F1E7E427E41B60243
:101F78006279022A96BF474F4FF4005737F812701C
:101F8800A279022A09D0042A31D0003B18BF0123C4
:101F98001B0306E04FF4C066EAE7B3FA83F35B0974
:101FA8001B07E2790968012A14BF4FF0000C4FF4AF
:101FB800407CA5421ED10A6822F0805222F4B05219
:101FC80032431A430A604B6823F440533B434B6047
:101FD80043681A68936823F4407343EA0C039360D8
:101FE8002968406802F0F7FF00EAE070F8BD4FF496
:101FF8008053D6E7D1F800E00EF4C06E764506D0DF
:10200800D1F800E02EF4C06E4EEA06060E60416874
:102018000E68716801F440518F4204D0716821F450
:1020280040513943716041680E68316801F01021F0
:102038008B4204D0316821F010210B433360436890
:1020480019688B6803F440739C4505D08B6823F4AA
:10205800407343EA0C038B6043681B689968490422
:1020680005D5032A09D09A6822F4804204E0032A9D
:1020780003D19A6842F480429A6021682B68994299
:1020880006D0406802F0A7FF0028AFDB23682B606A
:102098000020ABE7906400082DE9F3414768064645
:1020A800786803F0B8F820B96FF0120002B0BDE804
:1020B800F0817868396983681B68002B00F0978085
:1020C80098470028F2DB01AA0021786A02F086FE10
:1020D8000028EBDB019B002219791868FFF768FCE0
:1020E8000028E3DB756833692C68D3F8008023681F
:1020F80023F001032360A86803F08DF80028D3D0EB
:10210800D5E902018368DB6803B1984754E8003FCA
:1021180043F00C0344E80032002AF7D14146304628
:10212800FFF71AFF002802DA6FF01500BEE72B7ED2
:102138001BB1A36843F00803A3606B7E1BB16368FF
:1021480043F400436360AB7E1BB1636843F48033A0
:102158006360EB7E1BB1636843F4003363602B7FDD
:10216800002B38D0234B9C421BD0A3F54C439C42F8
:1021780017D003F580639C4213D003F580639C421B
:102188000FD003F580639C420BD003F544439C4277
:1021980007D0A3F51C439C4203D003F580639C42FF
:1021A800C2D173681A68936843F4804393602368C4
:1021B8006A7F23F0787343EA425323602368AA7F37
:1021C80023F4F81343EA02432360EB7F1BB1A368AF
:1021D80043F40043A360236843F001032360E369E9
:1021E8009B02FCD53046BB6A984700205EE76FF03B
:1021F80057005BE700100140F8B5436802460E46F9
:1022080091F805E01C68036908791D6801288B7935
:1022180013D1BEF1020F69D9022B1F464FF4C061DA
:102228004FF4005C7AD0042B73D000287BD0C31EF7
:10223800012B70D86FF08500F8BD02280AD1BEF1D5
:10224800020F5FD9022B1F464FF480610BD04FF469
:10225800005CE8E7BEF1020F57D9022B1F4656D1A2
:1022680000286BD00021C31E012BE3D900200227D0
:1022780003237345DED102F018FEB842DAD1F379B0
:1022880003B3012B62D1334B9C421BD0A3F54C43C3
:102298009C4217D003F580639C4213D003F58063FA
:1022A8009C420FD003F580639C420BD003F5444356
:1022B8009C4207D0A3F51C439C4203D003F58063DE
:1022C8009C42B7D123683146104623F001032360AE
:1022D800FFF742FE0028ADDB236843F001032360CB
:1022E80096E8030085E803000020A5E74FF4C061E5
:1022F800194F022B37F81EC01F4694D170B94FF002
:10230800805010E04FF48061F2E70021F0E70021EF
:102318009DE700288ED14FF4805004E0C31E012BA6
:1023280088D902270020BCF5805F0BD0BCF5405F40
:102338000AD0BCF1000F9BD101239AE701464FF068
:10234800805095E7002394E7022392E7032B9AD065
:1023580070E700BF00100140906400084FF0E023D0
:102368000F4910B59C691A6908689B6902F48032A4
:102378000C4934B993B903464AB90A681044C01ADB
:1023880010BD002B08BF03460AB9A342F5D90A6855
:1023980002440A604FF0E0221269EEE70446F3E7D0
:1023A8005C04012058040120094B1022002083F806
:1023B800232045F26042074B1A6045F25F42064B04
:1023C80018604FF0E0235A61072298611A6170473C
:1023D80000ED00E05C04012058040120684620F06C
:1023E80007018D4619B5FFF7B9FF1149114B086868
:1023F800D3E90042001942F10002C3E900020E4A83
:1024080000230B6045F26043D2E90041001BB0FB9A
:10241800F3F043431B1941F10001C2E9003100F018
:10242800C9FFFEF7BBFABDE819408546704700BFF3
:1024380058040120C0000120B80001202DE9F04116
:10244800DFF8E08099B1421C0BD14FF0E02213690C
:1024580023F0010313614FF07F43C8F80030BDE853
:10246800F081D8F80060012807DC00270BE0431C46
:10247800D8F80060F7D140F20730B0F5427FA8BF26
:102488004FF44270471EEFF31185102383F312882F
:10249800BFF36F8FFFF762FF234C4FF0E02399697A
:1024A800D4E9002380184FF0000243F10003C4E987
:1024B80000031E4B1A601E4B1A68831A2ED445F26D
:1024C800604C0CFB073303F5A8435F33B3FBFCF701
:1024D800131A40F246520CFB0733934238BF134697
:1024E800144A934228BF1346C8F800304FF0E02240
:1024F800013B90695361002381429361A1EB000382
:10250800D4E9001238BF9B195B1842F10002C4E9F4
:10251800003285F31188BFF36F8FA0E740F246536E
:10252800E2E700BF5C040120C0000120580401203C
:10253800B8000120A06EFF0038B5EFF31185102315
:1025480083F31288BFF36F8F084B1C68084B1B6816
:10255800E41AFFF703FF85F31188BFF36F8F45F285
:1025680060432044B0FBF3F038BD00BFC000012039
:10257800B8000120134908B58B6803F00C03042B3D
:102588001BD0082B1BD14A684B68496802F03F02F0
:1025980013F48003C1F388111ABF0B4800230B48BA
:1025A800A1FB0001FDF70CFE064B5B68C3F301437A
:1025B80001335B00B0FBF3F008BD0348FCE70348B8
:1025C800FAE700BF0038024040787D010024F4009B
:1025D80000285DD02F4B1A681B6802F44042B2F500
:1025E800404F33D113F4803310D102F10F6202F55A
:1025F8008C52904248D8284A904247D8274A90425D
:1026080035D8274A904209D902230DE0254B984234
:1026180038D8234B98424FF0060305D8224A9042F7
:1026280002D9012B38BF012320490A6822F00F0282
:102638001A430A600A6802F00F02934202D00A683D
:1026480002F00F02981A18BF0120704703F44043A4
:10265800B3F5004F05D103F10F6303F5A343984287
:1026680012D80D4B984211D80C4B984201D903232C
:10267800DAE70B4B9842C7D80B4B984294BF00231C
:102688000123D1E70723CFE70523CDE70423CBE7D1
:102698000120704700700040000E2707804A5D0542
:1026A800008793038058840C80C3C901003C024012
:1026B80038B5EFF31185102383F31288BFF36F8FBA
:1026C800064B9C6802F0BAFD85F31188BFF36F8F43
:1026D8002046BDE83840FEF793BB00BF60040120E8
:1026E80038B50A4B53F82040013053F82050A54222
:1026F80000D838BD606830B1037EDB0701D402F032
:1027080072FD0834F3E723689847FAE7CC630008BA
:102718002A4B0122032070B5294C86B0294D1A7026
:10272800FFF7DEFF00F0BEFE0420FFF7D9FF2646C4
:102738003034AE4210D3224C00F062FB224EAC4241
:1027480026D300F071FBFDF7A7FF204A137B23F087
:102758000103137306B070BD54F80C3C059354F88C
:10276800103C049354F8143C039354F8183C029317
:1027780054F81C3C019354F8203C009354E90A2374
:1027880054E90C0100F092F954F8303C5E65CEE74C
:10279800D4E90A23B3F1FF3F08BFB2F1FF3F05D0E8
:1027A80052EA0301206803D100F0FAFB3034C6E78F
:1027B8003146183000F06EFDF8E700BFC004012074
:1027C800BC5D0008BC5D0008555300086801012085
:1027D80070B5A023164E86B0012203FB0066154B88
:1027E800154D044605930F231449CDE90332002300
:1027F8004FF4A072CDE90133142303FB00554FF4C5
:10280800C0700F4B00FB04113046009500F04EF9E4
:10281800737B0C4A23F00403EE602C7473734FF43B
:10282800046304FB033313446B6006B070BD00BF40
:10283800C8000120016B00086004012080110120FC
:102848004B52000840090120BFB50020FFF748FFA0
:10285800274B83F30888274C0025F023264F84F85C
:102868002230E57725766576A57684F82050636A68
:1028780043F4E0236362FEF793FAFEF7B9FB4FF0E7
:10288800FF33A362E362FEF77BFC1C4CFEF7D4FB2C
:102898001B4800F093F9FDF7D5FF0120FFF720FF53
:1028A8000220FFF71DFF00F0F3FA164B012216492C
:1028B8005C612046154B009505930523CDE901552C
:1028C800CDE903323B464FF4806200F0EFF8627BBB
:1028D8000646204622F00402627302F00BFD2846E9
:1028E800FFF776FF3A4631462046FEF761FB00BF08
:1028F8008011012000ED00E019270008680101207F
:10290800080201206004012000130120066B000862
:102918002DE9F34104460E469DF8200004F108080D
:10292800EFF31187102181F31288BFF36F8F256AA7
:10293800E1688D4242D22568AC421AD0CDB1284612
:1029480002F08AFC05F1180002F03CFDA2680024A0
:102958003146286902F06AFD2846C5F8984002F019
:10296800C9FC4046394600F025FA204602B0BDE8C9
:10297800F081A268A8B13146E06902F057FDE36929
:10298800A268134462699342E36101D12369E36158
:10299800236A00200133236287F31188BFF36F8F06
:1029A800E4E7A16923699942314604BF6369A361D9
:1029B800A069801AA06102F039FDE9E752EA030133
:1029C8000AD00749404689680E613946CDE9002397
:1029D800224600F0CDF9C9E76FF02200DCE700BF1E
:1029E80060040120F7B50446084604F10807EFF330
:1029F8001186102181F31288BFF36F8F216A002995
:102A08003AD0A268A16902F011FDA369A2682568FD
:102A1800134462699342A36104BF2369A361AC4272
:102A2800236A03F1FF33236234D02846002D32D0C5
:102A380002F012FC05F1180002F0C4FCA268296932
:102A4800E06902F0F3FCE369A2682846134462696E
:102A58009342E36104BF2369E361236A013323627C
:102A68000024C5F8984002F045FC3846314600F08D
:102A7800A1F9204603B0F0BD52EA030110D00A497B
:102A88008968086131463846CDE90023224600F0BE
:102A98006FF9EFE7002086F31188BFF36F8FE9E73E
:102AA8006FF02200F7E700BF600401202DE9FF471F
:102AB80007320E469846109922F0070200F1580393
:102AC800017304217F320446417306F1400A22F063
:102AD8003F02119FC0E9163300233F2AA2F14009A3
:102AE80083600F98E373A073C4E9063305D883F3B2
:102AF8001188BFF36F8F084602DFB51820462946B4
:102B0800FDF72CFF07300E9B314620F0070000260A
:102B1800C4F888002D1A20462A46C4E920A9029341
:102B28000D9B01930C9B00934346FEF711FA6665D3
:102B380097B11F22394604F1600002F091FC84F835
:102B48007F60074B9B680BB1D3F88C302846C4F8DC
:102B58008C3004B0BDE8F08784F86070F1E700BFFE
:102B680060040120F0B5002587B004460595109D46
:102B780004950F9D03950E9D02950D9D01950C9D45
:102B8800DDE912760095FFF791FFB6F1FF3F08BF28
:102B9800B7F1FF3F05D056EA070305D1204600F0FC
:102BA800FFF9204607B0F0BD3A46334604F1180055
:102BB800014900F06FFBF4E75553000840F2011398
:102BC80083810023C0E92033C0F88C30014B986022
:102BD800704700BF600401200A4A6FF00A01936839
:102BE800C3F898100849C3F894004B6843F0805321
:102BF8004B60002383F31188BFF36F8F9368D3F87A
:102C0800980070476004012000ED00E070B590F96D
:102C18000D20437B002A36DBD90634D11B4C63F0E8
:102C28007F0322464373E16952F8183F934207D164
:102C3800C0E900210860E06111E09942F8D01B6802
:102C4800002BF5D090F90E5093F90E60B542F4D0F0
:102C5800AE42F2DD5968C0E9003108605860A569E4
:102C6800954200D005B9E568A3685A7BD20604D11D
:102C7800DA897F2A01D9AA6932B1AB4202D0284643
:102C880000F088FA656170BD6361FCE760040120AB
:102C980038B590F90D200146437B002A04DA03F089
:102CA8007F03437302F0ECFA0D4D2A46AB6852F8E5
:102CB800184F944200D004B9EC688B4207D05A7B75
:102CC800D20604D1DA897F2A01D9A2692AB1A3429E
:102CD80002D0204600F05EFA23466B6138BD00BF83
:102CE80060040120B3F1FF3F08BFB2F1FF3F03D0FA
:102CF8000249183000F0CEBA704700BF555300089B
:102D080038B5194CA168E0690B68814214BF1A46AE
:102D1800002249680B605960A368E1692AB9134A1F
:102D2800C3E900210B60E3610CE093F90E0092F90E
:102D38000E50A84214D0854212DD5168C3E9002123
:102D48000B605360A569094B9D4200D005B9E56841
:102D5800A3689D4202D0284600F01CFA656138BD80
:102D68009142DCD01268D9E7600401207804012080
:102D7800F8B50E4B0C4611460D4A9868DDE9066712
:102D88001060EFF31182102282F31288BFF36F8F65
:102D98009D68284602F086FA284632463B46FFF7E9
:102DA800A1FF2046BDE8F840FFF716BF60040120E8
:102DB8008004012049B9EFF3058030B9054B5A6901
:102DC8009B689A4201D0FFF707BF81F31188BFF3D0
:102DD8006F8F704760040120034648B9EFF30582FE
:102DE80032B9064A51699268914201D0FFF7F4BEA0
:102DF80083F31188BFF36F8F704700BF6004012011
:102E0800EFF31181102383F31288BFF36F8F054B03
:102E18009A68D37B013BD37381F31188BFF36F8F1B
:102E2800704700BF6004012070B5EFF311861023CE
:102E380083F31288BFF36F8F144DAB68DA7B0132CE
:102E4800DA732A4652F8184F944200D004B9EC6855
:102E58005A7BD20604D1DA897F2A01D9A2692AB11C
:102E6800A34202D0204600F095F923466B6186F311
:102E78001188BFF36F8FEFF31180102383F312884B
:102E8800BFF36F8FBDE87040FFF7A6BF6004012055
:102E9800024B03F11802C3E90622704760040120BF
:102EA80070B5EFF31186102383F31288BFF36F8F89
:102EB8001B4CA168E0690B68814214BF1A460022C6
:102EC80049680B605960A368E1692AB9154AC3E9E2
:102ED80000210B60E3610CE093F90E0092F90E50AB
:102EE800A84218D0854216DD5168C3E900210B605D
:102EF8005360A5690B4B9D4200D005B9E568A368EE
:102F08009D4202D0284600F045F930466561BDE88B
:102F18007040FFF761BE8A42D8D01268D5E700BF7B
:102F28006004012078040120F8B550EA0103064640
:102F38000C4603D1FFF7B4FF0020F8BDEFF311876B
:102F4800102383F31288BFF36F8F124D124BA868BA
:102F58001860FFF79DFEA868234632460F491830CF
:102F680000F098F9AA6804463846537B43F00403F6
:102F78005373FFF731FEAB68D3E90A23B3F1004F6F
:102F880008BF002AD8D102F045FA201A20EAE070DA
:102F9800D3E700BF600401208004012055530008D6
:102FA80038B50446EFF31185102383F31288BFF375
:102FB8006F8F437B5B070FD5183002F003FA637BF2
:102FC800204623F004036373FFF720FE29460548D3
:102FD800BDE83840FFF7EEBE85F31188BFF36F8F69
:102FE80038BD00BFC1040120014B9868704700BF7D
:102FF800600401202DE9F8430446077BEFF31185AF
:10300800102383F31288BFF36F8F437B190705D50D
:1030180085F31188BFF36F8FBDE8F883D90943F0B2
:1030280008025DD14273A36813B1204602F030F95B
:1030380004F1180004F1580802F0C4F9A66DB0456F
:1030480011D04FF0000976B1304602F021F906F1AF
:10305800180002F0B7F93046C6F89890FFF7D6FD89
:10306800A66DB045EFD1DFF8C080D8F808309C4293
:103078003ED1EFF30589B9F1000918BF4FF00109F6
:10308800D8F81860294A964200D00EB9D8F80C60D2
:10309800B34202D0304600F07DF82046C8F81460EC
:1030A80001F017FCB9F1000F02D02148FFF786FDA7
:1030B800D8F808309C4231D1EFF3058373BB227BEB
:1030C800D20718D42846FFF787FDFB07A4D50023AD
:1030D80083F31188BFF36F8F0423184602DF9BE741
:1030E80003F07F0343F00803437302F0C9F89AE73B
:1030F8004FF00009C4E785F31188BFF36F8F83F39E
:103108001188BFF36F8F0423184602DFEFF3118095
:10311800102383F31288BFF36F8FD4E785F31188E8
:10312800BFF36F8FD1E700BF60040120780401204E
:1031380008020120427B034612F01F0210D10A49FF
:1031480088420DD00949086868B1D9897F2909D80A
:1031580093F90E20064B1B689A42B8BF00207047AF
:103168000020704710467047C80001204C0001201D
:1031780084040120044B0122C01A044BC010584398
:10318800034B1A54704700BFA8020120ABAAAAAA91
:10319800C10401200D4B70B51E7CFFF7CBFF0C4D11
:1031A800044606EB460305EBC305284602F00AF978
:1031B800084B00229A553CB1621E28460649D3178F
:1031C800BDE8704000F066B870BD00BF6004012023
:1031D800A8020120C10401207D31000838B5EFF3B1
:1031E8001185102383F31288BFF36F8F0F4B104A9A
:1031F8009C681068A04206D1FFF7CCFF85F31188C0
:10320800BFF36F8F38BD00211B7C1160094AD35C66
:10321800002BF3D02046FFF78DFF0028EED0637B0C
:10322800DB0601D1FFF76CFD2046E5E760040120CD
:1032380080040120C1040120024B1868984208BF8D
:103248000020704750000120034B1B680BB9FFF7A3
:1032580073B90020704700BF8804012030B570B1F1
:103268000B4B5B6898420AD0036843B1D3E9042149
:10327800D0E90445121941EB0501C3E90421D0E95D
:10328800003213605A600023C0E9003330BD00BF2C
:1032980050000120B3F1FF3F08BFB2F1FF3F2DE915
:1032A800F84F0446994615461F467AD08160EFF3D9
:1032B8001188102383F31288BFF36F8FB9F1000FC1
:1032C800DFF8E4A020DBFFF7BFFF0135064649F130
:1032D80000092D18DAE9002749EBE0734FF00109DE
:1032E800C4E90453AD1843EB0707FFF7A5FFDFF860
:1032F800BCE00346DEF804A0EBB9C4E900EACAF86A
:103308000040CEF8044028E0DAE900126FF001032B
:103318005B1A4FF0FF3161EB02025B1B62EB0902A3
:10332800012B4FF0000972F10001BCBF01230022FC
:10333800C0E90432D9E7D3E9041CD4E904208A425D
:1033480070EB0C0B24DA891A5A686CEB0000C3E99D
:103358000410C4E9003214605C60FFF76DFF84421A
:103368000ED1134B1B685BB9B9F1000F02D1FFF7FF
:103378006BFF0646304602F00EF80021FFF75EF8B4
:1033880088F31188BFF36F8F28463946BDE8F88F58
:10339800521A60EB0C009A45C4E90420ADD01B68B2
:1033A800AAE700252F46EFE7C002012050000120C0
:1033B800880401202DE9F047EFF31185102383F3EA
:1033C8001288BFF36F8FDFF8A4900026DFF8A08083
:1033D8000027C9F80000FFF72FFFD9F80030D8E917
:1033E80000ECD91750B1D0E90442A34271EB020AAC
:1033F8001CDAE41A62EB0102C0E9044213EB0E0383
:103408004FF000044CEB01012046C9F80040C8E920
:10341800003101F0C0FF2146FFF710F885F311884D
:10342800BFF36F8FBDE8F047FFF7D8BE14EB0E026D
:103438004CEBE473C0E90467C8E90023FFF70EFF0B
:1034480085F31188BFF36F8F83689847EFF3118571
:10345800102383F31288BFF36F8FD9F800301B1B3A
:10346800C9F80030FFF7E8FEB7E700BF880401207D
:10347800C002012010B5EFF31184102383F31288E2
:10348800BFF36F8FFFF7E0FE054A0346D2E900015C
:10349800181841EBE37184F31188BFF36F8F10BDE7
:1034A800C0020120014801F0F3B900BF0B6B00080E
:1034B80038B5064C064DAC4201D3002038BDD4E9DE
:1034C80001122046143401F0A9FFF4E7900001200E
:1034D80090000120242A2DE9F041044601D8012A50
:1034E80049D102F08BF9354B16221A5001B10C6004
:1034F8000020BDE8F08135462E4616F8010B20283D
:10350800F9D0A0F10907042F0346F4D92B2834D0A9
:103518002D2835D14FF0010C6B78AE1C302B36D1ED
:10352800307840F0200078282DD132F010002AD1D0
:1035380073783446102202360CF10047013F002010
:10354800B7FBF2FE02FB1E78392B82BF03F1FF3373
:1035580043F02003263B303B9A421FD9704502D8DE
:1035680019D1984517D24CF0020C3546344615F857
:10357800013B2E46E8E70546BEE74FF0000CCBE7D7
:103588004FF0000CCAE7002A08BF0822D4E7002A37
:1035980008BF0A22D0E700FB0230E6E701B10C6061
:1035A8001CF0010F18BF40421CF0020FA1D002F01E
:1035B80025F9024B22221A5038469AE70C000000DF
:1035C8002DE9F04101260746B24201DCBDE8F08151
:1035D8003B461F4613F8014B002CF7D0252CF8D199
:1035E8001C78252C07F10207F2D00023DFF80481AC
:1035F8009C461D461F2D18D8A4F1200EBEF1100FB1
:1036080009D9A4F1300EBEF1090F1ED80A2404FB13
:1036180003E3202504E028FA0EFE1EF0010F06D071
:1036280017F8014B002CE5D128E07F2D1CD8A4F118
:10363800300EBEF1090FE9D9242C10D1BCF1000FCE
:1036480046D0B34246D00023EAE724F0040EBEF188
:103658002A0FF8D06C2C09D145F08005E0E724F05A
:10366800040EBEF12A0FEED06C2C22D06C2C1BD885
:10367800682C23D06A2C28D04C2C26D0BCF1000F03
:10368800A4D0B445A0D144F02007A7F1650CBCF143
:10369800020F0B6801D9612F1ED1073323F00703EE
:1036A80008330B6001368EE7742CB9D07A2CB7D06A
:1036B800E4E72C0648BF45F40075CDE7EC0548BFA4
:1036C80045F4007545F48075AAE745F42075A7E729
:1036D8009C46B8E76324D6E7692C02D007D8632C48
:1036E80003D02F0601D5AC05D7D40433D9E7732C02
:1036F800F6E700BF892801002DE9F04F95B043682F
:103708000393837880469807CDE9081217D50D9260
:103718000B4600251F78A7B1252F16D00133079334
:10372800039B414638469847002805F1010580F279
:10373800398498F8023043F0040388F802304FF0D7
:10374800FF35284615B0BDE8F08F5F789A1C252F05
:103758000792E5D000242646A246A346BBF11F0FD8
:1037680032D8A7F12003102B0AD8DFE803F0240988
:10377800092A0909091B0909092209270909190040
:10378800A7F13003092B2DD92A2F39D154B90D9B14
:103798001BF0400F53F8042B0D9329D0164601E077
:1037A8004BF0010B079B13F8017B0793002FD5D132
:1037B8005BE04BF0020B4BF0040BF3E74BF0080B0C
:1037C800F0E74BF0100BEDE7BBF17F0F3FD8A7F107
:1037D8003003092BD8D81BF0400F03D00A2202FB74
:1037E8000636DFE70A2202FB0A3A4BF0200BD9E73C
:1037F800B2F1000AF9DACAF1000A4BF0280BD1E756
:103808002E2F05D11BF0400F9BD14BF0400BC9E781
:10381800242F1CD1002C00F04281099B0D931BF032
:10382800400F0AD1524608980DA9FFF7C9FE0D9B13
:103838001A1DD3F800A00D92B4E7324608980DA9D6
:10384800FFF7BEFE0D9B1A1D1E680D92AAE76C2F8E
:1038580000F0128100F20981682F00F015816A2FAB
:1038680000F01A814C2F00F0178134B1099B089899
:103878000D9322460DA9FFF7A3FE002E47F020095D
:10388800B8BF2BF0400BA9F16503BCBF1FFA8BFB37
:103898000026022B40F20881B9F1610F40F06782DF
:1038A800FF4307F0200306930D9B073323F007031C
:1038B8001BF0400FD3E9000103F1080208BF4FF0E5
:1038C800FF36069B0D9200930EAA334601F001FFC6
:1038D8000130C3B2B3424BF4C054049301DB049BE0
:1038E8005E1E01230E9F0593A3464FF0700907F152
:1038F8000903122B0DD907F16303C62B40F20F8180
:1039080007F2E73340F2CE72934294BF03230423B5
:1039180005939DF83C2002F00C0312F0010240F0E0
:1039280019811BF0020F40F012811BF0040400F013
:10393800F880002B40F0118120231BF4405F1FD139
:10394800049A5032002E6A4408BF0126133A04999B
:1039580021B112F8011D302900F036811BF0100F3B
:10396800049A18BF3246391DC0F23381B74280F23B
:103978003081BA424BF4005B40F32D817E1C961BCC
:103988001BF400520A9200F0288127EAE7740134F8
:1039980003B10134002E00F02881721C1444A245A2
:1039A800CCBFAAEB040400241BF0090F04D12C445B
:1039B800A54240F01F81002443B118464146039BAD
:1039C8009847002805F10105FFF6B3AE1BF4006F18
:1039D80013D0039B4146302098470028FFF6A9AE34
:1039E800069BC3F178004146039B00F0F800984716
:1039F800002805F10205FFF69CAE1BF0080F05D163
:103A08002C44AC4240F00281254600240A9B002B3E
:103A180000F01C8127EAE77AA7EB0A077642049BA5
:103A2800BB4284BF0EABFB180AF1FF3A88BF587936
:103A3800039B98BF3020564505F10109414600F324
:103A4800EF809847002807F10107FFF672AEBAF138
:103A5800FF3F08D1039B41462E2098470028FFF6D8
:103A680068AE05F102094D46D9E7742F3FF49AAEC6
:103A78007A2F3FF497AEF8E61BF0800F18BF4BF48F
:103A8800007B4BF0800B8DE61BF4807F18BF4BF456
:103A9800007B4BF4807B85E64BF4207B82E6264650
:103AA800B3465446B2467DE6FF4307F0200306932B
:103AB8000D9B073323F007031BF0400F03F10802A7
:103AC80008BF0626B9F1650FD3E900010D9213D19D
:103AD800731C0022DBB24BF4805B1446112BCDE93A
:103AE800002428BF11230EAA00F0FCFAC3B20493E5
:103AF80002230E9F0593FAE6B9F1660F05D14BF440
:103B0800005B344601221123E8E7F3B2012B4FF0A2
:103B1800000238BF012314464FF06509DEE702238F
:103B2800F6E6002B3FF409AFBAF1030F3BDC9DF832
:103B38003C30A64E13F0080FA54B08BF1E4637466B
:103B4800B94617F8010BB0BBAE1BB1447BE033BBE1
:103B58002B23F2E62BBB2D23EFE62022BAF1040F2C
:103B680013DD1BF0080FAAF104040FD12C44039BAA
:103B78000492414620209847002805F10105FFF6E8
:103B8800D8ADA542049AF2D19AB10024039B4146CC
:103B980010469847002805F10105C8DAC9E52B2227
:103BA800DCE72D22DAE71BF0080FAAF10304BED1E7
:103BB800DCE71446BBE7069BC01A4146039BC0B22C
:103BC80098470028BCDAB4E504990139C9B20491D0
:103BD800BDE6561ED4E60026D2E61BF4006F059A11
:103BE8000CBF032405241444D2E61BF0100F18BFA1
:103BF8000134D4E60B934146039B202098470028C4
:103C08000B9B05F10105BFF6D3AE92E5039B414638
:103C180030209847002805F10105BFF6F2AE88E587
:103C280098470028FFF685AD1BF0100F0BD0BAF1AE
:103C3800FF3F08D105F1020941462E20039B984712
:103C48000028FFF676AD4D464C4433E29DF83D0022
:103C5800039B414698470028FFF66BAD002E69DDAF
:103C6800039B41462E2098470028FFF662AD4FF08F
:103C7800010A049B9A45BBBF0EAB534430205879C8
:103C8800039B414698470028D346FFF652AD0AF1F8
:103C9800010A5645EDDA02355D44069BA9EB03009F
:103CA8004146039BC0B298470028FFF642AD002F5B
:103CB800B4BF2D202B20039B4146B8BF7F429847B5
:103CC8000028FFF636AD059B042B41D14FF47A79D5
:103CD800B7FBF9F606F13000039B4146C0B298479E
:103CE800002805F10305FFF624AD09FB16774FF010
:103CF8006409B7FBF9F606F13000039B4146C0B2F0
:103D08009847002805F10105FFF613AD09FB167762
:103D18004FF00A09B7FBF9F606F13000039B41465C
:103D2800C0B29847002805F10105FFF602AD09FB6E
:103D3800167715E01BF0100F01D10135ADE7039B95
:103D480041462E209847002805F10205A5DAF0E43F
:103D5800059B032B05F10205C9D0059B012BD7D183
:103D680007F1300005F101094146C0B266E7A7F145
:103D78006303122B00F2FF80DFE813F013005700F3
:103D8800FD00FD00FD00FD005700FD00FD00FD00E9
:103D9800FD00FD001701F800FD00FD002C00FD00EE
:103DA800B9000D9B1A1D1B680D928DF8383001243F
:103DB8000EAF1BF0080F2ED03E19B946B1452CD1D5
:103DC800EF1BB944AAEB04043DE700BF4A6B0008A7
:103DD800466B00080D9B1A1D0D921F68AB4B002FF8
:103DE80008BF1F461BF0400F14BF31464FF0FF318C
:103DF800384601F045FB0446DBE7039B414620209B
:103E080098470028FFF695AC013EB442F5D35544D7
:103E1800AD1BB246D0E75646F7E719F8010B039BEE
:103E2800414698470028C9DA83E41BF0800F0D9BB0
:103E380035D01BF4007F2DD0073323F00703D3E9D7
:103E4800000103F108020D922BF0100900291FFA56
:103E580089F936DA404261EB410149F480690DF194
:103E6800380B0A235A4601F017FB19F0400FA0EB54
:103E78000B0B65D029F001025E4592B240F3B28087
:103E8800002F00F0A98019F010033446914626D07F
:103E980002345CE01A1D18680D92C117D4E71A1D88
:103EA8001BF4807F19680D9201D10846F5E71BF4D1
:103EB800007F15BF48B208B241F3C01141F3C031C9
:103EC800C2E750EA0103CAD11BF0400FC7D0002E49
:103ED800C5D12BF0110B1FFA8BF93446B34640F2CB
:103EE800064319EA03031CBF013400232FE02BF01B
:103EF800100B1FFA8BFB0A231BF080040D9A57D076
:103F08001BF400711DBF073222F0070202F10801FD
:103F1800101D19BF0D91D2E900010D90106850EAEB
:103F2800010252D12BF016091BF0400F1FFA89F934
:103F38004FD0002E4DD12BF0170B1FFA8BF9B3463B
:103F480019F0100352D0002F4ED10BF1010419F0D3
:103F5800080F5ED119F0010F06D0A2456EDDAAEB5D
:103F6800040404EB0B06544622464DE04BF0100BBC
:103F780010237827C0E7B9F1780F04D1C7F1780387
:103F880043F01003B8E7039B4146252098470028D3
:103F9800FFF6CFAB039B4146384698470028FFF60B
:103FA800C8AB0235079BFFF7B5BB08230027A3E77B
:103FB800111D0D911BF480711068B0D01BF40071B5
:103FC8001ABFC0B2214680B2A9E72BF0060B1FFA30
:103FD8008BF90DF1380B45E729F011091FFA89F91A
:103FE80034467CE79146ABE75C4651E75C4676E7AA
:103FF800CDE904234146039B202098470028FFF67B
:1040080098AB049A059B01329245F1DC2C1BA5184C
:104018001446F3B1039B4146302098470028FFF629
:1040280088AB6FB90135A9462E44A6EB09035B4559
:1040380021DC5D460EAE5DBBD944C3E65E4693E720
:10404800023541463846039B98470028EBDAFFF7CC
:1040580070BB40F2064319EA030FE4D019F0020FCF
:1040680014BF2B20202019F4806F05F1010541466B
:1040780018BF2D20E7E7039B4146302098470028CA
:1040880009F10109D1DAFFF754BB00BF4E6B0008F4
:10409800013D039B705D414698470028CBDAFFF746
:1040A80048BB039B414620209847002805F101059D
:1040B800FFF63FAB631B002BF3DC73E71FB502ABC6
:1040C8000093074A4FF0CC3301F0C9FADDE9020149
:1040D800C00840EA4170C90805B05DF804FB00BF9C
:1040E800CDCCCCCC2DE9F04F9BB0044605920A46C6
:1040F8000A93C2F30A559DF890300B93D20FC1F37F
:1041080013030992090D7DB950EA03021BD1059AE0
:1041180030235371099B156043F002031371012783
:1041280038461BB0BDE8F08F40F2FF7295424AD185
:104138000343099B059A14BF43F0080343F00403A3
:1041480013710027ECE700F0010208924FEA830898
:104158000122AC4D48EA907887009A461646C5F188
:10416800000B5846069200F011FAB5F1FF3FACBFBC
:104178008146A0F10109ABEB090B09EB0503584691
:10418800049300F009FA16A9A0F17D05584600F03D
:1041980023FA12AB069A0193A9EB050510AB02921C
:1041A800009320462B4616AA514601F09DF9B9F115
:1041B800010F04460D4600F2D280089B002B40F008
:1041C800C58001276BE043F4801A00F001024FEA32
:1041D8008A080343A5F23545089248EA90784FEAE1
:1041E800800749D140F2FE7319420CBF0126002610
:1041F800002D3246B3DB284600F0C2F9032DC8BFB4
:104208000138049000F0C8F9049B7C305D1B05441C
:1042180016A9184600F054FA12AB019310AB00939C
:1042280020462B46029616AA514601F05DF9049BDA
:10423800152B04460D4600F2868014AB724A009393
:1042480038464FF0CC33414601F009FA149B159AD1
:104258009B0843EA827303EB8303BB42DDE9109AB0
:104268000CD13846414600F09FF9049B83428CBF2D
:1042780000270127002612E00126B9E7089B002B3A
:1042880051D1013F48F1FF31B81B61F1000100F045
:104298008BF9049B089F83428CBF002601260B9B49
:1042A800002B40F09180DDF828B04FF00008CDE9F0
:1042B80006884FF00A0ADDE91001FFF7FFFE129B9E
:1042C8000E93CDE90C0118461399FFF7F7FE0C9BE6
:1042D8000D9A0F9198420B469341814680F08E804B
:1042E80020462946FFF7EAFE0E9A0AFB09F3934295
:1042F80014BF002606F001060C9B10930D9BCDE918
:1043080011390F9B1393079BB8F1000F14BF0027B7
:1043180007F0010701330AFB10485FFA88F8079392
:1043280004460D46C7E7B81C48F1000100F03CF907
:10433800049B83428CBF00200120B9EB00006AF186
:104348000002CDE9100200273E46A8E7109B119A0B
:10435800013B42F1FF32CDE9103201278AE7B9F17A
:104368003E0FF0D84FF0FF33A9F1200003FA09F20D
:1043780003FA00F0C9F1200123FA01F102430A43CC
:1043880003FA09F327EA030728EA020857EA0807A5
:104398000CBF012700276DE700FB02FCA1FB001200
:1043A800013362448C4275EB020CF5D2049ADDF8B5
:1043B80028B01344259A1344D20F9342B8BF13462A
:1043C8009B45A8BF9B4670E70A21002201230846A7
:1043D800E8E70AFB03F0A2FB0A23013103449442F5
:1043E80075EB0300F5D2594510DDBBF1000F02D182
:1043F80054EA05030AD00123069371E70A22002331
:104408000121ECE7CCFBFFFFCDCCCCCC002E2FD08C
:104418004FF00A0A129B13990D931846FFF74EFEA8
:104428000D9B0C910AFB00F29A42814620D1DDE9EE
:104438001001FFF743FE0E900D9120462946FFF725
:104448003DFE0D9B0E9A1092CDE911390C9B1393EA
:10445800079BB8F1000F14BF002707F001070133CD
:104468000AFB10485FFA88F8079304460D46D1E71F
:10447800DDF81090079B9944002F5AD0B8F1050F2A
:1044880057D114F001034AD1069A32B9DDE9122353
:104498009D4208BF94425FD0069B18194FF00A044A
:1044A80045F10001002201262546A04271EB0207D2
:1044B80055D2EBB1B3451BDA0B9B6BB1259ADDF8EE
:1044C80028B006EB09031344012BB8BF01239B4511
:1044D800A8BF9B465E450BDD05304FF00A024FF042
:1044E800000341F10001FBF76BFE09F10109013EF0
:1044F8005E45A8BF5E4637B20FFA89F9059B09FAEF
:1045080086F607F10508013E98444FF00009B945C1
:104518002CDB059B1A461E60099B137100E6069B5F
:104528002BB9DDE912239D4208BF944209D001232B
:10453800B3E7069B53B9DDE912239D4208BF9442B5
:1045480004D1089B002BF2D1002EF0D0B8F1040F53
:1045580094BF00230123A0E74FF00408F1E705FB0F
:1045680002F7A4FB054201363A449EE70A220023DB
:10457800FBF726FE303208F8012D09F10109C6E7DC
:10458800014B5843800C704741340100014B58439C
:10459800000D7047FB2E0B00024B5843C00C013036
:1045A800704700BF4F9312000A4A70B503464FF098
:1045B800CC3600204FF0333506FB03F402FB0144F0
:1045C800A3FB023121449D4275EB010401D3013064
:1045D800F2E770BDCDCCCCCC2DE9F04F1A23354E87
:1045E800B0FBF3FA03FB1A0389B004460D4606EB49
:1045F8000A1653B9D6E90023C1E90023D6E9020116
:10460800C5E9020109B0BDE8F08F2B4A02EBC303EC
:10461800D3E9008904AB0093D6E902234046494612
:1046280001F01DF806AB0093D6E9002383460F4638
:104638004046494601F013F8DDE9066216EB0B0621
:1046480052EB07084FF0000328BF0123814633B11E
:10465800049B059A013342F10002CDE90432204659
:104668000391FFF799FF07461A2000FB0AF0FFF7AE
:1046780093FF3F1A3246434603990097484601F094
:1046880009F84FEA141C0D4A640004F01E0352F89E
:104698002C40DC4004F00304241841F10001C5E972
:1046A8000041DDE9042300973046414600F0F2FF5F
:1046B800A6E700BF405F0008705E0008E4630008DA
:1046C8002DE9F04F1A27DFF8E4A000F11905B5FB32
:1046D800F7F56F433A1A4FEA051B89B004460E46B0
:1046E8000AEB05150AD1D5E90023C1E90023D5E96C
:1046F8000201C6E9020109B0BDE8F08F2C4B03EBBB
:10470800C203D3E9008904AB0093D5E902234046EC
:10471800494600F0A4FF5AF80B206B68013ACDE92E
:10472800020106A963F1000300914046494600F0E2
:1047380096FFDDE906528A4602996D18039952EBF5
:1047480001084FF0000328BF0123814633B1049BC1
:10475800059A013342F10002CDE904323846FFF7E9
:104768001BFF07462046FFF717FF3F1A2A46434616
:1047780000974846514600F08DFF4FEA141C0D4A39
:10478800640004F01E0352F82C40DC4004F00304DB
:104798000134241841F10001C6E90041DDE9042390
:1047A80000972846414600F075FFA2E71060000810
:1047B800705E000838640008704700EBC10040884C
:1047C80040087047F8B50346FFF7F7FFB0FA80F0E6
:1047D800CA000C468DB2C0F11F00171D063203EB4C
:1047E800800CDCF8106056B9012101FA00F0D96894
:1047F8000143D960CCF81040DD539D52F8BDF1005B
:104808000431585AD85303EBC0009E52C5805D52FC
:10481800F4E7043A2DE9F041CC1D11444FF00008AB
:1048280024F0070421F007010E1B0460414604F13F
:104838001000F708C4F80C80B7FA87F2A760C2F135
:104848002405C2F12002AD009200073500F0FCFDFE
:10485800A4F800802046ED086B0004EBC50243F085
:10486800010363807B1B59005180A21924F835503D
:104878002946A2F80280A35304EBC7035A8842F0E2
:1048880001025A80BDE8F041FFF79CBF0020704745
:104898000FB407B504A951F8040B0191FBF796FF73
:1048A80003B05DF804EB04B07047704700F0CCBD6E
:1048B80000F0BCBD01460068FCF71CB808B5FCF761
:1048C80049F8BDE80840FCF769B800210120FCF769
:1048D80011B86FF08500704761B662B680F3118831
:1048E800BFF36F8F704772B6002383F31188BFF34D
:1048F8006F8FBFF34F8F30BF62B6BFF36F8F7047B4
:10490800202809D9B0F1004F08D80138B0FA80F052
:10491800C0F11F0040007047082070473E207047D4
:1049280008B5FCF7F1FC002008BD08B506220121F6
:104938000020FCF74DFD002206201146FCF7C8FABE
:10494800012107220846FCF743FD002207201146F3
:10495800FCF7BEFA082201210220FCF739FD0022EB
:1049680008201146FCF7B4FA092201210320FCF7BC
:104978002FFD002209201146FCF7AAFA0A2201217C
:104988000420FCF725FD00220A201146FCF7A0FAB6
:10499800052117220846FCF71BFD002217201146A7
:1049A800FCF796FA282206210A20FCF711FD0022BE
:1049B80028201146FCF78CFA002008BD01F01F01E1
:1049C80001208840704700F003020F230432920050
:1049D800934043EA9000C3B2020C9B0092FAA2F201
:1049E80003F18043B2FA82F203F59C33914010B58B
:1049F8009C6824EA10400143996010BD0B8882B07E
:104A0800C3F30B0303F57D62C2F30B02782A14D8B3
:104A180003F18043486803F50E331A680243002007
:104A28001A600B88C3F30B0303F1804303F50E33BD
:104A38001B680193019B02B070476FF08500FAE78D
:104A48000B88C3F30B0303F57D62C2F30B02782ACC
:104A58000AD803F180434968002003F50E331A6829
:104A680022EA01021A6070476FF08500704738B576
:104A78000888C0F30B00FCF7DDFD002822DB48683E
:104A8800FF281ED0C0F3415582B20123C0F3044071
:104A9800013502F18042AB4002F50E32013B146849
:104AA800834024EA0303136049688BB20A0EC1F3FA
:104AB800044103F180438A4003F50E33186802432A
:104AC8001A60002038BD0888C0F30B0008B500F54F
:104AD8007D63C3F30B03782B0AD800F180404B6841
:104AE80000F50E300268934314BF0120022008BD70
:104AF800FCF7A0FD002814BF01200220F7E770474B
:104B0800436800205B681B690B60704743685B68FB
:104B1800586942400A40424000205A617047436841
:104B280000205B68996170474368090400205B684E
:104B380099617047436800205B685A695140596120
:104B4800704710B503699868F8B1884219D1DC68D4
:104B58000868A142986000D1D860002008602AB196
:104B68009A680A60DA68996002B9D960002010E092
:104B7800814206D108682060D8688142EDD1DC60A6
:104B8800EBE7044600680028F2D1002AE8D16FF06C
:104B9800150010BDF0B5446801201E46C2F380130D
:104BA800676888408B404FF0030E27EA000702F041
:104BB80030053B43202D90FAA0F7B7FA87F76360DA
:104BC800D4F808C0C2F3C1134FEA4707C2F3412221
:104BD8000EFA07F72CEA070C90FAA0F7B7FA87F74E
:104BE8004FEA470703FA07F343EA0C03A36090FA76
:104BF800A0F3B3FA83F3E7684FEA43030EFA03F32B
:104C080027EA030790FAA0F3B3FA83F34FEA4303C2
:104C180002FA03F242EA0702E26016D107292BD80A
:104C2800226A90FAA0F32BB3B3FA83F39B000F2107
:104C380001FA03F322EA030290FAA0F3B3FA83F32A
:104C48009B0006FA03F31343236290FAA0F3B3FA26
:104C580083F3032190FAA0F05B00B0FA80F0226899
:104C68002D0901FA03F3400022EA030385401D439E
:104C78002560F0BD2B46D9E7030A616A93FAA3F2CF
:104C880082B1B2FA82F292000F2793FAA3F3B3FA31
:104C980083F307FA02F29B0021EA02029E401643C0
:104CA8006662D2E72A46EEE712F4003CF8B50546FC
:104CB8000C4613461DD0960714D550075DD55022D3
:104CC800D90611D542F4007203F4C061B1F5806FC2
:104CD80042D0B1F5C06F19D0B1F5007F18D142F0BC
:104CE800800215E01022EBE79F06EDD542F48062C2
:104CF800EAE7D60305D5D00605D4C2F340129202DE
:104D0800E2E73022E0E74FF40072DDE742F4C072D8
:104D180013F440372E6908D0306920FA04F1C90726
:104D28005FBF0121A14001433161BCF1000F06D0F2
:104D3800180314D5696801234968A3408B610023CF
:104D480021466868FFF726FF27B9336923FA04F27A
:104D5800D2070CD40020F8BD42F48072D8E759037A
:104D6800EDD501212846A140FFF7DEFEE7E7012245
:104D7800A24023EA02033361ECE76FF08500EAE71B
:104D880070B50B468968054611B15E680C6801B9B3
:104D980070BD8A682A4002D04B68304698471CB1DB
:104DA800236821461C46F2E72346FAE7F8B51F4672
:104DB800044640680E461546FFF7ECFE112F07D152
:104DC80001212B0501FA06F104D563685B68996136
:104DD8000020F8BD2046FFF7A7FEF9E730B50368C5
:104DE80013600579046804EBC504A34202D36FF08D
:104DF800010030BD5C798C4201D00833F0E7002017
:104E0800F7E74163704781637047C1637047016486
:104E18007047836D1B0C1B040B4383657047C1658A
:104E2800704741680369002049681B680131B3FB7A
:104E3800F1F3C2E9003070474368C1F34B1001F049
:104E48001F011B68C05801238B4003424FF000002C
:104E580014BF012300231370704710B54368C1F3D2
:104E68004B1001F01F011A68012384588B4023431B
:104E78008350002010BD10B54368C1F34B140122C4
:104E880001F01F0118688A40235823EA02032350BF
:104E9800002010BD38B504460D46FFF7DEFF294651
:104EA8002046FFF7E8FF002038BDB0F5805F07D047
:104EB800B0F1805F09D1002914BF0120022070479A
:104EC800002914BF032004207047002914BF0220C2
:104ED8000320704743681B68D869DA69C0F3C000CB
:104EE800D107DA6948BF40F002009207DA6948BF83
:104EF80040F004005107DA6948BF40F02000D205AD
:104F080004D54FF4807240F008001A62C10701D539
:104F180008221A62820701D501221A62410701D5C7
:104F280002221A62820601D504221A627047436877
:104F38001A6852E8003F43F0400342E80031002974
:104F4800F7D1704743681A6852E8003F23F04003DE
:104F580042E800310029F7D1704743681A6852E8DF
:104F6800003F43F0200342E800310029F7D17047A1
:104F780043681A6852E8003F23F0200342E80031F2
:104F88000029F7D1704743681B68D869C0F34010FF
:104F98007047012070470369C3E90112704702692D
:104FA80053680BB19168184770470022252008B54F
:104FB8001146FBF78DFF2520BDE80840FBF77ABFB7
:104FC8000022472008B51146FBF782FF4720BDE8BD
:104FD8000840FBF76FBF37B5034605680C4619B99B
:104FE8006FF0150003B030BD406819698368DB684D
:104FF80093B101AA98470028F4DB2B6823F40043F7
:105008002B60019B03EB5403B3FBF4F10F29E7D9A1
:1050180089B20020E960E5E76FF05700E2E74368EE
:105028001B68D869C0F38010704743681B68D8694B
:1050380010F0800002D01868C0F38010704710B5D7
:10504800026904460B46126812680A6042681268D0
:10505800126802F4C062B2F5806F33D0A2F5C06066
:10506800424242411A7162681268526802F4405220
:10507800B2F5805F28D0B2F5405F27D0002A0CBF78
:10508800012203225A71626812681068116800F0E0
:10509800102001F4C061FFF708FF987162680020D2
:1050A8001268926802F44072A2F540714A424A417D
:1050B800DA7161680968896811F4804F18BF0322A2
:1050C800DA7110BD0222CDE70022DBE70222D9E720
:1050D80038B543680C461B681868196800F010203A
:1050E80001F4C061FFF7E1FE04281AD0D86910F076
:1050F800800015D0EFF31181102080F31288BFF3E0
:105108006F8F0020151A002D06DDDD692D0603D5E9
:10511800255C01309D62F5E781F31188BFF36F8F3D
:1051280038BD6FF08500FBE710B5436810201B6899
:10513800DA691206FCD5EFF3118280F31288BFF307
:105148006F8FDC69240604D482F31188BFF36F8F54
:10515800EEE7996282F31188BFF36F8F10BD436841
:105168001B68DA69910602D51A68920607D4D869CD
:1051780010F0400004D01868C0F380107047012078
:10518800704738B543680C461B681868196800F002
:10519800102001F4C061FFF788FE04280FD000201A
:1051A8000821151A002D0CDDDD69AD0609D55D6AEB
:1051B80025540130DD692D07F3D51962F1E76FF049
:1051C800850038BD43681B68DA69100701D50822D5
:1051D8001A62DA69920603D55B6A00200B70704781
:1051E8004FF0FF30704710B5436904463BB90020C3
:1051F800E2684042537843F00103537010BD98476A
:105208000028F4D00028E368B8BF4042FF28A8BFB0
:10521800FF201870ECE740B1C368587810F001001F
:105228001EBF1878B0FA80F040097047EFF3118379
:10523800102383F31288BFF36F8FFEE708B5FFF7DB
:10524800F5FF102408B5EFF3118384F31288BFF338
:105258006F8FFFF748FBF6E7D0E9003213605A601A
:105268000023427B836022F00202C0E900334273CC
:10527800704713B501240094FDF74AFB02B010BD36
:10528800D0E9003213605A600023C0E90033704748
:1052980008B5FFF7F5FF437B23F0020343730023B0
:1052A800836008BD38B504460D46FDF7F1FC637B05
:1052B80043F002036373E5B1A5602B689D4209D1F1
:1052C8006B68C4E900531C606C6012E06A689A421B
:1052D800F6D01B68002BF3D094F90E2093F90E102A
:1052E8008A42F3D09142F1DD5A68C4E90032146071
:1052F8005C6038BD10B5EFF31184102383F3128876
:10530800BFF36F8FFDF782FC84F31188BFF36F8FB3
:1053180010BD014610B5EFF31184102383F31288F2
:10532800BFF36F8F437B13F0280F0AD183680BB14B
:10533800FFF7AEFF4B7B084623F004034B73FDF7E2
:1053480065FC84F31188BFF36F8F10BD01211838F5
:10535800FFF7DFBF38B504460D46FDF7E5FD034608
:10536800B5F1FF3F08BFB4F1FF3F204612D013F15B
:1053780009004FEAE3714FF00A024FF0000341F1D0
:105388000001FAF71DFFB0F1004F71F1000128BFCD
:105398006FF0004038BD08B50246FDF74DFF70B10B
:1053A800D0E904319B1A61EBE272B3F1004F72F15C
:1053B800000104DA002AACBF1846002008BD6FF0CF
:1053C8000040FBE7024638B5EFF31185102383F35D
:1053D8001288BFF36F8F0368CBB1FDF72DFF04462A
:1053E8001046FDF73BFF00224FF000438442C0E91E
:1053F800042306D1FDF728FFFFF7CDFF0021FDF7B5
:105408001DF8002085F31188BFF36F8F38BD6FF04A
:105418001500F7E708B5FEF72DF808BD10B400F140
:105428000C04C0E9034410BCFFF7F3B90A449142E5
:1054380000F1FF3300D1704710B511F8014B03F8A4
:10544800014F9142F9D110BD02440346934200D165
:10545800704703F8011BF9E70A220021FEF73AB862
:1054680010B50139044632B111F8013F00F8013B8B
:10547800013A002BF7D10021FFF7E6FF204610BDC7
:1054880010B5024601448A42134603D01C78013203
:10549800002CF8D1181A10BD2DE9F047C3F13709CF
:1054A800074688465FFA89F903F01F0516464FF04C
:1054B800000A384641462A465346FAF781FED4B2D6
:1054C800092C88BF4C443A46434688BFE4B2AA42F6
:1054D80004F1300473EB0A0306F8014B07468846CB
:1054E800E7D23046BDE8F0872DE9F04F87B00618BF
:1054F800994602AB41EB0104009315463046D2E9C8
:1055080000232146DDF844B000F0A9F804AB00936D
:10551800D5E90223074688463046214600F09FF821
:10552800DDE90263841951EB0306049BD5E9000108
:105538004FF0000228BF0122D218059B43F1000357
:10554800381848EB0101B84271EB0801D5E902C1EE
:1055580034BF0120002014EB0C0C46EB010110EBCA
:105568000C0041F10001A04271EB060C34BF4FF072
:10557800010C4FF0000CCDE90423A9F1410A1CEB02
:10558800020243F10003CDF800A000F083F8109B5D
:10559800C3E90001129B012BDDE9042329D1D5E9D8
:1055A8000201D5E900C5201A66EB0101674578EBD1
:1055B800050534BF01250025401B61F10001844227
:1055C80076EB010534BF01250025521BCDF800A05C
:1055D80063F1000300F05EF8DDE90423CBE9000184
:1055E800CDF800A02046314600F054F807B0BDE8D9
:1055F800F08F17EB070E48EB080C201946EB060155
:10560800BE457CEB080834BF01270027C71941F1C4
:105618000008D5E9000186457CEB010CD5E90215A7
:1056280034BF01200020381A68F1000C401A6CEBD6
:10563800050192185B41A74278EB060534BF0125A6
:105648000025521943F10003874278EB010834BF63
:1056580001250025521BA9F140050095B8E7F0B5D2
:105668000F460446A0FB0201A7FB02524919A3FBFF
:10567800044542F10002A7FB0373611845F10004D9
:10568800D219059E43F10003121943F10003C6E93C
:105698000023F0BDF0B5059CC4F14007C4F1200615
:1056A80002FA06F6A4F12005BB4022FA05F53343B9
:1056B800C4F120062B4301FA06F6A4F12005E040C8
:1056C80021FA05F53043BA402843E1401043194315
:1056D800F0BD2DE9F0410446CD0FC1F30A50C1F3E6
:1056E800130154EA0107157140F2FF7607D0B04262
:1056F8000CD145F0080515710020BDE8F08100289F
:1057080063D0B0425ED145F00405F4E7002859D1D2
:105718000120A0F2FF30002B106059DB0C2B59DC64
:10572800C3F10D05AD00012005F1FF3CA5F12107EE
:10573800C5F1210620FA06F600FA07F700FA0CF080
:105748003743061847EB0708D6F1000E68EB480CFC
:10575800013E48F1FF38264008EA0108B04277EBDD
:1057680008080FDBC5F12008B5F1200601FA08F892
:1057780024FA05F545EA08055CBF41FA06F6354303
:10578800ED0703D52018044641EB070104EA0E048F
:1057980001EA0C019DF81860123218460D25C6F171
:1057A80027064FF0300E04F00F03240944EA017471
:1057B80005F1FF3C0911571EB3B9A8420CDA65463A
:1057C8003A46F0E741F48011A3E704460146A2E710
:1057D8000023DFE70D23DDE782F800E01CF1010379
:1057E80065463A46DFD188E7092BC8BF9B19303395
:1057F800A8421370B8BF2846F0E7000001480068C7
:0858080070470000DC020120E2
:0858100000AAFF7F0100000067
:1058180000000000D0580008390800080000000007
:10582800B93400080000000000000000EC5800082F
:10583800000000005C59000800000000085900083A
:1058480000000000045A0008000000003C5A00084C
:10585800000000002459000800000000205A000839
:1058680000000000E859000800000000CC590008BA
:1058780000000000B059000800000000945900081A
:105888000000000078590008000000004059000896
:10589800334900080000000000000000745A0008A6
:1058A80000000000585A0008811800080000000095
:1058B800B1230008000000003913000800000000B0
:0858C80000000000905A0008E6
:1058D000F169000800000000F85D00086E0001207A
:1058E000000000005D16000800000000C06A00080B
:1058F00020630008E85D0008880001200000000027
:105900000000000000000000C56900080000000061
:10591000000000006C000120000000005D13000882
:1059200000000000FE6900085C610008BC5D000822
:10593000700001207C030120811900080000000094
:105940000C6A000870610008BC5D0008720001204C
:105950009003012081190008000000001A6A000865
:1059600084610008BC5D000874000120A4030120CC
:105970008119000800000000286A000898610008EA
:10598000BC5D000876000120B803012081190008E1
:1059900000000000366A0008AC610008BC5D000829
:1059A00078000120CC0301208119000800000000CC
:1059B000446A0008C0610008BC5D00087A0001204C
:1059C000E00301208119000800000000526A00086D
:1059D000D4610008BC5D00087C000120F4030120B4
:1059E0008119000800000000606A0008E8610008F2
:1059F000BC5D00087E000120080401208119000818
:105A0000000000006E6A0008FC610008BC5D000830
:105A1000800001201C040120811900080000000002
:105A20007C6A000810620008BC5D0008820001204A
:105A30003004012081190008000000008A6A000873
:105A400024620008BC5D0008840001204404012099
:105A50008119000800000000D16A000824630008D2
:105A6000145E00088A00012020000120A120000807
:105A700000000000E16A000878630008145E000876
:105A80008C00012034000120A1200008000000004B
:105A9000986A0008A0620008E05D00088600012006
:0C5AA00014000120E91C000800000000B8
:105AAC0000000000D348000800000000D3480008A4
:105ABC0000000000D348000800000000D348000894
