:020000040800F2
:10000000001C01207D1D0008615C0008691D0008BE
:10001000691D0008691D0008691D00080000000036
:10002000000000000000000000000000B11D0008FA
:10003000691D000800000000691F00081133000856
:10004000E51F0008E51F0008E51F0008E51F000880
:10005000E51F0008E51F0008E51F0008E51F000870
:10006000E51F0008E51F0008E51F0008E51F000860
:10007000E51F0008E51F0008E51F0008E51F000850
:10008000E51F0008E51F0008E51F0008E51F000840
:10009000E51F0008E51F0008E51F0008E51F000830
:1000A000E51F0008E51F0008E51F0008E51F000820
:1000B000E51F0008E51F0008E51F0008E51F000810
:1000C000E51F0008E51F0008E51F0008E51F000800
:1000D000E51F0008E51F0008E51F0008E51F0008F0
:1000E000E51F0008E51F0008E51F0008E51F0008E0
:1000F000E51F0008E51F0008E51F0008E51F0008D0
:10010000E51F0008E51F0008E51F0008E51F0008BF
:10011000E51F0008E51F0008E51F0008E51F0008AF
:10012000E51F0008E51F0008E51F0008E51F00089F
:10013000E51F0008E51F0008E51F0008E51F00088F
:10014000E51F0008E51F0008E51F0008E51F00087F
:10015000E51F0008E51F0008E51F0008E51F00086F
:10016000E51F0008E51F0008E51F0008E51F00085F
:10017000E51F0008E51F0008E51F0008E51F00084F
:10018000E51F0008E51F0008E51F0008E51F00083F
:10019000E51F0008E51F0008E51F0008E51F00082F
:1001A000E51F0008E51F0008E51F0008E51F00081F
:1001B000E51F0008E51F0008E51F0008E51F00080F
:0801C000E51F0008E51F00081F
:1001C8004FF0FF0C1CEAD0521EBF1CEAD15392EA32
:1001D8000C0F93EA0C0F6FD01A4480EA010C40020E
:1001E80018BF5FEA41211ED04FF0006343EA501068
:1001F80043EA5111A0FB01310CF00040B1F5000FAA
:100208003EBF490041EAD3715B0040EA010062F158
:100218007F02FD2A1DD8B3F1004F40EBC25008BF42
:1002280020F00100704790F0000F0CF0004C08BF60
:1002380049024CEA502040EA51207F3AC2BFD2F12D
:10024800FF0340EAC250704740F400004FF000033B
:10025800013A5DDC12F1190FDCBF00F00040704775
:10026800C2F10002410021FA02F1C2F1200200FAB3
:1002780002FC5FEA310040F1000053EA4C0308BF7A
:1002880020EADC70704792F0000F00F0004C02BFCB
:10029800400010F4000F013AF9D040EA0C0093F046
:1002A800000F01F0004C02BF490011F4000F013BA0
:1002B800F9D041EA0C018FE70CEAD15392EA0C0F0E
:1002C80018BF93EA0C0F0AD030F0004C18BF31F079
:1002D800004CD8D180EA010000F00040704790F04F
:1002E800000F17BF90F0004F084691F0000F91F0F3
:1002F800004F14D092EA0C0F01D142020FD193EAB9
:100308000C0F03D14B0218BF084608D180EA010040
:1003180000F0004040F0FE4040F40000704740F01C
:10032800FE4040F44000704781F0004102E000BF09
:1003380083F0004330B54FEA41044FEA430594EA9D
:10034800050F08BF90EA020F1FBF54EA000C55EAD8
:10035800020C7FEA645C7FEA655C00F0E2804FEAA9
:100368005454D4EB5555B8BF6D420CDD2C4480EA8B
:10037800020281EA030382EA000083EA010180EABB
:10038800020281EA0303362D88BF30BD11F0004F09
:100398004FEA01314FF4801C4CEA113102D040423F
:1003A80061EB410113F0004F4FEA03334CEA13337A
:1003B80002D0524263EB430394EA050F00F0A78092
:1003C800A4F10104D5F1200E0DDB02FA0EFC22FA8D
:1003D80005F2801841F1000103FA0EF2801843FA81
:1003E80005F359410EE0A5F120050EF1200E012A72
:1003F80003FA0EFC28BF4CF0020C43FA05F3C018B0
:1004080051EBE37101F0004507D54FF0000EDCF128
:10041800000C7EEB00006EEB0101B1F5801F1BD3D1
:10042800B1F5001F0CD349085FEA30004FEA3C0CD5
:1004380004F101044FEA445212F5800F80F09A80CB
:10044800BCF1004F08BF5FEA500C50F1000041EBCF
:10045800045141EA050130BD5FEA4C0C404141EBD3
:100468000101013C28BFB1F5801FE9D291F0000FCE
:1004780004BF01460020B1FA81F308BF2033A3F17D
:100488000B03B3F120020CDA0C3208DD02F1140C74
:10049800C2F10C0201FA0CF021FA02F10CE002F1AF
:1004A8001402D8BFC2F1200C01FA02F120FA0CFCA8
:1004B800DCBF41EA0C019040E41AA2BF01EB0451F1
:1004C800294330BD6FEA04041F3C1CDA0C340EDCEF
:1004D80004F11404C4F1200220FA04F001FA02F332
:1004E80040EA030021FA04F345EA030130BDC4F1F0
:1004F8000C04C4F1200220FA02F001FA04F340EAE5
:100508000300294630BD21FA04F0294630BD94F095
:10051800000F83F4801306BF81F480110134013D7C
:100528004EE77FEA645C18BF7FEA655C29D094EAED
:10053800050F08BF90EA020F05D054EA000C04BF6B
:100548001946104630BD91EA030F1EBF0021002056
:1005580030BD5FEA545C05D14000494128BF41F0F5
:10056800004130BD14F580043CBF01F5801130BD59
:1005780001F0004545F0FE4141F470014FF00000E4
:1005880030BD7FEA645C1ABF194610467FEA655C95
:100598001CBF0B46024650EA013406BF52EA033537
:1005A80091EA030F41F4002130BD00BF90F0000F25
:1005B80004BF0021704730B54FF4806404F1320461
:1005C8004FF000054FF0000150E700BF90F0000F1A
:1005D80004BF0021704730B54FF4806404F1320441
:1005E80010F0004548BF40424FF000013EE700BF11
:1005F80042004FEAE2014FEA31014FEA02701FBFA1
:1006080012F07F4393F07F4F81F06051704732F0D2
:100618007F4208BF704793F07F4F04BF41F4002129
:10062800704730B54FF4607401F0004521F0004187
:100638001CE700BF50EA010208BF704730B54FF011
:1006480000050AE050EA010208BF704730B511F012
:10065800004502D5404261EB41014FF4806404F14A
:1006680032045FEA915C3FF4D8AE4FF003025FEAD0
:10067800DC0C18BF03325FEADC0C18BF033202EB54
:10068800DC02C2F1200300FA03FC20FA02F001FAAE
:1006980003FE40EA0E0021FA02F11444BDE600BF51
:1006A80070B54FF0FF0C4CF4E06C1CEA11541DBF00
:1006B8001CEA135594EA0C0F95EA0C0F00F0DEF8CB
:1006C8002C4481EA030621EA4C5123EA4C5350EAB0
:1006D800013518BF52EA033541F4801143F4801301
:1006E80038D0A0FB02CE4FF00005E1FB02E506F092
:1006F8000042E0FB03E54FF00006E1FB03569CF0E7
:10070800000F18BF4EF0010EA4F1FF04B6F5007FEC
:1007180064F5407404D25FEA4E0E6D4146EB06065E
:1007280042EAC62141EA55514FEAC52040EA5E50E7
:100738004FEACE2EB4F1FD0C88BFBCF5E06F1ED891
:10074800BEF1004F08BF5FEA500E50F1000041EBC8
:10075800045170BD06F0004646EA010140EA020075
:1007680081EA0301B4EB5C04C2BFD4EB0C0541EA97
:10077800045170BD41F480114FF0000E013C00F3AC
:10078800AB8014F1360FDEBF002001F0004170BDD0
:10079800C4F10004203C35DA0C341BDC04F11404E9
:1007A800C4F1200500FA05F320FA04F001FA05F275
:1007B80040EA020001F0004221F0004110EBD37042
:1007C80021FA04F642EB06015EEA430E08BF20EA6E
:1007D800D37070BDC4F10C04C4F1200500FA04F311
:1007E80020FA05F001FA04F240EA020001F00041A3
:1007F80010EBD37041F100015EEA430E08BF20EA16
:10080800D37070BDC4F1200500FA05F24EEA020E5D
:1008180020FA04F301FA05F243EA020321FA04F08C
:1008280001F0004121FA04F220EA020000EBD37043
:100838005EEA430E08BF20EAD37070BD94F0000F43
:100848000FD101F00046400041EB010111F4801F77
:1008580008BF013CF7D041EA060195F0000F18BF28
:10086800704703F00046520043EB030313F4801F64
:1008780008BF013DF7D043EA0603704794EA0C0F1E
:100888000CEA135518BF95EA0C0F0CD050EA410634
:1008980018BF52EA4306D1D181EA030101F00041B1
:1008A8004FF0000070BD50EA410606BF10461946D9
:1008B80052EA430619D094EA0C0F02D150EA0136E5
:1008C80013D195EA0C0F05D152EA03361CBF104626
:1008D80019460AD181EA030101F0004141F0FE41C5
:1008E80041F470014FF0000070BD41F0FE4141F449
:1008F800780170BD70B54FF0FF0C4CF4E06C1CEA49
:1009080011541DBF1CEA135594EA0C0F95EA0C0FFD
:1009180000F0A7F8A4EB050481EA030E52EA0335B8
:100928004FEA013100F088804FEA03334FF08055D9
:1009380045EA131343EA12634FEA022245EA111506
:1009480045EA10654FEA00260EF000419D4208BFB7
:10095800964244F1FD0404F5407402D25B084FEA64
:100968003202B61A65EB03055B084FEA32024FF410
:1009780080104FF4002CB6EB020E75EB030E22BF6D
:10098800B61A754640EA0C005B084FEA3202B6EB2D
:10099800020E75EB030E22BFB61A754640EA5C00DC
:1009A8005B084FEA3202B6EB020E75EB030E22BF6C
:1009B800B61A754640EA9C005B084FEA3202B6EB6D
:1009C800020E75EB030E22BFB61A754640EADC002C
:1009D80055EA060E18D04FEA051545EA16754FEA8E
:1009E80006164FEAC30343EA52734FEAC2025FEAAC
:1009F8001C1CC0D111F4801F0BD141EA00014FF03B
:100A080000004FF0004CB6E711F4801F04BF01430B
:100A18000020B4F1FD0C88BFBCF5E06F3FF6AFAE27
:100A2800B5EB030C04BFB6EB020C5FEA500C50F1B7
:100A3800000041EB045170BD0EF0004E4EEA11313A
:100A480014EB5C04C2BFD4EB0C0541EA045170BD41
:100A580041F480114FF0000E013C90E645EA060E85
:100A68008DE60CEA135594EA0C0F08BF95EA0C0FB3
:100A78003FF43BAF94EA0C0F0AD150EA01347FF4FB
:100A880034AF95EA0C0F7FF425AF104619462CE7D2
:100A980095EA0C0F06D152EA03353FF4FDAE104635
:100AA800194622E750EA410618BF52EA43067FF486
:100AB800C5AE50EA41047FF40DAF52EA43057FF416
:100AC800EBAE12E74FEA4102B2F1E04324BFB3F5BF
:100AD800001CDCF1FE5C0DD901F0004C4FEAC002AD
:100AE8004CEA5070B2F1004F40EB830008BF20F091
:100AF8000100704711F0804F21D113F13872BCBF4B
:100B080001F00040704741F480114FEA5252C2F19F
:100B18001802C2F1200C10FA0CF320FA02F018BFE8
:100B280040F001004FEAC1234FEAD32303FA0CFC3B
:100B380040EA0C0023FA02F34FEA4303CCE77FEACA
:100B4800625307D150EA01331EBF4FF0FE4040F414
:100B58004000704701F0004040F0FE4040F40000C3
:100B6800704700BF80F0004002E000BF81F0004104
:100B780042001FBF5FEA410392EA030F7FEA226C3B
:100B88007FEA236C6AD04FEA1262D2EB1363C1BFCB
:100B9800D218414048404140B8BF5B42192B88BF3A
:100BA800704710F0004F40F4000020F07F4018BF5D
:100BB800404211F0004F41F4000121F07F4118BF7D
:100BC800494292EA030F3FD0A2F1010241FA03FC25
:100BD80010EB0C00C3F1200301FA03F100F000430D
:100BE80002D5494260EB4000B0F5000F13D3B0F1D5
:100BF800807F06D340084FEA310102F10102FE2A44
:100C080051D2B1F1004F40EBC25008BF20F00100B3
:100C180040EA03007047490040EB0000013A28BF52
:100C2800B0F5000FEDD2B0FA80FCACF1080CB2EBD5
:100C38000C0200FA0CF0AABF00EBC2505242184353
:100C4800BCBFD0401843704792F0000F81F40001F8
:100C580006BF80F400000132013BB5E74FEA4103CB
:100C68007FEA226C18BF7FEA236C21D092EA030F37
:100C780004D092F0000F08BF0846704790EA010FB1
:100C88001CBF0020704712F07F4F04D1400028BFDE
:100C980040F00040704712F100723CBF00F50000C0
:100CA800704700F0004343F0FE4040F400007047F6
:100CB8007FEA226216BF08467FEA236301464202A2
:100CC80006BF5FEA412390EA010F40F480007047B5
:100CD8004FF0000304E000BF10F0004348BF40425B
:100CE8005FEA000C08BF704743F0964301464FF097
:100CF80000001CE050EA010208BF70474FF00003F3
:100D08000AE000BF50EA010208BF704711F0004333
:100D180002D5404261EB41015FEA010C02BF844603
:100D28000146002043F0B64308BFA3F18053A3F562
:100D38000003BCFA8CF2083AA3EBC25310DB01FAA9
:100D480002FC634400FA02FCC2F12002BCF1004F2D
:100D580020FA02F243EB020008BF20F001007047BE
:100D680002F1200201FA02FCC2F1200250EA4C0012
:100D780021FA02F243EB020008BF20EADC70704758
:100D88004FF0FF3C06E000BF4FF0010C02E000BF4F
:100D98004FF0010C4DF804CD4FEA40024FEA4103F1
:100DA8007FEA226C18BF7FEA236C11D001B052EAA7
:100DB800530C18BF90EA010F58BFB2EB030088BF6D
:100DC800C81738BF6FEAE17018BF40F001007047DC
:100DD8007FEA226C02D15FEA402C05D17FEA236CBE
:100DE800E4D15FEA412CE1D05DF8040B704700BF05
:100DF800844608466146FFE70FB5FFF7C9FF00289C
:100E080048BF10F1000F0FBD4DF808EDFFF7F4FFD4
:100E18000CBF012000205DF808FB00BF4DF808ED6D
:100E2800FFF7EAFF34BF012000205DF808FB00BF90
:100E38004DF808EDFFF7E0FF94BF012000205DF8B2
:100E480008FB00BF4DF808EDFFF7D2FF94BF012063
:100E580000205DF808FB00BF4DF808EDFFF7C8FF5C
:100E680034BF012000205DF808FB00BF4FEA4002B4
:100E7800B2F1FE4F0FD34FF09E03B3EB12620DD9C0
:100E88004FEA002343F0004310F0004F23FA02F02A
:100E980018BF404270474FF00000704712F1610FD1
:100EA80001D1420205D110F0004008BF6FF00040A8
:100EB80070474FF00000704753B94AB9002908BF7E
:100EC80000281CBF4FF0FF314FF0FF3000F00CB886
:100ED800ADF1080C6DE904CE00F008F8DDF804E087
:100EE800DDE9022304B07047704700BF2DE9F047E1
:100EF80086468C460846089E154674461946002BB9
:100F080040F0C2808542B2FA82F245D94AB1C2F1B4
:100F1800200300FA02FC2EFA03F3954043EA0C0C76
:100F280094404FEA154EA8B2BCFBFEF8230C0EFB0A
:100F380018CC08FB00F943EA0C43994528D9EB186B
:100F480008F1FF3704D2994502D9A8F102072B44CA
:100F5800A3EB0903A4B2B3FBFEFC0EFB1C330CFB92
:100F680000F044EA0344A04214D92C190CF1FF33D1
:100F780004D2A04202D9ACF102032C44241A43EA59
:100F880007401EB1D440002334607360BDE8F08789
:100F98004746DDE76346F1E792BB431B01214FEA71
:100FA800154EAFB2B3FBFEFC200C0EFB1C330CFB42
:100FB80007F840EA0343984562D9EB180CF1FF3073
:100FC80004D2984502D9ACF102002B44A3EB0803E4
:100FD800A4B2B3FBFEFC0EFB1C330CFB07F744EA80
:100FE8000344A7424ED92C190CF1FF3304D2A7426F
:100FF80002D9ACF102032C44E41B43EA0040C0E7E9
:10100800C2F1200320FA03F1954090402EFA03F331
:1010180003434FEA154EAFB2B1FBFEFC0EFB1C10AA
:10102800190C0CFB07F841EA0041884504FA02F460
:1010380022D969180CF1FF3004D2884502D9ACF1E5
:1010480002002944A1EB08019BB2B1FBFEFC0EFB98
:101058001C110CFB07F743EA01439F420ED9EB181A
:101068000CF1FF3104D29F4202D9ACF102012B44AA
:10107800DB1B41EA004192E76046E3E76146F7E798
:101088006046A3E76346B7E7834206D916B900214D
:1010980008467BE7C6E900E0F9E7B3FA83F78FB9BA
:1010A800834201D3724508D8BEEB020460EB030308
:1010B80001209C461EB9002168E73846FAE7C6E9D0
:1010C800004CF8E7C7F1200CBB4022FA0CF41C4393
:1010D8002EFA0CF120FA0CF3B84001434FEA1449F8
:1010E8000EFA07F5B3FBF9F81FFA84FE09FB18306E
:1010F8000B0C08FB0EFA43EA00439A4502FA07F282
:1011080040D9E31808F1FF3004D29A4502D9A8F172
:1011180002002344A3EB0A0389B2B3FBF9F809FBE5
:10112800183308FB0EFE41EA03418E452CD961189D
:1011380008F1FF3304D28E4502D9A8F102032144F5
:1011480043EA0040A0FB0298A1EB0E014145CE46C0
:10115800434602D306D14D4504D2B9EB020E68EBE3
:1011680004030138002EA6D0B5EB0E0261EB030193
:1011780001FA0CFC22FA07F34CEA0303F940C6E92A
:10118800003198E74046C5E74346D9E7000000002C
:101198002DE9F04F054687B0214F04AA0121BB680D
:1011A800384602935B689847002832DB1D4B4FF0A6
:1011B800FF39DFF87480DDE9044AA4FB03B203FBBE
:1011C8000A2358460393039913A3D3E90023FFF78F
:1011D80073FED945039B064678EB030319D3A5FB99
:1011E80004B405FB0A4458460BA3D3E9002321465F
:1011F800FFF762FED945034678EB040409D386421B
:1012080007D30022012138460092029A1468324618
:10121800A04707B0BDE8F08F00CA9A3B0000000065
:10122800346E0008002D3101FFC99A3B0000000010
:101238002DE9F04F4FF0000A87B00024384D4FF0E9
:101248000008DFF8E090CDF804A033A7D7E90067DD
:101258004FF0FF324FF0FF3304A9334802F058FB38
:101268000028F5D1DDE90401FFF7ECF922462B4609
:10127800FFF740FB02460B4630463946FFF73AFB7C
:1012880042464B46FFF70CFAFFF71CFC0190274833
:1012980005F065F90022002301A9244804F0CCFBDD
:1012A8000022002302A9224802F032FB18B9029852
:1012B800FFF712FD824601995046FFF757FC1D497A
:1012C800FEF77EFF1C4983465046FEF779FF1B490F
:1012D800FFF74CFC01465846FFF74AFC00218346BD
:1012E800FFF79CFD80B916495846FFF7B5FD70B960
:1012F800CDF80CB0134805F032F90022002303A9F9
:10130800104804F099FBA3E74FF0000BF0E7DFF873
:1013180030B0EDE7AFF300801DD4411DD4416D3FDF
:1013280000408F4000004E406C010120F400012075
:10133800440101209A99993E3D0A27406666664114
:101348000000C8421C010120014603488368DB698C
:101358000BB1012218477047E46C00082DE9F341EE
:10136800204DAC68636C4BBB636B73BB1D4E1E4C4E
:10137800DFF87880AF68BB6923B301220DF107015C
:101388003046984701281DD19DF807107B683046E4
:1013980098479DF807200D2A01D00A2A1AD12268F9
:1013A8000023124908F80230002223600023104865
:1013B80004F042FB0F4802F0D3FBDBE728469847CE
:1013C8000028D1D102B0BDE8F0810648984700282E
:1013D800CCD1F7E72368302B9EBF591C08F80320AF
:1013E8002160C7E7186E0008000401208905012064
:1013F80094010120BC010120F7B5134C05F0E4F974
:1014080094F9003033B9114BC3E90001012323706B
:1014180003B0F0BD01335BB20F2B2370F8DD0B4D29
:1014280000260027D5E90032C01A3B4661EB0201CD
:101438003246CDE900016946054804F0FDFA00236B
:10144800C5E900672370E3E788050120D001012082
:101458006C01012070B500238CB000220F48019365
:1014680001A9002304F0E8FA0D4B02AA03F12006B3
:1014780015461868083353F8041C1446B34203C4CD
:101488002246F6D1186800229B8829462060A3804E
:101498000023044804F0D0FA0CB070BDCC00012041
:1014A80062780008A400012030B51E4887B004F017
:1014B80030FB4FF0FF324FF0FF331B4802F084FB44
:1014C8000022002303A9194802F022FA03A805F014
:1014D8009BF99628029004D9154804F01AFB0023BA
:1014E80002934FF0FF324FF0FF3302A91148124D1B
:1014F80004F0A2FA114C0299114804F00AFB4FF0CB
:10150800FF324FF0FF3301A9284602F001FA002804
:10151800F5D10198FFF7AAFC02990246204604F08B
:10152800F8FAECE788780008BC0101209401012052
:101538009C78000844010120F4000120CB780008C1
:10154800BA780008F0B54FF4D011E5B0624804F05D
:101558001AFA4FF4D011614804F015FA4FF48031AB
:101568005F4804F010FA0028C0F2B3805C4804F029
:101578002AFA0028C0F2AD805A4C204604F0BAFF7F
:10158800002800F0A680584804F0B4FF002800F0B6
:10159800A080564804F0AEFF002800F09A804FF46F
:1015A8008031534804F0EFF90028C0F29280504887
:1015B80004F009FA0028C0F28C804E484E4B436074
:1015C80008238360FFF7C0FE4C484D4B436004235B
:1015D8008360FFF7B9FEA3682BB19B6C1BB1002297
:1015E800484920469847A3689B6A0BB13D489847ED
:1015F80000260027002405234FF48062424914A8DE
:101608000094CDE90334CDE90667404BCDE90144A8
:1016180002F05CFB032304944FF480623C493CA82D
:10162800CDE90243CDE906673A4B3B4FCDE900448B
:1016380002F04CFB394B3A4C08935A230993002289
:1016480000230AA9374802F063F9374E054670B9F6
:101658000AA9364804F05DFA4FF0FF324FF0FF3325
:10166800204602F0B9F93570204602F029FA002226
:10167800002309A92E4802F04BF90022002308A9EB
:101688002C4802F045F90898FFF7F0FB09904FF055
:10169800FF324FF0FF33204602F09EF9357820469E
:1016A80002F00EFA9DB100210B4804F0B1F90B4885
:1016B800012104F0ADF9099864237843B0FBF3F0F5
:1016C800FFF766FD0021142005F004F8B7E7284667
:1016D800F6E7002065B0F0BDC0740008B8740008D3
:1016E800A8740008186E0008346E0008E46C00083E
:1016F800B0740008F40301205D140008E803012019
:101708000114000865130008000A0120B11400083C
:10171800C005012039120008002D31010000B44233
:1017280090000120A400012058000120EF78000853
:10173800CC0001201C010120014B1B68184700BF89
:1017480000000120014B1860704700BF0000012015
:1017580030B5044685B00D4610220021684605F0D4
:101768004BF802232A4621468DF802306846034B7F
:10177800019303F0A7F805B030BD00BF411700087A
:1017880080B505460E461746984602F013FDDFF869
:101798002090034600F034FC0446424649F80030E5
:1017A80039463046A84754F8090000F0C3FB00BF8B
:1017B80008000000034A0020536823F00203536026
:1017C800704700BF002004E008B5416805480C31A7
:1017D80083681B681BB1984700EAE07008BD6FF08A
:1017E8005700F9E7746C0008192810B502D90024CD
:1017F800204610BD044B53F82040204604F07AFEE2
:101808000028F5D1F3E700BFA4750008064B1A6855
:1018180042F400721A601A6842F480721A60034B2C
:10182800034A1A60704700BF003C0240480001208C
:101838000024F400014B0360032070470C76000875
:1018480006480021064A08B5121A04F0FDF90548B1
:10185800054A0021121A04F0F7F908BDD001012049
:10186800C005012000000020000000200A480B4AA3
:101878000B49121A08B504F0E9F90A480A4A0B4953
:10188800121A04F0E3F90A480A4A0B49121ABDE889
:10189800084004F0DBB900BF00000120CC010120A2
:1018A800DC7E00080000012000000120DC7E00082A
:1018B8000000002000000020A880000838B5054678
:1018C8000C4699B11048D1E90123096804F021F9BF
:1018D800E1680E48D4E9042304F01BF9E1690C48D7
:1018E80004F017F9A1690B4804F013F9012D05D18B
:1018F800EFF305810848103904F00BF92146284612
:10190800BDE8384001F06ABEC8790008F8790008D7
:10191800287A0008387A0008677A000830BFFFF78D
:10192800FDBF00BF2DE9F0410B4E0546DFF82C80C6
:10193800324606EB0807CC1B0949204604F04EFF47
:10194800A019083C4246002104F056FF07F10800A0
:10195800C5F89040BDE8F0810000000008000000D4
:101968000C7200082DE9F843324D8046324889460A
:10197800174604F0CEF8AB6ADE0622D511242F48AC
:1019880004F0C7F8AB6A1D0703D512242C4804F0ED
:10199800C0F8284DAB6A980715D52A4804F0B9F85D
:1019A8006E6BAB6A190642D53146274804F0B1F888
:1019B800B9F1000F03D0AB6A23F08003AB621324A4
:1019C80003E01024DEE76FF015061A4DAB6ADA075C
:1019D80003D514241D4804F09CF8AB6A9B0603D574
:1019E80015241B4804F095F8124B9A6AD50602D4C0
:1019F8009A6A90070AD55B68190507D541463046AB
:101A080000F04AFA10B180F309880224094B9A6A57
:101A1800920603D55A6A22F400525A629A6A2046FC
:101A280042F0FF029A6200233B70BDE8F8836FF032
:101A38001506C4E700ED00E07B7A0008927A0008FA
:101A4800C67A0008DA7A0008F37A00080A7B0008E8
:101A58002A7B000810B51D4C1D4804F05AF8A36AEB
:101A6800990130D51B4804F054F81E20A36ADA0106
:101A780003D5194804F04DF81F20144CA36A1B0322
:101A880003D5164804F045F82120A36A590303D565
:101A9800134804F03EF822200C4CA36A9A0303D59D
:101AA800104804F036F82320A36ADB0303D50E4858
:101AB80004F02FF82420054A936A6FEA03436FEA7B
:101AC8001343936210BD1D20D0E700BF00ED00E076
:101AD8005A7B0008737B0008877B0008A27B0008FC
:101AE800C17B0008E77B0008027C000870B5244C25
:101AF800064624480D4604F00CF8A36AD90435D5E7
:101B0800214804F006F81720A36A1A0503D51F48D0
:101B180003F0FFFF18201A4CA36A9B050FD51C4839
:101B280003F0F7FFA16BA36A180407D5194803F05F
:101B3800F0FF1EB1A36A23F40043A3621920104CDE
:101B4800A36A590503D5144803F0E3FF1A20A36AD2
:101B5800DA050DD5114803F0DCFF1B20084A936A0B
:101B680043F47F43936200232B7070BD1620CBE7AC
:101B7800A36A9B04F2D50A4803F0CBFF1C20EDE7CB
:101B880000ED00E02E7C0008457C0008C67A0008BD
:101B9800577C0008717C0008877C0008A37C00083B
:101BA8002A7B00085D4B2DE9F0415F688AB0044646
:101BB8000025C7F3080685F31188BFF36F8F02F07D
:101BC8007F43B3F17F4F06D102F00C03082B13D1EA
:101BD800534803F09EFF00252C464FF00008F31EE3
:101BE8008DF80780092B00F28780DFE803F00A7B75
:101BF8007F7785858585858310074CBF0C46012531
:101C0800EBE7464E474803F084FF8DF80780F36AF8
:101C18009A0704D5444803F07CFF002330E0F36AB8
:101C2800002B01DA4148F6E7F36A5B00F5D5404836
:101C380003F06FFF7369A26943F480737361BFF3A4
:101C48004F8FBFF36F8F736932F8022C23F48073C0
:101C58007361BFF34F8FBFF36F8F4DF602739A42D4
:101C680009D0B36ADBB25BB30DF10702012120464C
:101C7800FFF778FE34E021682E4803F04AFF236816
:101C88009DF80720CAB902AE04F12007206808347D
:101C980054F8041C3246BC4203C21646F6D1099ACF
:101CA800B5B3C2F3080121B96FEA52226FEA4222A2
:101CB800099202A91846FFF701FE0AB0BDE8F081B3
:101CC800B36A13F47F4F05D00DF107010120FFF728
:101CD8000DFF05E0B36AB3F5803F9ED3FFF7BAFE68
:101CE8000346CDE70DF107020021C0E70DF107011A
:101CF8000020ECE710488EE717F4F87F0F4B1049E7
:101D0800A6F1100218BF19460E4803F002FF84E737
:101D180022F4FF7222F00102CAE700BF00ED00E0E2
:101D2800EA7C0008167D00082E7D0008507D00081A
:101D38005F7D00087F7D00089C7D0008D17C00083D
:101D4800BC7C0008C17D0008044B5A6942F01002AF
:101D58005A615A6922F008025A61704700ED00E0A2
:101D6800EFF30880EFF3098101B57246FFF71AFF18
:101D780001BD00BF0A4880F30888102080F311884D
:101D880008484FF40461401880F30988EFF3148081
:101D98000221084380F31488BFF36F8F00F048F8DE
:101DA800001C0120400E01201EF0040F0CBFEFF3B1
:101DB8000880EFF30980816911F8021C0229FFD01D
:101DC80001B5724603F044FF01BD00BF40B20028D0
:101DD80007DB0123410900F01F00024A834042F853
:101DE8002130704700E100E040B2013100284FEA9D
:101DF8000111C9B206DB00F1604000F5614080F8CE
:101E08000013704700F00F00014B1954704700BFD2
:101E180014ED00E0044B054A23F07F039360BFF301
:101E28004F8FBFF36F8F70470000000800ED00E090
:101E380008B5FFF7EFFF0B4AD2F8883023F4700398
:101E4800C2F88830EFF3148323F0040383F3148873
:101E5800BFF36F8FFFF7F4FCFFF708FD00F0B2F84F
:101E680001F088FC00ED00E042F8203C203A009B9D
:101E780008495360019B21F001019360029B916125
:101E8800D3604FF08073D36100230265C0F89430AB
:101E9800704700BF891700080A4A0346906878B15E
:101EA80013F1160FD0F8800005D0A0F1400293423C
:101EB80005D3834203D2814228BF00207047002007
:101EC800704700BF5C05012015460D4A0E4608B54F
:101ED8000C4B9060D0F890201A6000F0A3F82C46C4
:101EE80086F309880020044B9847204600210022E9
:101EF8000023024C204700007D5C00088917000879
:101F08005C050120B4040120014B10221A617047BE
:101F180000ED00E0054B5A699B689A4204D0044AD8
:101F2800536843F080535360704700BF5C0501203D
:101F380000ED00E0084B9B6883420BD1EFF305836B
:101F480043B1064B5A6842F080525A605A6A22F4EA
:101F580000425A6202F034B95C05012000ED00E04D
:101F680015498A684FF030001044EFF3098C80E877
:101F7800F01F102080F31288BFF36F8F0F4F4FF0C0
:101F880000664A698A603E60D2F890000C4C206076
:101F9800D2F894000023C2F8943080F3118804B575
:101FA800104600F03FF8BDE8044002F1300090E828
:101FB800F01F8CF3098870475C05012004ED00E0F0
:101FC800B4040120002304481021C2180133622BF5
:101FD80082F80013F9D1704700E100E008B5EFF38B
:101FE8000583064A103B02EBC30152F833004968E7
:101FF8008847BDE80840FFF78DBF00BF506E000856
:102008000148006870470000B4040120024B012118
:10201800024A034800F078B80000052000000120BB
:102028003C760008D0F880204021054B403A1846FD
:102038001A60044AC3E90112012100F06FB800BF19
:10204800B804012000000B15084AC2F898000B6874
:1020580023F01F03034343F01003C2F89C308B683E
:1020680043F00103C2F8A030704700BF00ED00E064
:102078002DE9F0430E4685B01F4604464FF000098F
:10208800DFF85480B14523DA6068D8B13FB1411E0A
:1020980008421BD11F2819D92368194216D1236871
:1020A800019303F0FBFDA3680343D0B20393D8F870
:1020B8009050C5F30725013DA84207D801A9FFF7AD
:1020C800C3FF421C09F101090C34DBE76FF015026C
:1020D800104605B0BDE8F08300ED00E0044B052292
:1020E800C3F89420BFF34F8FBFF36F8F704700BFC3
:1020F80000ED00E0BFF35F8F024B0022C3F894208D
:10210800704700BF00ED00E010B5034C01232278B2
:10211800FFF7AEFF207010BDBB0501200B4A08B5C4
:1021280000231278FFF7A4FF10F1160F07D0084A12
:102138000021D2F89030C3F30723984200DB08BD92
:10214800C2F898000130C2F8A010F2E7BB050120E0
:1021580000ED00E05C4B2DE9F0435C4C85B0D3F812
:1021680090302568C3F307239D4200F2A980002020
:102178000C26FFF7BFFF85421BD1554C6846554FCB
:102188002570FFF757FB00250646DFF83C81DFF88E
:102198004891AE4214D1237800204B49D1F89020C1
:1021A800C2F307229342C0F285800020FFF796FF12
:1021B80045E0616806FB0011FFF746FF0130DAE7EA
:1021C80000984FEA051C00EB0511CB683B40B3F5BE
:1021D800000F4DD00AD8B3F5001F33D0B3F5800FE8
:1021E8003BD0B3F5801F13D00135D2E7B3F1007FA0
:1021F80047D0B3F1805F4DD0B3F1807FF4D150F870
:102208000C30886803F04AFD4A6840F0887009E09D
:1022180050F80C30886803F041FD40F088504A6857
:1022280040F4302003902078CDE90123D8F890308D
:10223800C3F30723013B984235D96FF0150005B069
:10224800BDE8F08350F80C30886803F027FD40F0B3
:1022580088504A6840F40020E4E750F80C30886859
:1022680003F01CFD40F0C0604A6840F40030D9E734
:1022780050F80C30886803F011FD4A6840F082700D
:10228800D0E750F80C30886803F008FD4A6840F43D
:102298008020C7E750F80C30886803F0FFFC4A68D4
:1022A80040EA0900BEE701A9FFF7CEFE2378013313
:1022B800237099E7C1F898300133C1F8A0006DE7A1
:1022C8004FF0FF30BBE700BF00ED00E048760008A4
:1022D800BB0501200000F0FF0000021108B5024B09
:1022E8001B689847002008BDC4040120034B044A1A
:1022F8001860937843F0020393707047C404012078
:10230800040001200649074821F00701C1F10052E5
:1023180008B502F5A02203F0BDFB002008BD00BFF0
:102328004F1D0120C804012007B5094A6B4692E8F1
:10233800030083E8030007488268126822B119463F
:10234800904703B05DF804FB6FF05700F9E700BF52
:1023580010720008746C00081F2809D8012303FABA
:1023680000F0044B5B6998430CBF012000207047C4
:1023780000207047003C014000F01F0201231F2885
:1023880003FA02F303D8034A0020536170476FF041
:1023980015007047003C0140044B184400230133EA
:1023A80000F8012B9942FADC704700BF5900012060
:1023B8002DE9F041054600260F4F4FF00108F4B211
:1023C8006B78A34201D8BDE8F0812B781C442046E5
:1023D800FFF7C2FF68B12046FFF7CEFF57F8343049
:1023E8003BB107EBC40204F01F04516808FA04F07B
:1023F80098470136E3E700BFD4040120034660B1E3
:10240800B0FA80F2C2F11F02D2B205498856054AD5
:1024180011680B431360FFF7D9BCFF22F5E700BF33
:1024280059000120003C0140024A136823EA0003D6
:1024380013607047003C0140032921D8DFE801F010
:10244800020C10190F4B9A6822EA00029A60DA68A7
:1024580022EA0002DA6070470A4B9A680243F5E7FD
:10246800084BDA680243DA609A6822EA00029A6046
:102478007047044B9A6802439A60DA681043D86040
:10248800704700BF003C014030B5B0B1B0FA80F3EE
:10249800C3F11F03DBB20B4850F833408C4204D120
:1024A80000EBC3056D68954205D044B940F8331078
:1024B80000EBC3004260002030BDFF23EBE76FF064
:1024C8000F00F9E7D404012060B1B0FA80F3C3F13A
:1024D8001F03DBB2044A002142F8331002EBC302A7
:1024E80051607047FF23F5E7D404012000F0030290
:1024F8000F23043292009340074A43EA9000C3B284
:10250800023352F82320030C93FAA3F302EA104093
:10251800B3FA83F3D84070470038014038B5364BDA
:1025280014460D4618680B888208C3F30B03142B56
:102538001AD803B3013B132B1DD8DFE803F00C13A3
:102548000A135127311C1C1C1C1C1C1C1C3D472534
:10255800530C4FF4FA4020602B68B3F5805F43D2E8
:10256800002038BD0020F6E7382BF4D006D823F039
:102578000403302BEFD06FF08500F2E7442B0DD029
:10258800A82BE8D0402BF6D11046E4E700F0F0F88D
:102598001923B0FBF3F04FF4D87358434008DAE737
:1025A80000F0E6F81923B0FBF3F04FF4D873584362
:1025B8000923B0FBF3F0CEE700F00EF91923B0FBC6
:1025C800F3F04FF4C07358430523F2E700F004F921
:1025D8001923B0FBF3F04FF4C07358432823E8E7FE
:1025E8000648B8E75000B6E7C3F313330133B0FB2E
:1025F800F3F02060B4E700BF4800012040787D0177
:10260800142808D8054BC34013F0010F14BF00204D
:102618006FF0850070476FF085007047EA001F0073
:1026280070B54E4D00F0FEF84D4C284603F02BFCDB
:1026380000F036FFA3684B4AC3F30313D35C20FAB8
:1026480003F613781D41AE4202D2284600F056FF29
:10265800236823F480232360236843F480332360B2
:102668003F4B1A689103FCD55A6F42F001025A6732
:102678005A6F9207FCD59A6802F00C02082A17D103
:102688001A68940707D41A6842F001021A60344A9B
:1026980013689807FCD5324B9A6822F003029A60B7
:1026A8009A6812F00C0FFBD19A6822F0F0029A6037
:1026B8002B4C236823F08073236023689901FCD492
:1026C800294AD2F8043823F44033C2F80438D2F83F
:1026D800043823F0706343F01063C2F8043800F044
:1026E8004BF8236843F0807323601D4C23689A01DC
:1026F800FCD500F075F8236843F080532360236805
:102708009B00FCD5A36823F0F003A360A36823F023
:10271800030343F00203A360114CA36803F00C0306
:10272800082BFAD1AE4202D3284600F0E7FE0F4B41
:1027380000200A4A1A60A36823F4E05343F4A05324
:10274800A360A36823F4604343F40043A360D4F870
:102758008C3023F08073C4F88C3070BD00E6DF0C39
:1027680000380240767E0008003002404800012010
:102778000048704740787D01114B12495A68114052
:10278800114A0A4311495A605A681140104A0A43CB
:102798005A601A6842F080721A60A3F5E4331A6826
:1027A80042F480321A605A68D203FCD51A6842F49F
:1027B80000321A60074A53689B03FCD5704700BF74
:1027C800003802400080BCFF196C40000080BFF058
:1027D800196C4009007000400048704740787D013E
:1027E8000E4A536823F4800323F03F0343F4800325
:1027F80043F0190353600A4BD2F888100B4043F09A
:10280800A04343F4C043C2F88830D2F88C3023F494
:10281800403343F40033C2F88C307047003802402C
:102828003F80FF8F064B82B01A6C42F080521A64C8
:102838001B6C03F080530193019B02B0704700BFEB
:102848000038024008B5074803F054FE38B106487E
:10285800FFF74CFD0448FEF775FF002008BD6FF038
:102868001200FBE7186E0008752800080A2838B51A
:102878000446074D04D1AB680D2128465B6898478C
:10288800AB68E1B202485B689847204638BD00BF94
:10289800186E00082DE9F843D0F8049090460746D2
:1028A8000D46D9F808001E4603F056FAB8F5001F81
:1028B800044616D1D9F808402846FFF717FE844287
:1028C8000CD1294603F048FA0446FFF7ADFD20462F
:1028D800FFF7FAFD00212046FFF7AEFD0020BDE816
:1028E800F883B8F5800F20D0B6F1806F19D0B6F113
:1028F800C06F18D0B6F1007F1AD102263A460F49A8
:102908002046FFF7C1FDB0B9D9F80810284603F0F2
:1029180028FA20463146FFF78FFD2046FFF76EFD67
:10292800DCE70126EAE70326E8E76FF08500D6E74B
:102938006FF01500D3E76FF00F00D0E715600008BF
:102948002DE9F0410C461946436804F1FF3CBDF8F7
:1029580018701D68BCF1050F21D8B5F1804F06D05D
:102968009948854203D0B2F5803F00F22981974803
:10297800032C50F82C6007F4807009D978B93446D4
:1029880082B92B6A23EA04032B620020BDE8F08198
:102998000028F4D08E4850F82C40002CF0D16FF06D
:1029A8001500F3E79B68002B40F0988002F1FF3890
:1029B80007F00102B4F5807F4FEA420200F0AB80D5
:1029C80000F29E80102C00F0A88000F29580012C67
:1029D80000F0A580042C08BF012018BF08207D4FF7
:1029E8002B6A385C022707FA00FE8240284623EA51
:1029F8000E0313432B62784B53F82C309847C5F8D5
:102A08002C802B6A34EA0303BFD0B6F5807F00F030
:102A18009B8000F28E80102E00F0988000F2858056
:102A2800012E00F09580042E08BF012318BF08234B
:102A38006A4F05F118016A48B4F5807F17F803C09A
:102A480010F803E0674B51F80C2003FA0EF322EA62
:102A580003034FF0600202FA0EF243EA020341F860
:102A68000C3000F08A807DD8102C00F0888075D852
:102A7800012C00F08680042C08BF012318BF08230E
:102A8800DFF864C1B6F5807F6A681CF803C04FF4AC
:102A9800807303FA0CF322EA03036B602B6A44EA9F
:102AA80003042C622B6843F080032B607ED072D81D
:102AB800102E7DD06BD8012E7CD0042E08BF0123A8
:102AC80018BF0823FA5CC05C08238C588340234352
:102AD8008B506B6943F001036B6156E7102B01D1F2
:102AE800013963E723F04000202801D0402B67D14B
:102AF80049084FEA52085BE7402C08BF03206CE7FF
:102B0800B4F5805F0DD0B4F5803F0CD0B4F5806F7C
:102B180008BF052061E7042061E702205FE7002085
:102B28005DE706205BE7072059E7402E08BF03232F
:102B38007CE7B6F5805F0DD0B6F5803F0CD0B6F5D2
:102B4800806F08BF052371E7042371E73B466FE7F1
:102B580000236DE706236BE7072369E7402C08BFCE
:102B680003238BE7B4F5805F0DD0B4F5803F0CD01C
:102B7800B4F5806F08BF052380E7042380E70223AC
:102B88007EE700237CE706237AE7072378E7402ED1
:102B980008BF032394E7B6F5805F0DD0B6F5803FF4
:102BA8000CD0B6F5806F08BF052389E7042389E7B1
:102BB800022387E7002385E7062383E7072381E7C6
:102BC8006FF08500E2E600BF000C0040D4760008F4
:102BD800C87600082A7E0008B07600083C7E000807
:102BE800337E000873000100217E00082DE9F743B9
:102BF800664F4568D7F80890D0F81080D9F80030AB
:102C08002C6869692BB96FF05706304603B0BDE8E8
:102C1800F08338469847061EF7DBAB69012B40F274
:102C2800B1806969D9F818300831002BEBD000223F
:102C38003846984706460028E7D16969D9F80C3024
:102C48000831002BDFD06A463846984700280FDB4A
:102C5800009BD8E90101C8F800308368DB6803B13C
:102C6800984701AA0021E86903F0E6F9002801DA8B
:102C78000646CAE7019B00221979186803F0EFF9A4
:102C88000028F5DB6B680022A362414BE2629C429C
:102C980012D0B4F1804F2FD0A3F57C439C422BD0A7
:102CA80003F580639C4227D003F580639C4223D0C0
:102CB80003F578439C4233D12368A96823F0700355
:102CC8000B432360236823F4407323602263636803
:102CD8002A6923F0700313436360636CEA6823F086
:102CE800FF0313436364636C43F400436364236822
:102CF80043F00103236088E72368AA6823F0700380
:102D080013432360236823F44073236063682A69AC
:102D180023F0700313436360EB68002BE7D022E0D5
:102D28001C4B9C4213D003F580639C4214D003F5DE
:102D380080639C420BD0A3F598339C4207D003F5DF
:102D480080639C4203D003F580639C420ED12368C4
:102D580023F44073236003E01A6822F440721A6077
:102D68002B69002BD8D06FF085064EE70A4A2B69ED
:102D7800944203D002F580629442F2D1626822F054
:102D88007002C7E76FF015063FE700BF746C0008D4
:102D980000000140004001400010004043681B68EB
:102DA80003F1080252E8002F42F0010203F1080083
:102DB80040E800210029F3D1154A93421BD0A2F51F
:102DC8004C42934217D002F58062934213D002F529
:102DD800806293420FD002F5806293420BD002F5D5
:102DE8004442934207D0A2F51C42934203D002F515
:102DF8008062934203D15A6842F040025A6053E815
:102E0800002F42F4807243E800210029F7D170476F
:102E18000010014043681B6803F1080252E8002FC4
:102E280022F0010203F1080040E800210029F3D153
:102E3800154A93421BD0A2F54C42934217D002F593
:102E48008062934213D002F5806293420FD002F55C
:102E5800806293420BD002F54442934207D0A2F518
:102E68001C42934203D002F58062934203D15A6810
:102E780022F040025A6053E8002F22F4807243E89F
:102E880000210029F7D1704700100140F8B50C4621
:102E9800036941681D682379012B15D09F1E7E4266
:102EA8007E41B6026279022A96BF474F4FF4005717
:102EB80037F81270A279022A09D0042A31D0003BCF
:102EC80018BF01231B0306E04FF4C066EAE7B3FA14
:102ED80083F35B091B07E2790968012A14BF4FF0E5
:102EE800000C4FF4407CA5421ED10A6822F08052A3
:102EF80022F4B05232431A430A604B6823F4405319
:102F08003B434B6043681A68936823F4407343EA71
:102F18000C0393602968406803F0CCF900EAE0707C
:102F2800F8BD4FF48053D6E7D1F800E00EF4C06E38
:102F3800764506D0D1F800E02EF4C06E4EEA0606BB
:102F48000E6041680E68716801F440518F4204D0E8
:102F5800716821F440513943716041680E683168E5
:102F680001F010218B4204D0316821F010210B436D
:102F78003360436819688B6803F440739C4505D037
:102F88008B6823F4407343EA0C038B6043681B6827
:102F98009968490405D5032A09D09A6822F4804221
:102FA80004E0032A03D19A6842F480429A602168B7
:102FB8002B68994206D0406803F07CF90028AFDB03
:102FC80023682B600020ABE75C7800082DE9F3410B
:102FD800476806467868396983681B68002B00F0E3
:102FE80099809847002832DB01AA0021786A03F00B
:102FF80023F800282BDB019B00221979186803F0BD
:103008002EF8002823DB756833692C68D3F8008014
:10301800236823F001032360A86803F06BFA0028F3
:103028007BD0D5E902018368DB6803B1984754E88F
:10303800003F43F00C0344E80032002AF7D1414630
:103048003046FFF723FF002804DA6FF0150002B0BE
:10305800BDE8F0812B7E1BB1A36843F00803A36091
:103068006B7E1BB1636843F400436360AB7E1BB1A6
:10307800636843F480336360EB7E1BB1636843F499
:10308800003363602B7F002B38D0254B9C421BD02C
:10309800A3F54C439C4217D003F580639C4213D0A0
:1030A80003F580639C420FD003F580639C420BD0EC
:1030B80003F544439C4207D0A3F51C439C4203D02C
:1030C80003F580639C42C0D173681A68936843F41F
:1030D8008043936023686A7F23F0787343EA4253FE
:1030E80023602368AA7F23F4F81343EA024323608A
:1030F800EB7F1BB1A36843F40043A360236843F04C
:1031080001032360E3699B02FCD53046BB6A9847FC
:1031180000209CE76FF0570099E76FF0120096E7E0
:1031280000100140F8B5436802460E4691F805E0E4
:103138001C68036908791D6801288B7913D1BEF1D1
:10314800020F69D9022B1F464FF4C0614FF4005C8F
:103158007AD0042B73D000287BD0C31E012B70D8E3
:103168006FF08500F8BD02280AD1BEF1020F5FD9C1
:10317800022B1F464FF480610BD04FF4005CE8E748
:10318800BEF1020F57D9022B1F4656D100286BD02B
:103198000021C31E012BE3D9002002270323734516
:1031A800DED102F0F1FFB842DAD1F37903B3012B93
:1031B80062D1334B9C421BD0A3F54C439C4217D0A1
:1031C80003F580639C4213D003F580639C420FD0C3
:1031D80003F580639C420BD003F544439C4207D01F
:1031E800A3F51C439C4203D003F580639C42B7D1EE
:1031F80023683146104623F001032360FFF746FE9B
:103208000028ADDB236843F00103236096E8030040
:1032180085E803000020A5E74FF4C061194F022B91
:1032280037F81EC01F4694D170B94FF0805010E097
:103238004FF48061F2E70021F0E700219DE70028C4
:103248008ED14FF4805004E0C31E012B88D9022789
:103258000020BCF5805F0BD0BCF5405F0AD0BCF104
:10326800000F9BD101239AE701464FF0805095E764
:10327800002394E7022392E7032B9AD070E700BF5C
:10328800001001405C7800084FF0E0230F4910B5AA
:103298009C691A6908689B6902F480320C4934B940
:1032A80093B903464AB90A681044C01A10BD002BE6
:1032B80008BF03460AB9A342F5D90A6802440A605E
:1032C8004FF0E0221269EEE70446F3E758050120C3
:1032D80054050120084B1022002083F82320074BB7
:1032E800074A1A60013A074B18604FF0E0235A6109
:1032F800072298611A61704700ED00E05805012027
:10330800C04B030054050120684620F007018D4694
:1033180019B5FFF7B9FF1049104B0868D3E9004207
:10332800001942F10002C3E900020D4A00230B60B4
:103338000C4BD2E90041001BB0FBF3F043431B19CF
:1033480041F10001C2E9003101F01AF9FEF7E2FD8E
:10335800BDE819408546704754050120E001012069
:10336800D8010120C04B03002DE9F041DFF8DC80D3
:1033780099B1421C0BD14FF0E022136923F00103ED
:1033880013614FF07F43C8F80030BDE8F081D8F8EA
:103398000060012806DC002708E0431CD8F800601C
:1033A800F7D14C204D28A8BF4D20471EEFF31185BB
:1033B800102383F31288BFF36F8FFFF765FF244C48
:1033C8004FF0E0239969D4E9002380184FF00002F8
:1033D80043F10003C4E900031E4B1A601E4B1A6830
:1033E800831A2FD4DFF874C00CFB073303F552336C
:1033F80003F2BF33B3FBFCF7131A43F2BC420CFBD6
:103408000733934238BF1346154A934228BF1346E1
:10341800C8F800304FF0E022013B90695361002367
:1034280081429361A1EB0003D4E9001238BF9B19D4
:103438005B1842F10002C4E9003285F31188BFF33A
:103448006F8FA2E743F2BC43E2E700BF58050120B3
:10345800E001012054050120D8010120C04B0300E0
:10346800007DFA0038B5EFF31185102383F3128835
:10347800BFF36F8F074B1C68074B1B68E41AFFF7F5
:1034880003FF85F31188BFF36F8F044B2044B0FB13
:10349800F3F038BDE0010120D8010120C04B030042
:1034A800134908B58B6803F00C03042B1BD0082BB9
:1034B8001BD14A684B68496802F03F0213F4800345
:1034C800C1F388111ABF0B4800230B48A1FB000168
:1034D800FDF7F2FC064B5B68C3F3014301335B0065
:1034E800B0FBF3F008BD0348FCE70348FAE700BF68
:1034F8000038024040787D010024F40000285DD0A7
:103508002F4B1A681B6802F44042B2F5404F33D182
:1035180013F4803310D102F10F6202F58C529042FD
:1035280048D8284A904247D8274A904235D8274A4F
:10353800904209D902230DE0254B984238D8234BF5
:1035480098424FF0060305D8224A904202D9012B2F
:1035580038BF012320490A6822F00F021A430A6083
:103568000A6802F00F02934202D00A6802F00F02C2
:10357800981A18BF0120704703F44043B3F5004F71
:1035880005D103F10F6303F5A343984212D80D4BFD
:10359800984211D80C4B984201D90323DAE70B4B18
:1035A8009842C7D80B4B984294BF00230123D1E718
:1035B8000723CFE70523CDE70423CBE70120704796
:1035C80000700040000E2707804A5D0500879303BE
:1035D8008058840C80C3C901003C024038B5EFF321
:1035E8001185102383F31288BFF36F8F064B9C68F5
:1035F80002F093FF85F31188BFF36F8F2046BDE873
:103608003840FEF797BC00BF5C05012038B50A4B6F
:1036180053F82040013053F82050A54200D838BD57
:10362800606830B1037EDB0701D402F04BFF083439
:10363800F3E723689847FAE7987700082A4B0122AE
:10364800032070B5294C86B0294D1A70FFF7DEFFAC
:1036580001F00EF80420FFF7D9FF26463034AE42B9
:1036680010D3224C00F0E0FC224EAC4226D300F0EE
:10367800EFFCFDF767FF204A938923F0010393814C
:1036880006B070BD54F80C3C059354F8103C0493F4
:1036980054F8143C039354F8183C029354F81C3C17
:1036A800019354F8203C009354E90A2354E90C018F
:1036B80000F0B0FA54F8303C5E65CEE7D4E90A234E
:1036C800B3F1FF3F08BFB2F1FF3F05D052EA030153
:1036D800206803D103F015F83034C6E731461830B6
:1036E80000F0BEFEF8E700BFBC05012060710008CD
:1036F80060710008B76600088802012070B5A02331
:10370800164E86B0012203FB0066154B154D044684
:1037180005930F231449CDE9033200234FF4A07217
:10372800CDE90133142303FB00554FF4C0700F4B50
:1037380000FB04113046009500F06CFA337C0C4A0B
:1037480023F00403EE602C7433744FF4046304FB19
:10375800033313446B6006B070BD00BFE80101205D
:10376800867E00085C050120801601202965000876
:10377800400E0120BFB50020FFF748FF274B83F319
:103788000888274C0025F023264F84F82230E57757
:1037980025766576A57684F82050636A43F4E0239D
:1037A8006362FEF7D1FAFEF7AFFB4FF0FF33A36277
:1037B800E362FEF7CFFC1C4CFEF728FC1B4800F028
:1037C800B1FAFEF723F80120FFF720FF0220FFF7E8
:1037D8001DFF00F067FC164B012216495C6120466C
:1037E800154B009505930523CDE90155CDE9033225
:1037F8003B464FF4806200F00DFA227C06462046D4
:1038080022F00402227402F02FFF2846FFF776FF09
:103818003A4631462046FEF757FB00BF8016012086
:1038280000ED00E045360008880201202803012049
:103838005C050120001801208B7E00082DE9F3416A
:1038480004460E469DF8200004F10808EFF311879E
:10385800102181F31288BFF36F8F256AE1688D42CA
:1038680042D22568AC421AD0CDB1284602F063FE98
:1038780005F1180002F07CFFA2680024314668694F
:1038880002F0ACFF2846C5F8984002F0EDFE40462D
:10389800394602F01CFF204602B0BDE8F081A2685C
:1038A800A8B13146E06902F099FFE369A2681344C0
:1038B80062699342E36101D12369E361236A0020CD
:1038C8000133236287F31188BFF36F8FE4E7A1699F
:1038D80023699942314604BF6369A361A069801ACC
:1038E800A06102F07BFFE9E752EA03010AD0074929
:1038F800404689684E613946CDE90023224600F0EA
:10390800FFFAC9E76FF02200DCE700BF5C05012081
:10391800F7B50446084604F10807EFF311861021AD
:1039280081F31288BFF36F8F216A00293AD0A26809
:10393800A16902F053FFA369A2682568134462696C
:103948009342A36104BF2369A361AC42236A03F1D4
:10395800FF33236234D02846002D32D002F0EBFD2D
:1039680005F1180002F004FFA2686969E06902F035
:1039780035FFE369A2682846134462699342E3610C
:1039880004BF2369E361236A013323620024C5F875
:10399800984002F069FE3846314602F098FE20460B
:1039A80003B0F0BD52EA030110D00A4989684861A2
:1039B80031463846CDE90023224600F0A1FAEFE768
:1039C800002086F31188BFF36F8FE9E76FF02200BC
:1039D800F7E700BF5C0501202DE9F34104461746CF
:1039E8001E46EFF31188102383F31288BFF36F8FFD
:1039F800C368314A7BB180689168884219D057EA18
:103A0800060318D188F31188BFF36F8F6FF00F008A
:103A180002B0BDE8F081916891F90E10013321617F
:103A2800E3609368A36088F31188BFF36F8F002069
:103A3800EEE72169F2E790F90E3091F90E109942FC
:103A4800A8BF19468B422DDD02F0CCFD0546224663
:103A580041461A48CDE9007600F052FA0028E6D02F
:103A6800EFF31186102383F31288BFF36F8FA068DA
:103A7800D0B1236821699C420AD04BB193F90E302A
:103A88009942A8BF19466FF07F039942B8BF1946FB
:103A980002F0A8FD40B13146084802F018FE6FF068
:103AA8000A00B5E70025D2E7002DF4D186F3118886
:103AB800BFF36F8FF3E700BF5C050120BD05012050
:103AC800F8B583680546002B40D0234A9268934294
:103AD8003FD1C368012B03D9013BC3600020F8BD67
:103AE800EFF31187102383F31288BFF36F8F0169F7
:103AF800806802F077FD2C68A54207D10023C5E94C
:103B0800023387F31188BFF36F8FE7E7002CF5D0F6
:103B1800002604F11800D4E9003213605A60237CAF
:103B2800A66023F00203C4E90066237402F020FEB5
:103B3800AC6094F90E3020462B61C4F8986002F00E
:103B480093FD3946054802F0C2FDC7E76FF015003E
:103B5800C5E74FF0FF30C2E75C050120BD05012035
:103B680070B5EFF31186102383F31288BFF36F8FBC
:103B78000468A0421BD0D4B1002504F11800D4E990
:103B8800003213605A60237CA56023F00203C4E965
:103B98000055237402F0ECFD2046C4F8985002F05A
:103BA80063FD31460748BDE8704002F090BDD0E99A
:103BB80002329A4218BF0133836086F31188BFF33B
:103BC8006F8F70BDBD05012013B5EFF3118110246F
:103BD80084F31288BFF36F8F846844B1013C84601A
:103BE80081F31188BFF36F8F002002B010BD52EA35
:103BF800030406D181F31188BFF36F8F6FF00F00B4
:103C0800F3E7CDE900230246014800F079F9ECE733
:103C1800BD0501202DE9FF4707320E469846109949
:103C280022F0070200F15803818104217F32044603
:103C3800017406F1400A22F03F02119FC0E91633D1
:103C480000233F2AA2F1400983600F98E373A07311
:103C5800C4E9063305D883F31188BFF36F8F08468C
:103C680002DFB51820462946FDF75CFE07300E9B9B
:103C7800314620F007000026C4F888002D1A204697
:103C88002A46C4E920A902930D9B01930C9B00933B
:103C98004346FEF7E9F8666597B11F22394604F1F5
:103CA800600002F0B5FD84F87F60074B9B680BB19C
:103CB800D3F88C302846C4F88C3004B0BDE8F087BF
:103CC80084F86070F1E700BF5C050120F0B50025BD
:103CD80087B004460595109D04950F9D03950E9D8C
:103CE80002950D9D01950C9DDDE912760095FFF773
:103CF80091FFB6F1FF3F08BFB7F1FF3F05D056EA85
:103D0800070305D1204602F0FCFC204607B0F0BDB1
:103D18003A46334604F11800014900F0A1FBF4E7E4
:103D2800B76600080123037483810023C0E92033A8
:103D3800C0F88C30014B9860704700BF5C050120CB
:103D48000A4A6FF00A019368C3F898100849C3F843
:103D580094004B6843F080534B60002383F3118831
:103D6800BFF36F8F9368D3F8980070475C05012004
:103D780000ED00E070B590F91020037C002A36DBD6
:103D8800D90634D11B4C63F07F0322460374E169E2
:103D980052F8183F934207D1C0E900210860E0615A
:103DA80011E09942F8D01B68002BF5D090F90E501D
:103DB80093F90E60B542F4D0AE42F2DD5968C0E91D
:103DC800003108605860A569954200D005B9E568DA
:103DD800A3681A7CD20604D1DA897F2A01D9AA6994
:103DE80032B1AB4202D0284600F0BAFA656170BD24
:103DF8006361FCE75C05012038B590F910200146A5
:103E0800037C002A04DA03F07F03037402F0F2FB58
:103E18000D4D2A46AB6852F8184F944200D004B9A9
:103E2800EC688B4207D01A7CD20604D1DA897F2A43
:103E380001D9A2692AB1A34202D0204600F090FA23
:103E480023466B6138BD00BF5C050120B3F1FF3F1D
:103E580008BFB2F1FF3F03D00249183000F000BBA1
:103E6800704700BFB7660008034648B9EFF30582FC
:103E780032B9064A51699268914201D0FFF760BF92
:103E880083F31188BFF36F8F704700BF5C05012073
:103E980038B5194CA168E0690B68814214BF1A460D
:103EA800002249680B605960A368E1692AB9134A7E
:103EB800C3E900210B60E3610CE093F90E0092F96D
:103EC8000E50A84214D0854212DD5168C3E9002182
:103ED8000B605360A569094B9D4200D005B9E568A0
:103EE800A3689D4202D0284600F03AFA656138BDC1
:103EF8009142DCD01268D9E75C05012074050120E5
:103F0800F8B50E4B0C4611460D4A9868DDE9066770
:103F18001060EFF31182102282F31288BFF36F8FC3
:103F28009D68284602F078FB284632463B46FFF754
:103F38008DFF2046BDE8F840FFF702BF5C05012071
:103F48007C050120F8B50446EFF31187102383F3AD
:103F58001288BFF36F8F037C49B203F01F02002A57
:103F68000CBF0126002639D103F07F032D4D0374C1
:103F780002F040FB037C2A46817363F07F030374DD
:103F880052F8183F934227D1E869C4E90020046039
:103F9800EC610FE09842F8D01B68002BF5D093F93C
:103FA8000EC06145F6D08C45F4DD5968C4E900318E
:103FB8000C605C60AC69944200D004B9EC68AB68F2
:103FC8009C4202D0204600F0CBF96C6187F311883F
:103FD800BFF36F8F3046F8BDE869DEE79B071ED553
:103FE800856802F007FB81732B689D4209D16B68D5
:103FF800C4E900531C606C60E8E76A689342F6D035
:104008001B68002BF3D093F90E209142F5D08A4219
:10401800F3DD5A68C4E9003214605C60D6E7817346
:10402800D4E700BF5C050120EFF31181102383F36F
:104038001288BFF36F8F054B9A68D37B013BD3730C
:1040480081F31188BFF36F8F704700BF5C050120B3
:1040580070B5EFF31186102383F31288BFF36F8FC7
:104068000F4DAB68DA7B0132DA732A4652F8184FE3
:10407800944200D004B9EC681A7CD20604D1DA89DB
:104088007F2A01D9A2692AB19C4202D0204600F0B9
:1040980067F9234630466B61BDE87040FFF7E4BE20
:1040A8005C050120024B03F11802C3E906227047A0
:1040B8005C05012070B5EFF31186102383F3128895
:1040C800BFF36F8F1B4CA168E0690B68814214BF76
:1040D8001A46002249680B605960A368E1692AB949
:1040E800154AC3E900210B60E3610CE093F90E0067
:1040F80092F90E50A84218D0854216DD5168C3E9DE
:1041080000210B605360A5690B4B9D4200D005B997
:10411800E568A3689D4202D0284600F021F93046A0
:104128006561BDE87040FFF70BBE8A42D8D01268BF
:10413800D5E700BF5C05012074050120F8B550EAF9
:10414800010306460C4603D1FFF7B4FF0020F8BD73
:10415800EFF31187102383F31288BFF36F8F124D8B
:10416800124BA8681860FFF747FEA8682346324636
:104178000F49183000F074F9AA6804463846137CD1
:1041880043F004031374FFF7DBFDAB68D3E90A239C
:10419800B3F1004F08BF002AD8D102F011FB201A52
:1041A80020EAE070D3E700BF5C0501207C05012010
:1041B800B7660008014B9868704700BF5C0501208E
:1041C8002DE9F84304468789EFF31185102383F31B
:1041D8001288BFF36F8F037C190705D585F3118803
:1041E800BFF36F8FBDE8F883D90943F008025DD1AA
:1041F8000274A36813B1204602F004FA04F118000F
:1042080004F1580802F0B4FAA66DB04511D04FF089
:10421800000976B1304602F0F5F906F1180002F00F
:10422800A7FA3046C6F89890FFF7A4FDA66DB045EA
:10423800EFD1DFF8C080D8F808309C423ED1EFF3C8
:104248000589B9F1000918BF4FF00109D8F81860BD
:10425800294A964200D00EB9D8F80C60B34202D071
:10426800304600F07DF82046C8F8146001F0FFFCE5
:10427800B9F1000F02D02148FFF754FDD8F80830F3
:104288009C4231D1EFF3058373BBA289D20718D4BE
:104298002846FFF755FDFB07A4D5002383F31188B3
:1042A800BFF36F8F0423184602DF9BE703F07F03F9
:1042B80043F00803037402F09DF99AE74FF00009F0
:1042C800C4E785F31188BFF36F8F83F31188BFF3B9
:1042D8006F8F0423184602DFEFF31180102383F356
:1042E8001288BFF36F8FD4E785F31188BFF36F8F00
:1042F800D1E700BF5C0501207405012028030120D7
:10430800027C034612F01F0210D10A4988420DD0E0
:104318000949086868B1D9897F2909D893F90E2015
:10432800064B1B689A42B8BF0020704700207047B0
:1043380010467047E80101204C000120800501204B
:10434800044B0122C01A044BC0105843034B1A54A3
:10435800704700BFC8030120ABAAAAAABD05012067
:104368000D4B70B51E7CFFF7CBFF0C4D044606EBDA
:10437800460305EBC305284602F0FAF9084B00226C
:104388009A553CB1621E28460649D317BDE87040CD
:1043980000F066B870BD00BF5C050120C8030120AD
:1043A800BD0501204943000838B5EFF311851023F6
:1043B80083F31288BFF36F8F0F4B104A9C68106805
:1043C800A04206D1FFF7CCFF85F31188BFF36F8FAA
:1043D80038BD00211B7C1160094AD35C002BF3D047
:1043E8002046FFF78DFF0028EED0237CDB0601D1A5
:1043F800FFF74EFD2046E5E75C0501207C0501201E
:10440800BD050120024B1868984208BF002070477C
:1044180050000120034B1B680BB9FFF723B800209D
:10442800704700BF8405012030B570B10B4B5B6845
:1044380098420AD0036843B1D3E90421D0E904457E
:10444800121941EB0501C3E90421D0E900321360D8
:104458005A600023C0E9003330BD00BF500001207E
:10446800B3F1FF3F08BFB2F1FF3F2DE9F84F044613
:10447800994615461F467AD08160EFF311881023BC
:1044880083F31288BFF36F8FB9F1000FDFF8E4A050
:1044980020DBFFF7BFFF0135064649F100092D185B
:1044A800DAE9002749EBE0734FF00109C4E9045346
:1044B800AD1843EB0707FFF7A5FFDFF8BCE003469D
:1044C800DEF804A0EBB9C4E900EACAF80040CEF867
:1044D800044028E0DAE900126FF001035B1A4FF09C
:1044E800FF3161EB02025B1B62EB0902012B4FF00B
:1044F800000972F10001BCBF01230022C0E90432A7
:10450800D9E7D3E9041CD4E904208A4270EB0C0BE8
:1045180024DA891A5A686CEB0000C3E90410C4E96C
:10452800003214605C60FFF76DFF84420ED1134BBC
:104538001B685BB9B9F1000F02D1FFF76BFF0646A4
:10454800304602F0FEF80021FEF70EFF88F31188CE
:10455800BFF36F8F28463946BDE8F88F521A60EBD3
:104568000C009A45C4E90420ADD01B68AAE70025D1
:104578002F46EFE7E00301205000012084050120C9
:104588002DE9F047EFF31185102383F31288BFF369
:104598006F8FDFF8A4900026DFF8A0800027C9F805
:1045A8000000FFF72FFFD9F80030D8E900ECD91741
:1045B80050B1D0E90442A34271EB020A1CDAE41AB2
:1045C80062EB0102C0E9044213EB0E034FF0000452
:1045D8004CEB01012046C9F80040C8E9003102F05F
:1045E800B0F82146FEF7C0FE85F31188BFF36F8F40
:1045F800BDE8F047FFF7D8BE14EB0E024CEBE473AE
:10460800C0E90467C8E90023FFF70EFF85F31188A6
:10461800BFF36F8F83689847EFF31185102383F3F7
:104628001288BFF36F8FD9F800301B1BC9F8003010
:10463800FFF7E8FEB7E700BF84050120E00301208B
:1046480010B5EFF31184102383F31288BFF36F8F33
:10465800FFF7E0FE054A0346D2E90001181841EBCE
:10466800E37184F31188BFF36F8F10BDE00301205D
:10467800014801F04EBA00BF907E000838B5064CDC
:10468800064DAC4201D3002038BDD4E901122046C2
:10469800143402F09BF8F4E7900001209000012008
:1046A800242A2DE9F041044601D8012A49D1FDF711
:1046B800A7FC354B16221A5001B10C600020BDE84A
:1046C800F08135462E4616F8010B2028F9D0A0F1C6
:1046D8000907042F0346F4D92B2834D02D2835D1C7
:1046E8004FF0010C6B78AE1C302B36D1307840F08F
:1046F800200078282DD132F010002AD17378344662
:10470800102202360CF10047013F0020B7FBF2FEF1
:1047180002FB1E78392B82BF03F1FF3343F02003DD
:10472800263B303B9A421FD9704502D819D198458B
:1047380017D24CF0020C3546344615F8013B2E468C
:10474800E8E70546BEE74FF0000CCBE74FF0000C5A
:10475800CAE7002A08BF0822D4E7002A08BF0A22AD
:10476800D0E700FB0230E6E701B10C601CF0010F56
:1047780018BF40421CF0020FA1D0FDF741FC024BCC
:1047880022221A5038469AE70C0000002DE9F04121
:1047980001260746B24201DCBDE8F0813B461F46D0
:1047A80013F8014B002CF7D0252CF8D11C78252CB8
:1047B80007F10207F2D00023DFF804819C461D466A
:1047C8001F2D18D8A4F1200EBEF1100F09D9A4F19D
:1047D800300EBEF1090F1ED80A2404FB03E320257E
:1047E80004E028FA0EFE1EF0010F06D017F8014B60
:1047F800002CE5D128E07F2D1CD8A4F1300EBEF1A5
:10480800090FE9D9242C10D1BCF1000F46D0B342CE
:1048180046D00023EAE724F0040EBEF12A0FF8D0B0
:104828006C2C09D145F08005E0E724F0040EBEF1B8
:104838002A0FEED06C2C22D06C2C1BD8682C23D0DD
:104848006A2C28D04C2C26D0BCF1000FA4D0B4453B
:10485800A0D144F02007A7F1650CBCF1020F0B684A
:1048680001D9612F1ED1073323F0070308330B60EA
:1048780001368EE7742CB9D07A2CB7D0E4E72C0631
:1048880048BF45F40075CDE7EC0548BF45F4007511
:1048980045F48075AAE745F42075A7E79C46B8E774
:1048A8006324D6E7692C02D007D8632C03D02F06DF
:1048B80001D5AC05D7D40433D9E7732CF6E700BF8C
:1048C800892801002DE9F04F95B043680393837858
:1048D80080469807CDE9081217D50D920B4600259A
:1048E8001F78A7B1252F16D001330793039B4146A4
:1048F80038469847002805F1010580F2398498F870
:10490800023043F0040388F802304FF0FF352846A0
:1049180015B0BDE8F08F5F789A1C252F0792E5D077
:1049280000242646A246A346BBF11F0F32D8A7F1A2
:104938002003102B0AD8DFE803F02409092A090903
:10494800091B09090922092709091900A7F13003D8
:10495800092B2DD92A2F39D154B90D9B1BF0400FA3
:1049680053F8042B0D9329D0164601E04BF0010BA8
:10497800079B13F8017B0793002FD5D15BE04BF021
:10498800020B4BF0040BF3E74BF0080BF0E74BF08E
:10499800100BEDE7BBF17F0F3FD8A7F13003092BD0
:1049A800D8D81BF0400F03D00A2202FB0636DFE7F7
:1049B8000A2202FB0A3A4BF0200BD9E7B2F1000AAF
:1049C800F9DACAF1000A4BF0280BD1E72E2F05D1EE
:1049D8001BF0400F9BD14BF0400BC9E7242F1CD193
:1049E800002C00F04281099B0D931BF0400F0AD167
:1049F800524608980DA9FFF7C9FE0D9B1A1DD3F85A
:104A080000A00D92B4E7324608980DA9FFF7BEFE44
:104A18000D9B1A1D1E680D92AAE76C2F00F01281DB
:104A280000F20981682F00F015816A2F00F01A81C1
:104A38004C2F00F0178134B1099B08980D9322463A
:104A48000DA9FFF7A3FE002E47F02009B8BF2BF0F1
:104A5800400BA9F16503BCBF1FFA8BFB0026022B94
:104A680040F20881B9F1610F40F06782FF4307F017
:104A7800200306930D9B073323F007031BF0400F19
:104A8800D3E9000103F1080208BF4FF0FF36069B87
:104A98000D9200930EAA334601F0F3FF0130C3B222
:104AA800B3424BF4C054049301DB049B5E1E012304
:104AB8000E9F0593A3464FF0700907F10903122BC7
:104AC8000DD907F16303C62B40F20F8107F2E733D4
:104AD80040F2CE72934294BF0323042305939DF8BA
:104AE8003C2002F00C0312F0010240F019811BF087
:104AF800020F40F012811BF0040400F0F880002B34
:104B080040F0118120231BF4405F1FD1049A5032DA
:104B1800002E6A4408BF0126133A049921B112F8FD
:104B2800011D302900F036811BF0100F049A18BFC0
:104B38003246391DC0F23381B74280F23081BA4221
:104B48004BF4005B40F32D817E1C961B1BF4005236
:104B58000A9200F0288127EAE774013403B101348E
:104B6800002E00F02881721C1444A245CCBFAAEB89
:104B7800040400241BF0090F04D12C44A54240F082
:104B88001F81002443B118464146039B98470028DB
:104B980005F10105FFF6B3AE1BF4006F13D0039BBC
:104BA8004146302098470028FFF6A9AE069BC3F17E
:104BB80078004146039B00F0F8009847002805F16B
:104BC8000205FFF69CAE1BF0080F05D12C44AC4241
:104BD80040F00281254600240A9B002B00F01C812E
:104BE80027EAE77AA7EB0A077642049BBB4284BF11
:104BF8000EABFB180AF1FF3A88BF5879039B98BFA0
:104C08003020564505F10109414600F3EF809847E9
:104C1800002807F10107FFF672AEBAF1FF3F08D18D
:104C2800039B41462E2098470028FFF668AE05F101
:104C380002094D46D9E7742F3FF49AAE7A2F3FF414
:104C480097AEF8E61BF0800F18BF4BF4007B4BF0D3
:104C5800800B8DE61BF4807F18BF4BF4007B4BF470
:104C6800807B85E64BF4207B82E62646B346544695
:104C7800B2467DE6FF4307F0200306930D9B0733FA
:104C880023F007031BF0400F03F1080208BF0626B4
:104C9800B9F1650FD3E900010D9213D1731C0022FD
:104CA800DBB24BF4805B1446112BCDE9002428BFFE
:104CB80011230EAA00F0FCFAC3B2049302230E9F3C
:104CC8000593FAE6B9F1660F05D14BF4005B34465B
:104CD80001221123E8E7F3B2012B4FF0000238BF9D
:104CE800012314464FF06509DEE70223F6E6002BA0
:104CF8003FF409AFBAF1030F3BDC9DF83C30A64EF8
:104D080013F0080FA54B08BF1E463746B94617F8DB
:104D1800010BB0BBAE1BB1447BE033BB2B23F2E6E7
:104D28002BBB2D23EFE62022BAF1040F13DD1BF075
:104D3800080FAAF104040FD12C44039B04924146A6
:104D480020209847002805F10105FFF6D8ADA542B7
:104D5800049AF2D19AB10024039B41461046984721
:104D6800002805F10105C8DAC9E52B22DCE72D2268
:104D7800DAE71BF0080FAAF10304BED1DCE71446FA
:104D8800BBE7069BC01A4146039BC0B29847002860
:104D9800BCDAB4E504990139C9B20491BDE6561EDE
:104DA800D4E60026D2E61BF4006F059A0CBF032454
:104DB80005241444D2E61BF0100F18BF0134D4E6C2
:104DC8000B934146039B2020984700280B9B05F135
:104DD8000105BFF6D3AE92E5039B414630209847C4
:104DE800002805F10105BFF6F2AE88E598470028CE
:104DF800FFF685AD1BF0100F0BD0BAF1FF3F08D1BD
:104E080005F1020941462E20039B98470028FFF62A
:104E180076AD4D464C4433E29DF83D00039B414638
:104E280098470028FFF66BAD002E69DD039B4146CD
:104E38002E2098470028FFF662AD4FF0010A049B28
:104E48009A45BBBF0EAB534430205879039B41466B
:104E580098470028D346FFF652AD0AF1010A564595
:104E6800EDDA02355D44069BA9EB03004146039B3E
:104E7800C0B298470028FFF642AD002FB4BF2D20DE
:104E88002B20039B4146B8BF7F4298470028FFF676
:104E980036AD059B042B41D14FF47A79B7FBF9F66F
:104EA80006F13000039B4146C0B29847002805F13F
:104EB8000305FFF624AD09FB16774FF06409B7FB2D
:104EC800F9F606F13000039B4146C0B29847002826
:104ED80005F10105FFF613AD09FB16774FF00A0936
:104EE800B7FBF9F606F13000039B4146C0B298477C
:104EF800002805F10105FFF602AD09FB167715E05C
:104F08001BF0100F01D10135ADE7039B41462E2060
:104F18009847002805F10205A5DAF0E4059B032B64
:104F280005F10205C9D0059B012BD7D107F1300047
:104F380005F101094146C0B266E7A7F16303122BE8
:104F480000F2FF80DFE813F013005700FD00FD00BA
:104F5800FD00FD005700FD00FD00FD00FD00FD0007
:104F68001701F800FD00FD002C00FD00B9000D9BA5
:104F78001A1D1B680D928DF8383001240EAF1BF0F6
:104F8800080F2ED03E19B946B1452CD1EF1BB944B4
:104F9800AAEB04043DE700BFCF7E0008CB7E0008E3
:104FA8000D9B1A1D0D921F68AB4B002F08BF1F46A3
:104FB8001BF0400F14BF31464FF0FF31384601F067
:104FC80037FC0446DBE7039B41462020984700282E
:104FD800FFF695AC013EB442F5D35544AD1BB2463D
:104FE800D0E75646F7E719F8010B039B4146984767
:104FF8000028C9DA83E41BF0800F0D9B35D01BF421
:10500800007F2DD0073323F00703D3E9000103F114
:1050180008020D922BF0100900291FFA89F936DAD7
:10502800404261EB410149F480690DF1380B0A23D4
:105038005A4601F009FC19F0400FA0EB0B0B65D0A4
:1050480029F001025E4592B240F3B280002F00F0D1
:10505800A98019F010033446914626D002345CE04A
:105068001A1D18680D92C117D4E71A1D1BF4807F0A
:1050780019680D9201D10846F5E71BF4007F15BFAA
:1050880048B208B241F3C01141F3C031C2E750EA57
:105098000103CAD11BF0400FC7D0002EC5D12BF099
:1050A800110B1FFA8BF93446B34640F2064319EA4E
:1050B80003031CBF013400232FE02BF0100B1FFA51
:1050C8008BFB0A231BF080040D9A57D01BF4007148
:1050D8001DBF073222F0070202F10801101D19BF97
:1050E8000D91D2E900010D90106850EA010252D1E9
:1050F8002BF016091BF0400F1FFA89F94FD0002E2C
:105108004DD12BF0170B1FFA8BF9B34619F010038A
:1051180052D0002F4ED10BF1010419F0080F5ED1C7
:1051280019F0010F06D0A2456EDDAAEB040404EBCA
:105138000B06544622464DE04BF0100B10237827FF
:10514800C0E7B9F1780F04D1C7F1780343F0100331
:10515800B8E7039B4146252098470028FFF6CFABC8
:10516800039B4146384698470028FFF6C8AB0235EE
:10517800079BFFF7B5BB08230027A3E7111D0D9177
:105188001BF480711068B0D01BF400711ABFC0B254
:10519800214680B2A9E72BF0060B1FFA8BF90DF117
:1051A800380B45E729F011091FFA89F934467CE7DD
:1051B8009146ABE75C4651E75C4676E7CDE90423C8
:1051C8004146039B202098470028FFF698AB049A95
:1051D800059B01329245F1DC2C1BA5181446F3B14E
:1051E800039B4146302098470028FFF688AB6FB9EB
:1051F8000135A9462E44A6EB09035B4521DC5D4633
:105208000EAE5DBBD944C3E65E4693E70235414620
:105218003846039B98470028EBDAFFF770BB40F24B
:10522800064319EA030FE4D019F0020F14BF2B202C
:10523800202019F4806F05F10105414618BF2D2083
:10524800E7E7039B414630209847002809F1010908
:10525800D1DAFFF754BB00BFD37E0008013D039BA2
:10526800705D414698470028CBDAFFF748BB039B9F
:10527800414620209847002805F10105FFF63FAB7D
:10528800631B002BF3DC73E71FB502AB0093074ADF
:105298004FF0CC3301F0BBFBDDE90201C00840EA66
:1052A8004170C90805B05DF804FB00BFCDCCCCCC7B
:1052B8002DE9F04F9BB0044605920A460A93C2F3C3
:1052C8000A559DF890300B93D20FC1F3130309923E
:1052D800090D7DB950EA03021BD1059A3023537199
:1052E800099B156043F002031371012738461BB070
:1052F800BDE8F08F40F2FF7295424AD10343099B03
:10530800059A14BF43F0080343F004031371002700
:10531800ECE700F0010208924FEA83080122AC4D45
:1053280048EA907887009A461646C5F1000B584619
:10533800069200F011FAB5F1FF3FACBF8146A0F12B
:105348000109ABEB090B09EB05035846049300F080
:1053580009FA16A9A0F17D05584600F023FA12AB08
:10536800069A0193A9EB050510AB0292009320461B
:105378002B4616AA514601F08FFAB9F1010F0446DF
:105388000D4600F2D280089B002B40F0C580012713
:105398006BE043F4801A00F001024FEA8A080343E5
:1053A800A5F23545089248EA90784FEA800749D136
:1053B80040F2FE7319420CBF01260026002D32462A
:1053C800B3DB284600F0C2F9032DC8BF01380490AA
:1053D80000F0C8F9049B7C305D1B054416A91846EB
:1053E80000F054FA12AB019310AB009320462B4601
:1053F800029616AA514601F04FFA049B152B044653
:105408000D4600F2868014AB724A009338464FF07E
:10541800CC33414601F0FBFA149B159A9B0843EAEA
:10542800827303EB8303BB42DDE9109A0CD1384643
:10543800414600F09FF9049B83428CBF0027012757
:10544800002612E00126B9E7089B002B51D1013F45
:1054580048F1FF31B81B61F1000100F08BF9049BA2
:10546800089F83428CBF002601260B9B002B40F02F
:105478009180DDF828B04FF00008CDE906884FF09C
:105488000A0ADDE91001FFF7FFFE129B0E93CDE932
:105498000C0118461399FFF7F7FE0C9B0D9A0F9114
:1054A80098420B469341814680F08E8020462946DB
:1054B800FFF7EAFE0E9A0AFB09F3934214BF00268F
:1054C80006F001060C9B10930D9BCDE911390F9B3B
:1054D8001393079BB8F1000F14BF002707F00107CB
:1054E80001330AFB10485FFA88F8079304460D4613
:1054F800C7E7B81C48F1000100F03CF9049B83425F
:105508008CBF00200120B9EB00006AF10002CDE950
:10551800100200273E46A8E7109B119A013B42F172
:10552800FF32CDE9103201278AE7B9F13E0FF0D8F2
:105538004FF0FF33A9F1200003FA09F203FA00F053
:10554800C9F1200123FA01F102430A4303FA09F3DE
:1055580027EA030728EA020857EA08070CBF0127C9
:1055680000276DE700FB02FCA1FB00120133624437
:105578008C4275EB020CF5D2049ADDF828B013447E
:10558800259A1344D20F9342B8BF13469B45A8BF30
:105598009B4670E70A21002201230846E8E70AFB38
:1055A80003F0A2FB0A2301310344944275EB030084
:1055B800F5D2594510DDBBF1000F02D154EA0503BD
:1055C8000AD00123069371E70A2200230121ECE7A0
:1055D800CCFBFFFFCDCCCCCC002E2FD04FF00A0A4D
:1055E800129B13990D931846FFF74EFE0D9B0C91D5
:1055F8000AFB00F29A42814620D1DDE91001FFF74B
:1056080043FE0E900D9120462946FFF73DFE0D9B67
:105618000E9A1092CDE911390C9B1393079BB8F1A0
:10562800000F14BF002707F0010701330AFB1048D9
:105638005FFA88F8079304460D46D1E7DDF8109025
:10564800079B9944002F5AD0B8F1050F57D114F091
:1056580001034AD1069A32B9DDE912239D4208BFF7
:1056680094425FD0069B18194FF00A0445F10001D7
:10567800002201262546A04271EB020755D2EBB164
:10568800B3451BDA0B9B6BB1259ADDF828B006EB06
:1056980009031344012BB8BF01239B45A8BF9B46B0
:1056A8005E450BDD05304FF00A024FF0000341F173
:1056B8000001FBF701FC09F10109013E5E45A8BFA5
:1056C8005E4637B20FFA89F9059B09FA86F607F1A3
:1056D8000508013E98444FF00009B9452CDB059BAD
:1056E8001A461E60099B137100E6069B2BB9DDE97B
:1056F80012239D4208BF944209D00123B3E7069BB9
:1057080053B9DDE912239D4208BF944204D1089B96
:10571800002BF2D1002EF0D0B8F1040F94BF002373
:105728000123A0E74FF00408F1E705FB02F7A4FB0B
:10573800054201363A449EE70A220023FBF7BCFBE8
:10574800303208F8012D09F10109C6E7014B584329
:10575800800C704741340100014B5843000D7047DD
:10576800FB2E0B00024B5843C00C0130704700BFA2
:105778004F9312000A4A70B503464FF0CC3600200A
:105788004FF0333506FB03F402FB0144A3FB02315F
:1057980021449D4275EB010401D30130F2E770BD4D
:1057A800CDCCCCCC2DE9F04F1A23354EB0FBF3FA13
:1057B80003FB1A0389B004460D4606EB0A1653B9D3
:1057C800D6E90023C1E90023D6E90201C5E90201AF
:1057D80009B0BDE8F08F2B4A02EBC303D3E9008977
:1057E80004AB0093D6E902234046494601F00FF97D
:1057F80006AB0093D6E9002383460F464046494648
:1058080001F005F9DDE9066216EB0B0652EB070815
:105818004FF0000328BF0123814633B1049B059A4A
:10582800013342F10002CDE9043220460391FFF72B
:1058380099FF07461A2000FB0AF0FFF793FF3F1A6B
:105848003246434603990097484601F0FBF84FEA71
:10585800141C0D4A640004F01E0352F82C40DC406E
:1058680004F00304241841F10001C5E90041DDE911
:10587800042300973046414601F0E4F8A6E700BF4C
:10588800E872000818720008B07700082DE9F04F98
:105898001A27DFF8E4A000F11905B5FBF7F56F4307
:1058A8003A1A4FEA051B89B004460E460AEB05155D
:1058B8000AD1D5E90023C1E90023D5E90201C6E9E7
:1058C800020109B0BDE8F08F2C4B03EBC203D3E90A
:1058D800008904AB0093D5E902234046494601F00C
:1058E80096F85AF80B206B68013ACDE9020106A92F
:1058F80063F1000300914046494601F088F8DDE96C
:1059080006528A4602996D18039952EB01084FF026
:10591800000328BF0123814633B1049B059A013354
:1059280042F10002CDE904323846FFF71BFF074673
:105938002046FFF717FF3F1A2A4643460097484676
:10594800514601F07FF84FEA141C0D4A640004F038
:105958001E0352F82C40DC4004F0030401342418E0
:1059680041F10001C6E90041DDE90423009728461A
:10597800414601F067F8A2E7B873000818720008FA
:1059880004780008704703460A46F0B41979DB88A2
:1059980000681343DC028768066906D513F4402FB4
:1059A80003D0DA0748BF83F440230125346823F481
:1059B8008012DB0705FA01F54CBF2C43AC43346079
:1059C8003B68F0BC1847034630B419790068DB8897
:1059D80082689469C4B10569012203F04003A446B2
:1059E8008A402D682A424FF0A0720CBF43F0B8637A
:1059F80083F0707323F0794323F47F0323F47F4308
:105A080030BC23F0BF0360476FF0570030BC7047CD
:105A180003460A4600681979012303FA01F103696C
:105A28001B68194218BF82F0010212B18368DB6853
:105A3800184783681B69FBE700F08ABD00EBC100CB
:105A4800408840087047F8B50346FFF7F7FFB0FAFB
:105A580080F0CA000C468DB2C0F11F00171D063237
:105A680003EB800CDCF8106056B9012101FA00F054
:105A7800D9680143D960CCF81040DD539D52F8BD78
:105A8800F1000431585AD85303EBC0009E52C58028
:105A98005D52F4E7043A2DE9F041CC1D11444FF072
:105AA800000824F0070421F007010E1B046041469A
:105AB80004F11000F708C4F80C80B7FA87F2A76061
:105AC800C2F12405C2F12002AD009200073500F0B2
