:020000040800F2
:10000000001D0120812800088D7300086D2800085C
:100010006D2800086D2800086D2800080000000009
:100020000000000000000000000000007D29000822
:100030006D28000800000000E1280008A545000820
:10004000C92B0008C92B0008C92B0008C92B0008C0
:10005000C92B0008C92B0008C92B0008C92B0008B0
:10006000C92B0008C92B0008C92B0008C92B0008A0
:10007000C92B0008C92B0008C92B0008C92B000890
:10008000C92B0008C92B0008C92B0008C92B000880
:10009000C92B0008C92B0008C92B0008C92B000870
:1000A000C92B0008C92B0008C92B0008C92B000860
:1000B000C92B0008C92B0008C92B0008C92B000850
:1000C000C92B0008C92B0008C92B0008C92B000840
:1000D000C92B0008C92B0008C92B0008C92B000830
:1000E000C92B0008C92B0008C92B0008C92B000820
:1000F000C92B0008C92B0008C92B0008C92B000810
:10010000C92B0008C92B0008C92B0008C92B0008FF
:10011000C92B0008C92B0008C92B0008C92B0008EF
:10012000C92B0008C92B0008C92B0008C92B0008DF
:10013000C92B0008C92B0008C92B0008C92B0008CF
:10014000C92B0008C92B0008C92B0008C92B0008BF
:10015000C92B0008C92B0008C92B0008C92B0008AF
:10016000C92B0008C92B0008C92B0008C92B00089F
:10017000C92B0008C92B0008C92B0008C92B00088F
:10018000C92B0008C92B0008C92B0008C92B00087F
:10019000C92B0008C92B0008C92B0008C92B00086F
:1001A000C92B0008C92B0008C92B0008C92B00085F
:1001B000C92B0008C92B0008C92B0008C92B00084F
:0801C000C92B0008C92B00083F
:1001C80081F0004102E000BF83F0004330B54FEA00
:1001D80041044FEA430594EA050F08BF90EA020F6D
:1001E8001FBF54EA000C55EA020C7FEA645C7FEA00
:1001F800655C00F0E2804FEA5454D4EB5555B8BF23
:100208006D420CDD2C4480EA020281EA030382EA93
:10021800000083EA010180EA020281EA0303362D25
:1002280088BF30BD11F0004F4FEA01314FF4801CF8
:100238004CEA113102D0404261EB410113F0004F0A
:100248004FEA03334CEA133302D0524263EB4303C1
:1002580094EA050F00F0A780A4F10104D5F1200E5F
:100268000DDB02FA0EFC22FA05F2801841F10001BA
:1002780003FA0EF2801843FA05F359410EE0A5F18E
:1002880020050EF1200E012A03FA0EFC28BF4CF0BF
:10029800020C43FA05F3C01851EBE37101F0004575
:1002A80007D54FF0000EDCF1000C7EEB00006EEB82
:1002B8000101B1F5801F1BD3B1F5001F0CD349080C
:1002C8005FEA30004FEA3C0C04F101044FEA445263
:1002D80012F5800F80F09A80BCF1004F08BF5FEAEA
:1002E800500C50F1000041EB045141EA050130BDCA
:1002F8005FEA4C0C404141EB0101013C28BFB1F5DC
:10030800801FE9D291F0000F04BF01460020B1FA26
:1003180081F308BF2033A3F10B03B3F120020CDAF9
:100328000C3208DD02F1140CC2F10C0201FA0CF0D7
:1003380021FA02F10CE002F11402D8BFC2F1200C3C
:1003480001FA02F120FA0CFCDCBF41EA0C019040F2
:10035800E41AA2BF01EB0451294330BD6FEA04043B
:100368001F3C1CDA0C340EDC04F11404C4F1200226
:1003780020FA04F001FA02F340EA030021FA04F338
:1003880045EA030130BDC4F10C04C4F1200220FA8F
:1003980002F001FA04F340EA0300294630BD21FACD
:1003A80004F0294630BD94F0000F83F4801306BF93
:1003B80081F480110134013D4EE77FEA645C18BF87
:1003C8007FEA655C29D094EA050F08BF90EA020F1E
:1003D80005D054EA000C04BF1946104630BD91EA16
:1003E800030F1EBF0021002030BD5FEA545C05D119
:1003F8004000494128BF41F0004130BD14F5800458
:100408003CBF01F5801130BD01F0004545F0FE41CB
:1004180041F470014FF0000030BD7FEA645C1ABF00
:10042800194610467FEA655C1CBF0B46024650EA37
:10043800013406BF52EA033591EA030F41F4002163
:1004480030BD00BF90F0000F04BF0021704730B5E9
:100458004FF4806404F132044FF000054FF00001BE
:1004680050E700BF90F0000F04BF0021704730B57F
:100478004FF4806404F1320410F0004548BF404254
:100488004FF000013EE700BF42004FEAE2014FEAA9
:1004980031014FEA02701FBF12F07F4393F07F4F84
:1004A80081F06051704732F07F4208BF704793F087
:1004B8007F4F04BF41F40021704730B54FF460749A
:1004C80001F0004521F000411CE700BF50EA01029D
:1004D80008BF704730B54FF000050AE050EA010246
:1004E80008BF704730B511F0004502D5404261EBB6
:1004F80041014FF4806404F132045FEA915C3FF4F7
:10050800D8AE4FF003025FEADC0C18BF03325FEA93
:10051800DC0C18BF033202EBDC02C2F1200300FA44
:1005280003FC20FA02F001FA03FE40EA0E0021FA69
:1005380002F11444BDE600BF70B54FF0FF0C4CF457
:10054800E06C1CEA11541DBF1CEA135594EA0C0F09
:1005580095EA0C0F00F0DEF82C4481EA030621EA44
:100568004C5123EA4C5350EA013518BF52EA03357F
:1005780041F4801143F4801338D0A0FB02CE4FF031
:100588000005E1FB02E506F00042E0FB03E54FF061
:100598000006E1FB03569CF0000F18BF4EF0010E59
:1005A800A4F1FF04B6F5007F64F5407404D25FEA55
:1005B8004E0E6D4146EB060642EAC62141EA555108
:1005C8004FEAC52040EA5E504FEACE2EB4F1FD0C4A
:1005D80088BFBCF5E06F1ED8BEF1004F08BF5FEAC8
:1005E800500E50F1000041EB045170BD06F000467A
:1005F80046EA010140EA020081EA0301B4EB5C0427
:10060800C2BFD4EB0C0541EA045170BD41F480111E
:100618004FF0000E013C00F3AB8014F1360FDEBF43
:10062800002001F0004170BDC4F10004203C35DA1F
:100638000C341BDC04F11404C4F1200500FA05F3A2
:1006480020FA04F001FA05F240EA020001F0004243
:1006580021F0004110EBD37021FA04F642EB0601B9
:100668005EEA430E08BF20EAD37070BDC4F10C04E3
:10067800C4F1200500FA04F320FA05F001FA04F2A7
:1006880040EA020001F0004110EBD37041F1000193
:100698005EEA430E08BF20EAD37070BDC4F120059E
:1006A80000FA05F24EEA020E20FA04F301FA05F206
:1006B80043EA020321FA04F001F0004121FA04F2AE
:1006C80020EA020000EBD3705EEA430E08BF20EA7E
:1006D800D37070BD94F0000F0FD101F000464000B8
:1006E80041EB010111F4801F08BF013CF7D041EA3A
:1006F800060195F0000F18BF704703F0004652003E
:1007080043EB030313F4801F08BF013DF7D043EA0E
:100718000603704794EA0C0F0CEA135518BF95EAC4
:100728000C0F0CD050EA410618BF52EA4306D1D14B
:1007380081EA030101F000414FF0000070BD50EA6A
:10074800410606BF1046194652EA430619D094EAF4
:100758000C0F02D150EA013613D195EA0C0F05D1DE
:1007680052EA03361CBF104619460AD181EA030132
:1007780001F0004141F0FE4141F470014FF00000EA
:1007880070BD41F0FE4141F4780170BD70B54FF085
:10079800FF0C4CF4E06C1CEA11541DBF1CEA135505
:1007A80094EA0C0F95EA0C0F00F0A7F8A4EB0504E7
:1007B80081EA030E52EA03354FEA013100F08880DE
:1007C8004FEA03334FF0805545EA131343EA1263A7
:1007D8004FEA022245EA111545EA10654FEA00265C
:1007E8000EF000419D4208BF964244F1FD0404F515
:1007F800407402D25B084FEA3202B61A65EB030571
:100808005B084FEA32024FF480104FF4002CB6EB2D
:10081800020E75EB030E22BFB61A754640EA0C00AD
:100828005B084FEA3202B6EB020E75EB030E22BFED
:10083800B61A754640EA5C005B084FEA3202B6EB2E
:10084800020E75EB030E22BFB61A754640EA9C00ED
:100858005B084FEA3202B6EB020E75EB030E22BFBD
:10086800B61A754640EADC0055EA060E18D04FEA7B
:10087800051545EA16754FEA06164FEAC30343EA1B
:1008880052734FEAC2025FEA1C1CC0D111F4801FE8
:100898000BD141EA00014FF000004FF0004CB6E7E1
:1008A80011F4801F04BF01430020B4F1FD0C88BF80
:1008B800BCF5E06F3FF6AFAEB5EB030C04BFB6EB8B
:1008C800020C5FEA500C50F1000041EB045170BD7E
:1008D8000EF0004E4EEA113114EB5C04C2BFD4EBAB
:1008E8000C0541EA045170BD41F480114FF0000E2F
:1008F800013C90E645EA060E8DE60CEA135594EAAB
:100908000C0F08BF95EA0C0F3FF43BAF94EA0C0FAD
:100918000AD150EA01347FF434AF95EA0C0F7FF422
:1009280025AF104619462CE795EA0C0F06D152EA76
:1009380003353FF4FDAE1046194622E750EA41065A
:1009480018BF52EA43067FF4C5AE50EA41047FF46B
:100958000DAF52EA43057FF4EBAE12E77BB972B9EB
:100968000029BEBF00204FF0004106E008BF002864
:100978001CBF6FF000414FF0FF3000F057B8ADF1E9
:10098800080C6DE904CE002909DB002B1ADB00F006
:1009980057F8DDF804E0DDE9022304B0704740426F
:1009A80061EB4101002B1BDB00F04AF8DDF804E0A5
:1009B800DDE9022304B0404261EB4101524263EB9E
:1009C80043037047524263EB430300F039F8DDF804
:1009D80004E0DDE9022304B0404261EB41017047C5
:1009E800524263EB430300F02BF8DDF804E0DDE945
:1009F800022304B0524263EB4303704753B94AB928
:100A0800002908BF00281CBF4FF0FF314FF0FF300E
:100A180000F00CB8ADF1080C6DE904CE00F010F848
:100A2800DDF804E0DDE9022304B07047704700BF39
:100A3800034613F8012B002AFBD1181A0138704716
:100A48002DE9F04786468C460846089E15467446AA
:100A58001946002B40F0C2808542B2FA82F245D98D
:100A68004AB1C2F1200300FA02FC2EFA03F39540C2
:100A780043EA0C0C94404FEA154EA8B2BCFBFEF8B2
:100A8800230C0EFB18CC08FB00F943EA0C439945EC
:100A980028D9EB1808F1FF3704D2994502D9A8F1F3
:100AA80002072B44A3EB0903A4B2B3FBFEFC0EFB25
:100AB8001C330CFB00F044EA0344A04214D92C195F
:100AC8000CF1FF3304D2A04202D9ACF102032C444A
:100AD800241A43EA07401EB1D440002334607360EF
:100AE800BDE8F0874746DDE76346F1E792BB431B65
:100AF80001214FEA154EAFB2B3FBFEFC200C0EFBF2
:100B08001C330CFB07F840EA0343984562D9EB18FD
:100B18000CF1FF3004D2984502D9ACF102002B4405
:100B2800A3EB0803A4B2B3FBFEFC0EFB1C330CFBC7
:100B380007F744EA0344A7424ED92C190CF1FF33B6
:100B480004D2A74202D9ACF102032C44E41B43EAC5
:100B58000040C0E7C2F1200320FA03F1954090401D
:100B68002EFA03F303434FEA154EAFB2B1FBFEFC76
:100B78000EFB1C10190C0CFB07F841EA00418845D4
:100B880004FA02F422D969180CF1FF3004D288451E
:100B980002D9ACF102002944A1EB08019BB2B1FBD8
:100BA800FEFC0EFB1C110CFB07F743EA01439F42B6
:100BB8000ED9EB180CF1FF3104D29F4202D9ACF1E7
:100BC80002012B44DB1B41EA004192E76046E3E760
:100BD8006146F7E76046A3E76346B7E7834206D96D
:100BE80016B9002108467BE7C6E900E0F9E7B3FA41
:100BF80083F78FB9834201D3724508D8BEEB02044C
:100C080060EB030301209C461EB9002168E73846C3
:100C1800FAE7C6E9004CF8E7C7F1200CBB4022FA16
:100C28000CF41C432EFA0CF120FA0CF3B8400143E3
:100C38004FEA14490EFA07F5B3FBF9F81FFA84FED8
:100C480009FB18300B0C08FB0EFA43EA00439A45DF
:100C580002FA07F240D9E31808F1FF3004D29A45A6
:100C680002D9A8F102002344A3EB0A0389B2B3FB1B
:100C7800F9F809FB183308FB0EFE41EA03418E45DB
:100C88002CD9611808F1FF3304D28E4502D9A8F196
:100C98000203214443EA0040A0FB0298A1EB0E01A5
:100CA8004145CE46434602D306D14D4504D2B9EB61
:100CB800020E68EB04030138002EA6D0B5EB0E0235
:100CC80061EB030101FA0CFC22FA07F34CEA030377
:100CD800F940C6E9003198E74046C5E74346D9E7F9
:100CE8002DE9F04775239AB000228DF82E300DF1CA
:100CF8002E038DF82F20149301238DF858200DF121
:100D08002F021593CDE9172307238DF86430804807
:100D180014A99DF86430826843F002038DF86430AA
:100D2800682394680222A0479DF82F10794805F09F
:100D380033FF794807F01CF80446002800F0DC80EF
:100D4800754B71A5D5E90045D3F808A04321DAF819
:100D58000C30714898470146002840F0C9800EA918
:100D6800032000F0E9F80146002840F0C18014A9EA
:100D7800072000F0E1F80146002840F0B9800CA9EE
:100D880000F0DAF80146002840F0B2800F98FFF72B
:100D980069FB22462B46FFF7F9FC06460F460E98DC
:100DA800FFF760FB02460B4630463946FFF70EFA5E
:100DB800064619980F46FFF755FB22462B46FFF7C4
:100DC800E5FC804689461898FFF74CFB02460B461F
:100DD80040464946FFF7FAF9CDE908011798FFF7A9
:100DE80041FB22462B46FFF7D1FC804689461698E0
:100DF800FFF738FB02460B4640464946FFF7E6F93F
:100E0800CDE906011598FFF72DFB22462B46FFF783
:100E1800BDFC804689461498FFF724FB02460B4622
:100E280040464946FFF7D2F9CDE904011398FFF788
:100E380019FB22462B46FFF7A9FC804689461298E3
:100E4800FFF710FB02460B4640464946FFF7BEF93E
:100E5800CDE902011198FFF705FB22462B46FFF763
:100E680095FC804689461098FFF7FCFA02460B4627
:100E780040464946FFF7AAF93B463246CDE900010C
:100E8800264804F089FC0F9A0E99002A2448B8BF16
:100E9800524204F081FC119A1099002A2148B8BFE7
:100EA800524204F079FC139A1299002A1E48B8BFDE
:100EB800524204F071FC0D98FFF7D4FA22462B46F3
:100EC800FFF764FC06460F460C98FFF7CBFA02467C
:100ED8000B4630463946FFF779F902460B46134868
:100EE80004F05AFC002142F2107007F007F82DE7D1
:100EF8000F4804F051FCF5E70E4805F04DFE20467A
:100F08001AB0BDE8F08700BF0000000080842E41C1
:100F180098860008EE910008B4860008239200081D
:100F2800529200086C92000886920008A09200086D
:100F3800CA9200080192000810B403460A46044801
:100F480081680C69194623465DF8044B184700BFB1
:100F5800B48600082DE9F04F91B0840705460E4687
:100F6800009302F00403DDF868800293C2F3C20321
:100F7800039203F10103059340F0BA81041D30B1D7
:100F8800072909D86FF01B0011B0BDE8F08F01F0F8
:100F980007063444C6F10806009B4FF000094FF0DD
:100FA800040A591E4FF0FF334F46CB460193534670
:100FB800CDF810900DB1009820600598002800F336
:100FC800E8809848009A824203D397488242C0F04A
:100FD800E080039AA4EB050E92074FEA9E0000F109
:100FE80003810F2F00F2B180002D00F0058107F179
:100FF80040020DEB020C019A0CF8200C0CF8102C96
:10100800049801300490E7E07A285DD84B280ED880
:10101800472859D829282DD8252852D054D82028EF
:101028007AD02338D0F1000B4BEB000B74E04C382E
:101038002E2849D8DFE800F0704848484848484812
:10104800484848484B484848484848484859484B01
:101058004B595959704B6D487048184B184848827D
:101068007F4B48484B487F0000204FF0000B4FF063
:10107800040A38E02A380122C0B202FA00F010EA65
:101088000E0F49D110F0625C2FD110EA020B43D049
:101098006046013C5444B4FBFAF40AFB04F4002D06
:1010A80061D0A3EB050CA444B4453FF66BAF002810
:1010B80068D1042B47D158F8043B23600434042337
:1010C8002AE0019A013A01924FF0000B24E011F84E
:1010D800010C6C2834D111F8023C00206C2B83469B
:1010E800C5D14FF0080A5346D3E708F1070807347B
:1010F80028F0070824F00704F8E802AB35B1069891
:101108002044B0423FF63EAFC4E900AB08344FF08C
:10111800000B4FF0080A534611F8010F002878D049
:10112800BBF1000F7FF470AF2528F5D1019B4FF07C
:10113800010B013301934FF0040AECE7584694E79A
:1011480000208346A5E7082B02D06FF015001BE7A7
:1011580008F1070828F00708B8EC027B84ED007B4B
:1011680008340823D8E768B9042B02D108F1040829
:10117800A4E7082BE9D108F1070828F0070808F1C7
:101188000808EDE705980138059058F8040B009019
:1011980010E7039A900720D5A4EB050E4FF0010C39
:1011A8004FEA9E00BEF5007FCFD20F2FCDD8F5B104
:1011B80007F14002C0B20DEB020E019A0EF8200CA6
:1011C8000EF8102CBCF1000F3FF41AAF60F07F004E
:1011D80009F101090EF8200C0137C5F108020434A1
:1011E8004FF6DA7E069297E74FF0000CDAE7BCF18B
:1011F800000F01D00136EFE7029A0236002AEBD140
:101208000098CDE90631FFF713FC0644DDE9063105
:10121800E2E7631BB3F5806F97D23DB9A6F10804E6
:10122800E018B1E6F4830008A0A000089B08029A21
:1012380028602B709DF81030C2B1EB7085F80290D1
:10124800B9F1000F05D008A80022C5F1010C97429A
:101258000ED1C5F101030DF120084FF0000A0DF180
:10126800300B0193574512D1601B8DE66B70E5E793
:1012780010F8013B190608D50CEB040E03F07F03A8
:10128800B6453FF67FAE04F8013B0132DFE7B9F11E
:10129800000F03D098F90020002A17DB029BD3B176
:1012A8001AF80B2004F8012B0022019B181910448E
:1012B800B0423FF667AE98F80000009904F8010BB9
:1012C8002046039206F0A8FE039A14440AF1010A84
:1012D80008F10108C6E798F8002055F82230009375
:1012E800029B009845F82230FFF7A2FB421CDCE77E
:1012F8006FF00D0048E600BF2DE9F04F97B00446A7
:10130800894600AF90F802A0D7F880B03B62CBF3D3
:10131800C003FA62BB6141B9457800780AEB8000E6
:1013280020444D4517D8A0EB0409E378FB61BAF1D6
:10133800000F02D01BF0010F16D1FB6953BBFB6AEB
:101348001BB13A6A4946204698474D4628465C37BD
:10135800BD46BDE8F08F461C09F101093046FFF78C
:1013680067FB01303044DCE72378626899007A62D1
:10137800FA6A796104EB8301002A40F000814D4646
:101388000E4601EB0A094FF000084E454CD101EB1F
:101398000A0610E01BF0020FD1D023789A0004EB64
:1013A80083017A6162687A62FA6A002A77D14D46C7
:1013B80001EB0A0690461BF0050F0CBF0223012320
:1013C800FB62FB6906EB430A0BF00203BB6256455E
:1013D800BCD016F8021B16F8013C54F82390994B20
:1013E800994502D3984B994536D3BB69002B40D019
:1013F800786A05F0AAFB00283BD0E9468AB06A461D
:10140800924B53617B6AC2E906314FF4007313842F
:101418008F4B42F8103F00234FF412518D48023D84
:1014280000F02AFCCD46D2E716F8013BF96254F8E1
:101438002300FFF7FDFAD7F884300130F96A4BB181
:10144800D7F8883098453EBFD7F8843023F818007D
:1014580008F10108054498E7BB6923B1786A05F0EB
:1014680074FB0028C9D11BF0010F05D1FB6AED1AE6
:10147800ADE7BB6A002BAAD04846FFF7D9FAD7F8E0
:10148800843053B1D7F8883098453FBF431CD7F80C
:10149800842022F8183008F10108054497E7BAF1CA
:1014A800000F72D01BF0040672D0D046002607F158
:1014B800480052463B61B96206F0AEFDB96A3B6925
:1014C80001EB0A02F969BA62FA695200FA60BA6A6B
:1014D80002EB41023A610BF00202BA603A69B96A5A
:1014E8008A4257D11BF0020F62780CBF4FEA5801AD
:1014F80000217A621BF0010F3244D2B240F09F8083
:101508001BF0040F14BF40460020BB616270A0703E
:101518002046E1703A6A7969FB6A9847051EFFF62A
:1015280015AFBB6941463A6A07F1480023707B6AE8
:1015380084F802A06370FB69E370FB6A9847B0F116
:101548000008C0F2BB807B69A9EB0A013A6AC91A94
:10155800FB68C91AD7E90A0398470028C0F2B08087
:10156800A8444FF0000B07F1380A08EB0005B34513
:1015780072D300213A6AFB6A08469847E6E656465F
:101588004FF0000807F1380093E75646D04697E732
:10159800B04695E7BA6A12F8021B12F8015CBA6203
:1015A80054F82500274A904202D3274A90421ED376
:1015B800BA6932B1786A7B6005F0C7FA7B6800289F
:1015C8008CD1BA6802BB08F1280207F1300C08F187
:1015D800010008F10208944407F158025FFA88F8FC
:1015E80052FA80F00CF8101C00F8105C76E7BA6923
:1015F8003AB1786A7B6005F0A8FA7B6800287FF426
:101608006DAF1BF0010F09D006F1280207F1300079
:10161800711C161806F8205CCEB25FE71BF0040FA9
:101628003FF45CAF08F1280207F1300008F101012E
:1016380002EB000808F8105C5FFA81F84EE700201A
:1016480063E700BFF4830008A0A00008E792000841
:1016580004000001808A00081BF80A3054F823901F
:1016680087F83730D7F884302BB3D7F888309B45C4
:1016780021D2D7F8843033F81B803A6A012107F168
:101688003700FB6A984700281ADB0544B8F1000FB9
:1016980006D14846FFF7CCF900F101081FFA88F88F
:1016A8003A6A41464846FB6A9847002808DB0544E1
:1016B8000BF1010B5BE74FF00008DEE7454645E616
:1016C800054643E6014B1860704700BF0000012043
:1016D80080B505460E461746984603F045FDDFF8E7
:1016E8002090034606F078FE0446424649F800304A
:1016F80039463046A84754F8090001F0D7F800BF2A
:1017080008000000034A0020536823F002035360D6
:10171800704700BF002004E0064B1A6842F40072CC
:101728001A601A6842F480721A60034B034A1A60FE
:10173800704700BF003C0240380001200024F4003C
:101748002DE9F047044607464FF00109DFF85080BD
:1017580014B93846BDE8F08794FAA4F5B5FA85F5CA
:1017680009FA05F32E0108EB05156FEA030A24EAC6
:1017780003042B7B002BEBD058F806301B694BB9C0
:1017880046440422284607EA0A077368196805F0E0
:10179800BBFCDDE7284698470028D9D1F0E700BF11
:1017A800F88A000830B5002289B00F490F4806F0C2
:1017B8000BFC0022002300240D4D0E4928460094FE
:1017C800CDE906230E234FF44072CDE90334CDE969
:1017D8000144094B03F08AFA0849284606F0F8FA4A
:1017E800204609B030BD00BF09180008980501203F
:1017F800D0000120000B0120251B0008BA93000827
:10180800014803F0CBB900BFBC0001202DE9F04727
:10181800804620480F4605F04FFC0646002832D087
:1018280000252846BDE8F087237B83B12368DB6861
:101838000BB120469847636883F8069023681B69B4
:10184800CBB9636804222046196805F05DFC0136AF
:1018580010345445E8D3B8F1000FE2D0002DDFD0A2
:101868002846FFF76DFF0546002FF7D000216420BA
:1018780006F044FBF2E7204698470028E1D009FA31
:1018880006F31D43E3E7044C0546DFF810A04FF0CC
:101898000109DEE750080120F88A0008088B0008D3
:1018A800014B53F820007047B48D000808B5034673
:1018B80008462BB1044A136000F076FC002008BDEE
:1018C8006FF01500FBE700BF0400012010B5044CC1
:1018D800237813B9034803F061F90123237010BD7D
:1018E800EE0A0120BC00012010B504460B4805F0A3
:1018F800E3FB5CB10A4BBFF35B8F53E8001F013970
:1019080043E80012002AF8D1BFF35B8F054806F0C0
:1019180067FB0548BDE8104003F040B948080120BE
:101928004C08012098050120BC0001200020064B2E
:10193800BFF35B8F014653E8000F43E80012002A0B
:10194800F9D1BFF35B8F70474808012070B5FFF7E6
:10195800EDFF084C0546084EB44200D370BD6368DD
:101968005B792BB123685B6813B1294620469847F9
:101978001034F1E7F88A0008088B000810B5044C09
:101988000449204605F017FA034B1C6010BD00BF40
:1019980080000120A08D00084008012000230D4A86
:1019A8004FF47A710C4810B513700C4A13600C4A46
:1019B8001360FFF77BFFFFF7E1FF0A4B0A49184660
:1019C8008B4200D310BD1A1A5C6810331211013211
:1019D8002271F5E7EF0A0120DB70000848080120B2
:1019E8004C080120F88A0008088B000801460022EC
:1019F8000023014805F000BA80000120014805F0E5
:101A080099BA00BF80000120024B0146186805F012
:101A1800ECBA00BF40080120014805F021BB00BF17
:101A280080000120264B70B51878002846D0FFF7B3
:101A3800E5FF054600283ED1224B234C1B68002BAE
:101A480012DD06F0BFFA0A220023FEF7D7FFD4E919
:101A58000032C01A40F2E93361EB0201984271F199
:101A6800000101D3FFF772FFD4E9003213F57A734E
:101A780042F10002C4E90032BDE87040FFF7CCBF74
:101A880063685B7923B12368294620461B68984719
:101A98001034B442F4D32846FFF7B6FF0B4BBFF31C
:101AA8005B8F53E8001F013943E80012002AF8D180
:101AB800BFF35B8FC0E7064C064EEAE770BD00BF78
:101AC800EE0A012048080120900501204C08012059
:101AD800F88A0008088B000870B50D4D297861B99F
:101AE8000C4C01200C4EFFF791FEB44206D3FFF7D1
:101AF80099FF0028FBD101232B7070BD63685B79C7
:101B08001BB1236820469B6898471034EDE700BF57
:101B1800EF0A0120F88A0008088B000800212DE947
:101B2800F0470846FFF772FE044658B34FF4FA78B8
:101B38004FF000091C4B06F04FFC1C4A1B58136061
:101B480033B11B4B1B68092B02DD1A4803F026F83A
:101B58000025194FDFF85CA044B12046FFF7F0FDDF
:101B6800044618B94FF0FF384FF0FF39FFF75AFF16
:101B7800064628B9B5B942464B46504603F042F8E6
:101B88003546E9E74FF0FF384FF0FF39D2E72B68C9
:101B98009B691BB100222846114698471035BD4263
:101BA800F5D3E8E7054DFAE70800000044080120EE
:101BB8004C080120BC000120088B0008F88A0008A6
:101BC80013B5184805F078FA174B1B7873B1EFF383
:101BD8001184102383F31288BFF36F8FFFF722FF5E
:101BE80084F31188BFF36F8F02B010BD0F4B1B68D1
:101BF800002BF9D050B9002200230D48CDE900236D
:101C080042F21072002303F089FDEDE70928EBD1B9
:101C1800074806F0E5F9074802B0BDE8104002F0B1
:101C2800BDBF00BF4C080120EF0A01204408012075
:101C380098050120BC000120064B10B504461B681E
:101C480098472146A060044805F055F9BDE81040C2
:101C5800FFF7B6BF0400012080000120044A054BAD
:101C68009B1AB1EBD30F34BF52F8310000207047F4
:101C7800788A0008F88A00082DE9F04F8FB0C1F380
:101C88004A280D46914604AF0C0DB8607B60B8F148
:101C9800000F63D0002607F114034FF0040B4FF038
:101CA8000A0AC7F80C8032467E624846C7E90766CA
:101CB800019307F11C03CDF808B0CDF800A0F9682E
:101CC800FFF71AFBB0F5006F03461CD36C468AB0C9
:101CD800D9F8041004AB26481A46C3E9050140F2B6
:101CE800FF71D9614FF400711984224B42F8103FFB
:101CF8004FF4125133462048FFF7BEFFA5462C3754
:101D0800BD46BDE8F08FC0F30A0804F117003B6038
:101D1800184468F3532520F007008008FFF766FE93
:101D2800044690B13B6800F11001144A4846F96135
:101D3800C7E9083607F11403CDF808B0CDE900A3C8
:101D480007F11C03F968FFF7D7FA68F353257B6896
:101D5800B96820462A4605F0F7F9D0E704F11700DC
:101D680020F007008008FFF741FE0446EDE700BFBA
:101D7800CF93000804000001B08A0008237100080E
:101D88002DE9F04F87B00446934698460391DDE964
:101D98001279DDE9105ABFB13B46524610210020A6
:101DA800CDF80090CDF81490FFF7D4F8B0F5006F97
:101DB80006460AD340F2FF73174A0221174807B0B4
:101DC800BDE8F04F05F019BA3E4604F0070405F1E6
:101DD80017000BF0070BE400304444EA8B1420F0A2
:101DE800070044EA4624800844EA0554FFF7FEFD4C
:101DF800054640B13FB13B46524631461030CDF81A
:101E08000090FFF7A7F8434622460399284607B0F3
:101E1800BDE8F04F05F098B90E940008B08A0008A4
:101E2800406820B1034BC01A40F3CF0070474FF011
:101E3800FF307047788A00080EB403B503AB01463B
:101E4800054853F8042B019301F054F802B05DF8EB
:101E580004EB03B0704700BF4D720008CA0605D4F2
:101E68008B064CBF02490349FFF7E6BF704700BF26
:101E780047940008469400082DE9F04F8BB09B4624
:101E880004460D46169B90469DF854A00693179B52
:101E9800199E0593189B0493BAF1000F00F09E80D9
:101EA80006F0010306F00209089306F008030793F9
:101EB80006F48073099305F025F9024600283BD003
:101EC8008F492046FFF7B8FF0746B9F1000F08D041
:101ED80016F0440F32D12A468A492046FFF7ACFF54
:101EE8000744089B53B1884B2046884953F82A2059
:101EF800874B002A08BF1A46FFF79EFF099B002B55
:101F080048D0079B002B62D1B8F1000F64D042463D
:101F180080492046FFF790FF0546069B3D44002B6D
:101F28006BD1049B002B71D1F30700F1E28031469D
:101F38002046FFF793FFD6E00746C6E7764B1868BA
:101F48000028CDD0754B4FF47A794FF03C0C1B68C4
:101F5800B5FBF3F5B5FBF0F100FB11554FF46163E8
:101F680009FB05F5B1FBF3F2B5FBF0FE03FB12111B
:101F780000FB1E55B1FBFCF309FB05F50CFB131127
:101F8800B5FBF0F5009120466549CDE901E5FFF77D
:101F980053FFA5E7079BEBB1624B2046624953F814
:101FA8002A20FFF749FF0546B8F1000F05D0424641
:101FB80058492046FFF740FF0544BBF1000FACD05D
:101FC8005A465A492046FFF737FF0544A5E74FF020
:101FD800000BE1E7079DE7E745469EE7BBF1010FE8
:101FE800069B06D1002B64D1049B002B7BD00025D7
:101FF8000CE0002BF8D04E485CE04E48069B224689
:102008004D4904F071FD049B002B68D0DFF838813E
:10201800DFF83891049F4FF0000B31462046102F0F
:1020280028BF1027FFF71AFF5D4545DC059B4FF0D9
:10203800010B494620461A78FFF7FEFE1BF0070FF2
:1020480003D141462046FFF7F7FE5F453BD9059B84
:102058004946204613F80B20FFF7EEFE0BF1010B63
:10206800BBF1100FEAD14FF0000B34492046FFF7BF
:10207800E3FE5A46059B20469A5CA2F120015F299F
:102088002F4928BF2E22FFF7D7FE0BF1010BBBF11A
:10209800100F1DD01BF0070F03D141462046FFF754
:1020A800CBFE5F455A46E5D841462046FFF7C4FEB9
:1020B800EBE720485546A1E7414620460BF1010BC6
:1020C800FFF7BAFEB0E71F492046FFF7B5FEC5E7A0
:1020D800059B3B440593049BDB1B04939AD1BAF1FF
:1020E800000F7FF421AF20460BB0BDE8F04F05F09C
:1020F8009CB8074A20460549FFF79EFE17E700BF30
:102108004E94000852940008C48D00087794000883
:10211800499400087A9400085808012054080120BE
:102128005B940008D88D00087E9400088494000809
:10213800837200084D720008FD2E00089394000871
:10214800959400088F9400089194000889940008D9
:1021580042F20F73114A8B4273B5044628BF0B46EF
:1021680005680521684603F029FB636806460B22CB
:1021780028465B680A4905F04AF8636832466946AA
:1021880028465B6805F043F863681B2205495B68CD
:10219800284605F03CF802B070BD00BF7E9D0008DF
:1021A800B49400089894000800210123064A90423C
:1021B80006D8064A01B901231360054B1860704719
:1021C800400801215B00F2E740420F00540801205B
:1021D80058080120F8B50D4604464618054FB44284
:1021E80001D12846F8BD14F8011BBB6801485B689B
:1021F8009847F4E760860008014B036003207047A6
:10220800208E000806480021064A08B5121A05F073
:10221800B1F80548054A0021121A05F0ABF808BDC7
:10222800D0000120F40A0120000000200000002056
:102238000A480B4A0B49121A08B505F09DF80A48D6
:102248000A4A0B49121A05F097F80A480A4A0B4934
:10225800121ABDE8084005F08FB800BF0000012041
:10226800CC000120A0A000080000012000000120EF
:10227800A0A0000800000020000000206CA10008B9
:102288002DE9F84F804600AF0C46002965D0E94695
:102298008AB0A3686D46D1E9001239484FF0050AA3
:1022A8002E46C5E90501C5E9072346F810AF002306
:1022B80032464FF421513348FFF7DEFCCD466369BF
:1022C800AD46D4E903123048C5F810A0C5E90501A8
:1022D800C5E90723002332464FF421512948FFF767
:1022E800CBFCCD46E36900252646DFF8B0B04FF0B9
:1022F8000A0A264A0121234804F07FFFE9468EB0E6
:10230800D6E908E0D6E90A136A46C2F81CE005F1E6
:10231800010EC2E908E0A81CC2E90A01E91CC2E9E9
:1023280005B5C2E90C1342F810AF0435002345F295
:1023380040011448FFF7A0FC102D06F11006CD4609
:10234800DCD1236E124A01210E4804F056FFA3691E
:10235800104A01210B4804F050FFB8F1010F07D1D2
:10236800EFF305830C4A103B4146064804F045FF4D
:102378002146404602F08CFABD46BDE8F88F00BF02
:1023880035950008D08A00086495000893950008E0
:10239800E5950008F495000822960008A295000823
:1023A80030BFFFF7FDBF00BF2DE9F0410B4E0546DA
:1023B800DFF83080324606EB0807CC1B0849204678
:1023C80005F02AFEA019083C4246002105F032FE1D
:1023D80007F108002C67BDE8F08100BF000000008D
:1023E800088B000804000000054B9A699B689A4214
:1023F80004D0044A536843F080535360704700BFC9
:10240800AC0A012000ED00E070B5294C06460D46E7
:102418002848294904F0BDFFA36AD9043CD52548BA
:10242800264904F0B6FF1720A36A1A0504D52148E7
:10243800234904F0AEFF18201D4CA36A9B0512D552
:102448001C48204904F0A5FFA36BA26A100409D513
:102458001D4A0121174804F0D0FE1EB1A36A23F4D7
:102468000043A3621920124CA36A590504D51148E8
:10247800164904F08EFF1A20A36ADA050ED50D4816
:10248800134904F086FF1B20094A936A43F47F43EB
:10249800936200232B7070BD1620C5E7A36A9B04C6
:1024A800F2D504480B4904F074FF1C20ECE700BF88
:1024B80000ED00E0D08A0008359600084B96000829
:1024C8005C9600086F960008889600089D9600089C
:1024D800B8960008D096000810B5204C204921482D
:1024E80004F057FFA36A990136D51E481E4904F027
:1024F80050FF1E20A36ADA0104D51A481B4904F0CC
:1025080048FF1F20154CA36A1B0304D5154818491A
:1025180004F03FFF2120A36A590304D51148154947
:1025280004F037FF22200D4CA36A9A0304D50D4806
:10253800114904F02EFF2320A36ADB0304D50948C0
:102548000E4904F026FF2420044A936A6FEA0343E5
:102558006FEA1343936210BD1D20CBE700ED00E046
:10256800FF960008D08A0008179700082A970008E5
:10257800449700086297000887970008A197000809
:102588002DE9F843364D8046894636483649174680
:1025980004F0FFFEAB6ADE0627D511243349314823
:1025A80004F0F7FEAB6A1D0704D5122430492D4804
:1025B80004F0EFFE2A4DAB6A980718D52D49294833
:1025C80004F0E7FE6E6BAB6A190646D52A4A334615
:1025D8000121244804F011FEB9F1000F03D0AB6AC1
:1025E80023F08003AB62132403E01024DAE76FF0D2
:1025F80015061B4DAB6ADA0704D514241F49194880
:1026080004F0C7FEAB6A9B0604D515241C4915487F
:1026180004F0BFFE124B9A6AD50602D49A6A900754
:102628000AD55B68190507D54146304600F050FACF
:1026380010B180F309880224094B9A6A920603D5DF
:102648005A6A22F400525A629A6A204642F0FF02FD
:102658009A6200233B70BDE8F8836FF01506C2E765
:1026680000ED00E0D08A0008CC970008E297000847
:102678005C960008159800082D98000843980008F3
:10268800D09600082DE9F041634B9CB00546002622
:10269800D3F8048000AFC8F3080486F31188BFF3A9
:1026A8006F8F02F07F43B3F17F4F07D102F00C0325
:1026B800082B12D159495A4804F06BFE00263546BA
:1026C8000023FB71E31E092B00F28480DFE803F08E
:1026D8000A7A7D7682828282828010074CBF0D46FC
:1026E8000126EDE74F494E4804F053FE4A4C0023BB
:1026F800FB71E36A9A0705D54B49494804F049FE3E
:10270800002432E0E36A002B01DA4849F5E7E36A7E
:102718005B00F5D54649424804F03BFE6369AA6967
:1027280043F480736361BFF34F8FBFF36F8F6369A7
:1027380032F8022C23F480736361BFF34F8FBFF329
:102748006F8F4DF602739A4208D0A36ADBB243B387
:10275800FA1D01212846FFF713FF31E02B68354A9F
:1027680001212F4804F049FD2C68FB79ABB9682298
:10277800294607F1080005F04FFC7B6A002E45D07A
:10278800C3F3080222B96FEA53236FEA43237B623B
:1027980007F108012046FFF773FD7037BD46BDE815
:1027A800F081A36A13F47F4F04D0F91D0120FFF7CD
:1027B8002BFE05E0A36AB3F5803FA1D3FFF78CFE9B
:1027C8000446D2E7FA1D0021C4E7F91D0020EEE710
:1027D800194992E718F4F87F184AE8468AB0184B66
:1027E80018BF13466A461749103CC2E905134FF44F
:1027F8000073D4611384144B42F8103F00234FF444
:1028080011510748FFF738FAC54679E723F4FF73F3
:1028180023F00103BBE700BF00ED00E0909800083B
:10282800D08A0008BB980008D2980008F3980008DE
:1028380001990008209900083C9900087798000839
:10284800629800086099000804000001044B5A6966
:1028580042F010025A615A6922F008025A61704720
:1028680000ED00E0EFF30880EFF3098101B572464F
:10287800FFF708FF01BD00BF0A4880F30888102051
:1028880080F3118808484FF40861401880F30988DC
:10289800EFF314800221084380F31488BFF36F8F8D
:1028A80000F0ACF8001D0120800E0120084B9B6849
:1028B80083420BD1EFF3058343B1064B5A6842F0CC
:1028C80080525A605A6A22F400425A6202F052BC9C
:1028D800AC0A012000ED00E023498A6882F8BDE0D7
:1028E8004FF030001044EFF3098C80E8F01F1EF021
:1028F800100F03D102F17C0080EC108A102080F3C5
:102908001288BFF36F8F194F4FF000668A698A608B
:102918003E60106F164C206092F9BDE0506F0023A6
:10292800536780F311881EF0100F03D00023E1EEE7
:10293800103A03E002F17C0090EC108AEFF3148364
:1029480023F0040383F31488BFF36F8F04B5104694
:1029580000F054F9BDE8044002F1300090E8F01F9F
:102968008CF3098870470000AC0A012004ED00E0F0
:10297800800801201EF0040F0CBFEFF30880EFF36E
:102988000980816911F8021C0229FFD001B572463D
:1029980004F0F4FC01BD00BF40B2002807DB0123AE
:1029A800410900F01F00024A834042F82130704775
:1029B80000E100E040B2013100284FEA0111C9B23C
:1029C80006DB00F1604000F5614080F800137047B5
:1029D80000F00F00014B1954704700BF14ED00E0E0
:1029E800044B054A23F07F039360BFF34F8FBFF377
:1029F8006F8F70470000000800ED00E008B5FFF792
:102A0800EFFF104BD3F8882022F47002C3F8882017
:102A1800D3F8882042F4A002C3F888204FF040423F
:102A2800C3F83422BFF34F8FBFF36F8F0023E1EE5B
:102A3800103AFFF7E7FBFFF7FBFB00F0B5F802F0F1
:102A480049F800BF00ED00E04FF47D41203AC0F89E
:102A5800BC101360009B08495360019B21F00101E1
:102A68009360029B9161D3604FF08073D361002320
:102A780002654367704700BFD9160008037B13F04F
:102A8800020F124B03D190F8BD20D20611D45A6B15
:102A980042F080425A63D0F8BC3019075CBF43F05B
:102AA8000803C0F8BC30037B43F0020303738020A3
:102AB80070475A6B22F080425A63D0F8BC301A072C
:102AC80044BF23F00803C0F8BC30F0E700EF00E093
:102AD800094A0346906870B113F1160F006E05D0CD
:102AE800A0F180029A4205D8834203D2814228BFCE
:102AF8000020704700207047AC0A0120104B9B68EB
:102B080083421AD1EFF30580B8B9EFF3118110228F
:102B180082F31288BFF36F8F1A7B22F002021A73B6
:102B2800EFF3148323F0040383F31488BFF36F8F48
:102B380081F31188BFF36F8F70476FF015007047EE
:102B4800AC0A012015460E46002208B5E1EE102A0F
:102B5800EFF3148222F0040282F31488BFF36F8F1C
:102B6800BFF36F8F0B4A0C4B9060026F1A6000F036
:102B780045F82C4686F309880020044B98472046E0
:102B8800002100220023024C20470000AF730008F8
:102B9800D9160008AC0A012080080120014B102238
:102BA8001A61704700ED00E0002304481021C218A4
:102BB8000133622B82F80013F9D1704700E100E07D
:102BC80008B5EFF30583064A103B02EBC30152F840
:102BD800330049688847BDE80840FFF705BC00BFD7
:102BE800D0860008024B0121024A034800F090B841
:102BF8000000052000000120508E000810B5044692
:102C0800FFF73CFF03460648226E0121D21AC0E9AD
:102C18000023044B8360BDE8104000F083B800BF78
:102C28008408012000000B1508B503461048D0F8A9
:102C38009020C2F30722013A934207D90D48012197
:102C48000D4A04F0DAFA6FF0150008BDC0F89830A4
:102C58000A6822F01F021A4342F01002C0F89C20B2
:102C68008A6842F00102C0F8A0201846EDE700BFCC
:102C780000ED00E0C88A000877990008F0B50E4614
:102C880085B01F4604460025B5420DDA606810B3CA
:102C980097B1431E18420AD0104A2B46012110480A
:102CA80004F0ABFA6FF01502104605B0F0BD7F28AE
:102CB800F2D921680B42EFD1236801A9019304F0EE
:102CC80086FBA3680343D0B20393FFF7ADFF10F16F
:102CD800160FE7D0421C01350C34D5E79D99000842
:102CE800C88A0008044B0522C3F89420BFF34F8F0D
:102CF800BFF36F8F704700BF00ED00E0BFF35F8F39
:102D0800024B0022C3F89420704700BF00ED00E09A
:102D180010B5034C01232278FFF7B0FF207010BDD7
:102D2800F10A01200B4A08B500231278FFF7A6FF25
:102D380010F1160F07D0084A0021D2F89030C3F3DB
:102D48000723984200DB08BDC2F898000130C2F89A
:102D5800A010F2E7F10A012000ED00E05F486049A9
:102D68002DE9F043D0F8903085B00D68C3F3072300
:102D78009D4200F2B080FFF7C1FF496800229542EA
:102D880001F10C011BD1574C6846574F2570FFF7CE
:102D980033FA00250646DFF85481DFF85491AE4235
:102DA80020D1237800204D49D1F89020C2F3072282
:102DB8009342C0F28A800020FFF794FF4FE0C0F8EA
:102DC800982051F80C3C23F01F031343013243F0C1
:102DD8001003C0F89C3051F8043C43F00103C0F8DC
:102DE800A030CCE700984FEA051C00EB0511CB6832
:102DF8003B40B3F5000F49D00AD8B3F5001F31D0D6
:102E0800B3F5800F37D0B3F5801F13D00135C6E76F
:102E1800B3F1007F43D0B3F1805F49D0B3F1807F35
:102E2800F4D150F80C30886804F0D1FA4A6840F0C0
:102E3800887009E050F80C30886804F0C8FA40F04F
:102E480088504A6840F43020039001A92078CDE9E1
:102E58000123FFF7E9FE002833DA6FF0150005B00B
:102E6800BDE8F08350F80C30886804F0B0FA4A687E
:102E780040EA0900E8E750F80C30886804F0A7FA3F
:102E880040F0C0604A6840F40030DDE750F80C308C
:102E9800886804F09CFA4A6840F08270D4E750F8D9
:102EA8000C30886804F093FA4A6840F48020CBE735
:102EB80050F80C30886804F08AFA4A6840EA08003A
:102EC800C2E7237801332370A0E7C1F898300133B3
:102ED800C1F8A00068E74FF0FF30C0E700ED00E060
:102EE8005C8E0008F10A01200000F0FF00000211CA
:102EF80000000811F0B587B007460E4614460021B9
:102F0800102268461D4605F095F802232A462146F8
:102F18008DF802306846044BCDE90476019302F03F
:102F280013FD07B0F0BD00BFF773000808B5024BEA
:102F38001B689847002008BD90080120034B044AED
:102F48001860937843F0020393707047900801204B
:102F5800100001200649074821F00701C1F100527D
:102F680008B502F5A02203F082FD002008BD00BFCD
:102F7800871D01209408012013B50F4C204604F04A
:102F8800F7FE40B90D4801210D4A04F02DF96FF004
:102F9800120002B010BD0B4A6B4692E80300A2680B
:102FA80083E8030012681AB1194620469047F0E7F3
:102FB8006FF05700EDE700BFBC840008888A00085E
:102FC800CF990008088B000800F01F0201211F2874
:102FD80001FA02F208B5034605D90648064A04F084
:102FE8000CF9002008BD054B5B699A430CBF012012
:102FF8000020F7E7888A0008EE990008003C0140A5
:1030080000F01F0201211F2801FA02F208B5034649
:1030180006D90548054A04F0F0F86FF0150008BD18
:10302800034B00205A61FAE7888A0008EE990008E5
:10303800003C0140044B18440023013300F8012BE5
:103048009942FADC704700BF480001202DE9F041A1
:10305800054600260F4F4FF00108F4B26B78A342E3
:1030680001D8BDE8F0812B781C442046FFF7ACFF5F
:1030780068B12046FFF7C4FF57F834303BB107EB7F
:10308800C40204F01F04516808FA04F09847013696
:10309800E3E700BFA0080120034660B1B0FA80F260
:1030A800C2F11F02D2B205498856054A11680B437E
:1030B8001360FFF771BCFF22F5E700BF480001204D
:1030C800003C0140024A136823EA0003136070477A
:1030D800003C0140032921D8DFE801F0020C101957
:1030E8000F4B9A6822EA00029A60DA6822EA000224
:1030F800DA6070470A4B9A680243F5E7084BDA68CA
:103108000243DA609A6822EA00029A607047044B28
:103118009A6802439A60DA681043D860704700BF23
:10312800003C014030B5B0B1B0FA80F3C3F11F03E1
:10313800DBB20B4850F833408C4204D100EBC30596
:103148006D68954205D044B940F8331000EBC300D0
:103158004260002030BDFF23EBE76FF00F00F9E776
:10316800A008012060B1B0FA80F3C3F11F03DBB2FD
:10317800044A002142F8331002EBC3025160704741
:10318800FF23F5E7A008012000F003020F23043213
:1031980092009340074A43EA9000C3B2023352F8C0
:1031A8002320030C93FAA3F302EA1040B3FA83F343
:1031B800D84070470038014038B5354B14460D46A5
:1031C80018680B888208C3F30B03112B19D8FBB1BD
:1031D800013B102B1CD8DFE803F00B120912502614
:1031E800301B24520B1B1B1B1B3C46004FF4FA40A0
:1031F80020602B68B3F5805F43D2002038BD0020E3
:10320800F6E7382BF4D006D823F00403302BEFD0A0
:103218006FF08500F2E7442B0DD0A82BE8D0402BA7
:10322800F6D11046E4E700F0EFF81923B0FBF3F00D
:103238004FF4D87358434008DAE700F0E5F819234B
:10324800B0FBF3F04FF4D87358430923B0FBF3F005
:10325800CEE700F00DF91923B0FBF3F04FF4C0737B
:1032680058430523F2E700F003F91923B0FBF3F004
:103278004FF4C07358432823E8E70648B8E75000DE
:10328800B6E7C3F313330133B0FBF3F02060B4E7C0
:103298003800012040787D01112808D8054BC3402B
:1032A80013F0010F14BF00206FF0850070476FF016
:1032B80085007047EA0E030070B54E4D00F0FEF829
:1032C8004D4C284604F088F901F034FAA3684B4ABB
:1032D800C3F30313D35C20FA03F613781D41AE42FF
:1032E80002D2284601F054FA236823F4802323608D
:1032F800236843F4803323603F4B1A689103FCD55D
:103308005A6F42F001025A675A6F9207FCD59A68C1
:1033180002F00C02082A17D11A68940707D41A6811
:1033280042F001021A60344A13689807FCD5324B00
:103338009A6822F003029A609A6812F00C0FFBD187
:103348009A6822F0F0029A602B4C236823F080736D
:10335800236023689901FCD4294AD2F8043823F45D
:103368004033C2F80438D2F8043823F0706343F0CD
:103378001063C2F8043800F04BF8236843F08073F8
:1033880023601D4C23689A01FCD500F075F823686A
:1033980043F08053236023689B00FCD5A36823F087
:1033A800F003A360A36823F0030343F00203A360C0
:1033B800114CA36803F00C03082BFAD1AE4202D3D8
:1033C800284601F0E5F90F4B00200A4A1A60A36865
:1033D80023F4E05343F4A053A360A36823F46043A9
:1033E80043F40043A360D4F88C3023F08073C4F80E
:1033F8008C3070BD00E6DF0C00380240759F000875
:1034080000300240380001200048704740787D01B4
:10341800114B12495A681140114A0A4311495A601E
:103428005A681140104A0A435A601A6842F080727A
:103438001A60A3F5E4331A6842F480321A605A68B5
:10344800D203FCD51A6842F400321A60074A53685E
:103458009B03FCD5704700BF003802400080BCFFCA
:10346800196C40000080BFF0196C400900700040E2
:103478000048704740787D010E4A536823F4800362
:1034880023F03F0343F4800343F0190353600A4BCE
:10349800D2F888100B4043F0A04343F4C043C2F86D
:1034A8008830D2F88C3023F4403343F40033C2F828
:1034B8008C307047003802403F80FF8F064B82B047
:1034C8001A6C42F080521A641B6C03F0805301930B
:1034D800019B02B0704700BF0038024008B507489A
:1034E80004F046FC38B10648FFF728FD0448FEF70B
:1034F800E9F8002008BD6FF01200FBE760860008BD
:103508000D3500080A2838B50446074D04D1AB68C4
:103518000D2128465B689847AB68E1B202485B68B2
:103528009847204638BD00BF608600082DE9F8435B
:10353800D0F804801746D0F810900D46D8F8080047
:103548001E4603F0A8FFB7F5001F044616D1D8F8A9
:1035580008402846FFF718FE84420CD1294603F09C
:103568009AFF0446FFF7AEFD2046FFF7FBFD00215A
:103578002046FFF7AFFD0020BDE8F883B7F5800FC0
:1035880020D0B6F1806F19D0B6F1C06F18D0B6F15F
:10359800007F1AD102264A460F492046FFF7C2FD8E
:1035A800B0B9D8F80810284603F07AFF204631460B
:1035B800FFF790FD2046FFF76FFDDCE70126EAE7FD
:1035C8000326E8E76FF08500D6E76FF01500D3E72C
:1035D8006FF00F00D0E700BF6378000838B50369C3
:1035E800044658600A4D284604F0C2FB60B1AB6837
:1035F80061681B680C3123B12846984700EAE070DF
:1036080038BD6FF05700F9E76FF01200F8E700BF18
:10361800BC84000808B5044A0121044803F0E4FD0D
:103628006FF0040008BD00BFE79A0008A88A0008E8
:1036380098B5426800AF0369D26883F8521029B977
:10364800136823F440131360BD4698BD6C468AB0D6
:1036580003686A460848D161C2E905034FF400735C
:103668001384064B42F8103F00234FF411510448CD
:10367800FEF702FBA546E7E7059B000804000001EA
:10368800A88A0008F7B50446436806690F461C482F
:103698000022DD68596883680192DB684BB96FF0D6
:1036A8000404184A0121184803F09EFD204603B07F
:1036B800F0BD01AA98470028F1DB376206F1100730
:1036C8004FF0FF324FF0FF33384601F09BFA2B687A
:1036D800204623F001032B6096F85210FFF7A8FF4D
:1036E8002046019900F0B0F896F8513004461BB115
:1036F8002B6843F001032B60384601F04FFAD5E7F9
:10370800BC840008199B0008A88A000870B5044604
:10371800466805694FF0FF320021284604F046FB51
:10372800336820469847002385F8503085F8523092
:10373800012205F11000114604F038FB204804F07E
:1037480017FB40B96FF012041E4A01211E4803F00E
:103758004BFD204670BD204600F042F831691B4BF6
:10376800994221D014D81A4B99421FD0194BCB1A21
:10377800594259418900204641F01001FFF782FF64
:10378800041E17DA144A01210F4803F02DFDE0E763
:10379800124B99420CD003F5C31303F520639942E9
:1037A8000CBF0A210021E6E70621E4E70221E2E74F
:1037B8000821E0E70123002485F85030C9E700BF5D
:1037C800BC840008479B0008A88A000840420F00F4
:1037D800A0860100801A0600669B000840E13300BD
:1037E80037B5456801AA0021686904F06FF9041E1D
:1037F80007DB019B00221979186800F0CBF9041E39
:1038080008DA0D4A234601210C4803F0F6FC20464D
:1038180003B030BD0A48696883681B683BB9094A28
:10382800012106486FF0040403F0DEFCEFE7984737
:1038380004460028EBD0F2E7A49B0008988A000809
:10384800BC840008C29B00082DE9F04F85B04FF0FA
:103858000C08DFF8609100AF446803690020E56850
:103868007B60DFF854A1E369DFF850B1BB60BB6847
:1038780083427B681B6AFB600DD1C3F34202012AB5
:103888003CD0022A7AD0444A4448012103F0ACFCD7
:103898006FF015001EE008FB00FCD4F818E0404A61
:1038A8000EEB0C067368934220D017D853451FD0EF
:1038B800A3EB0B02534253419B00FA68C2F3420246
:1038C800B2EB530F18D15EF80C308B4214D1B368A9
:1038D8002B6100201437BD46BDE8F08F314A934272
:1038E80008D04B450CBF0A230023E6E70623E4E78C
:1038F8000223E2E70823E0E70130B8E741F25C2958
:103908004FF47A6840F2E24E4FF4FA7C0220DFF876
:10391800B0A0421EB1FBF2F2BAFBF2F2B8FBF2F62B
:10392800013EFF2E33D8B9FBF2F3013BFF2B2ED813
:10393800BCFBF2F40F2C2AD8BEFBF2F2013A0F2A94
:1039480025D843EA0444023844EA007444EA02549D
:1039580044EA06246E4688B06A46134B5361134BFB
:10396800C2E90634042342F8103F00234FF40451FF
:103978000A48FEF781F9B5462C61AAE740F21459C6
:103988004FF416784FF4FA7E40F2771CBEE7013008
:103998001128BED1064A77E7F29B0008A08A0008E2
:1039A80040420F0040E133006D9C0008E89C00088D
:1039B800839C0008404B4C00A0860100801A06003A
:1039C80000CA9A3B2DE9F04184B000AF3D1DBC8D83
:1039D800D7F828C085E80E0043680269D968BB6833
:1039E800556493647B68D3640023C2E90D33D363C1
:1039F80001238B610B6843F001030B604B68156A68
:103A080023F07F738E69ED073D7B23F4423348BF73
:103A180044F4006423F47F7323F003034CBF23436F
:103A280043EA440315F0020453D1BCF1000F52D00D
:103A38009CF800C01CF0040F02D143F080730124ED
:103A480082F84040BC68FF2C8ABF43F0FF7343EA0A
:103A5800044343F48033360610D4EC073DD4946C09
:103A680044B1D46C24788C62946C013C9464D46C1A
:103A78000134D46423F4806343F400534B600B682F
:103A880043F0F6030B6097F80C800469456841F22F
:103A980088320023204601F0B5F80646D4E90D32F5
:103AA80072BB73BBE0B1E36B002B52D06C4688B09D
:103AB8006A46324951613249C2E90613042342F881
:103AC800103F00234FF404512E48FEF7D5F8A546C1
:103AD8003EE00024B4E76446B2E743F48063CBE7F2
:103AE80094F851303BB918F0020F04D0EA68136813
:103AF80023F00103136030461037BD46BDE8F0815E
:103B080093B1E84688B06A461F4B53611C4B9361DA
:103B1800032342F8103F00234FF4C8511948FEF719
:103B2800ABF8A36BC54683B1E84688B06A46174B25
:103B38005361134B9361032342F8103F00234FF462
:103B4800C8511048FEF798F8C546E36B002BADD175
:103B580086B16C4688B06A460D4B5361084B936139
:103B6800032342F8103F00234FF4C8510548FEF7DD
:103B780083F8A5466FF00406B8E700BFB89C0008B4
:103B8800CF9C0008A08A0008A69C0008AF9C0008EB
:103B9800C39C00082DE9F047044600EBC106002548
:103BA8001C4FB44201D1002014E02068C30600F085
:103BB8001F0911D4656845F02005C0F3481AC0F301
:103BC8004420192823D857F82080B8F1000F0DD1C8
:103BD8006FF01200BDE8F087B9F1100F04D0B9F109
:103BE800110FEAD16568E8E73025E6E7404604F0BA
:103BF800BFF80028ECD04B462A460AF00F01404691
:103C080003F041FE002804F10804CADAE2E76FF085
:103C18001500DFE7EC8F000870B5094D0446CE1794
:103C2800B423A1FB05015A43002305FB0611FCF749
:103C380095FE044A0023FCF791FEC4E9000270BD1A
:103C4800705EDF0140420F0030B5436889B00469F7
:103C580099880DF10F0218683B238DF80F300E2359
:103C6800009304AB03F07EFF051E07DA124A012118
:103C7800124803F0B9FA284609B030BDBDF8103033
:103C880000255BBA2380BDF812305BBA6380BDF8AB
:103C980014305BBAA380BDF816305BBA2381BDF837
:103CA80018305BBA6381BDF81A305BBAA381BDF8DE
:103CB8001C305BBAE381DEE7249D0008788A00089F
:103CC800F8B515460469072900F2AC80DFE801F071
:103CD800618285049DA2A688544EB4F90000E1884B
:103CE800C317A0FB060CC1F1200206FB03CCC84099
:103CF800B1F120030CFA02F24CFA01F158BF4CFA68
:103D080003F340EA02004A4A58BF18430023FCF76D
:103D180025FEC5E90002B4F90200E188C317A0FB3B
:103D2800060CC1F1200206FB03CCC840B1F1200308
:103D38000CFA02F24CFA01F158BF4CFA03F340EACC
:103D480002003B4A58BF18430023FCF707FEC5E9A9
:103D58000202B4F90400E188C317A0FB0607C1F109
:103D6800200206FB0377C840B1F1200307FA02F2EC
:103D780047FA01F158BF47FA03F340EA02002C4A18
:103D880058BF18430023FCF7E9FDC5E904020020E9
:103D9800F8BDB4F90000254BC217E188A0FB030663
:103DA80003FB0266C1F12002B1F1200320FA01F001
:103DB80006FA02F246FA01F158BF46FA03F340EA5E
:103DC80002001B4A58BF18430023FCF7C7FDC5E98A
:103DD8000002DCE7B4F90200DDE7B4F90400DAE731
:103DE800228A2846B4F90A10FFF716FF228AB4F986
:103DF8000C1005F10800FFF70FFF228AB4F90E1026
:103E080005F11000FFF708FFC1E7228AB4F90A108C
:103E18002846F7E7228AB4F90C10F9E7228AB4F9A0
:103E28000E10F5E76FF08500B2E700BF3AA39500E2
:103E380040420F002DE9F04F89B04568066902AF8E
:103E4800286803F095FF0346D0B92A686C4688B005
:103E5800116802AA5F48C2E905014FF40071918315
:103E68005D4942F8101F4FF4E2515C48FDF704FF2A
:103E7800A5466FF0120420461C37BD46BDE8F08FFA
:103E880075234FF00108286807F10C02A9883B73D5
:103E9800BB1DCDF8008003F065FE041E05DA504A0C
:103EA80001214E4803F0A0F9E5E7BB79712B07D053
:103EB8004C4A414649486FF0850403F09EF9DAE719
:103EC800D5F800904FF06B0A95F804B0FB1D87F801
:103ED8000CA007F10C0259464846CDF8008003F0C3
:103EE80041FE0446D8B9FB795A061CD523F0400395
:103EF80087F808A07B7207F10803FB6002233B6187
:103F08003B753B7D07F10C01D9F80820484643F082
:103F180002033B755B4694684246A0470446002C62
:103F280001DA314ABCE7EB7A032B07D92F4A012182
:103F38002A486FF0150403F060F99CE7DB001C21A8
:103F4800284603F0F80203F029FE041E01DA284A85
:103F5800A6E7EB7AC3F10E03F380AB7A032B01D902
:103F6800244AE4E7DB001B21284603F0F80203F0AB
:103F780015FE041E01DA204A92E76B7A072B01D955
:103F88001E4AD4E71A461A21284603F007FE041EE3
:103F980001DA1B4A84E72B7B072B01D9194AC6E7AC
:103FA8001A461D21284603F0F9FD041E01DA164AB7
:103FB80076E72A7A1921284603F0F0FD041E01DA73
:103FC800124A6DE7AA7A0024114B33F81230338273
:103FD80051E700BF409D000803000001788A0008EF
:103FE800559D00086D9D0008819D0008999D000859
:103FF800B19D0008D99D0008F09D0008179E000893
:10400800309E00085B9E0008759E0008A19E00086F
:10401800E09100082DE9F04182B080460D464368E2
:1040280000AF1E68002936D0586819698368DB68B4
:104038006BB13A1D9847041E0CDA1A4A01211A4836
:1040480003F0D2F820460837BD46BDE8F0816FF08E
:104058005704F2E7336823F4004333607B6803EBCB
:104068005503B3FBF5F30F2B18D86C468AB0D8F874
:1040780000306A460D49D561C2E905134FF4007353
:1040880013840B4B42F8103F00234FF4115106489C
:10409800FDF7F2FDA5466FF01504D3E79BB20024A7
:1040A800F360CFE7199B0008F08A0008D69E000845
:1040B80004000001F8B50C46036941681D682379BE
:1040C800012B15D09F1E7E427E41B6026279022ADC
:1040D80096BF464F4FF4005737F81270A279022A5C
:1040E80009D0042A30D0003B18BF01231B0306E087
:1040F8004FF4C066EAE7B3FA83F35B091B07E2797A
:104108000968012A14BF4FF0000C4FF4407CA54207
:104118001DD10A6822F0805222F4B05232431A4369
:104128000A604B6823F440533B434B6043681A686A
:10413800936823F4407343EA0C0393602968FFF7FC
:1041480069FF00EAE070F8BD4FF48053D7E7D1F873
:1041580000E00EF4C06E764506D0D1F800E02EF4EB
:10416800C06E4EEA06060E6041680E68716801F47A
:1041780040518F4204D0716821F440513943716035
:1041880041680E68316801F010218B4204D0316813
:1041980021F010210B433360436819688B6803F4DE
:1041A80040739C4505D08B6823F4407343EA0C03A5
:1041B8008B6043681B689968490405D5032A09D0B0
:1041C8009A6822F4804204E0032A03D19A6842F4F0
:1041D80080429A6021682B68994205D0FFF71AFF40
:1041E8000028B0DB23682B600020ACE7E8910008CA
:1041F8002DE9F04182B00646456800AF686803F0D3
:10420800B7FD38B9654A012165486FF0120402F01C
:10421800EBFF0BE06868296983681B685BB96FF07E
:104228005704604A01215E4802F0DEFF2046083745
:10423800BD46BDE8F08198470446E8B93A1D00211B
:10424800686A03F043FC041EF0DB7B6800221979DE
:104258001868FFF79FFC041EE8DB756833692C6853
:10426800D3F80080236823F001032360A86803F0D3
:104278007FFD48B94C4AC6E74A4A0121484802F03E
:10428800B3FF002CD2DBD9E7D5E902018368DB68EC
:1042980003B1984754E8003F43F00C0344E8003268
:1042A800002AF7D141463046FFF704FF002802DA1A
:1042B8006FF01504BAE72B7E1BB1A36843F008031F
:1042C800A3606B7E1BB1636843F400436360AB7EFD
:1042D8001BB1636843F480336360EB7E1BB1636892
:1042E80043F4003363602B7F002B4DD02F4B9C424F
:1042F80030D0A3F54C439C422CD003F580639C42FC
:1043080028D003F580639C4224D003F580639C4247
:1043180020D003F544439C421CD0A3F51C439C4287
:1043280018D003F580639C4214D06C4688B033687B
:104338006A461F49C2E905134FF4007393831D4B66
:1043480042F8103F00234FF4E2511548FDF794FC62
:10435800A546ADE773681A68936843F48043936091
:1043680023686A7F23F0787343EA42532360236803
:10437800AA7F23F4F81343EA02432360EB7F1BB1BF
:10438800A36843F40043A360236843F00103236058
:10439800E3699B02FCD5002448E700BF479B00085F
:1043A800F08A0008ED9E00080D9F000800100140EB
:1043B800289F000803000001F8B5436802460E462E
:1043C80091F805E01C68036908791D6801288B7954
:1043D80013D1BEF1020F69D9022B1F464FF4C061F9
:1043E8004FF4005C7AD0042B73D000287BD0C31E16
:1043F800012B70D86FF08500F8BD02280AD1BEF1F4
:10440800020F5FD9022B1F464FF480610BD04FF487
:10441800005CE8E7BEF1020F57D9022B1F4656D1C0
:1044280000286BD00021C31E012BE3D900200227EE
:1044380003237345DED103F0CCFBB842DAD1F3791C
:1044480003B3012B62D1334B9C421BD0A3F54C43E1
:104458009C4217D003F580639C4213D003F5806318
:104468009C420FD003F580639C420BD003F5444374
:104478009C4207D0A3F51C439C4203D003F58063FC
:104488009C42B7D123683146104623F001032360CC
:10449800FFF710FE0028ADDB236843F0010323601B
:1044A80096E8030085E803000020A5E74FF4C06103
:1044B800194F022B37F81EC01F4694D170B94FF020
:1044C800805010E04FF48061F2E70021F0E700210E
:1044D8009DE700288ED14FF4805004E0C31E012BC5
:1044E80088D902270020BCF5805F0BD0BCF5405F5F
:1044F8000AD0BCF1000F9BD101239AE701464FF087
:10450800805095E7002394E7022392E7032B9AD083
:1045180070E700BF00100140E89100084FF0E02369
:104528000F4910B59C691A6908689B6902F48032C2
:104538000C4934B993B903464AB90A681044C01AF9
:1045480010BD002B08BF03460AB9A342F5D90A6873
:1045580002440A604FF0E0221269EEE70446F3E7EE
:10456800A80A0120A40A0120094B1022002083F880
:10457800232045F26042074B1A6045F25F42064B22
:1045880018604FF0E0235A61072298611A6170475A
:1045980000ED00E0A80A0120A40A0120684620F0E6
:1045A80007018D4619B5FFF7B9FF1149114B086886
:1045B800D3E90042001942F10002C3E900020E4AA1
:1045C80000230B6045F26043D2E90041001BB0FBB9
:1045D800F3F043431B1941F10001C2E9003100F037
:1045E800A9FFFDF701FFBDE819408546704700BFE8
:1045F800A40A0120D8050120D00501202DE9F041A9
:10460800DFF8F08099B1421C0BD14FF0E02213691A
:1046180023F0010313614FF07F43C8F80030BDE871
:10462800F081D8F80060012807DC00270BE0431C64
:10463800D8F80060F7D140F20730B0F5427FA8BF44
:104648004FF44270471EEFF31185102383F312884D
:10465800BFF36F8FFFF762FF224C4FF0E023996999
:10466800D4E9002380184FF0000243F10003C4E9A5
:1046780000031D4B1A601D4B1A68831A2ED445F28D
:10468800604C0CFB073303F5A8435F33B3FBFCF71F
:10469800131A40F246520CFB0733934238BF1346B5
:1046A800134A934228BF1346C8F800304FF0E0225F
:1046B800013B90695361002381429361A1EB0003A0
:1046C800D4E9001238BF9B195B1842F10002C4E913
:1046D800003285F31188BFF36F8FA0E740F246538D
:1046E800E2E700BFD8050120A40A0120D005012077
:1046F800A06EFF00A80A012038B5EFF3118510233A
:1047080083F31288BFF36F8F084B1C68084B1B6834
:10471800E41AFFF703FF85F31188BFF36F8F45F2A3
:1047280060432044B0FBF3F038BD00BFD80501203A
:10473800D0050120134908B58B6803F00C03042B3E
:104748001BD0082B1BD14A684B68496802F03F020E
:1047580013F48003C1F388111ABF0B4800230B48D8
:10476800A1FB0001FCF74AF9064B5B68C3F3014360
:1047780001335B00B0FBF3F008BD0348FCE70348D6
:10478800FAE700BF0038024040787D010024F400B9
:1047980000285DD02F4B1A681B6802F44042B2F51E
:1047A800404F33D113F4803310D102F10F6202F578
:1047B8008C52904248D8284A904247D8274A90427B
:1047C80035D8274A904209D902230DE0254B984253
:1047D80038D8234B98424FF0060305D8224A904216
:1047E80002D9012B38BF012320490A6822F00F02A1
:1047F8001A430A600A6802F00F02934202D00A685C
:1048080002F00F02981A18BF0120704703F44043C2
:10481800B3F5004F05D103F10F6303F5A3439842A5
:1048280012D80D4B984211D80C4B984201D903234A
:10483800DAE70B4B9842C7D80B4B984294BF00233A
:104848000123D1E70723CFE70523CDE70423CBE7EF
:104858000120704700700040000E2707804A5D0560
:10486800008793038058840C80C3C901003C024030
:1048780010B50446FDF730F903480121034A02F058
:10488800B3FC204603F07FFAD08A0008859F000811
:104898002DE9F843044600AF0D46EFF311881023C5
:1048A80083F31288BFF36F8F0428294AE9468AB038
:1048B80098BF284B9668117C6A4694BF53F82030FD
:1048C800254BC2E9073140F2013324489384244B35
:1048D800C2E9050442F8103F00234FF43151214842
:1048E800FDF7CAF9CD4645B1EB69C3F3080323B117
:1048F8001D4A01211B4802F077FC2EB1304603F017
:104908006AFA08B1037803B91848E9468AB06A46D2
:10491800174BD061C2E9053640F201331384154BB9
:1049280042F8103F00234FF411510E48FDF7A4F947
:1049380029462046CD46FFF79BFF88F31188BFF331
:104948006F8F3046FDF7B2FFBD46BDE8F88300BF64
:10495800AC0A012008910008949F0008AA9F00084B
:1049680005000001D08A0008D29F0008A29F000815
:10497800F39F00080400000138B50A4B53F82040A3
:10498800013053F82050A54200D838BD606830B1D6
:10499800037EDB0701D403F0D3F90834F3E7236877
:1049A8009847FAE71C9100082A4B0122032070B5AA
:1049B800294C86B0294D1A70FFF7DEFF00F0E6FE9D
:1049C8000420FFF7D9FF26463034AE4210D3224CDC
:1049D80000F0D6FA224EAC4226D300F0E5FAFCF7F6
:1049E8007FF9204A137B23F00103137306B070BDCF
:1049F80054F80C3C059354F8103C049354F8143CB8
:104A0800039354F8183C029354F81C3C019354F84F
:104A1800203C009354E90A2354E90C0100F018F9EA
:104A280054F8303C5E65CEE7D4E90A23B3F1FF3F82
:104A380008BFB2F1FF3F05D052EA0301206803D155
:104A480000F06EFB3034C6E73146183000F0E2FC67
:104A5800F8E700BFF20A0120E0890008E0890008B1
:104A6800D17E0008A006012070B5C023144E86B080
:104A7800012203FB00660023124D044601931249EC
:104A8800CDE904230F2201EB4021CDE9023218239E
:104A98004FF4C07203FB00550C4B3046009500F0F4
:104AA800D7F8737B0A4A23F00403EE602C747373FF
:104AB8004FF4086304FB033313446B6006B070BD06
:104AC800E0050120AC0A0120001701209F7D0008A5
:104AD800800E0120BFB50020FFF74EFF274B83F360
:104AE8000888274D0024F023264F85F82230EC77DC
:104AF8002C766C76AC7685F820406B6A43F4E0231C
:104B08006B62FDF7A3FEFEF749F84FF0FF33AB6287
:104B1800EB62FEF723F91C4DFEF764F8FCF73EFF45
:104B28001A4800F00FF9FCF7F7FD0120FFF724FF02
:104B38000220FFF721FF00F06BFA154B15494FF4DF
:104B480080629D612846144B009405930123CDE9AA
:104B58000144CDE903433B4600F07AF86A7B0646F8
:104B6800284622F004026A7303F071F92046FFF721
:104B78007BFF3A4631462846FDF7E4FF001701203F
:104B880000ED00E0B1490008A006012060070120FF
:104B9800AC0A012000190120B593000870B5EFF3A5
:104BA8001186102383F31288BFF36F8F0468A04225
:104BB8001AD0CCB1002504F11800D4E900321360F2
:104BC8005A60637BA56023F00203C4E90055637350
:104BD80003F0CCF92046A56703F039F931460848B7
:104BE800BDE8704000F0A6B9D0E902329A4218BF79
:104BF8000133836086F31188BFF36F8F70BD00BFE8
:104C0800F30A012013B5EFF31181102484F31288FD
:104C1800BFF36F8F846844B1013C846081F31188CD
:104C2800BFF36F8F002002B010BD52EA030406D113
:104C380081F31188BFF36F8F6FF00F00F3E7CDE9B1
:104C480000230246014800F053F9ECE7F30A01207B
:104C580007322DE9F04322F0070285B00E461F46C1
:104C6800109900F15803FF3204460173042122F021
:104C78007F0206F1800941737F2AA2F18008C0E90A
:104C880016334FF0000383600F98E373A073C4E9F1
:104C9800063305D883F31188BFF36F8F084602DF08
:104CA800B51820462946FDF77FFB07300E9B314695
:104CB80020F00700C4E91898A0662D1A0293204630
:104CC8000D9B2A4601930C9B00933B46FDF7BCFEC7
:104CD80000236365044B9B6803B1DB6E2846E366DB
:104CE80005B0BDE8F08300BFAC0A0120F0B500258F
:104CF80087B004460595109D04950F9D03950E9D5C
:104D080002950D9D01950C9DDDE912760095FFF742
:104D18009FFFB6F1FF3F08BFB7F1FF3F05D056EA46
:104D2800070305D1204600F0FBF9204607B0F0BD87
:104D38003A46334604F11800014900F06BFBF4E7EA
:104D4800D17E000840F2011383810023C0E91833A3
:104D5800C366014B98607047AC0A0120094A6FF09E
:104D68000A0193689967084958674B6843F080536C
:104D78004B60002383F31188BFF36F8F9368986F9C
:104D8800704700BFAC0A012000ED00E070B590F953
:104D98000D20437B002A36DBD90634D11B4C63F047
:104DA8007F0322464373216A52F81C3F934207D17E
:104DB800C0E900210860206211E09942F8D01B6820
:104DC800002BF5D090F90E5093F90E60B542F4D04F
:104DD800AE42F2DD5968C0E9003108605860E56903
:104DE800954200D005B9E568A3685A7BD20604D17C
:104DF800DA897F2A01D9AA6932B1AB4202D02846A2
:104E080000F088FAA56170BDA361FCE7AC0A012037
:104E180038B590F90D200146437B002A04DA03F0E7
:104E28007F03437302F0D9FF0D4D2A46AB6852F851
:104E38001C4F944200D004B9EC688B4207D05A7BCF
:104E4800D20604D1DA897F2A01D9A2692AB1A342FC
:104E580002D0204600F05EFA2346AB6138BD00BFA1
:104E6800AC0A0120B3F1FF3F08BFB2F1FF3F03D006
:104E78000249183000F0CEBA704700BFD17E000852
:104E880038B5194CA168206A0B68814214BF1A46CC
:104E9800002249680B605960A368216A2AB9134A3D
:104EA800C3E900210B6023620CE093F90E0092F92C
:104EB8000E50A84214D0854212DD5168C3E9002182
:104EC8000B605360E569094B9D4200D005B9E56860
:104ED800A3689D4202D0284600F01CFAA56138BD9F
:104EE8009142DCD01268D9E7AC0A0120C80A012037
:104EF800F8B50E4B0C4611460D4A9868DDE9066771
:104F08001060EFF31182102282F31288BFF36F8FC3
:104F18009D68284602F073FF284632463B46FFF755
:104F2800A1FF2046BDE8F840FFF718BFAC0A0120F2
:104F3800D00A012049B9EFF3058030B9054B9A69C9
:104F48009B689A4201D0FFF709BF81F31188BFF32C
:104F58006F8F7047AC0A0120034648B9EFF305820A
:104F680032B9064A91699268914201D0FFF7F6BEBC
:104F780083F31188BFF36F8F704700BFAC0A01201D
:104F8800EFF31181102383F31288BFF36F8F054B62
:104F98009A68D37B013BD37381F31188BFF36F8F7A
:104FA800704700BFAC0A012070B5EFF311861023DB
:104FB80083F31288BFF36F8F144DAB68DA7B01322D
:104FC800DA732A4652F81C4F944200D004B9EC68B0
:104FD8005A7BD20604D1DA897F2A01D9A2692AB17B
:104FE800A34202D0204600F095F92346AB6186F330
:104FF8001188BFF36F8FEFF31180102383F31288AA
:10500800BFF36F8FBDE87040FFF7A6BFAC0A012061
:10501800024B03F11C02C3E907227047AC0A0120C6
:1050280070B5EFF31186102383F31288BFF36F8FE7
:105038001B4CA168206A0B68814214BF1A460022E3
:1050480049680B605960A368216A2AB9154AC3E9FF
:1050580000210B6023620CE093F90E0092F90E50C8
:10506800A84218D0854216DD5168C3E900210B60BB
:105078005360E5690B4B9D4200D005B9E568A3680C
:105088009D4202D0284600F045F93046A561BDE8AA
:105098007040FFF763BE8A42D8D01268D5E700BFD8
:1050A800AC0A0120C80A0120F8B550EA01030646F7
:1050B8000C4603D1FFF7B4FF0020F8BDEFF31187CA
:1050C800102383F31288BFF36F8F124D124BA86819
:1050D8001860FFF79DFEA868234632460F4918302E
:1050E80000F098F9AA6804463846537B43F0040355
:1050F8005373FFF733FEAB68D3E90A23B3F1004FCC
:1051080008BF002AD8D102F059FF201A20EAE0701F
:10511800D3E700BFAC0A0120D00A0120D17E0008E5
:1051280038B50446EFF31185102383F31288BFF3D3
:105138006F8F437B5B070FD5183002F017FF637B37
:10514800204623F004036373FFF720FE2946054831
:10515800BDE83840FFF7EEBE85F31188BFF36F8FC7
:1051680038BD00BFF30A0120014B9868704700BFA3
:10517800AC0A01202DE9F8430446077BEFF31185BB
:10518800102383F31288BFF36F8F437B190705D56C
:1051980085F31188BFF36F8FBDE8F883D90943F011
:1051A80008025DD14273A36813B1204602F01DFEC8
:1051B80004F1180004F1580802F0D8FEA66DB045B5
:1051C80011D04FF0000976B1304602F00EFE06F11C
:1051D800180002F0CBFE3046C6F87890FFF7D6FDEF
:1051E800A66DB045EFD1DFF8C880D8F808309C42EA
:1051F8003ED1EFF30589B9F1000918BF4FF0010955
:10520800D8F81C60284A964200D00EB9D8F80C602D
:10521800B34202D0304600F07DF82046C8F8186046
:1052280002F0BFF8B9F1000F02D02048FFF78AFD5D
:10523800D8F808309C4231D1EFF3058373BB227B49
:10524800D20718D42846FFF789FDFB07A4D5002309
:1052580083F31188BFF36F8F0423184602DF9BE79F
:1052680003F07F0343F00803437302F0B6FD9AE7A7
:105278004FF00009C4E785F31188BFF36F8F83F3FC
:105288001188BFF36F8F0423184602DFEFF31180F4
:10529800102383F31288BFF36F8FD4E785F3118847
:1052A800BFF36F8FD1E700BFC80A01206007012054
:1052B800AC0A0120427B034612F01F0210D10A49B2
:1052C80088420DD00949086868B1D9897F2909D869
:1052D80093F90E20064B1B689A42B8BF002070470E
:1052E8000020704710467047E00501203C0001206F
:1052F800D40A0120044B0122C01A044BC0105843A1
:10530800034B1A54704700BF20080120ABAAAAAA71
:10531800F30A01200D4B70B51E7CFFF7CBFF0C4D37
:10532800044606EB460305EBC305284602F01EFEBD
:10533800084B00229A553CB1621E28460649D317ED
:10534800BDE8704000F066B870BD00BFAC0A01202F
:1053580020080120F30A0120FD52000838B5EFF3B8
:105368001185102383F31288BFF36F8F0F4B104AF8
:105378009C681068A04206D1FFF7CCFF85F311881E
:10538800BFF36F8F38BD00211B7C1160094AD35CC5
:10539800002BF3D02046FFF78DFF0028EED0637B6B
:1053A800DB0601D1FFF76CFD2046E5E7AC0A0120DA
:1053B800D00A0120F30A0120024B1868984208BF5E
:1053C8000020704740000120034B1B680BB9FFF712
:1053D80093B90020704700BFD80A012030B570B1DA
:1053E8000B4B5B6898420AD0036843B1D3E90421A8
:1053F800D0E90445121941EB0501C3E90421D0E9BC
:10540800003213605A600023C0E9003330BD00BF8A
:1054180040000120B3F1FF3F08BFB2F1FF3F2DE983
:10542800F84F0446994615461F467AD08160EFF337
:105438001188102383F31288BFF36F8FB9F1000F1F
:10544800DFF8E8A020DBFFF7BFFF0135064649F18A
:1054580000092D18DAE9002749EBE0734FF001093C
:10546800C4E90453AD1843EB0707FFF7A5FFDFF8BE
:10547800C0E00346DEF804A0EBB9C4E900EACAF8C4
:105488000040CEF8044028E0DAE900126FF001038A
:105498005B1A4FF0FF3161EB02025B1B62EB090202
:1054A800012B4FF0000972F10001BCBF012300225B
:1054B800C0E90432D9E7D3E9041CD4E904208A42BC
:1054C80070EB0C0B24DA891A5A686CEB0000C3E9FC
:1054D8000410C4E9003214605C60FFF76DFF844279
:1054E8000ED1114B1B685BB9B9F1000F02D1FFF760
:1054F8006BFF0646304602F022FD0021FFF77EF8DA
:1055080088F31188BFF36F8F28463946BDE8F88FB6
:10551800521A60EB0C009A45C4E90420ADD01B6810
:10552800AAE700252F46EFE7D80A0120380801200E
:10553800400001202DE9F047EFF31185102383F394
:105548001288BFF36F8F264F4FF00008254E4FF09B
:1055580000093860FFF730FF3B68D6E9001E4FEAC4
:10556800E37C50B1D0E90442A3427CEB020A1ADA88
:10557800E41A62EB0C02C0E904425B184FF0000425
:105588004EEB0C0220463C60C6E9003202F0D7FC24
:105598002146FFF733F885F31188BFF36F8FBDE815
:1055A800F047FFF7DBBE61184EEBE473C0E90489EE
:1055B800C6E90013FFF712FF85F31188BFF36F8F59
:1055C80083689847EFF31185102383F31288BFF39C
:1055D8006F8F3B681B1B3B60FFF7EEFEBCE700BF0D
:1055E800D80A01203808012010B5EFF311841023E0
:1055F80083F31288BFF36F8FFFF7E6FE054A034671
:10560800D2E90001181841EBE37184F31188BFF364
:105618006F8F10BD38080120F8B50646EFF31187E3
:10562800102383F31288BFF36F8F026822B187F3C8
:105638001188BFF36F8FF8BDD0E90A54691C44F193
:105648000003022973F1000334D3013D44F1FF3410
:10565800002CBCBF15462C4602F0B4FC013041F1C9
:105668000001401944EB0101012871F1000149DBF7
:1056780002F0A8FC01306FF0020341F1000140196B
:1056880044EB010183426FF000438B413FDB02F0A2
:1056980099FC01306FF001024FF0FF3341F1000136
:1056A800401944EB0104121A63EB04031A4930460B
:1056B800FFF7B0FE336B01333363336A6BB187F3A3
:1056C8001188BFF36F8F336A30469847EFF311871D
:1056D800102383F31288BFF36F8F334653F8184FA4
:1056E8009C42A4D0002CA2D0204602F0BFFB00238D
:1056F800A36787F31188BFF36F8F2046BDE8F84092
:1057080002F0A5BB6FF001024FF0FF33CEE7002295
:105718004FF00043CAE700BF215600082DE9F041C9
:1057280005461C4690461F46EFF31186102383F367
:105738001288BFF36F8FB4F1FF3F08BFB2F1FF3F8C
:1057480005D186F31188BFF36F8FBDE8F081002C77
:1057580009DB012A74F10003BCBF0122002412F105
:10576800FF3844F1FF37284602F000FC2846064976
:10577800DDE90623C5E90A23002342462B633B469D
:10578800FFF748FEDDE700BF21560008014801F099
:1057980003BA00BF58A000080FB407B5064B04AA07
:1057A800186852F8041B019200F0CEF803B05DF8B7
:1057B80004EB04B0704700BF7C8E00080CB430B511
:1057C8008BB004460D462022002102A802F032FCCC
:1057D80002238DF80A30002D0C4B0393069412DB3C
:1057E80001D06B1E1C440FAA0E99079402A80192BF
:1057F80000F0AAF815B1069B00221A700BB0BDE89C
:10580800304002B070470024EDE700BFD1830008A4
:105818002DE9F04101260746B24201DCBDE8F081DE
:105828003B461F4613F8014B002CF7D0252CF8D126
:105838001C78252C07F10207F2D00023DFF8048139
:105848009C461D461F2D18D8A4F1200EBEF1100F3E
:1058580009D9A4F1300EBEF1090F1ED80A2404FBA1
:1058680003E3202504E028FA0EFE1EF0010F06D0FF
:1058780017F8014B002CE5D128E07F2D1CD8A4F1A6
:10588800300EBEF1090FE9D9242C10D1BCF1000F5C
:1058980046D0B34246D00023EAE724F0040EBEF116
:1058A8002A0FF8D06C2C09D145F08005E0E724F0E8
:1058B800040EBEF12A0FEED06C2C22D06C2C1BD813
:1058C800682C23D06A2C28D04C2C26D0BCF1000F91
:1058D800A4D0B445A0D144F02007A7F1650CBCF1D1
:1058E800020F0B6801D9612F1ED1073323F007037C
:1058F80008330B6001368EE7742CB9D07A2CB7D0F8
:10590800E4E72C0648BF45F40075CDE7EC0548BF31
:1059180045F4007545F48075AAE745F42075A7E7B6
:105928009C46B8E76324D6E7692C02D007D8632CD5
:1059380003D02F0601D5AC05D7D40433D9E7732C8F
:10594800F6E700BF892801002DE9F04F93B04368BE
:105958000193837880469807CDE9061217D50B92F4
:105968000B4600251F78A7B1252F16D001330593C4
:10597800019B414638469847002805F1010580F209
:10598800358498F8023043F0040388F802304FF069
:10599800FF35284613B0BDE8F08F5F789A1C252F95
:1059A8000592E5D000242646A246A346BBF11F0F68
:1059B80032D8A7F12003102B0AD8DFE803F0240916
:1059C800092A0909091B09090922092709091900CE
:1059D800A7F13003092B2DD92A2F39D154B90B9BA4
:1059E8001BF0400F53F8042B0B9329D0164601E007
:1059F8004BF0010B059B13F8017B0593002FD5D1C4
:105A08005BE04BF0020B4BF0040BF3E74BF0080B99
:105A1800F0E74BF0100BEDE7BBF17F0F3FD8A7F194
:105A28003003092BD8D81BF0400F03D00A2202FB01
:105A38000636DFE70A2202FB0A3A4BF0200BD9E7C9
:105A4800B2F1000AF9DACAF1000A4BF0280BD1E7E3
:105A58002E2F05D11BF0400F9BD14BF0400BC9E70F
:105A6800242F1CD1002C00F04181079B0B931BF0C5
:105A7800400F0AD1524606980BA9FFF7C9FE0B9BA7
:105A88001A1DD3F800A00B92B4E7324606980BA96A
:105A9800FFF7BEFE0B9B1A1D1E680B92AAE76C2F20
:105AA80000F0118100F20881682F00F014816A2F3C
:105AB80000F019814C2F00F0168134B1079B06982D
:105AC8000B9322460BA9FFF7A3FE002E47F02009EF
