:020000040800F2
:10000000001D0120A52800088B7300089128000816
:10001000912800089128000891280008000000009D
:10002000000000000000000000000000D9280008C7
:100030009128000800000000592B0008E144000846
:100040000D2C00080D2C00080D2C00080D2C0008AC
:100050000D2C00080D2C00080D2C00080D2C00089C
:100060000D2C00080D2C00080D2C00080D2C00088C
:100070000D2C00080D2C00080D2C00080D2C00087C
:100080000D2C00080D2C00080D2C00080D2C00086C
:100090000D2C00080D2C00080D2C00080D2C00085C
:1000A0000D2C00080D2C00080D2C00080D2C00084C
:1000B0000D2C00080D2C00080D2C00080D2C00083C
:1000C0000D2C00080D2C00080D2C00080D2C00082C
:1000D0000D2C00080D2C00080D2C00080D2C00081C
:1000E0000D2C00080D2C00080D2C00080D2C00080C
:1000F0000D2C00080D2C00080D2C00080D2C0008FC
:100100000D2C00080D2C00080D2C00080D2C0008EB
:100110000D2C00080D2C00080D2C00080D2C0008DB
:100120000D2C00080D2C00080D2C00080D2C0008CB
:100130000D2C00080D2C00080D2C00080D2C0008BB
:100140000D2C00080D2C00080D2C00080D2C0008AB
:100150000D2C00080D2C00080D2C00080D2C00089B
:100160000D2C00080D2C00080D2C00080D2C00088B
:100170000D2C00080D2C00080D2C00080D2C00087B
:100180000D2C00080D2C00080D2C00080D2C00086B
:100190000D2C00080D2C00080D2C00080D2C00085B
:1001A0000D2C00080D2C00080D2C00080D2C00084B
:1001B0000D2C00080D2C00080D2C00080D2C00083B
:0801C0000D2C00080D2C0008B5
:1001C80081F0004102E000BF83F0004330B54FEA00
:1001D80041044FEA430594EA050F08BF90EA020F6D
:1001E8001FBF54EA000C55EA020C7FEA645C7FEA00
:1001F800655C00F0E2804FEA5454D4EB5555B8BF23
:100208006D420CDD2C4480EA020281EA030382EA93
:10021800000083EA010180EA020281EA0303362D25
:1002280088BF30BD11F0004F4FEA01314FF4801CF8
:100238004CEA113102D0404261EB410113F0004F0A
:100248004FEA03334CEA133302D0524263EB4303C1
:1002580094EA050F00F0A780A4F10104D5F1200E5F
:100268000DDB02FA0EFC22FA05F2801841F10001BA
:1002780003FA0EF2801843FA05F359410EE0A5F18E
:1002880020050EF1200E012A03FA0EFC28BF4CF0BF
:10029800020C43FA05F3C01851EBE37101F0004575
:1002A80007D54FF0000EDCF1000C7EEB00006EEB82
:1002B8000101B1F5801F1BD3B1F5001F0CD349080C
:1002C8005FEA30004FEA3C0C04F101044FEA445263
:1002D80012F5800F80F09A80BCF1004F08BF5FEAEA
:1002E800500C50F1000041EB045141EA050130BDCA
:1002F8005FEA4C0C404141EB0101013C28BFB1F5DC
:10030800801FE9D291F0000F04BF01460020B1FA26
:1003180081F308BF2033A3F10B03B3F120020CDAF9
:100328000C3208DD02F1140CC2F10C0201FA0CF0D7
:1003380021FA02F10CE002F11402D8BFC2F1200C3C
:1003480001FA02F120FA0CFCDCBF41EA0C019040F2
:10035800E41AA2BF01EB0451294330BD6FEA04043B
:100368001F3C1CDA0C340EDC04F11404C4F1200226
:1003780020FA04F001FA02F340EA030021FA04F338
:1003880045EA030130BDC4F10C04C4F1200220FA8F
:1003980002F001FA04F340EA0300294630BD21FACD
:1003A80004F0294630BD94F0000F83F4801306BF93
:1003B80081F480110134013D4EE77FEA645C18BF87
:1003C8007FEA655C29D094EA050F08BF90EA020F1E
:1003D80005D054EA000C04BF1946104630BD91EA16
:1003E800030F1EBF0021002030BD5FEA545C05D119
:1003F8004000494128BF41F0004130BD14F5800458
:100408003CBF01F5801130BD01F0004545F0FE41CB
:1004180041F470014FF0000030BD7FEA645C1ABF00
:10042800194610467FEA655C1CBF0B46024650EA37
:10043800013406BF52EA033591EA030F41F4002163
:1004480030BD00BF90F0000F04BF0021704730B5E9
:100458004FF4806404F132044FF000054FF00001BE
:1004680050E700BF90F0000F04BF0021704730B57F
:100478004FF4806404F1320410F0004548BF404254
:100488004FF000013EE700BF42004FEAE2014FEAA9
:1004980031014FEA02701FBF12F07F4393F07F4F84
:1004A80081F06051704732F07F4208BF704793F087
:1004B8007F4F04BF41F40021704730B54FF460749A
:1004C80001F0004521F000411CE700BF50EA01029D
:1004D80008BF704730B54FF000050AE050EA010246
:1004E80008BF704730B511F0004502D5404261EBB6
:1004F80041014FF4806404F132045FEA915C3FF4F7
:10050800D8AE4FF003025FEADC0C18BF03325FEA93
:10051800DC0C18BF033202EBDC02C2F1200300FA44
:1005280003FC20FA02F001FA03FE40EA0E0021FA69
:1005380002F11444BDE600BF70B54FF0FF0C4CF457
:10054800E06C1CEA11541DBF1CEA135594EA0C0F09
:1005580095EA0C0F00F0DEF82C4481EA030621EA44
:100568004C5123EA4C5350EA013518BF52EA03357F
:1005780041F4801143F4801338D0A0FB02CE4FF031
:100588000005E1FB02E506F00042E0FB03E54FF061
:100598000006E1FB03569CF0000F18BF4EF0010E59
:1005A800A4F1FF04B6F5007F64F5407404D25FEA55
:1005B8004E0E6D4146EB060642EAC62141EA555108
:1005C8004FEAC52040EA5E504FEACE2EB4F1FD0C4A
:1005D80088BFBCF5E06F1ED8BEF1004F08BF5FEAC8
:1005E800500E50F1000041EB045170BD06F000467A
:1005F80046EA010140EA020081EA0301B4EB5C0427
:10060800C2BFD4EB0C0541EA045170BD41F480111E
:100618004FF0000E013C00F3AB8014F1360FDEBF43
:10062800002001F0004170BDC4F10004203C35DA1F
:100638000C341BDC04F11404C4F1200500FA05F3A2
:1006480020FA04F001FA05F240EA020001F0004243
:1006580021F0004110EBD37021FA04F642EB0601B9
:100668005EEA430E08BF20EAD37070BDC4F10C04E3
:10067800C4F1200500FA04F320FA05F001FA04F2A7
:1006880040EA020001F0004110EBD37041F1000193
:100698005EEA430E08BF20EAD37070BDC4F120059E
:1006A80000FA05F24EEA020E20FA04F301FA05F206
:1006B80043EA020321FA04F001F0004121FA04F2AE
:1006C80020EA020000EBD3705EEA430E08BF20EA7E
:1006D800D37070BD94F0000F0FD101F000464000B8
:1006E80041EB010111F4801F08BF013CF7D041EA3A
:1006F800060195F0000F18BF704703F0004652003E
:1007080043EB030313F4801F08BF013DF7D043EA0E
:100718000603704794EA0C0F0CEA135518BF95EAC4
:100728000C0F0CD050EA410618BF52EA4306D1D14B
:1007380081EA030101F000414FF0000070BD50EA6A
:10074800410606BF1046194652EA430619D094EAF4
:100758000C0F02D150EA013613D195EA0C0F05D1DE
:1007680052EA03361CBF104619460AD181EA030132
:1007780001F0004141F0FE4141F470014FF00000EA
:1007880070BD41F0FE4141F4780170BD70B54FF085
:10079800FF0C4CF4E06C1CEA11541DBF1CEA135505
:1007A80094EA0C0F95EA0C0F00F0A7F8A4EB0504E7
:1007B80081EA030E52EA03354FEA013100F08880DE
:1007C8004FEA03334FF0805545EA131343EA1263A7
:1007D8004FEA022245EA111545EA10654FEA00265C
:1007E8000EF000419D4208BF964244F1FD0404F515
:1007F800407402D25B084FEA3202B61A65EB030571
:100808005B084FEA32024FF480104FF4002CB6EB2D
:10081800020E75EB030E22BFB61A754640EA0C00AD
:100828005B084FEA3202B6EB020E75EB030E22BFED
:10083800B61A754640EA5C005B084FEA3202B6EB2E
:10084800020E75EB030E22BFB61A754640EA9C00ED
:100858005B084FEA3202B6EB020E75EB030E22BFBD
:10086800B61A754640EADC0055EA060E18D04FEA7B
:10087800051545EA16754FEA06164FEAC30343EA1B
:1008880052734FEAC2025FEA1C1CC0D111F4801FE8
:100898000BD141EA00014FF000004FF0004CB6E7E1
:1008A80011F4801F04BF01430020B4F1FD0C88BF80
:1008B800BCF5E06F3FF6AFAEB5EB030C04BFB6EB8B
:1008C800020C5FEA500C50F1000041EB045170BD7E
:1008D8000EF0004E4EEA113114EB5C04C2BFD4EBAB
:1008E8000C0541EA045170BD41F480114FF0000E2F
:1008F800013C90E645EA060E8DE60CEA135594EAAB
:100908000C0F08BF95EA0C0F3FF43BAF94EA0C0FAD
:100918000AD150EA01347FF434AF95EA0C0F7FF422
:1009280025AF104619462CE795EA0C0F06D152EA76
:1009380003353FF4FDAE1046194622E750EA41065A
:1009480018BF52EA43067FF4C5AE50EA41047FF46B
:100958000DAF52EA43057FF4EBAE12E77BB972B9EB
:100968000029BEBF00204FF0004106E008BF002864
:100978001CBF6FF000414FF0FF3000F057B8ADF1E9
:10098800080C6DE904CE002909DB002B1ADB00F006
:1009980057F8DDF804E0DDE9022304B0704740426F
:1009A80061EB4101002B1BDB00F04AF8DDF804E0A5
:1009B800DDE9022304B0404261EB4101524263EB9E
:1009C80043037047524263EB430300F039F8DDF804
:1009D80004E0DDE9022304B0404261EB41017047C5
:1009E800524263EB430300F02BF8DDF804E0DDE945
:1009F800022304B0524263EB4303704753B94AB928
:100A0800002908BF00281CBF4FF0FF314FF0FF300E
:100A180000F00CB8ADF1080C6DE904CE00F010F848
:100A2800DDF804E0DDE9022304B07047704700BF39
:100A3800034613F8012B002AFBD1181A0138704716
:100A48002DE9F04786468C460846089E15467446AA
:100A58001946002B40F0C2808542B2FA82F245D98D
:100A68004AB1C2F1200300FA02FC2EFA03F39540C2
:100A780043EA0C0C94404FEA154EA8B2BCFBFEF8B2
:100A8800230C0EFB18CC08FB00F943EA0C439945EC
:100A980028D9EB1808F1FF3704D2994502D9A8F1F3
:100AA80002072B44A3EB0903A4B2B3FBFEFC0EFB25
:100AB8001C330CFB00F044EA0344A04214D92C195F
:100AC8000CF1FF3304D2A04202D9ACF102032C444A
:100AD800241A43EA07401EB1D440002334607360EF
:100AE800BDE8F0874746DDE76346F1E792BB431B65
:100AF80001214FEA154EAFB2B3FBFEFC200C0EFBF2
:100B08001C330CFB07F840EA0343984562D9EB18FD
:100B18000CF1FF3004D2984502D9ACF102002B4405
:100B2800A3EB0803A4B2B3FBFEFC0EFB1C330CFBC7
:100B380007F744EA0344A7424ED92C190CF1FF33B6
:100B480004D2A74202D9ACF102032C44E41B43EAC5
:100B58000040C0E7C2F1200320FA03F1954090401D
:100B68002EFA03F303434FEA154EAFB2B1FBFEFC76
:100B78000EFB1C10190C0CFB07F841EA00418845D4
:100B880004FA02F422D969180CF1FF3004D288451E
:100B980002D9ACF102002944A1EB08019BB2B1FBD8
:100BA800FEFC0EFB1C110CFB07F743EA01439F42B6
:100BB8000ED9EB180CF1FF3104D29F4202D9ACF1E7
:100BC80002012B44DB1B41EA004192E76046E3E760
:100BD8006146F7E76046A3E76346B7E7834206D96D
:100BE80016B9002108467BE7C6E900E0F9E7B3FA41
:100BF80083F78FB9834201D3724508D8BEEB02044C
:100C080060EB030301209C461EB9002168E73846C3
:100C1800FAE7C6E9004CF8E7C7F1200CBB4022FA16
:100C28000CF41C432EFA0CF120FA0CF3B8400143E3
:100C38004FEA14490EFA07F5B3FBF9F81FFA84FED8
:100C480009FB18300B0C08FB0EFA43EA00439A45DF
:100C580002FA07F240D9E31808F1FF3004D29A45A6
:100C680002D9A8F102002344A3EB0A0389B2B3FB1B
:100C7800F9F809FB183308FB0EFE41EA03418E45DB
:100C88002CD9611808F1FF3304D28E4502D9A8F196
:100C98000203214443EA0040A0FB0298A1EB0E01A5
:100CA8004145CE46434602D306D14D4504D2B9EB61
:100CB800020E68EB04030138002EA6D0B5EB0E0235
:100CC80061EB030101FA0CFC22FA07F34CEA030377
:100CD800F940C6E9003198E74046C5E74346D9E7F9
:100CE8002DE9F04775239AB000228DF82E300DF1CA
:100CF8002E038DF82F20149301238DF858200DF121
:100D08002F021593CDE9172307238DF86430804807
:100D180014A99DF86430826843F002038DF86430AA
:100D2800682394680222A0479DF82F10794805F09F
:100D3800A5FE794806F0C0FF0446002800F0DC80D4
:100D4800754B71A5D5E90045D3F808A04C21DAF810
:100D58000C30714898470146002840F0C9800EA918
:100D6800032000F0E9F80146002840F0C18014A9EA
:100D7800072000F0E1F80146002840F0B9800CA9EE
:100D880000F0DAF80146002840F0B2800F98FFF72B
:100D980069FB22462B46FFF7F9FC06460F460E98DC
:100DA800FFF760FB02460B4630463946FFF70EFA5E
:100DB800064619980F46FFF755FB22462B46FFF7C4
:100DC800E5FC804689461898FFF74CFB02460B461F
:100DD80040464946FFF7FAF9CDE908011798FFF7A9
:100DE80041FB22462B46FFF7D1FC804689461698E0
:100DF800FFF738FB02460B4640464946FFF7E6F93F
:100E0800CDE906011598FFF72DFB22462B46FFF783
:100E1800BDFC804689461498FFF724FB02460B4622
:100E280040464946FFF7D2F9CDE904011398FFF788
:100E380019FB22462B46FFF7A9FC804689461298E3
:100E4800FFF710FB02460B4640464946FFF7BEF93E
:100E5800CDE902011198FFF705FB22462B46FFF763
:100E680095FC804689461098FFF7FCFA02460B4627
:100E780040464946FFF7AAF93B463246CDE900010C
:100E8800264804F0FBFB0F9A0E99002A2448B8BFA5
:100E9800524204F0F3FB119A1099002A2148B8BF76
:100EA800524204F0EBFB139A1299002A1E48B8BF6D
:100EB800524204F0E3FB0D98FFF7D4FA22462B4682
:100EC800FFF764FC06460F460C98FFF7CBFA02467C
:100ED8000B4630463946FFF779F902460B46134868
:100EE80004F0CCFB002142F2107006F0B1FF2DE7B0
:100EF8000F4804F0C3FBF5E70E4805F0BFFD204698
:100F08001AB0BDE8F08700BF0000000080842E41C1
:100F1800208600087E9100083C860008B3910008EE
:100F2800E2910008FC91000816920008309200082F
:100F38005A9200089191000810B403460A460448E2
:100F480081680C69194623465DF8044B184700BFB1
:100F58003C8600082DE9F04F91B0840705460E46FF
:100F6800009302F00403DDF868800293C2F3C20321
:100F7800039203F10103059340F0BA81041D30B1D7
:100F8800072909D86FF01B0011B0BDE8F08F01F0F8
:100F980007063444C6F10806009B4FF000094FF0DD
:100FA800040A591E4FF0FF334F46CB460193534670
:100FB800CDF810900DB1009820600598002800F336
:100FC800E8809848009A824203D397488242C0F04A
:100FD800E080039AA4EB050E92074FEA9E0000F109
:100FE80003810F2F00F2B180002D00F0058107F179
:100FF80040020DEB020C019A0CF8200C0CF8102C96
:10100800049801300490E7E07A285DD84B280ED880
:10101800472859D829282DD8252852D054D82028EF
:101028007AD02338D0F1000B4BEB000B74E04C382E
:101038002E2849D8DFE800F0704848484848484812
:10104800484848484B484848484848484859484B01
:101058004B595959704B6D487048184B184848827D
:101068007F4B48484B487F0000204FF0000B4FF063
:10107800040A38E02A380122C0B202FA00F010EA65
:101088000E0F49D110F0625C2FD110EA020B43D049
:101098006046013C5444B4FBFAF40AFB04F4002D06
:1010A80061D0A3EB050CA444B4453FF66BAF002810
:1010B80068D1042B47D158F8043B23600434042337
:1010C8002AE0019A013A01924FF0000B24E011F84E
:1010D800010C6C2834D111F8023C00206C2B83469B
:1010E800C5D14FF0080A5346D3E708F1070807347B
:1010F80028F0070824F00704F8E802AB35B1069891
:101108002044B0423FF63EAFC4E900AB08344FF08C
:10111800000B4FF0080A534611F8010F002878D049
:10112800BBF1000F7FF470AF2528F5D1019B4FF07C
:10113800010B013301934FF0040AECE7584694E79A
:1011480000208346A5E7082B02D06FF015001BE7A7
:1011580008F1070828F00708B8EC027B84ED007B4B
:1011680008340823D8E768B9042B02D108F1040829
:10117800A4E7082BE9D108F1070828F0070808F1C7
:101188000808EDE705980138059058F8040B009019
:1011980010E7039A900720D5A4EB050E4FF0010C39
:1011A8004FEA9E00BEF5007FCFD20F2FCDD8F5B104
:1011B80007F14002C0B20DEB020E019A0EF8200CA6
:1011C8000EF8102CBCF1000F3FF41AAF60F07F004E
:1011D80009F101090EF8200C0137C5F108020434A1
:1011E8004FF6DA7E069297E74FF0000CDAE7BCF18B
:1011F800000F01D00136EFE7029A0236002AEBD140
:101208000098CDE90631FFF713FC0644DDE9063105
:10121800E2E7631BB3F5806F97D23DB9A6F10804E6
:10122800E018B1E67C830008F89F00089B08029A42
:1012380028602B709DF81030C2B1EB7085F80290D1
:10124800B9F1000F05D008A80022C5F1010C97429A
:101258000ED1C5F101030DF120084FF0000A0DF180
:10126800300B0193574512D1601B8DE66B70E5E793
:1012780010F8013B190608D50CEB040E03F07F03A8
:10128800B6453FF67FAE04F8013B0132DFE7B9F11E
:10129800000F03D098F90020002A17DB029BD3B176
:1012A8001AF80B2004F8012B0022019B181910448E
:1012B800B0423FF667AE98F80000009904F8010BB9
:1012C8002046039206F072FE039A14440AF1010ABA
:1012D80008F10108C6E798F8002055F82230009375
:1012E800029B009845F82230FFF7A2FB421CDCE77E
:1012F8006FF00D0048E600BF2DE9F04F97B00446A7
:10130800894600AF90F802A0D7F880B03B62CBF3D3
:10131800C003FA62BB6141B9457800780AEB8000E6
:1013280020444D4517D8A0EB0409E378FB61BAF1D6
:10133800000F02D01BF0010F16D1FB6953BBFB6AEB
:101348001BB13A6A4946204698474D4628465C37BD
:10135800BD46BDE8F08F461C09F101093046FFF78C
:1013680067FB01303044DCE72378626899007A62D1
:10137800FA6A796104EB8301002A40F000814D4646
:101388000E4601EB0A094FF000084E454CD101EB1F
:101398000A0610E01BF0020FD1D023789A0004EB64
:1013A80083017A6162687A62FA6A002A77D14D46C7
:1013B80001EB0A0690461BF0050F0CBF0223012320
:1013C800FB62FB6906EB430A0BF00203BB6256455E
:1013D800BCD016F8021B16F8013C54F82390994B20
:1013E800994502D3984B994536D3BB69002B40D019
:1013F800786A05F01CFB00283BD0E9468AB06A46AB
:10140800924B53617B6AC2E906314FF4007313842F
:101418008F4B42F8103F00234FF412518D48023D84
:1014280000F04CFCCD46D2E716F8013BF96254F8BF
:101438002300FFF7FDFAD7F884300130F96A4BB181
:10144800D7F8883098453EBFD7F8843023F818007D
:1014580008F10108054498E7BB6923B1786A05F0EB
:10146800E6FA0028C9D11BF0010F05D1FB6AED1A75
:10147800ADE7BB6A002BAAD04846FFF7D9FAD7F8E0
:10148800843053B1D7F8883098453FBF431CD7F80C
:10149800842022F8183008F10108054497E7BAF1CA
:1014A800000F72D01BF0040672D0D046002607F158
:1014B800480052463B61B96206F078FDB96A3B695B
:1014C80001EB0A02F969BA62FA695200FA60BA6A6B
:1014D80002EB41023A610BF00202BA603A69B96A5A
:1014E8008A4257D11BF0020F62780CBF4FEA5801AD
:1014F80000217A621BF0010F3244D2B240F09F8083
:101508001BF0040F14BF40460020BB616270A0703E
:101518002046E1703A6A7969FB6A9847051EFFF62A
:1015280015AFBB6941463A6A07F1480023707B6AE8
:1015380084F802A06370FB69E370FB6A9847B0F116
:101548000008C0F2BB807B69A9EB0A013A6AC91A94
:10155800FB68C91AD7E90A0398470028C0F2B08087
:10156800A8444FF0000B07F1380A08EB0005B34513
:1015780072D300213A6AFB6A08469847E6E656465F
:101588004FF0000807F1380093E75646D04697E732
:10159800B04695E7BA6A12F8021B12F8015CBA6203
:1015A80054F82500274A904202D3274A90421ED376
:1015B800BA6932B1786A7B6005F039FA7B6800282D
:1015C8008CD1BA6802BB08F1280207F1300C08F187
:1015D800010008F10208944407F158025FFA88F8FC
:1015E80052FA80F00CF8101C00F8105C76E7BA6923
:1015F8003AB1786A7B6005F01AFA7B6800287FF4B4
:101608006DAF1BF0010F09D006F1280207F1300079
:10161800711C161806F8205CCEB25FE71BF0040FA9
:101628003FF45CAF08F1280207F1300008F101012E
:1016380002EB000808F8105C5FFA81F84EE700201A
:1016480063E700BF7C830008F89F00087F920008CA
:1016580004000001088A00081BF80A3054F8239097
:1016680087F83730D7F884302BB3D7F888309B45C4
:1016780021D2D7F8843033F81B803A6A012107F168
:101688003700FB6A984700281ADB0544B8F1000FB9
:1016980006D14846FFF7CCF900F101081FFA88F88F
:1016A8003A6A41464846FB6A9847002808DB0544E1
:1016B8000BF1010B5BE74FF00008DEE7454645E616
:1016C800054643E6014B1860704700BF0000012043
:1016D80080B505460E461746984603F0B7FCDFF876
:1016E8002090034601F0A0FA0446424649F800302B
:1016F80039463046A84754F8090001F013FA00BFEC
:1017080008000000034A0020536823F002035360D6
:10171800704700BF002004E008B5416805480C3157
:1017280083681B681BB1984700EAE07008BD6FF03A
:101738005700F9E744840008192810B502D9002495
:10174800204610BD044B53F82040204606F0B4FA5A
:101758000028F5D1F3E700BF0C8E0008064B1A6885
:1017680042F400721A601A6842F480721A60034BDD
:10177800034A1A60704700BF003C0240380001204D
:101788000024F4002DE9F047044607464FF001090C
:10179800DFF8508014B93846BDE8F08794FAA4F50C
:1017A800B5FA85F509FA05F32E0108EB05156FEA78
:1017B800030A24EA03042B7B002BEBD058F80630ED
:1017C8001B694BB946440422284607EA0A0773688E
:1017D800196805F098FCDDE7284698470028D9D114
:1017E800F0E700BF888A000830B5002289B00F49A9
:1017F8000F4806F0B3FB0022002300240D4D0E49CC
:1018080028460094CDE906230E234FF44072CDE913
:101818000334CDE90144094B03F006FA0849284688
:1018280006F07AFA204609B030BD00BF4D1800080E
:1018380098050120D0000120000B0120691B000839
:10184800EC930008014803F047B900BFBC00012031
:101858002DE9F047804620480F4605F02CFC064647
:10186800002832D000252846BDE8F087237B83B1C5
:101878002368DB680BB120469847636883F80690B5
:1018880023681B69CBB9636804222046196805F0F0
:101898003AFC013610345445E8D3B8F1000FE2D0D1
:1018A800002DDFD02846FFF76DFF0546002FF7D043
:1018B8000021642006F0CCFAF2E720469847002879
:1018C800E1D009FA06F31D43E3E7044C0546DFF8C7
:1018D80010A04FF00109DEE700090120888A0008FE
:1018E800988A0008014B53F820007047888E00083A
:1018F80008B5034608462BB1044A136000F076FC8D
:10190800002008BD6FF01500FBE700BF04000120B0
:1019180010B5044C237813B9034803F0DDF801230C
:10192800237010BDC20A0120BC00012010B5044676
:101938000B4805F0C0FB5CB10A4BBFF35B8F53E863
:10194800001F013943E80012002AF8D1BFF35B8F6A
:10195800054806F00FFB0548BDE8104003F0BCB889
:10196800F8080120FC08012098050120BC0001208E
:101978000020064BBFF35B8F014653E8000F43E896
:101988000012002AF9D1BFF35B8F7047F8080120D5
:1019980070B5FFF7EDFF084C0546084EB44200D37A
:1019A80070BD63685B792BB123685B6813B1294606
:1019B800204698471034F1E7888A0008988A00087A
:1019C80010B5044C0449204605F067F9034B1C6028
:1019D80010BD00BF80000120748E0008F0080120AF
:1019E80000230D4A4FF47A710C4810B513700C4A55
:1019F80013600C4A1360FFF77BFFFFF7E1FF0A4B08
:101A08000A4918468B4200D310BD1A1A5C68103375
:101A1800121101322271F5E7C30A0120D9700008BA
:101A2800F8080120FC080120888A0008988A000824
:101A3800014600220023014805F050B9800001202A
:101A4800014805F0E9B900BF80000120024B0146BA
:101A5800186805F03CBA00BFF0080120014805F0FD
:101A680071BA00BF80000120264B70B51878002895
:101A780046D0FFF7E5FF054600283ED1224B234C10
:101A88001B68002B12DD06F067FA0A220023FEF716
:101A9800B5FFD4E90032C01A40F2E93361EB020124
:101AA800984271F1000101D3FFF772FFD4E90032C7
:101AB80013F57A7342F10002C4E90032BDE87040C0
:101AC800FFF7CCBF63685B7923B1236829462046BA
:101AD8001B6898471034B442F4D32846FFF7B6FF82
:101AE8000B4BBFF35B8F53E8001F013943E800122B
:101AF800002AF8D1BFF35B8FC0E7064C064EEAE731
:101B080070BD00BFC20A0120F8080120900501201D
:101B1800FC080120888A0008988A000870B50D4DD5
:101B2800297861B90C4C01200C4EFFF791FEB442A4
:101B380006D3FFF799FF0028FBD101232B7070BD56
:101B480063685B791BB1236820469B68984710340B
:101B5800EDE700BFC30A0120888A0008988A0008B8
:101B680000212DE9F0470846FFF772FE044658B3F6
:101B78004FF4FA784FF000091C4B01F055F81C4A55
:101B88001B58136033B11B4B1B68092B02DD1A4825
:101B980002F0A2FF0025194FDFF85CA044B12046EF
:101BA800FFF7F0FD044618B94FF0FF384FF0FF3942
:101BB800FFF75AFF064628B9B5B942464B46504684
:101BC80002F0BEFF3546E9E74FF0FF384FF0FF3926
:101BD800D2E72B689B691BB100222846114698471B
:101BE8001035BD42F5D3E8E7054DFAE708000000D7
:101BF800F4080120FC080120BC000120988A000894
:101C0800888A000813B5184805F055FA174B1B7851
:101C180073B1EFF31184102383F31288BFF36F8F2E
:101C2800FFF722FF84F31188BFF36F8F02B010BD56
:101C38000F4B1B68002BF9D050B9002200230D4828
:101C4800CDE9002342F21072002303F0D9FCEDE73E
:101C58000928EBD1074806F08DF9074802B0BDE81E
:101C6800104002F039BF00BFFC080120C30A012060
:101C7800F408012098050120BC000120064B10B58E
:101C880004461B6898472146A060044805F0A5F85B
:101C9800BDE81040FFF7B6BF040001208000012016
:101CA800044A054B9B1AB1EBD30F34BF52F83100ED
:101CB80000207047008A0008888A00082DE9F04F44
:101CC8008FB0C1F34A280D46914604AF0C0DB86099
:101CD8007B60B8F1000F63D0002607F114034FF0C2
:101CE800040B4FF00A0AC7F80C8032467E62484659
:101CF800C7E90766019307F11C03CDF808B0CDF8D2
:101D080000A0F968FFF7F8FAB0F5006F03461CD396
:101D18006C468AB0D9F8041004AB26481A46C3E9C1
:101D2800050140F2FF71D9614FF400711984224B0B
:101D380042F8103F4FF4125133462048FFF7BEFFD8
:101D4800A5462C37BD46BDE8F08FC0F30A0804F15C
:101D580017003B60184468F3532520F007008008FB
:101D6800FFF766FE044690B13B6800F11001144A83
:101D78004846F961C7E9083607F11403CDF808B0F9
:101D8800CDE900A307F11C03F968FFF7B5FA68F37A
:101D980053257B68B96820462A4605F0D4F9D0E770
:101DA80004F1170020F007008008FFF741FE044601
:101DB800EDE700BF0194000804000001388A00081C
:101DC800217100082DE9F04F87B0044693469846E4
:101DD8000391DDE91279DDE9105ABFB13B4652465D
:101DE80010210020CDF80090CDF81490FFF7B2F83C
:101DF800B0F5006F06460AD340F2FF73174A022176
:101E0800174807B0BDE8F04F05F0F6B93E4604F0B4
:101E180007040BF0070BE40044EA8B1444EA462459
:101E280044EA055405F11700304420F00700800803
:101E3800FFF7FEFD054640B13FB13B4652463146ED
:101E48001030CDF80090FFF785F8434622460399F5
:101E5800284607B0BDE8F04F05F075B94094000872
:101E6800388A0008406820B1034BC01A40F3CF00FD
:101E780070474FF0FF307047008A00080EB403B572
:101E880003AB0146054853F8042B019301F05AF8B7
:101E980002B05DF804EB03B0704700BF4B72000856
:101EA800CA0605D48B064CBF02490349FFF7E6BFB3
:101EB800704700BF79940008789400082DE9F04F26
:101EC8008BB09B4604460D46169B90469DF854A041
:101ED8000693179B199E0593189B0493BAF1000F5C
:101EE80000F09E8006F0010306F00209089306F050
:101EF8000803079306F48073099305F002F9024674
:101F080000283BD08F492046FFF7B8FF0746B9F1B4
:101F1800000F08D016F0440F32D12A468A492046CD
:101F2800FFF7ACFF0744089B53B1884B204688490C
:101F380053F82A20874B002A08BF1A46FFF79EFF4E
:101F4800099B002B48D0079B002B62D1B8F1000FEA
:101F580064D0424680492046FFF790FF0546069B1D
:101F68003D44002B6BD1049B002B71D1F30700F18A
:101F7800E28031462046FFF793FFD6E00746C6E7E2
:101F8800764B18680028CDD0754B4FF47A794FF00E
:101F98003C0C1B68B5FBF3F5B5FBF0F100FB1155E4
:101FA8004FF4616309FB05F5B1FBF3F2B5FBF0FEF5
:101FB80003FB121100FB1E55B1FBFCF309FB05F5F1
:101FC8000CFB1311B5FBF0F5009120466549CDE9EE
:101FD80001E5FFF753FFA5E7079BEBB1624B2046EE
:101FE800624953F82A20FFF749FF0546B8F1000F68
:101FF80005D0424658492046FFF740FF0544BBF14B
:10200800000FACD05A465A492046FFF737FF05441F
:10201800A5E74FF0000BE1E7079DE7E745469EE798
:10202800BBF1010F069B06D1002B64D1049B002B4A
:102038007BD000250CE0002BF8D04E485CE04E48E1
:10204800069B22464D4904F0C1FC049B002B68D036
:10205800DFF83881DFF83891049F4FF0000B3146E4
:102068002046102F28BF1027FFF71AFF5D4545DCD3
:10207800059B4FF0010B494620461A78FFF7FEFEF4
:102088001BF0070F03D141462046FFF7F7FE5F45D7
:102098003BD9059B4946204613F80B20FFF7EEFE77
:1020A8000BF1010BBBF1100FEAD14FF0000B3449D3
:1020B8002046FFF7E3FE5A46059B20469A5CA2F1AC
:1020C80020015F292F4928BF2E22FFF7D7FE0BF1E9
:1020D800010BBBF1100F1DD01BF0070F03D14146B8
:1020E8002046FFF7CBFE5F455A46E5D841462046D5
:1020F800FFF7C4FEEBE720485546A1E741462046D6
:102108000BF1010BFFF7BAFEB0E71F492046FFF7B6
:10211800B5FEC5E7059B3B440593049BDB1B049375
:102128009AD1BAF1000F7FF421AF20460BB0BDE879
:10213800F04F05F079B8074A20460549FFF79EFE9B
:1021480017E700BF8094000884940008988E000860
:10215800A99400087B940008AC94000808090120A1
:10216800040901208D940008AC8E0008B094000882
:10217800B6940008817200084B7200084D2F0008C1
:10218800C5940008C7940008C1940008C3940008C7
:10219800BB94000842F20F73114A8B4273B5044690
:1021A80028BF0B4605680521684603F079FA63687D
:1021B80006460B2228465B680A4905F027F863683B
:1021C8003246694628465B6805F020F863681B229A
:1021D80005495B68284605F019F802B070BD00BFD4
:1021E800CC9D0008E6940008CA9400080021012349
:1021F800064A904206D8064A01B901231360054BE6
:1022080018607047400801215B00F2E740420F0068
:102218000409012008090120F8B50D4604464618AE
:10222800054FB44201D12846F8BD14F8011BBB681C
:1022380001485B689847F4E7E8850008014B0360AC
:1022480003207047F48E000806480021064A08B5A6
:10225800121A05F08EF80548054A0021121A05F0F1
:1022680088F808BDD0000120C80A0120000000201D
:10227800000000200A480B4A0B49121A08B505F05D
:102288007AF80A480A4A0B49121A05F074F80A48FB
:102298000A4A0B49121ABDE8084005F06CB800BF9D
:1022A80000000120CC000120F89F00080000012058
:1022B80000000120F89F0008000000200000002016
:1022C800C4A000082DE9F84F804600AF0C4600294D
:1022D80065D0E9468AB0A3686D46D1E9001239484D
:1022E8004FF0050A2E46C5E90501C5E9072346F85A
:1022F80010AF002332464FF421513348FFF7DEFC7C
:10230800CD466369AD46D4E903123048C5F810A03C
:10231800C5E90501C5E90723002332464FF42151D9
:102328002948FFF7CBFCCD46E36900252646DFF8B0
:10233800B0B04FF00A0A264A0121234804F05CFF96
:10234800E9468EB0D6E908E0D6E90A136A46C2F82B
:102358001CE005F1010EC2E908E0A81CC2E90A0167
:10236800E91CC2E905B5C2E90C1342F810AF0435FF
:10237800002345F240011448FFF7A0FC102D06F198
:102388001006CD46DCD1236E124A01210E4804F016
:1023980033FFA369104A01210B4804F02DFFB8F15F
:1023A800010F07D1EFF305830C4A103B414606485D
:1023B80004F022FF2146404602F008FABD46BDE877
:1023C800F88F00BF67950008588A0008969500089E
:1023D800C595000817960008269600085496000828
:1023E800D495000830BFFFF7FDBF00BF2DE9F041CD
:1023F8000B4E0546DFF83080324606EB0807CC1B4B
:102408000849204605F0D2FDA019083C42460021A3
:1024180005F0DAFD07F108002C67BDE8F08100BF80
:1024280000000000988A00080400000070B5064605
:102438000D46284C2849294804F0AAFFA36AD90464
:102448003CD52648264904F0A3FF1720A36A1A059D
:1024580004D52248234904F09BFF18201D4CA36A89
:102468009B0512D51D48204904F092FFA36BA26A70
:10247800100409D51D4A0121184804F0BDFE1EB1FB
:10248800A36A23F40043A3621920124CA36A5905D6
:1024980004D51248164904F07BFF1A20A36ADA050E
:1024A8000ED50E48134904F073FF1B20094A936A9E
:1024B80043F47F43936200232B7070BD1620C5E759
:1024C800A36A9B04F2D505480B4904F061FF1C2060
:1024D800ECE700BF00ED00E067960008588A0008A6
:1024E8007D9600088E960008A1960008BA96000806
:1024F800CF960008EA9600080297000810B5204C0D
:102508002049214804F044FFA36A990136D51E48A2
:102518001E4904F03DFF1E20A36ADA0104D51A48BB
:102528001B4904F035FF1F20154CA36A1B0304D573
:102538001548184904F02CFF2120A36A590304D533
:102548001148154904F024FF22200D4CA36A9A0370
:1025580004D50D48114904F01BFF2320A36ADB03AF
:1025680004D509480E4904F013FF2420044A936A4D
:102578006FEA03436FEA1343936210BD1D20CBE754
:1025880000ED00E031970008588A000849970008D4
:102598005C9700087697000894970008B997000898
:1025A800D39700082DE9F843804689461746354DEC
:1025B8003549364804F0ECFEAB6ADE0627D511240F
:1025C8003349324804F0E4FEAB6A1D0704D51224EF
:1025D80030492E4804F0DCFE2A4DAB6A980718D51E
:1025E8002D492A4804F0D4FE6E6BAB6A190646D50D
:1025F8002A4A33460121254804F0FEFDB9F1000FAF
:1026080003D0AB6A23F08003AB62132403E01024E9
:10261800DAE76FF015061B4DAB6ADA0704D5142408
:102628001F491A4804F0B4FEAB6A9B0604D515246A
:102638001C49164804F0ACFE124B9A6AD50602D41F
:102648009A6A90070AD55B68190507D5414630464E
:1026580000F0ECF910B180F309880224094B9A6A5A
:10266800920603D55A6A22F400525A629A6A2046A0
:1026780042F0FF029A6200233B70BDE8F8836FF0D6
:102688001506C2E700ED00E0FE970008588A00082A
:10269800149800088E960008479800085F9800086C
:1026A80075980008029700082DE9F041634B9CB02B
:1026B80005460026D3F8048000AFC8F3080486F363
:1026C8001188BFF36F8F02F07F43B3F17F4F07D1BB
:1026D80002F00C03082B12D159495A4804F058FE4D
:1026E800002635460023FB71E31E092B00F2848087
:1026F800DFE803F00A7A7D76828282828280100780
:102708004CBF0D460126EDE74F494E4804F040FE08
:102718004A4C0023FB71E36A9A0705D54B4949489F
:1027280004F036FE002432E0E36A002B01DA48495F
:10273800F5E7E36A5B00F5D54649424804F028FE10
:102748006369AA6943F480736361BFF34F8FBFF372
:102758006F8F636932F8022C23F480736361BFF3CF
:102768004F8FBFF36F8F4DF602739A4208D0A36A5A
:10277800DBB243B3FA1D01212846FFF713FF31E00E
:102788002B68354A01212F4804F036FD2C68FB7967
:10279800ABB96822294607F1080005F007FC7B6AF7
:1027A800002E45D0C3F3080222B96FEA53236FEA1B
:1027B80043237B6207F108012046FFF783FD70374A
:1027C800BD46BDE8F081A36A13F47F4F04D0F91D1C
:1027D8000120FFF72BFE05E0A36AB3F5803FA1D3E4
:1027E800FFF78CFE0446D2E7FA1D0021C4E7F91D65
:1027F8000020EEE7194992E718F4F87F184AE846EE
:102808008AB0184B18BF13466A461749103CC2E9EC
:1028180005134FF40073D4611384144B42F8103F2E
:1028280000234FF411510748FFF748FAC54679E7E6
:1028380023F4FF7323F00103BBE700BF00ED00E0C2
:10284800C2980008588A0008ED9800080499000802
:102858002599000833990008529900086E990008D4
:10286800A9980008949800089299000804000001AB
:10287800044B5A6942F010025A615A6922F0080260
:102888005A61704700ED00E0EFF30880EFF309812B
:1028980001B57246FFF708FF01BD00BF0A4880F383
:1028A8000888102080F3118808484FF40861401800
:1028B80080F30988EFF314800221084380F3148819
:1028C800BFF36F8F00F048F8001D0120800E012033
:1028D8001EF0040F0CBFEFF30880EFF30980816945
:1028E80011F8021C0229FFD001B5724604F045FD1B
:1028F80001BD00BF40B2002807DB0123410900F0F9
:102908001F00024A834042F82130704700E100E08E
:1029180040B2013100284FEA0111C9B206DB00F1CB
:10292800604000F5614080F80013704700F00F0028
:10293800014B1954704700BF14ED00E0044B054AE1
:1029480023F07F039360BFF34F8FBFF36F8F704700
:102958000000000800ED00E008B5FFF7EFFF104B9E
:10296800D3F8882022F47002C3F88820D3F888208E
:1029780042F4A002C3F888204FF04042C3F8342242
:10298800BFF34F8FBFF36F8F0023E1EE103AFFF7CD
:102998005BFCFFF76FFC00F029F902F039F800BF83
:1029A80000ED00E04FF47D41203AC0F8BC10136000
:1029B800009B08495360019B21F001019360029B31
:1029C8009161D3604FF08073D36100230265436740
:1029D800704700BFD9160008838913F0020F124B05
:1029E80003D190F8BD20D20611D45A6B42F0804230
:1029F8005A63D0F8BC3019075CBF43F00803C0F82D
:102A0800BC30838943F002038381802070475A6B6E
:102A180022F080425A63D0F8BC301A0744BF23F032
:102A28000803C0F8BC30F0E700EF00E0094A0346AD
:102A3800906870B113F1160F006E05D0A0F18002F6
:102A4800934205D3834203D2814228BF00207047B6
:102A580000207047800A0120104B9B6883421AD1DE
:102A6800EFF30580B8B9EFF31181102282F31288D1
:102A7800BFF36F8F9A8922F002029A81EFF31483D1
:102A880023F0040383F31488BFF36F8F81F3118855
:102A9800BFF36F8F70476FF015007047800A0120F1
:102AA80015460E46002208B5E1EE102AEFF314820F
:102AB80022F0040282F31488BFF36F8FBFF36F8F85
:102AC8000B4A0C4B9060026F1A6000F0BFF82C465E
:102AD80086F309880020044B9847204600210022ED
:102AE8000023024C20470000AD730008D9160008E7
:102AF800800A012030090120014B10221A61704719
:102B080000ED00E0054B9A699B689A4204D0044A9C
:102B1800536843F080535360704700BF800A012018
:102B280000ED00E0084B9B6883420BD1EFF305836F
:102B380043B1064B5A6842F080525A605A6A22F4EE
:102B480000425A6202F088BA800A012000ED00E0D3
:102B580023498A6882F8BDE04FF030001044EFF353
:102B6800098C80E8F01F1EF0100F03D102F17C00E1
:102B780080EC108A102080F31288BFF36F8F194FF2
:102B88004FF000668A698A603E60106F164C2060BC
:102B980092F9BDE0506F0023536780F311881EF04F
:102BA800100F03D00023E1EE103A03E002F17C009D
:102BB80090EC108AEFF3148323F0040383F3148852
:102BC800BFF36F8F04B5104600F040F8BDE804402D
:102BD80002F1300090E8F01F8CF30988704700007C
:102BE800800A012004ED00E0300901200023044898
:102BF8001021C2180133622B82F80013F9D17047F3
:102C080000E100E008B5EFF30583064A103B02EB4C
:102C1800C30152F8330049688847BDE80840FFF708
:102C280071BF00BF5886000801480068704700005F
:102C380030090120024B0121024A034800F090B8F4
:102C48000000052000000120248F000810B504466C
:102C5800FFF7C2FE03460648226E0121D21AC0E9D8
:102C68000023044B8360BDE8104000F083B800BF28
:102C78003409012000000B1508B503461048D0F8A8
:102C88009020C2F30722013A934207D90D48012147
:102C98000D4A04F0B1FA6FF0150008BDC0F898307D
:102CA8000A6822F01F021A4342F01002C0F89C2062
:102CB8008A6842F00102C0F8A0201846EDE700BF7C
:102CC80000ED00E0508A0008A9990008F0B50E460A
:102CD80085B01F4604460025B5420DDA606810B37A
:102CE80097B1431E18420AD0104A2B4601211048BA
:102CF80004F082FA6FF01502104605B0F0BD7F2887
:102D0800F2D921680B42EFD1236801A9019304F09D
:102D18005DFBA3680343D0B20393FFF7ADFF10F147
:102D2800160FE7D0421C01350C34D5E7CF990008BF
:102D3800508A0008044B0522C3F89420BFF34F8F34
:102D4800BFF36F8F704700BF00ED00E0BFF35F8FE8
:102D5800024B0022C3F89420704700BF00ED00E04A
:102D680010B5034C01232278FFF7B0FF207010BD87
:102D7800C50A01200B4A08B500231278FFF7A6FF01
:102D880010F1160F07D0084A0021D2F89030C3F38B
:102D98000723984200DB08BDC2F898000130C2F84A
:102DA800A010F2E7C50A012000ED00E05F48604985
:102DB8002DE9F043D0F8903085B00D68C3F30723B0
:102DC8009D4200F2B080FFF7C1FF4968002295429A
:102DD80001F10C011BD1574C6846574F2570FFF77E
:102DE8002DFA00250646DFF85481DFF85491AE42EB
:102DF80020D1237800204D49D1F89020C2F3072232
:102E08009342C0F28A800020FFF794FF4FE0C0F899
:102E1800982051F80C3C23F01F031343013243F070
:102E28001003C0F89C3051F8043C43F00103C0F88B
:102E3800A030CCE700984FEA051C00EB0511CB68E1
:102E48003B40B3F5000F49D00AD8B3F5001F31D085
:102E5800B3F5800F37D0B3F5801F13D00135C6E71F
:102E6800B3F1007F43D0B3F1805F49D0B3F1807FE5
:102E7800F4D150F80C30886804F0A8FA4A6840F099
:102E8800887009E050F80C30886804F09FFA40F028
:102E980088504A6840F43020039001A92078CDE991
:102EA8000123FFF7E9FE002833DA6FF0150005B0BB
:102EB800BDE8F08350F80C30886804F087FA4A6857
:102EC80040EA0900E8E750F80C30886804F07EFA18
:102ED80040F0C0604A6840F40030DDE750F80C303C
:102EE800886804F073FA4A6840F08270D4E750F8B2
:102EF8000C30886804F06AFA4A6840F48020CBE70E
:102F080050F80C30886804F061FA4A6840EA080012
:102F1800C2E7237801332370A0E7C1F89830013362
:102F2800C1F8A00068E74FF0FF30C0E700ED00E00F
:102F3800308F0008C50A01200000F0FF00000211D0
:102F480000000811F0B587B007460E461446002168
:102F5800102268461D4605F037F802232A46214606
:102F68008DF802306846044BCDE90476019302F0EF
:102F78005DFC07B0F0BD00BFF573000808B5024B53
:102F88001B689847002008BD40090120034B044AEC
:102F98001860937843F0020393707047400901204A
:102FA800100001200649074821F00701C1F100522D
:102FB80008B502F5A02203F0CCFC002008BD00BF34
:102FC800871D01204409012007B5094A6B4692E88C
:102FD800030083E8030007488268126822B1194693
:102FE800904703B05DF804FB6FF05700F9E700BFA6
:102FF800988A00084484000800F01F0201211F2855
:1030080001FA02F208B5034605D90648064A04F053
:10301800F3F8002008BD054B5B699A430CBF0120FB
:103028000020F7E7108A0008049A0008003C0140D5
:1030380000F01F0201211F2801FA02F208B5034619
:1030480006D90548054A04F0D7F86FF0150008BD01
:10305800034B00205A61FAE7108A0008049A000816
:10306800003C0140044B18440023013300F8012BB5
:103078009942FADC704700BF480001202DE9F04171
:10308800054600260F4F4FF00108F4B26B78A342B3
:1030980001D8BDE8F0812B781C442046FFF7ACFF2F
:1030A80068B12046FFF7C4FF57F834303BB107EB4F
:1030B800C40204F01F04516808FA04F09847013666
:1030C800E3E700BF50090120034660B1B0FA80F27F
:1030D800C2F11F02D2B205498856054A11680B434E
:1030E8001360FFF707BCFF22F5E700BF4800012087
:1030F800003C0140024A136823EA0003136070474A
:10310800003C0140032921D8DFE801F0020C101926
:103118000F4B9A6822EA00029A60DA6822EA0002F3
:10312800DA6070470A4B9A680243F5E7084BDA6899
:103138000243DA609A6822EA00029A607047044BF8
:103148009A6802439A60DA681043D860704700BFF3
:10315800003C014030B5B0B1B0FA80F3C3F11F03B1
:10316800DBB20B4850F833408C4204D100EBC30566
:103178006D68954205D044B940F8331000EBC300A0
:103188004260002030BDFF23EBE76FF00F00F9E746
:103198005009012060B1B0FA80F3C3F11F03DBB21C
:1031A800044A002142F8331002EBC3025160704711
:1031B800FF23F5E75009012000F003020F23043232
:1031C80092009340074A43EA9000C3B2023352F890
:1031D8002320030C93FAA3F302EA1040B3FA83F313
:1031E800D84070470038014038B5364B14460D4674
:1031F80018680B888208C3F30B03142B1AD803B37F
:10320800013B132B1DD8DFE803F00C130A135127D9
:10321800311C1C1C1C1C1C1C1C3D4725530C4FF44A
:10322800FA4020602B68B3F5805F43D2002038BD98
:103238000020F6E7382BF4D006D823F00403302B0F
:10324800EFD06FF08500F2E7442B0DD0A82BE8D023
:10325800402BF6D11046E4E700F0F0F81923B0FB54
:10326800F3F04FF4D87358434008DAE700F0E6F873
:103278001923B0FBF3F04FF4D87358430923B0FB7C
:10328800F3F0CEE700F00EF91923B0FBF3F04FF49A
:10329800C07358430523F2E700F004F91923B0FB83
:1032A800F3F04FF4C07358432823E8E70648B8E71B
:1032B8005000B6E7C3F313330133B0FBF3F02060DB
:1032C800B4E700BF3800012040787D01142808D8F1
:1032D800054BC34013F0010F14BF00206FF08500A9
:1032E80070476FF085007047EA001F0070B54E4DBB
:1032F80000F0FEF84D4C284604F063F901F0B8F9E7
:10330800A3684B4AC3F30313D35C20FA03F613787C
:103318001D41AE4202D2284601F0D8F9236823F4B1
:1033280080232360236843F4803323603F4B1A686B
:103338009103FCD55A6F42F001025A675A6F9207FF
:10334800FCD59A6802F00C02082A17D11A6894076B
:1033580007D41A6842F001021A60344A13689807C1
:10336800FCD5324B9A6822F003029A609A6812F0F0
:103378000C0FFBD19A6822F0F0029A602B4C23685C
:1033880023F08073236023689901FCD4294AD2F87A
:10339800043823F44033C2F80438D2F8043823F050
:1033A800706343F01063C2F8043800F04BF82368E8
:1033B80043F0807323601D4C23689A01FCD500F00C
:1033C80075F8236843F08053236023689B00FCD57D
:1033D800A36823F0F003A360A36823F0030343F07A
:1033E8000203A360114CA36803F00C03082BFAD165
:1033F800AE4202D3284601F069F90F4B00200A4A71
:103408001A60A36823F4E05343F4A053A360A368AD
:1034180023F4604343F40043A360D4F88C3023F0D2
:103428008073C4F88C3070BD00E6DF0C00380240B1
:10343800CF9E000800300240380001200048704745
:1034480040787D01114B12495A681140114A0A43CC
:1034580011495A605A681140104A0A435A601A685A
:1034680042F080721A60A3F5E4331A6842F480329D
:103478001A605A68D203FCD51A6842F400321A60FE
:10348800074A53689B03FCD5704700BF00380240C9
:103498000080BCFF196C40000080BFF0196C400927
:1034A800007000400048704740787D010E4A53681C
:1034B80023F4800323F03F0343F4800343F019030C
:1034C80053600A4BD2F888100B4043F0A04343F4F2
:1034D800C043C2F88830D2F88C3023F4403343F428
:1034E8000033C2F88C307047003802403F80FF8FAD
:1034F800064B82B01A6C42F080521A641B6C03F0BF
:1035080080530193019B02B0704700BF003802400E
:1035180008B5074804F0D0FB38B10648FFF736FD78
:103528000448FEF7CFF8002008BD6FF01200FBE753
:10353800E8850008413500080A2838B50446074DD3
:1035480004D1AB680D2128465B689847AB68E1B2A7
:1035580002485B689847204638BD00BFE8850008E8
:103568002DE9F843D0F80490904607460D46D9F85F
:1035780008001E4603F08EFFB8F5001F044616D15A
:10358800D9F808402846FFF717FE84420CD129468F
:1035980003F080FF0446FFF7ADFD2046FFF7FAFD74
:1035A80000212046FFF7AEFD0020BDE8F883B8F5FE
:1035B800800F20D0B6F1806F19D0B6F1C06F18D047
:1035C800B6F1007F1AD102263A460F492046FFF786
:1035D800C1FDB0B9D9F80810284603F060FF2046AD
:1035E8003146FFF78FFD2046FFF76EFDDCE7012629
:1035F800EAE70326E8E76FF08500D6E76FF01500E5
:10360800D3E76FF00F00D0E75177000808B5044AF8
:103618000121044803F0E7FD6FF0040008BD00BF76
:10362800639A0008308A000898B5426800AF0369B9
:10363800D26883F8521029B9136823F44013136031
:10364800BD4698BD6C468AB003686A460848D16191
:10365800C2E905034FF400731384064B42F8103F88
:1036680000234FF411510448FEF728FBA546E7E76D
:10367800819A000804000001308A0008F7B5044662
:10368800436806690F461C480022DD68596883684C
:103698000192DB684BB96FF00404184A01211848FD
:1036A80003F0A1FD204603B0F0BD01AA9847002809
:1036B800F1DB376206F110074FF0FF324FF0FF33AE
:1036C800384601F03DFA2B68204623F001032B60B1
:1036D80096F85210FFF7A8FF2046019900F0A0F8CD
:1036E80096F8513004461BB12B6843F001032B6058
:1036F800384601F0F1F9D5E744840008959A0008A6
:10370800308A000870B50446466805694FF0FF32F4
:103718000021284604F0EEFA336820469847002333
:1037280085F8503085F85230012205F11000114615
:1037380004F0E0FA204600F03FF83169184B99424E
:1037480022D015D8174B994220D0174BCB1A594283
:1037580059418900204641F01001FFF78FFF041EF0
:1037680018DA124A0121124803F03DFD204670BDC7
:10377800104B99420CD003F5C31303F5206399420B
:103788000CBF0A210021E5E70621E3E70221E1E772
:103798000821DFE70123002485F85030E6E700BF61
:1037A80040420F00A0860100801A0600C39A000854
:1037B800308A000840E1330037B5456801AA002186
:1037C800686904F0E2F8041E07DB019B00221979FE
:1037D800186804F0EDF8041E08DA0D4A23460121A2
:1037E8000C4803F009FD204603B030BD0A4869685B
:1037F80083681B683BB9094A012106486FF0040435
:1038080003F0F1FCEFE7984704460028EBD0F2E715
:10381800019B0008208A0008448400081F9B0008B8
:103828002DE9F04F85B04FF00C08DFF8609100AF3C
:10383800446803690020E5687B60DFF854A1E36908
:10384800DFF850B1BB60BB6883427B681B6AFB60D2
:103858000DD1C3F34202012A3CD0022A7AD0444A4D
:103868004448012103F0BFFC6FF015001EE008FB7F
:1038780000FCD4F818E0404A0EEB0C06736893423B
:1038880020D017D853451FD0A3EB0B025342534106
:103898009B00FA68C2F34202B2EB530F18D15EF8EC
:1038A8000C308B4214D1B3682B6100201437BD460D
:1038B800BDE8F08F314A934208D04B450CBF0A232C
:1038C8000023E6E70623E4E70223E2E70823E0E72C
:1038D8000130B8E741F25C294FF47A6840F2E24ED1
:1038E8004FF4FA7C0220DFF8B0A0421EB1FBF2F2DE
:1038F800BAFBF2F2B8FBF2F6013EFF2E33D8B9FB61
:10390800F2F3013BFF2B2ED8BCFBF2F40F2C2AD884
:10391800BEFBF2F2013A0F2A25D843EA04440238E2
:1039280044EA007444EA025444EA06246E4688B025
:103938006A46134B5361134BC2E90634042342F819
:10394800103F00234FF404510A48FEF7B7F9B54673
:103958002C61AAE740F214594FF416784FF4FA7E16
:1039680040F2771CBEE701301128BED1064A77E73E
:103978004F9B0008288A000840420F0040E13300AE
:10398800CA9B0008459C0008E09B0008404B4C007F
:10399800A0860100801A060000CA9A3B2DE9F04172
:1039A80084B000AF3D1DBC8DD7F828C085E80E0057
:1039B80043680269D968BB68556493647B68D364BB
:1039C8000023C2E90D33D36301238B610B6843F0F5
:1039D80001030B604B68156A23F07F738E69ED074E
:1039E8003D7B23F4423348BF44F4006423F47F73DF
:1039F80023F003034CBF234343EA440315F00204B6
:103A080053D1BCF1000F52D09CF800C01CF0040F39
:103A180002D143F08073012482F84040BC68FF2C37
:103A28008ABF43F0FF7343EA044343F48033360606
:103A380010D4EC073DD4946C44B1D46C24788C62D7
:103A4800946C013C9464D46C0134D46423F4806392
:103A580043F400534B600B6843F0F6030B6097F890
:103A68000C800469456841F288320023204601F041
:103A780067F80646D4E90D3272BB73BBE0B1E36B5D
:103A8800002B52D06C4688B06A463249516132499F
:103A9800C2E90613042342F8103F00234FF40451EF
:103AA8002E48FEF70BF9A5463EE00024B4E764462D
:103AB800B2E743F48063CBE794F851303BB918F090
:103AC800020F04D0EA68136823F00103136030463C
:103AD8001037BD46BDE8F08193B1E84688B06A4624
:103AE8001F4B53611C4B9361032342F8103F002383
:103AF8004FF4C8511948FEF7E1F8A36BC54683B1E6
:103B0800E84688B06A46174B5361134B9361032309
:103B180042F8103F00234FF4C8511048FEF7CEF882
:103B2800C546E36B002BADD186B16C4688B06A46BA
:103B38000D4B5361084B9361032342F8103F002358
:103B48004FF4C8510548FEF7B9F8A5466FF00406CA
:103B5800B8E700BF159C00082C9C0008288A0008BC
:103B6800039C00080C9C0008209C000870B5094DB7
:103B78000446CE17B423A1FB05015A43002305FBD5
:103B88000611FCF7EBFE044A0023FCF7E7FEC4E944
:103B9800000270BD705EDF0140420F0030B543681F
:103BA80089B0046999880DF10F0218683B238DF8D4
:103BB8000F300E23009304AB03F078FF051E06DADE
:103BC8001249134803F06EFF284609B030BDBDF80E
:103BD800103000255BBA2380BDF812305BBA6380D1
:103BE800BDF814305BBAA380BDF816305BBA2381E8
:103BF800BDF818305BBA6381BDF81A305BBAA3818F
:103C0800BDF81C305BBAE381DEE700BF819C000889
:103C1800008A0008F8B515460469072900F2AC8047
:103C2800DFE801F0618285049DA2A688544EB4F9AC
:103C38000000E188C317A0FB060CC1F1200206FBB7
:103C480003CCC840B1F120030CFA02F24CFA01F19E
:103C580058BF4CFA03F340EA02004A4A58BF1843D7
:103C68000023FCF77BFEC5E90002B4F90200E188F5
:103C7800C317A0FB060CC1F1200206FB03CCC84009
:103C8800B1F120030CFA02F24CFA01F158BF4CFAD8
:103C980003F340EA02003B4A58BF18430023FCF7ED
:103CA8005DFEC5E90202B4F90400E188C317A0FB70
:103CB8000607C1F1200206FB0377C840B1F12003D3
:103CC80007FA02F247FA01F158BF47FA03F340EA4C
:103CD80002002C4A58BF18430023FCF73FFEC5E9F1
:103CE80004020020F8BDB4F90000254BC217E18892
:103CF800A0FB030603FB0266C1F12002B1F1200319
:103D080020FA01F006FA02F246FA01F158BF46FA23
:103D180003F340EA02001B4A58BF18430023FCF78C
:103D28001DFEC5E90002DCE7B4F90200DDE7B4F9DD
:103D38000400DAE7228A2846B4F90A10FFF716FFCA
:103D4800228AB4F90C1005F10800FFF70FFF228A48
:103D5800B4F90E1005F11000FFF708FFC1E7228A39
:103D6800B4F90A102846F7E7228AB4F90C10F9E7E3
:103D7800228AB4F90E10F5E76FF08500B2E700BFAC
:103D88003AA3950040420F002DE9F04F89B04568ED
:103D9800066902AF286803F08FFF0346D0B92A6886
:103DA8006C4688B0116802AA5E48C2E905014FF462
:103DB800007191835C4942F8101F4FF4E2515B484F
:103DC800FDF77CFFA5466FF0120420461C37BD4660
:103DD800BDE8F08F75234FF00109286807F10C0240
:103DE800A9883B73BB1DCDF8009003F05FFE041E4D
:103DF80004DA4F494D4803F055FEE6E7BB79702BCE
:103E080006D04C496FF08504484803F04BFEDCE7C8
:103E1800D5F800804FF06B0A95F804B0FB1D87F8C1
:103E28000CA007F10C0259464046CDF8009003F06B
:103E38003DFE0446D8B9FB795A061CD523F0400349
:103E480087F808A07B7207F10803FB6002233B6137
:103E58003B753B7D07F10C01D8F80820404643F03C
:103E680002033B755B4694684A46A0470446002C0B
:103E780001DA3149BEE7EB7A032B07D92F4A012132
:103E88002A486FF0150403F0B7F99EE7DB001C2100
:103E9800284603F0F80203F025FE041E01DA28493B
:103EA800A8E7EB7AC3F10E03F380AB7A032B01D9B1
:103EB800244AE4E7DB001B21284603F0F80203F05C
:103EC80011FE041E01DA204994E76B7A072B01D909
:103ED8001E4AD4E71A461A21284603F003FE041E98
:103EE80001DA1B4986E72B7B072B01D9194AC6E75C
:103EF8001A461D21284603F0F5FD041E01DA16496D
:103F080078E72A7A1921284603F0ECFD041E01DA25
:103F180012496FE7AA7A0024114B33F81230338222
:103F280053E700BF9D9C000803000001008A0008B9
:103F3800B29C0008CA9C0008DB9C0008F39C00089F
:103F48000B9D0008339D00084A9D0008719D0008DC
:103F58008A9D0008B59D0008CF9D0008FB9D0008BC
:103F6800709100082DE9F04182B080460D46436803
:103F780000AF1E68002936D0586819698368DB6865
:103F88006BB13A1D9847041E0CDA1A4A01211A48E7
:103F980003F029F920460837BD46BDE8F0816FF0E7
:103FA8005704F2E7336823F4004333607B6803EB7C
:103FB8005503B3FBF5F30F2B18D86C468AB0D8F825
:103FC80000306A460D49D561C2E905134FF4007304
:103FD80013840B4B42F8103F00234FF4115106484D
:103FE800FDF76CFEA5466FF01504D3E79BB20024DD
:103FF800F360CFE7959A0008808A0008309E000891
:1040080004000001F8B50C46036941681D6823796E
:10401800012B15D09F1E7E427E41B6026279022A8C
:1040280096BF464F4FF4005737F81270A279022A0C
:1040380009D0042A30D0003B18BF01231B0306E037
:104048004FF4C066EAE7B3FA83F35B091B07E2792A
:104058000968012A14BF4FF0000C4FF4407CA542B8
:104068001DD10A6822F0805222F4B05232431A431A
:104078000A604B6823F440533B434B6043681A681B
:10408800936823F4407343EA0C0393602968FFF7AD
:1040980069FF00EAE070F8BD4FF48053D7E7D1F824
:1040A80000E00EF4C06E764506D0D1F800E02EF49C
:1040B800C06E4EEA06060E6041680E68716801F42B
:1040C80040518F4204D0716821F4405139437160E6
:1040D80041680E68316801F010218B4204D03168C4
:1040E80021F010210B433360436819688B6803F48F
:1040F80040739C4505D08B6823F4407343EA0C0356
:104108008B6043681B689968490405D5032A09D060
:104118009A6822F4804204E0032A03D19A6842F4A0
:1041280080429A6021682B68994205D0FFF71AFFF0
:104138000028B0DB23682B600020ACE778910008EA
:104148002DE9F04182B00646456800AF68682969E4
:1041580083681B685BB96FF05704604A01216048A7
:1041680003F041F820460837BD46BDE8F08198477E
:10417800044618BB3A1D0021686A03F006FC041EB9
:10418800F0DB7B6800221979186803F011FC041E23
:10419800E8DB756833692C68D3F80080236823F05E
:1041A80001032360A86803F087FD78B94D4A01210F
:1041B8004B486FF0120403F016F8D3E7474A012181
:1041C800474803F010F8002CCCDBD3E7D5E902010F
:1041D8008368DB6803B1984754E8003F43F00C0359
:1041E80044E80032002AF7D141463046FFF70AFF7B
:1041F80000284DDB2B7E1BB1A36843F00803A360A6
:104208006B7E1BB1636843F400436360AB7E1BB1F4
:10421800636843F480336360EB7E1BB1636843F4E7
:10422800003363602B7F002B4FD02F4B9C4232D042
:10423800A3F54C439C422ED003F580639C422AD0C0
:1042480003F580639C4226D003F580639C4222D00C
:1042580003F544439C421ED0A3F51C439C421AD04C
:1042680003F580639C4216D06C4688B033686A4672
:104278001E49C2E905134FF4007393831C4B42F89F
:10428800103F00234FF4E2511548FDF717FDA546EE
:104298006FF0150466E773681A68936843F48043FF
:1042A800936023686A7F23F0787343EA425323605C
:1042B8002368AA7F23F4F81343EA02432360EB7FC1
:1042C8001BB1A36843F40043A360236843F00103D0
:1042D8002360E3699B02FCD5002443E7479E00085E
:1042E800808A0008679E000800100140829E00082E
:1042F80003000001F8B5436802460E4691F805E050
:104308001C68036908791D6801288B7913D1BEF1EF
:10431800020F69D9022B1F464FF4C0614FF4005CAD
:104328007AD0042B73D000287BD0C31E012B70D801
:104338006FF08500F8BD02280AD1BEF1020F5FD9DF
:10434800022B1F464FF480610BD04FF4005CE8E766
:10435800BEF1020F57D9022B1F4656D100286BD049
:104368000021C31E012BE3D9002002270323734534
:10437800DED103F0D2FBB842DAD1F37903B3012BD3
:1043880062D1334B9C421BD0A3F54C439C4217D0BF
:1043980003F580639C4213D003F580639C420FD0E1
:1043A80003F580639C420BD003F544439C4207D03D
:1043B800A3F51C439C4203D003F580639C42B7D10C
:1043C80023683146104623F001032360FFF71AFEE5
:1043D8000028ADDB236843F00103236096E803005F
:1043E80085E803000020A5E74FF4C061194F022BB0
:1043F80037F81EC01F4694D170B94FF0805010E0B6
:104408004FF48061F2E70021F0E700219DE70028E2
:104418008ED14FF4805004E0C31E012B88D90227A7
:104428000020BCF5805F0BD0BCF5405F0AD0BCF122
:10443800000F9BD101239AE701464FF0805095E782
:10444800002394E7022392E7032B9AD070E700BF7A
:1044580000100140789100084FF0E0230F4910B593
:104468009C691A6908689B6902F480320C4934B95E
:1044780093B903464AB90A681044C01A10BD002B04
:1044880008BF03460AB9A342F5D90A6802440A607C
:104498004FF0E0221269EEE70446F3E77C0A0120B8
:1044A800780A0120094B1022002083F8232045F2C6
:1044B8006042074B1A6045F25F42064B18604FF0A6
:1044C800E0235A61072298611A61704700ED00E005
:1044D8007C0A0120780A0120684620F007018D46F1
:1044E80019B5FFF7B9FF1149114B0868D3E9004224
:1044F800001942F10002C3E900020E4A00230B60D2
:1045080045F26043D2E90041001BB0FBF3F043439E
:104518001B1941F10001C2E9003100F07DFFFEF7EF
:10452800F1FABDE819408546704700BF780A0120B6
:10453800D8050120D00501202DE9F041DFF8F080F1
:1045480099B1421C0BD14FF0E022136923F001030B
:1045580013614FF07F43C8F80030BDE8F081D8F808
:104568000060012807DC00270BE0431CD8F8006036
:10457800F7D140F20730B0F5427FA8BF4FF4427040
:10458800471EEFF31185102383F31288BFF36F8F53
:10459800FFF762FF224C4FF0E0239969D4E900232A
:1045A80080184FF0000243F10003C4E900031D4BDB
:1045B8001A601D4B1A68831A2ED445F2604C0CFB06
:1045C800073303F5A8435F33B3FBFCF7131A40F234
:1045D80046520CFB0733934238BF1346134A9342A3
:1045E80028BF1346C8F800304FF0E022013B90691D
:1045F8005361002381429361A1EB0003D4E90012C7
:1046080038BF9B195B1842F10002C4E9003285F3F8
:104618001188BFF36F8FA0E740F24653E2E700BF6F
:10462800D8050120780A0120D0050120A06EFF00DE
:104638007C0A012038B5EFF31185102383F3128823
:10464800BFF36F8F084B1C68084B1B68E41AFFF711
:1046580003FF85F31188BFF36F8F45F26043204451
:10466800B0FBF3F038BD00BFD8050120D00501200C
:10467800134908B58B6803F00C03042B1BD0082BD7
:104688001BD14A684B68496802F03F0213F4800363
:10469800C1F388111ABF0B4800230B48A1FB000186
:1046A800FCF7ACF9064B5B68C3F3014301335B00CD
:1046B800B0FBF3F008BD0348FCE70348FAE700BF86
:1046C8000038024040787D010024F40000285DD0C5
:1046D8002F4B1A681B6802F44042B2F5404F33D1A1
:1046E80013F4803310D102F10F6202F58C5290421C
:1046F80048D8284A904247D8274A904235D8274A6E
:10470800904209D902230DE0254B984238D8234B13
:1047180098424FF0060305D8224A904202D9012B4D
:1047280038BF012320490A6822F00F021A430A60A1
:104738000A6802F00F02934202D00A6802F00F02E0
:10474800981A18BF0120704703F44043B3F5004F8F
:1047580005D103F10F6303F5A343984212D80D4B1B
:10476800984211D80C4B984201D90323DAE70B4B36
:104778009842C7D80B4B984294BF00230123D1E736
:104788000723CFE70523CDE70423CBE701207047B4
:1047980000700040000E2707804A5D0500879303DC
:1047A8008058840C80C3C901003C024010B50446FF
:1047B800FDF7B4F903480121034A02F014FD20462D
:1047C80003F085FA588A0008DF9E00082DE9F843AF
:1047D800044600AF0D46EFF31188102383F31288C7
:1047E800BFF36F8F0428294AE9468AB098BF284B3F
:1047F8009668117C6A4694BF53F82030254BC2E96D
:10480800073140F2013324489384244BC2E905045C
:1048180042F8103F00234FF431512148FDF74EFA7A
:10482800CD4645B1EB69C3F3080323B11D4A012105
:104838001B4802F0D8FC2EB1304603F070FA08B1DC
:10484800037803B91848E9468AB06A46174BD0611D
:10485800C2E9053640F201331384154B42F8103F84
:1048680000234FF411510E48FDF728FA2946204637
:10487800CD46FFF79BFF88F31188BFF36F8F304653
:10488800FEF750F9BD46BDE8F88300BF800A012055
:1048980098900008EE9E0008049F0008050000019B
:1048A800588A00082C9F0008FC9E00084D9F0008AD
:1048B8000400000138B50A4B53F82040013053F882
:1048C8002050A54200D838BD606830B1037EDB07B0
:1048D80001D403F0D9F90834F3E723689847FAE7D5
:1048E800AC9000082A4B0122032070B5294C86B0F1
:1048F800294D1A70FFF7DEFF00F0BAFE0420FFF71B
:10490800D9FF26463034AE4210D3224C00F0D8FAF4
:10491800224EAC4226D300F0E7FAFCF7E1F9204A30
:10492800938923F00103938106B070BD54F80C3CC1
:10493800059354F8103C049354F8143C039354F82A
:10494800183C029354F81C3C019354F8203C009303
:1049580054E90A2354E90C0100F018F954F8303CE2
:104968005E65CEE7D4E90A23B3F1FF3F08BFB2F191
:10497800FF3F05D052EA0301206803D103F089FA0A
:104988003034C6E73146183000F0B6FCF8E700BF0F
:10499800C60A01206889000868890008077E00089F
:1049A800A006012070B5C023144E86B0012203FB77
:1049B80000660023124D044601931249CDE90423F1
:1049C8000F2201EB4021CDE9023218234FF4C072C7
:1049D80003FB00550C4B3046009500F0D7F8337CAC
:1049E8000A4A23F00403EE602C7433744FF408630E
:1049F80004FB033313446B6006B070BDE00501206F
:104A0800800A012000170120E77C0008800E0120A1
:104A1800BFB50020FFF74EFF274B83F30888274DCB
:104A28000024F023264F85F82230EC772C766C761C
:104A3800AC7685F820406B6A43F4E0236B62FDF79F
:104A480017FFFEF759F84FF0FF33AB62EB62FEF742
:104A5800ADF91C4DFEF7EEF8FCF7C2FF1A4800F05E
:104A68000FF9FCF77BFE0120FFF724FF0220FFF778
:104A780021FF00F063FA154B15494FF480629D61E0
:104A88002846144B009405930123CDE90144CDE950
:104A980003433B4600F07AF82A7C0646284622F073
:104AA80004022A7403F077F92046FFF77BFF3A46A1
:104AB80031462846FDF7F4FF0017012000ED00E01D
:104AC800ED480008A006012060070120800A0120A7
:104AD80000190120E793000870B5EFF31186102341
:104AE80083F31288BFF36F8F0468A0421AD0CCB149
:104AF800002504F11800D4E9003213605A60237CC1
:104B0800A56023F00203C4E90055237403F0F8F903
:104B18002046A56703F03FF931460848BDE87040D4
:104B280003F093B9D0E902329A4218BF0133836087
:104B380086F31188BFF36F8F70BD00BFC70A0120CD
:104B480013B5EFF31181102484F31288BFF36F8F2C
:104B5800846844B1013C846081F31188BFF36F8F8E
:104B6800002002B010BD52EA030406D181F3118877
:104B7800BFF36F8F6FF00F00F3E7CDE90023024614
:104B8800014800F067F9ECE7C70A012007322DE970
:104B9800F04322F0070285B00E461F46109900F137
:104BA8005803FF3204468181042122F07F0206F176
:104BB800800901747F2AA2F18008C0E916334FF0FA
:104BC800000383600F98E373A073C4E9063305D824
:104BD80083F31188BFF36F8F084602DFB5182046AC
:104BE8002946FDF703FC07300E9B314620F00700ED
:104BF800C4E91898A0662D1A029320460D9B2A46F0
:104C080001930C9B00933B46FDF7CCFE00236365A4
:104C1800044B9B6803B1DB6E2846E36605B0BDE82C
:104C2800F08300BF800A0120F0B5002587B0044654
:104C38000595109D04950F9D03950E9D02950D9D5C
:104C480001950C9DDDE912760095FFF79FFFB6F1FF
:104C5800FF3F08BFB7F1FF3F05D056EA070305D16C
:104C6800204603F016F9204607B0F0BD3A46334611
:104C780004F11800014900F03FFBF4E7077E000843
:104C88000123037483810023C0E91833C366014BF1
:104C980098607047800A0120094A6FF00A019368FA
:104CA8009967084958674B6843F080534B60002365
:104CB80083F31188BFF36F8F9368986F704700BFB5
:104CC800800A012000ED00E070B590F91020037C07
:104CD800002A36DBD90634D11B4C63F07F03224609
:104CE8000374216A52F81C3F934207D1C0E900219E
:104CF8000860206211E09942F8D01B68002BF5D0BB
:104D080090F90E5093F90E60B542F4D0AE42F2DD40
:104D18005968C0E9003108605860E569954200D0DB
:104D280005B9E568A3681A7CD20604D1DA897F2A16
:104D380001D9AA6932B1AB4202D0284600F05CFA28
:104D4800A56170BDA361FCE7800A012038B590F920
:104D580010200146037C002A04DA03F07F03037461
:104D680002F0DFFF0D4D2A46AB6852F81C4F944203
:104D780000D004B9EC688B4207D01A7CD20604D163
:104D8800DA897F2A01D9A2692AB1A34202D0204632
:104D980000F032FA2346AB6138BD00BF800A01201B
:104DA800B3F1FF3F08BFB2F1FF3F03D0024918300B
:104DB80000F0A2BA704700BF077E0008034648B952
:104DC800EFF3058232B9064A91699268914201D09F
:104DD800FFF762BF83F31188BFF36F8F704700BF7F
:104DE800800A012038B5194CA168206A0B688142F5
:104DF80014BF1A46002249680B605960A368216AEB
:104E08002AB9134AC3E900210B6023620CE093F925
:104E18000E0092F90E50A84214D0854212DD516856
:104E2800C3E900210B605360E569094B9D4200D03E
:104E380005B9E568A3689D4202D0284600F0DCF970
:104E4800A56138BD9142DCD01268D9E7800A0120FB
:104E58009C0A0120F8B50E4B0C4611460D4A98687D
:104E6800DDE906671060EFF31182102282F31288E1
:104E7800BFF36F8F9D68284602F065FF28463246CB
:104E88003B46FFF78DFF2046BDE8F840FFF704BF1B
:104E9800800A0120A40A0120034648B9EFF30582DD
:104EA80032B9064A91699268914201D0FFF7F4BE7F
:104EB80083F31188BFF36F8F704700BF800A01200A
:104EC800EFF31181102383F31288BFF36F8F054B23
:104ED8009A68D37B013BD37381F31188BFF36F8F3B
:104EE800704700BF800A012070B5EFF311861023C8
:104EF80083F31288BFF36F8F0F4DAB68DA7B0132F3
:104F0800DA732A4652F81C4F944200D004B9EC6870
:104F18001A7CD20604D1DA897F2A01D9A2692AB17A
:104F28009C4202D0204600F067F923463046AB6128
:104F3800BDE87040FFF742BF800A0120024B03F131
:104F48001C02C3E907227047800A012070B5EFF3FD
:104F58001186102383F31288BFF36F8F1B4CA1684F
:104F6800206A0B68814214BF1A46002249680B6008
:104F78005960A368216A2AB9154AC3E900210B6060
:104F880023620CE093F90E0092F90E50A84218D053
:104F9800854216DD5168C3E900210B605360E5695D
:104FA8000B4B9D4200D005B9E568A3689D4202D02D
:104FB800284600F021F93046A561BDE87040FFF7AA
:104FC8006BBE8A42D8D01268D5E700BF800A01209C
:104FD8009C0A0120F8B550EA010306460C4603D1A5
:104FE800FFF7B4FF0020F8BDEFF31187102383F318
:104FF8001288BFF36F8F124D124BA8681860FFF725
:10500800A5FEA868234632460F49183000F074F907
:10501800AA6804463846137C43F004031374FFF768
:105028003BFEAB68D3E90A23B3F1004F08BF002A5F
:10503800D8D102F08DFF201A20EAE070D3E700BF34
:10504800800A0120A40A0120077E0008014B986805
:10505800704700BF800A01202DE9F843044687897C
:10506800EFF31185102383F31288BFF36F8F037C4E
:10507800190705D585F31188BFF36F8FBDE8F8834D
:10508800D90943F008025DD10274A36813B1204620
:1050980002F04FFE04F1180004F1580802F030FF46
:1050A800A66DB04511D04FF0000976B1304602F038
:1050B80040FE06F1180002F023FF3046C6F878904B
:1050C800FFF702FEA66DB045EFD1DFF8C880D8F82B
:1050D80008309C423ED1EFF30589B9F1000918BFA9
:1050E8004FF00109D8F81C60284A964200D00EB942
:1050F800D8F80C60B34202D0304600F07DF8204664
:10510800C8F8186002F04CF9B9F1000F02D0204835
:10511800FFF7B6FDD8F808309C4231D1EFF305838C
:1051280073BBA289D20718D42846FFF7B5FDFB0741
:10513800A4D5002383F31188BFF36F8F0423184687
:1051480002DF9BE703F07F0343F00803037402F0D8
:10515800E8FD9AE74FF00009C4E785F31188BFF32B
:105168006F8F83F31188BFF36F8F0423184602DF14
:10517800EFF31180102383F31288BFF36F8FD4E706
:1051880085F31188BFF36F8FD1E700BF9C0A012018
:1051980060070120800A0120027C034612F01F02EA
:1051A80010D10A4988420DD00949086868B1D989DF
:1051B8007F2909D893F90E20064B1B689A42B8BF7D
:1051C800002070470020704710467047E005012016
:1051D8003C000120A80A0120044B0122C01A044BFC
:1051E800C0105843034B1A54704700BF20080120D1
:1051F800ABAAAAAAC70A01200D4B70B51E7CFFF7FF
:10520800CBFF0C4D044606EB460305EBC3052846C9
:1052180002F076FE084B00229A553CB1621E2846E1
:105228000649D317BDE8704000F066B870BD00BFEE
:10523800800A012020080120C70A0120E151000846
:1052480038B5EFF31185102383F31288BFF36F8FFE
:105258000F4B104A9C681068A04206D1FFF7CCFF9C
:1052680085F31188BFF36F8F38BD00211B7C116057
:10527800094AD35C002BF3D02046FFF78DFF0028A6
:10528800EED0237CDB0601D1FFF7ACFD2046E5E735
:10529800800A0120A40A0120C70A0120024B1868CD
:1052A800984208BF0020704740000120034B1B684C
:1052B8000BB9FFF7BFB90020704700BFAC0A012047
:1052C80030B570B10B4B5B6898420AD0036843B1A4
:1052D800D3E90421D0E90445121941EB0501C3E9DA
:1052E8000421D0E9003213605A600023C0E900337A
:1052F80030BD00BF40000120B3F1FF3F08BFB2F14D
:10530800FF3F2DE9F84F0446994615461F467AD0C7
:105318008160EFF31188102383F31288BFF36F8F36
:10532800B9F1000FDFF8E8A020DBFFF7BFFF013578
:10533800064649F100092D18DAE9002749EBE07320
:105348004FF00109C4E90453AD1843EB0707FFF711
:10535800A5FFDFF8C0E00346DEF804A0EBB9C4E916
:1053680000EACAF80040CEF8044028E0DAE9001262
:105378006FF001035B1A4FF0FF3161EB02025B1B18
:1053880062EB0902012B4FF0000972F10001BCBF6A
:1053980001230022C0E90432D9E7D3E9041CD4E987
:1053A80004208A4270EB0C0B24DA891A5A686CEBD9
:1053B8000000C3E90410C4E9003214605C60FFF720
:1053C8006DFF84420ED1114B1B685BB9B9F1000F18
:1053D80002D1FFF76BFF0646304602F07AFD002146
:1053E800FFF7AAF888F31188BFF36F8F284639466C
:1053F800BDE8F88F521A60EB0C009A45C4E9042006
:10540800ADD01B68AAE700252F46EFE7AC0A0120BC
:1054180038080120400001202DE9F047EFF31185FD
:10542800102383F31288BFF36F8F264F4FF00008C5
:10543800254E4FF000093860FFF730FF3B68D6E98A
:10544800001E4FEAE37C50B1D0E90442A3427CEB52
:10545800020A1ADAE41A62EB0C02C0E904425B1889
:105468004FF000044EEB0C0220463C60C6E90032C7
:1054780002F02FFD2146FFF75FF885F31188BFF38F
:105488006F8FBDE8F047FFF7DBBE61184EEBE473A2
:10549800C0E90489C6E90013FFF712FF85F31188F4
:1054A800BFF36F8F83689847EFF31185102383F359
:1054B8001288BFF36F8F3B681B1B3B60FFF7EEFE44
:1054C800BCE700BFAC0A01203808012010B5EFF393
:1054D8001184102383F31288BFF36F8FFFF7E6FE62
:1054E800054A0346D2E90001181841EBE37184F339
:1054F8001188BFF36F8F10BD38080120F8B5064634
:10550800EFF31187102383F31288BFF36F8F0268BC
:1055180022B187F31188BFF36F8FF8BDD0E90A5421
:10552800691C44F10003022973F1000334D3013DDF
:1055380044F1FF34002CBCBF15462C4602F00CFD8C
:10554800013041F10001401944EB0101012871F1DA
:10555800000149DB02F000FD01306FF0020341F168
:105568000001401944EB010183426FF000438B4175
:105578003FDB02F0F1FC01306FF001024FF0FF3326
:1055880041F10001401944EB0104121A63EB0403D2
:105598001A493046FFF7B0FE336B01333363336A81
:1055A8006BB187F31188BFF36F8F336A3046984722
:1055B800EFF31187102383F31288BFF36F8F3346FD
:1055C80053F8184F9C42A4D0002CA2D0204602F0D9
:1055D800F1FB0023A36787F31188BFF36F8F204681
:1055E800BDE8F84002F0D7BB6FF001024FF0FF337F
:1055F800CEE700224FF00043CAE700BF0555000878
:105608002DE9F04105461C4690461F46EFF31186EA
:10561800102383F31288BFF36F8FB4F1FF3F08BFE5
:10562800B2F1FF3F05D186F31188BFF36F8FBDE854
:10563800F081002C09DB012A74F10003BCBF0122B0
:10564800002412F1FF3844F1FF37284602F058FCD5
:1056580028460649DDE90623C5E90A230023424610
:105668002B633B46FFF748FEDDE700BF0555000802
:10567800014801F003BA00BFB29F00080FB407B594
:10568800064B04AA186852F8041B019200F0CEF8E1
:1056980003B05DF804EB04B0704700BF508F0008FA
:1056A8000CB430B58BB004460D462022002102A868
:1056B80002F08AFC02238DF80A30002D0C4B03936C
:1056C800069412DB01D06B1E1C440FAA0E99079496
:1056D80002A8019200F0AAF815B1069B00221A70E0
:1056E8000BB0BDE8304002B070470024EDE700BFC2
:1056F800658300082DE9F04101260746B24201DC26
:10570800BDE8F0813B461F4613F8014B002CF7D04B
:10571800252CF8D11C78252C07F10207F2D000239C
:10572800DFF804819C461D461F2D18D8A4F1200ED1
:10573800BEF1100F09D9A4F1300EBEF1090F1ED821
:105748000A2404FB03E3202504E028FA0EFE1EF0D9
:10575800010F06D017F8014B002CE5D128E07F2D6A
:105768001CD8A4F1300EBEF1090FE9D9242C10D1B0
:10577800BCF1000F46D0B34246D00023EAE724F03C
:10578800040EBEF12A0FF8D06C2C09D145F0800523
:10579800E0E724F0040EBEF12A0FEED06C2C22D0E4
:1057A8006C2C1BD8682C23D06A2C28D04C2C26D0E3
:1057B800BCF1000FA4D0B445A0D144F02007A7F154
:1057C800650CBCF1020F0B6801D9612F1ED107339C
:1057D80023F0070308330B6001368EE7742CB9D029
:1057E8007A2CB7D0E4E72C0648BF45F40075CDE71E
:1057F800EC0548BF45F4007545F48075AAE745F403
:105808002075A7E79C46B8E76324D6E7692C02D041
:1058180007D8632C03D02F0601D5AC05D7D40433A1
:10582800D9E7732CF6E700BF892801002DE9F04F6E
:1058380093B043680193837880469807CDE90612B0
:1058480017D50B920B4600251F78A7B1252F16D028
:1058580001330593019B414638469847002805F1D6
:10586800010580F2358498F8023043F0040388F883
:1058780002304FF0FF35284613B0BDE8F08F5F784F
:105888009A1C252F0592E5D000242646A246A34659
:10589800BBF11F0F32D8A7F12003102B0AD8DFE87D
:1058A80003F02409092A0909091B090909220927FA
:1058B80009091900A7F13003092B2DD92A2F39D14D
:1058C80054B90B9B1BF0400F53F8042B0B9329D0B2
:1058D800164601E04BF0010B059B13F8017B05937D
:1058E800002FD5D15BE04BF0020B4BF0040BF3E734
:1058F8004BF0080BF0E74BF0100BEDE7BBF17F0F17
:105908003FD8A7F13003092BD8D81BF0400F03D09C
:105918000A2202FB0636DFE70A2202FB0A3A4BF0AC
:10592800200BD9E7B2F1000AF9DACAF1000A4BF004
:10593800280BD1E72E2F05D11BF0400F9BD14BF040
:10594800400BC9E7242F1CD1002C00F04181079B94
:105958000B931BF0400F0AD1524606980BA9FFF78C
:10596800C9FE0B9B1A1DD3F800A00B92B4E7324670
:1059780006980BA9FFF7BEFE0B9B1A1D1E680B921B
:10598800AAE76C2F00F0118100F20881682F00F05F
:1059980014816A2F00F019814C2F00F0168134B160
:1059A800079B06980B9322460BA9FFF7A3FE002E30
:1059B80047F02009B8BF2BF0400BA9F16503BCBF25
:1059C8001FFA8BFB0026022B40F20781B9F1610F09
:1059D80040F06482FF4307F0200304930B9B0733D6
:1059E80023F007031BF0400F03F1080208BF4FF034
:1059F800FF3693ED000B0B923146049A0CA802F087
:105A080016FC0130C3B2B3424BF4C054029301DB1D
:105A1800029B5E1E01230C9F0393A3464FF070095F
:105A280007F10903122B0DD907F16303C62B40F2C6
:105A38000D8107F2E73340F2CE72934294BF0323FD
:105A4800042303939DF8342002F00C0312F00102A2
:105A580040F017811BF0020F40F010811BF0040486
:105A680000F0F680002B40F00F8120231BF4405FEC
:105A78001FD1029A4832002E6A4408BF0126133A01
:105A8800029921B112F8011D302900F034811BF070
:105A9800100F029A18BF3246391DC0F23181B74241
:105AA80080F22E81BA424BF4005B40F32B817E1CBE
:105AB800961B1BF40052089200F0268127EAE7742F
:105AC800013403B10134002E00F02681721C144405
