:020000040800F2
:10000000002901201D210008A37100080921000812
:10001000092100080921000809210008000000004A
:100020000000000000000000000000005121000856
:100030000921000800000000D1230008593D0008F4
:1000400085240008852400088524000885240008EC
:1000500085240008852400088524000885240008DC
:1000600085240008852400088524000885240008CC
:1000700085240008852400088524000885240008BC
:1000800085240008852400088524000885240008AC
:10009000852400088524000885240008852400089C
:1000A000852400088524000885240008852400088C
:1000B000852400088524000885240008852400087C
:1000C000852400088524000885240008852400086C
:1000D000852400088524000885240008852400085C
:1000E000852400088524000885240008852400084C
:1000F000852400088524000885240008852400083C
:10010000852400088524000885240008852400082B
:10011000852400088524000885240008852400081B
:10012000852400088524000885240008852400080B
:1001300085240008852400088524000885240008FB
:1001400085240008852400088524000885240008EB
:1001500085240008852400088524000885240008DB
:1001600085240008852400088524000885240008CB
:1001700085240008852400088524000885240008BB
:1001800085240008852400088524000885240008AB
:10019000852400088524000885240008852400089B
:1001A000852400088524000885240008852400088B
:1001B000852400088524000885240008852400087B
:0801C0008524000885240008D5
:1001C8007BB972B90029BEBF00204FF0004106E09C
:1001D80008BF00281CBF6FF000414FF0FF3000F04F
:1001E80057B8ADF1080C6DE904CE002909DB002BE6
:1001F8001ADB00F057F8DDF804E0DDE9022304B06B
:100208007047404261EB4101002B1BDB00F04AF8CC
:10021800DDF804E0DDE9022304B0404261EB41016E
:10022800524263EB43037047524263EB430300F0CF
:1002380039F8DDF804E0DDE9022304B0404261EB5F
:1002480041017047524263EB430300F02BF8DDF89D
:1002580004E0DDE9022304B0524263EB4303704734
:1002680053B94AB9002908BF00281CBF4FF0FF3115
:100278004FF0FF3000F00CB8ADF1080C6DE904CE7A
:1002880000F010F8DDF804E0DDE9022304B070475F
:10029800704700BF034613F8012B002AFBD1181A38
:1002A800013870472DE9F04786468C460846089E77
:1002B800154674461946002B40F0C2808542B2FAB2
:1002C80082F245D94AB1C2F1200300FA02FC2EFAA3
:1002D80003F3954043EA0C0C94404FEA154EA8B23C
:1002E800BCFBFEF8230C0EFB18CC08FB00F943EA14
:1002F8000C43994528D9EB1808F1FF3704D29945E2
:1003080002D9A8F102072B44A3EB0903A4B2B3FB5B
:10031800FEFC0EFB1C330CFB00F044EA0344A04235
:1003280014D92C190CF1FF3304D2A04202D9ACF134
:1003380002032C44241A43EA07401EB1D440002388
:1003480034607360BDE8F0874746DDE76346F1E750
:1003580092BB431B01214FEA154EAFB2B3FBFEFC23
:10036800200C0EFB1C330CFB07F840EA03439845AE
:1003780062D9EB180CF1FF3004D2984502D9ACF1E0
:1003880002002B44A3EB0803A4B2B3FBFEFC0EFB54
:100398001C330CFB07F744EA0344A7424ED92C1937
:1003A8000CF1FF3304D2A74202D9ACF102032C446A
:1003B800E41B43EA0040C0E7C2F1200320FA03F13E
:1003C800954090402EFA03F303434FEA154EAFB21F
:1003D800B1FBFEFC0EFB1C10190C0CFB07F841EAE4
:1003E8000041884504FA02F422D969180CF1FF305B
:1003F80004D2884502D9ACF102002944A1EB0801D6
:100408009BB2B1FBFEFC0EFB1C110CFB07F743EA89
:1004180001439F420ED9EB180CF1FF3104D29F42E1
:1004280002D9ACF102012B44DB1B41EA004192E7FF
:100438006046E3E76146F7E76046A3E76346B7E748
:10044800834206D916B9002108467BE7C6E900E0D1
:10045800F9E7B3FA83F78FB9834201D3724508D815
:10046800BEEB020460EB030301209C461EB9002189
:1004780068E73846FAE7C6E9004CF8E7C7F1200C08
:10048800BB4022FA0CF41C432EFA0CF120FA0CF3B0
:10049800B84001434FEA14490EFA07F5B3FBF9F8DF
:1004A8001FFA84FE09FB18300B0C08FB0EFA43EA0E
:1004B80000439A4502FA07F240D9E31808F1FF30E1
:1004C80004D29A4502D9A8F102002344A3EB0A03F7
:1004D80089B2B3FBF9F809FB183308FB0EFE41EAB1
:1004E80003418E452CD9611808F1FF3304D28E459B
:1004F80002D9A8F10203214443EA0040A0FB029874
:10050800A1EB0E014145CE46434602D306D14D45E7
:1005180004D2B9EB020E68EB04030138002EA6D012
:10052800B5EB0E0261EB030101FA0CFC22FA07F3AA
:100538004CEA0303F940C6E9003198E74046C5E7AD
:100548004346D9E74FF4FA720023014804F092B900
:10055800C0020120014803F0C5BF00BF30010120DF
:100568002DE9F0411A4EFEB01A4F4FF0FF324FF00E
:10057800FF3306A9304606AC1425DFF85C8003F08B
:100588004FFF384604F058FF07F08FFC0A2200237B
:10059800FFF766FE636902464046002BB8BF5B4220
:1005A800059323690493E368002BB8BF5B42039368
:1005B800A36802936368002BB8BF5B42019354F8A9
:1005C800183B00930B4604F025FF013DDCD1CCE736
:1005D800F800012072910008869100082DE9F04387
:1005E800F9B0DFF89490DFF884804FF4F0726E462B
:1005F8001D4F0021304607F099FC4FF0FF324FF0B5
:10060800FF33484603F0A2FFD8F808304FF4807152
:1006180016485B699847BC684C211348E3689847BB
:1006280020B9134A03212369384698470DF5E47C1D
:100638006446ACF1180C654666450FCD0FC495E8C5
:10064800030084E80300F3D1094D34460FCD0FC4ED
:1006580095E8030084E8030000220023314605489A
:1006680007F061FAC9E700BFB085000808850008EF
:10067800400B0120F8000120300101201FB5194866
:100688000469836803A95B689847B0B1012819D148
:10069800154807F0EAFBB9B9134807F0E6FB0A2248
:1006A8000023FFF78DFDB8B94FF4FA7200230E4806
:1006B800CDE9002304F048FE04E02268039B534080
:1006C8001B07E5D404B010BD074807F0CEFB0A228B
:1006D8000023FFF7C5FDE6E7034804B0BDE8104076
:1006E80007F0F1BB28840008C000012070B52C4930
:1006F80088B02C4807F069FA4FF480312A4805F091
:10070800E8FF002848DB294CA568AE69002E43D0D5
:100718004FF0C0634FF0A07203212046B047002875
:100728003ADB2349234B4B6008238B60EB6913B1F9
:10073800012220469847204807F0CAF960B34FF4D1
:10074800B0111E4805F0C5FF752300228DF806304C
:100758000DF106038DF80720029301238DF8102070
:100768000DF107020393CDE9052307238DF81C300B
:10077800134802A99DF81C30826843F002038DF8E3
:100788001C30682394680222A0470E4807F0A0F99D
:1007980010B90D4806F07EF8002008B070BD00BF03
:1007A80085060008C0020120088D0008288400087A
:1007B800580B01204D05000808850008108D000819
:1007C80094850008B0850008A59100082DE9F04F30
:1007D80091B0840705460E46009302F00403DDF845
:1007E80068800293C2F3C203039203F101030593E5
:1007F80040F0BA81041D30B1072909D86FF01B00F9
:1008080011B0BDE8F08F01F007063444C6F10806C0
:10081800009B4FF000094FF0040A591E4FF0FF33B8
:100828004F46CB4601935346CDF810900DB1009832
:1008380020600598002800F3E8809848009A8242D2
:1008480003D397488242C0F0E080039AA4EB050ED8
:1008580092074FEA9E0000F103810F2F00F2B1804A
:10086800002D00F0058107F140020DEB020C019A02
:100878000CF8200C0CF8102C049801300490E7E0D8
:100888007A285DD84B280ED8472859D829282DD83A
:10089800252852D054D820287AD02338D0F1000BFC
:1008A8004BEB000B74E04C382E2849D8DFE800F0F9
:1008B8007048484848484848484848484B48484885
:1008C800484848484859484B4B595959704B6D4806
:1008D8007048184B184848827F4B48484B487F005F
:1008E80000204FF0000B4FF0040A38E02A380122AC
:1008F800C0B202FA00F010EA0E0F49D110F0625CA3
:100908002FD110EA020B43D06046013C5444B4FB9B
:10091800FAF40AFB04F4002D61D0A3EB050CA444FF
:10092800B4453FF66BAF002868D1042B47D158F87F
:10093800043B2360043404232AE0019A013A01921B
:100948004FF0000B24E011F8010C6C2834D111F899
:10095800023C00206C2B8346C5D14FF0080A534651
:10096800D3E708F10708073428F0070824F007043C
:10097800F8E802AB35B106982044B0423FF63EAFE6
:10098800C4E900AB08344FF0000B4FF0080A534697
:1009980011F8010F002878D0BBF1000F7FF470AF79
:1009A8002528F5D1019B4FF0010B013301934FF03E
:1009B800040AECE7584694E700208346A5E7082B8D
:1009C80002D06FF015001BE708F1070828F00708A8
:1009D800B8EC027B84ED007B08340823D8E768B9BB
:1009E800042B02D108F10408A4E7082BE9D108F187
:1009F800070828F0070808F10808EDE70598013806
:100A0800059058F8040B009010E7039A900720D53A
:100A1800A4EB050E4FF0010C4FEA9E00BEF5007FD7
:100A2800CFD20F2FCDD8F5B107F14002C0B20DEBF0
:100A3800020E019A0EF8200C0EF8102CBCF1000FD3
:100A48003FF41AAF60F07F0009F101090EF8200C9D
:100A58000137C5F1080204344FF6DA7E069297E7AB
:100A68004FF0000CDAE7BCF1000F01D00136EFE7D8
:100A7800029A0236002AEBD10098CDE90631FFF739
:100A880009FC0644DDE90631E2E7631BB3F5806F34
:100A980097D23DB9A6F10804E018B1E6E082000853
:100AA800649F00089B08029A28602B709DF81030FC
:100AB800C2B1EB7085F80290B9F1000F05D008A813
:100AC8000022C5F1010C97420ED1C5F101030DF1C9
:100AD80020084FF0000A0DF1300B0193574512D151
:100AE800601B8DE66B70E5E710F8013B190608D529
:100AF8000CEB040E03F07F03B6453FF67FAE04F817
:100B0800013B0132DFE7B9F1000F03D098F900206B
:100B1800002A17DB029BD3B11AF80B2004F8012B2B
:100B28000022019B18191044B0423FF667AE98F8AE
:100B38000000009904F8010B2046039207F0E8F939
:100B4800039A14440AF1010A08F10108C6E798F863
:100B5800002055F822300093029B009845F8223077
:100B6800FFF798FB421CDCE76FF00D0048E600BF7A
:100B78002DE9F04F97B00446894600AF90F802A0DF
:100B8800D7F880B03B62CBF3C003FA62BB6141B9CE
:100B9800457800780AEB800020444D4517D8A0EB33
:100BA8000409E378FB61BAF1000F02D01BF0010FD2
:100BB80016D1FB6953BBFB6A1BB13A6A494620460A
:100BC80098474D4628465C37BD46BDE8F08F461C21
:100BD80009F101093046FFF75DFB01303044DCE7DD
:100BE8002378626899007A62FA6A796104EB830172
:100BF800002A40F000814D460E4601EB0A094FF0ED
:100C080000084E454CD101EB0A0610E01BF0020F1C
:100C1800D1D023789A0004EB83017A6162687A6202
:100C2800FA6A002A77D14D4601EB0A0690461BF076
:100C3800050F0CBF02230123FB62FB6906EB430A85
:100C48000BF00203BB625645BCD016F8021B16F81F
:100C5800013C54F82390994B994502D3984B9945F8
:100C680036D3BB69002B40D0786A05F0ECFD00282C
:100C78003BD0E9468AB06A46924B53617B6AC2E927
:100C880006314FF4007313848F4B42F8103F002352
:100C98004FF412518D48023D00F04CFCCD46D2E78E
:100CA80016F8013BF96254F82300FFF7F3FAD7F876
:100CB80084300130F96A4BB1D7F8883098453EBF87
:100CC800D7F8843023F8180008F10108054498E79C
:100CD800BB6923B1786A05F0B6FD0028C9D11BF0BD
:100CE800010F05D1FB6AED1AADE7BB6A002BAAD04C
:100CF8004846FFF7CFFAD7F8843053B1D7F8883091
:100D080098453FBF431CD7F8842022F8183008F1D3
:100D18000108054497E7BAF1000F72D01BF00406EA
:100D280072D0D046002607F1480052463B61B962AE
:100D380007F0EEF8B96A3B6901EB0A02F969BA6291
:100D4800FA695200FA60BA6A02EB41023A610BF0A2
:100D58000202BA603A69B96A8A4257D11BF0020F97
:100D680062780CBF4FEA580100217A621BF0010F2C
:100D78003244D2B240F09F801BF0040F14BF4046AB
:100D88000020BB616270A0702046E1703A6A796900
:100D9800FB6A9847051EFFF615AFBB6941463A6ADC
:100DA80007F1480023707B6A84F802A06370FB692E
:100DB800E370FB6A9847B0F10008C0F2BB807B691A
:100DC800A9EB0A013A6AC91AFB68C91AD7E90A03E2
:100DD80098470028C0F2B080A8444FF0000B07F1F4
:100DE800380A08EB0005B34572D300213A6AFB6A5A
:100DF80008469847E6E656464FF0000807F13800DF
:100E080093E75646D04697E7B04695E7BA6A12F890
:100E1800021B12F8015CBA6254F82500274A904276
:100E280002D3274A90421ED3BA6932B1786A7B60EE
:100E380005F009FD7B6800288CD1BA6802BB08F16F
:100E4800280207F1300C08F1010008F10208944467
:100E580007F158025FFA88F852FA80F00CF8101C73
:100E680000F8105C76E7BA693AB1786A7B6005F0F9
:100E7800EAFC7B6800287FF46DAF1BF0010F09D0F6
:100E880006F1280207F13000711C161806F8205CDC
:100E9800CEB25FE71BF0040F3FF45CAF08F1280205
:100EA80007F1300008F1010102EB000808F8105CB6
:100EB8005FFA81F84EE7002063E700BFE082000890
:100EC800649F0008E191000804000001E08900081F
:100ED8001BF80A3054F8239087F83730D7F8843055
:100EE8002BB3D7F888309B4521D2D7F8843033F814
:100EF8001B803A6A012107F13700FB6A98470028EE
:100F08001ADB0544B8F1000F06D14846FFF7C2F9CD
:100F180000F101081FFA88F83A6A41464846FB6A18
:100F28009847002808DB05440BF1010B5BE74FF0FD
:100F38000008DEE7454645E6054643E6014B1860EE
:100F4800704700BF0000012080B505460E461746D1
:100F5800984603F0F5FEDFF82090034601F0A0FA6A
:100F68000446424649F8003039463046A84754F806
:100F7800090001F013FA00BF08000000034A00202E
:100F8800536823F002035360704700BF002004E059
:100F980008B5416805480C3183681B681BB1984740
:100FA80000EAE07008BD6FF05700F9E7B883000861
:100FB800192810B502D90024204610BD044B53F857
:100FC8002040204606F084FD0028F5D1F3E700BF55
:100FD800F48D0008064B1A6842F400721A601A6809
:100FE80042F480721A60034B034A1A60704700BFCC
:100FF800003C0240380001200024F4002DE9F047AD
:10100800044607464FF00109DFF8508014B9384606
:10101800BDE8F08794FAA4F5B5FA85F509FA05F361
:101028002E0108EB05156FEA030A24EA03042B7B5B
:10103800002BEBD058F806301B694BB94644042204
:10104800284607EA0A077368196805F068FFDDE7AC
:10105800284698470028D9D1F0E700BF608A0008E1
:1010680030B5002289B00F490F4806F020FF002252
:10107800002300240D4D0E4928460094CDE906238F
:101088000E234FF44072CDE90334CDE90144094BF6
:1010980003F044FC0849284606F0A9FD204609B09B
:1010A80030BD00BFC5100008B8070120F0020120BC
:1010B80000170120E11300084E930008014803F0CF
:1010C80011BA00BF200101202DE9F04780462048D1
:1010D8000F4605F0FCFE0646002832D000252846BB
:1010E800BDE8F087237B83B12368DB680BB120461A
:1010F8009847636883F8069023681B69CBB96368CF
:1011080004222046196805F00AFF013610345445B8
:10111800E8D3B8F1000FE2D0002DDFD02846FFF762
:101128006DFF0546002FF7D00021642006F0FBFD77
:10113800F2E7204698470028E1D009FA06F31D4354
:10114800E3E7044C0546DFF810A04FF00109DEE79D
:10115800240C0120608A0008708A0008014B53F8AB
:1011680020007047708E000808B5034608462BB16A
:10117800044A136000F076FC002008BD6FF01500EB
:10118800FBE700BF0400012010B5044C237813B915
:10119800034803F0A7F90123237010BDEE0D0120C9
:1011A8002001012010B504460B4805F090FE5CB103
:1011B8000A4BBFF35B8F53E8001F013943E8001265
:1011C800002AF8D1BFF35B8F054806F07CFE05487E
:1011D800BDE8104003F086B91C0C0120200C01204A
:1011E800B8070120200101200020064BBFF35B8FC8
:1011F800014653E8000F43E80012002AF9D1BFF373
:101208005B8F70471C0C012070B5FFF7EDFF084C91
:101218000546084EB44200D370BD63685B792BB1B4
:1012280023685B6813B12946204698471034F1E7D4
:10123800608A0008708A000810B5044C04492046EA
:1012480005F037FC034B1C6010BD00BF8000012077
:101258005C8E0008140C012000230D4A4FF47A71AB
:101268000C4810B513700C4A13600C4A1360FFF752
:101278007BFFFFF7E1FF0A4B0A4918468B4200D370
:1012880010BD1A1A5C681033121101322271F5E789
:10129800EF0D0120F16E00081C0C0120200C01202C
:1012A800608A0008708A000801460022002301486D
:1012B80005F020BC80000120014805F0B9BC00BF42
:1012C80080000120024B0146186805F00CBD00BFE4
:1012D800140C0120014805F041BD00BF8000012029
:1012E800264B70B51878002846D0FFF7E5FF05466D
:1012F80000283ED1224B234C1B68002B12DD06F040
:10130800D4FD0A220023FEF7ABFFD4E90032C01A4D
:1013180040F2E93361EB0201984271F1000101D317
:10132800FFF772FFD4E9003213F57A7342F1000235
:10133800C4E90032BDE87040FFF7CCBF63685B7951
:1013480023B12368294620461B6898471034B442C5
:10135800F4D32846FFF7B6FF0B4BBFF35B8F53E878
:10136800001F013943E80012002AF8D1BFF35B8F50
:10137800C0E7064C064EEAE770BD00BFEE0D01203F
:101388001C0C0120B0070120200C0120608A0008F5
:10139800708A000870B50D4D297861B90C4C012090
:1013A8000C4EFFF791FEB44206D3FFF799FF0028D1
:1013B800FBD101232B7070BD63685B791BB1236877
:1013C80020469B6898471034EDE700BFEF0D0120D9
:1013D800608A0008708A000800212DE9F047084655
:1013E800FFF772FE044658B34FF4FA784FF000093D
:1013F8001C4B01F055F81C4A1B58136033B11B4BAA
:101408001B68092B02DD1A4803F06CF80025194FF8
:10141800DFF85CA044B12046FFF7F0FD044618B998
:101428004FF0FF384FF0FF39FFF75AFF064628B94B
:10143800B5B942464B46504603F088F83546E9E7C9
:101448004FF0FF384FF0FF39D2E72B689B691BB18B
:1014580000222846114698471035BD42F5D3E8E7E3
:10146800054DFAE708000000180C0120200C0120A7
:1014780020010120708A0008608A000813B5184806
:1014880005F025FD174B1B7873B1EFF3118410237A
:1014980083F31288BFF36F8FFFF722FF84F311885D
:1014A800BFF36F8F02B010BD0F4B1B68002BF9D034
:1014B80050B9002200230D48CDE9002342F21072F2
:1014C800002303F041FFEDE70928EBD1074806F0B8
:1014D800FAFC074802B0BDE8104003F003B800BFAB
:1014E800200C0120EF0D0120180C0120B807012065
:1014F80020010120064B10B504461B689847214679
:10150800A060044805F075FBBDE81040FFF7B6BFC2
:101518000400012080000120044A054B9B1AB1EB0E
:10152800D30F34BF52F8310000207047D889000823
:10153800608A00082DE9F04F8FB0C1F34A280D46A4
:10154800914604AF0C0DB8607B60B8F1000F63D012
:10155800002607F114034FF0040B4FF00A0AC7F8EE
:101568000C8032467E624846C7E90766019307F158
:101578001C03CDF808B0CDF800A0F968FFF7F8FA19
:10158800B0F5006F03461CD36C468AB0D9F8041036
:1015980004AB26481A46C3E9050140F2FF71D96138
:1015A8004FF400711984224B42F8103F4FF4125146
:1015B80033462048FFF7BEFFA5462C37BD46BDE899
:1015C800F08FC0F30A0804F117003B60184468F371
:1015D800532520F007008008FFF766FE044690B107
:1015E8003B6800F11001144A4846F961C7E908361A
:1015F80007F11403CDF808B0CDE900A307F11C03E7
:10160800F968FFF7B5FA68F353257B68B96820468F
:101618002A4605F0A4FCD0E704F1170020F00700E3
:101628008008FFF741FE0446EDE700BF639300081A
:1016380004000001108A0008396F00082DE9F04FF6
:1016480087B00446934698460391DDE91279DDE9AF
:10165800105ABFB13B46524610210020CDF80090E9
:10166800CDF81490FFF7B2F8B0F5006F06460AD32C
:1016780040F2FF73174A0221174807B0BDE8F04F40
:1016880005F0C6BC3E4604F007040BF0070BE40067
:1016980044EA8B1444EA462444EA055405F1170049
:1016A800304420F007008008FFF7FEFD054640B1F2
:1016B8003FB13B46524631461030CDF80090FFF717
:1016C80085F8434622460399284607B0BDE8F04FFF
:1016D80005F045BCA2930008108A0008406820B1B4
:1016E800034BC01A40F3CF0070474FF0FF307047EC
:1016F800D88900080EB403B503AB0146054853F872
:10170800042B019301F05AF802B05DF804EB03B022
:10171800704700BF63700008CA0605D48B064CBF2B
:1017280002490349FFF7E6BF704700BFDB93000893
:10173800DA9300082DE9F04F8BB09B4604460D461E
:10174800169B90469DF854A00693179B199E0593E7
:10175800189B0493BAF1000F00F09E8006F0010375
:1017680006F00209089306F00803079306F480734D
:10177800099305F0D2FB024600283BD08F4920464A
:10178800FFF7B8FF0746B9F1000F08D016F0440F6D
:1017980032D12A468A492046FFF7ACFF0744089B06
:1017A80053B1884B2046884953F82A20874B002A92
:1017B80008BF1A46FFF79EFF099B002B48D0079BDE
:1017C800002B62D1B8F1000F64D042468049204610
:1017D800FFF790FF0546069B3D44002B6BD1049B09
:1017E800002B71D1F30700F1E28031462046FFF764
:1017F80093FFD6E00746C6E7764B18680028CDD099
:10180800754B4FF47A794FF03C0C1B68B5FBF3F538
:10181800B5FBF0F100FB11554FF4616309FB05F5C9
:10182800B1FBF3F2B5FBF0FE03FB121100FB1E55F2
:10183800B1FBFCF309FB05F50CFB1311B5FBF0F547
:10184800009120466549CDE901E5FFF753FFA5E77B
:10185800079BEBB1624B2046624953F82A20FFF7F9
:1018680049FF0546B8F1000F05D0424658492046C1
:10187800FFF740FF0544BBF1000FACD05A465A4968
:101888002046FFF737FF0544A5E74FF0000BE1E7D7
:10189800079DE7E745469EE7BBF1010F069B06D18A
:1018A800002B64D1049B002B7BD000250CE0002B7F
:1018B800F8D04E485CE04E48069B22464D4904F05D
:1018C80091FF049B002B68D0DFF83881DFF838914E
:1018D800049F4FF0000B31462046102F28BF1027D9
:1018E800FFF71AFF5D4545DC059B4FF0010B4946A4
:1018F80020461A78FFF7FEFE1BF0070F03D141467A
:101908002046FFF7F7FE5F453BD9059B4946204631
:1019180013F80B20FFF7EEFE0BF1010BBBF1100FD4
:10192800EAD14FF0000B34492046FFF7E3FE5A4650
:10193800059B20469A5CA2F120015F292F4928BF08
:101948002E22FFF7D7FE0BF1010BBBF1100F1DD0B4
:101958001BF0070F03D141462046FFF7CBFE5F453A
:101968005A46E5D841462046FFF7C4FEEBE7204833
:101978005546A1E7414620460BF1010BFFF7BAFE99
:10198800B0E71F492046FFF7B5FEC5E7059B3B4476
:101998000593049BDB1B04939AD1BAF1000F7FF4E3
:1019A80021AF20460BB0BDE8F04F05F049BB074A10
:1019B80020460549FFF79EFE17E700BFE29300089F
:1019C800E6930008808E00080B940008DD93000859
:1019D8000E9400082C0C0120280C0120EF9300081D
:1019E800948E000812940008189400089970000852
:1019F80063700008C5270008279400082994000888
:101A080023940008259400081D94000842F20F73DF
:101A1800114A8B4273B5044628BF0B460568052159
:101A2800684603F029FD636806460B2228465B6872
:101A38000A4905F0F7FA63683246694628465B6842
:101A480005F0F0FA63681B2205495B68284605F033
:101A5800E9FA02B070BD00BF2E9D00084894000846
:101A68002C94000800210123064A904206D8064A11
:101A780001B901231360054B186070474008012124
:101A88005B00F2E740420F00280C01202C0C0120DB
:101A9800F8B50D4604464618054FB44201D128460C
:101AA800F8BD14F8011BBB6801485B689847F4E768
:101AB8005C850008014B036003207047DC8E00083A
:101AC80006480021064A08B5121A05F05EFB0548CB
:101AD800054A0021121A05F058FB08BD40010120F3
:101AE800F40D012000000020000000200A480B4AE5
:101AF8000B49121A08B505F04AFB0A480A4A0B496D
:101B0800121A05F044FB0A480A4A0B49121ABDE8A2
:101B1800084005F03CBB00BF000001204001012047
:101B2800649F00080000012000000120649F000855
:101B38000000002000000020A4A000082DE9F84FB4
:101B4800804600AF0C46002965D0E9468AB0A368F4
:101B58006D46D1E9001239484FF0050A2E46C5E90D
:101B68000501C5E9072346F810AF002332464FF4B4
:101B780021513348FFF7DEFCCD466369AD46D4E911
:101B880003123048C5F810A0C5E90501C5E90723C7
:101B9800002332464FF421512948FFF7CBFCCD46AC
:101BA800E36900252646DFF8B0B04FF00A0A264A56
:101BB8000121234805F02CFAE9468EB0D6E908E061
:101BC800D6E90A136A46C2F81CE005F1010EC2E91B
:101BD80008E0A81CC2E90A01E91CC2E905B5C2E986
:101BE8000C1342F810AF0435002345F240011448A5
:101BF800FFF7A0FC102D06F11006CD46DCD1236EB0
:101C0800124A01210E4805F003FAA369104A01217E
:101C18000B4805F0FDF9B8F1010F07D1EFF3058383
:101C28000C4A103B4146064805F0F2F92146404669
:101C380002F008FABD46BDE8F88F00BFC994000855
:101C4800308A0008F894000827950008799500085C
:101C580088950008B69500083695000830BFFFF74C
:101C6800FDBF00BF2DE9F0410B4E0546DFF830807F
:101C7800324606EB0807CC1B0849204606F048F90F
:101C8800A019083C4246002106F050F907F1080067
:101C98002C67BDE8F08100BF00000000708A0008D2
:101CA8000400000070B506460D46284C284929480E
:101CB80005F07AFAA36AD9043CD52648264905F0E6
:101CC80073FA1720A36A1A0504D52248234905F098
:101CD8006BFA18201D4CA36A9B0512D51D48204994
:101CE80005F062FAA36BA26A100409D51D4A012106
:101CF800184805F08DF91EB1A36A23F40043A362C6
:101D08001920124CA36A590504D51248164905F042
:101D18004BFA1A20A36ADA050ED50E48134905F0C6
:101D280043FA1B20094A936A43F47F4393620023D2
:101D38002B7070BD1620C5E7A36A9B04F2D5054831
:101D48000B4905F031FA1C20ECE700BF00ED00E07C
:101D5800C9950008308A0008DF950008F09500084A
:101D6800039600081C960008319600084C96000857
:101D78006496000810B5204C2049214805F014FA53
:101D8800A36A990136D51E481E4905F00DFA1E2092
:101D9800A36ADA0104D51A481B4905F005FA1F2081
:101DA800154CA36A1B0304D51548184905F0FCF91E
:101DB8002120A36A590304D51148154905F0F4F9FF
:101DC80022200D4CA36A9A0304D50D48114905F049
:101DD800EBF92320A36ADB0304D509480E4905F073
:101DE800E3F92420044A936A6FEA03436FEA134332
:101DF800936210BD1D20CBE700ED00E0939600082C
:101E0800308A0008AB960008BE960008D8960008ED
:101E1800F69600081B970008359700082DE9F84347
:101E2800804689461746354D3549364805F0BCF990
:101E3800AB6ADE0627D511243349324805F0B4F9D8
:101E4800AB6A1D0704D5122430492E4805F0ACF9B9
:101E58002A4DAB6A980718D52D492A4805F0A4F9E8
:101E68006E6BAB6A190646D52A4A334601212548C6
:101E780005F0CEF8B9F1000F03D0AB6A23F0800368
:101E8800AB62132403E01024DAE76FF015061B4D4C
:101E9800AB6ADA0704D514241F491A4805F084F9F7
:101EA800AB6A9B0604D515241C49164805F07CF935
:101EB800124B9A6AD50602D49A6A90070AD55B68CB
:101EC800190507D54146304600F0ECF910B180F30A
:101ED80009880224094B9A6A920603D55A6A22F4A1
:101EE80000525A629A6A204642F0FF029A62002320
:101EF8003B70BDE8F8836FF01506C2E700ED00E01F
:101F080060970008308A000876970008F095000866
:101F1800A9970008C1970008D79700086496000899
:101F28002DE9F041634B9CB005460026D3F80480A8
:101F380000AFC8F3080486F31188BFF36F8F02F06F
:101F48007F43B3F17F4F07D102F00C03082B12D166
:101F580059495A4805F028F9002635460023FB71EF
:101F6800E31E092B00F28480DFE803F00A7A7D760D
:101F780082828282828010074CBF0D460126EDE7DF
:101F88004F494E4805F010F94A4C0023FB71E36AAB
:101F98009A0705D54B49494805F006F9002432E06F
:101FA800E36A002B01DA4849F5E7E36A5B00F5D5F7
:101FB8004649424805F0F8F86369AA6943F4807312
:101FC8006361BFF34F8FBFF36F8F636932F8022CE1
:101FD80023F480736361BFF34F8FBFF36F8F4DF6A8
:101FE80002739A4208D0A36ADBB243B3FA1D0121F7
:101FF8002846FFF713FF31E02B68354A01212F48A7
:1020080005F006F82C68FB79ABB96822294607F178
:10201800080005F07DFF7B6A002E45D0C3F3080257
:1020280022B96FEA53236FEA43237B6207F1080161
:102038002046FFF783FD7037BD46BDE8F081A36AEF
:1020480013F47F4F04D0F91D0120FFF72BFE05E0A4
:10205800A36AB3F5803FA1D3FFF78CFE0446D2E70D
:10206800FA1D0021C4E7F91D0020EEE7194992E79F
:1020780018F4F87F184AE8468AB0184B18BF134678
:102088006A461749103CC2E905134FF40073D4613E
:102098001384144B42F8103F00234FF411510748A2
:1020A800FFF748FAC54679E723F4FF7323F00103E5
:1020B800BBE700BF00ED00E024980008308A000864
:1020C8004F980008669800088798000895980008B7
:1020D800B4980008D09800080B980008F6970008F4
:1020E800F498000804000001044B5A6942F01002F9
:1020F8005A615A6922F008025A61704700ED00E0FF
:10210800EFF30880EFF3098101B57246FFF708FF86
:1021180001BD00BF0A4880F30888102080F31188A9
:1021280008484FF40861401880F30988EFF31480D9
:102138000221084380F31488BFF36F8F00F048F83A
:1021480000290120801A01201EF0040F0CBFEFF3B4
:102158000880EFF30980816911F8021C0229FFD079
:1021680001B5724605F015F801BD00BF40B2002860
:1021780007DB0123410900F01F00024A834042F8AF
:102188002130704700E100E040B2013100284FEAF9
:102198000111C9B206DB00F1604000F5614080F82A
:1021A8000013704700F00F00014B1954704700BF2F
:1021B80014ED00E0044B054A23F07F039360BFF35E
:1021C8004F8FBFF36F8F70470000000800ED00E0ED
:1021D80008B5FFF7EFFF104BD3F8882022F4700200
:1021E800C3F88820D3F8882042F4A002C3F88820D6
:1021F8004FF04042C3F83422BFF34F8FBFF36F8FC5
:102208000023E1EE103AFFF75BFCFFF76FFC00F0EC
:1022180029F902F039F800BF00ED00E04FF47D41E4
:10222800203AC0F8BC101360009B08495360019B1A
:1022380021F001019360029B9161D3604FF080739C
:10224800D361002302654367704700BF510F000840
:10225800838913F0020F124B03D190F8BD20D206E8
:1022680011D45A6B42F080425A63D0F8BC30190737
:102278005CBF43F00803C0F8BC30838943F0020315
:102288008381802070475A6B22F080425A63D0F8CD
:10229800BC301A0744BF23F00803C0F8BC30F0E78D
:1022A80000EF00E0094A0346906870B113F1160F79
:1022B800006E05D0A0F18002934205D3834203D279
:1022C800814228BF0020704700207047A40D0120DC
:1022D800104B9B6883421AD1EFF30580B8B9EFF32E
:1022E8001181102282F31288BFF36F8F9A8922F02E
:1022F80002029A81EFF3148323F0040383F3148812
:10230800BFF36F8F81F31188BFF36F8F70476FF042
:1023180015007047A40D012015460E46002208B589
:10232800E1EE102AEFF3148222F0040282F31488FB
:10233800BFF36F8FBFF36F8F0B4A0C4B9060026F28
:102348001A6000F0BFF82C4686F309880020044B79
:1023580098472046002100220023024C2047000015
:10236800C5710008510F0008A40D0120540C01206C
:10237800014B10221A61704700ED00E0054B9A6985
:102388009B689A4204D0044A536843F080535360D0
:10239800704700BFA40D012000ED00E0084B9B68CA
:1023A80083420BD1EFF3058343B1064B5A6842F0E1
:1023B80080525A605A6A22F400425A6202F0C6BC3D
:1023C800A40D012000ED00E023498A6882F8BDE0F1
:1023D8004FF030001044EFF3098C80E8F01F1EF036
:1023E800100F03D102F17C0080EC108A102080F3DA
:1023F8001288BFF36F8F194F4FF000668A698A60A1
:102408003E60106F164C206092F9BDE0506F0023BB
:10241800536780F311881EF0100F03D00023E1EEFC
:10242800103A03E002F17C0090EC108AEFF3148379
:1024380023F0040383F31488BFF36F8F04B51046A9
:1024480000F040F8BDE8044002F1300090E8F01FC9
:102458008CF3098870470000A40D012004ED00E00A
:10246800540C0120002304481021C2180133622BA8
:1024780082F80013F9D1704700E100E008B5EFF3E6
:102488000583064A103B02EBC30152F83300496842
:102498008847BDE80840FFF771BF00BFCC8500083A
:1024A8000148006870470000540C0120024B0121CC
:1024B800024A034800F090B80000052000000120FF
:1024C8000C8F000810B50446FFF7C2FE0346064805
:1024D800226E0121D21AC0E90023044B8360BDE8B3
:1024E800104000F083B800BF580C012000000B1505
:1024F80008B503461048D0F89020C2F30722013AE5
:10250800934207D90D4801210D4A04F081FD6FF06F
:10251800150008BDC0F898300A6822F01F021A4357
:1025280042F01002C0F89C208A6842F00102C0F80C
:10253800A0201846EDE700BF00ED00E0288A00085B
:102548000B990008F0B50E4685B01F4604460025D5
:10255800B5420DDA606810B397B1431E18420AD02D
:10256800104A2B460121104804F052FD6FF0150265
:10257800104605B0F0BD7F28F2D921680B42EFD193
:10258800236801A9019304F02DFEA3680343D0B288
:102598000393FFF7ADFF10F1160FE7D0421C01358A
:1025A8000C34D5E731990008288A0008044B052225
:1025B800C3F89420BFF34F8FBFF36F8F704700BFEE
:1025C80000ED00E0BFF35F8F024B0022C3F89420B8
:1025D800704700BF00ED00E010B5034C01232278DE
:1025E800FFF7B0FF207010BDF10D01200B4A08B5B0
:1025F80000231278FFF7A6FF10F1160F07D0084A3C
:102608000021D2F89030C3F30723984200DB08BDBD
:10261800C2F898000130C2F8A010F2E7F10D0120CD
:1026280000ED00E05F4860492DE9F043D0F89030B4
:1026380085B00D68C3F307239D4200F2B080FFF711
:10264800C1FF49680022954201F10C011BD1574C8A
:102658006846574F2570FFF72DFA00250646DFF824
:102668005481DFF85491AE4220D1237800204D499F
:10267800D1F89020C2F307229342C0F28A8000204A
:10268800FFF794FF4FE0C0F8982051F80C3C23F076
:102698001F031343013243F01003C0F89C3051F874
:1026A800043C43F00103C0F8A030CCE700984FEA9F
:1026B800051C00EB0511CB683B40B3F5000F49D072
:1026C8000AD8B3F5001F31D0B3F5800F37D0B3F572
:1026D800801F13D00135C6E7B3F1007F43D0B3F1B3
:1026E800805F49D0B3F1807FF4D150F80C3088680E
:1026F80004F078FD4A6840F0887009E050F80C3022
:10270800886804F06FFD40F088504A6840F4302033
:10271800039001A92078CDE90123FFF7E9FE0028FD
:1027280033DA6FF0150005B0BDE8F08350F80C30CF
:10273800886804F057FD4A6840EA0900E8E750F85D
:102748000C30886804F04EFD40F0C0604A6840F4E0
:102758000030DDE750F80C30886804F043FD4A6823
:1027680040F08270D4E750F80C30886804F03AFDE5
:102778004A6840F48020CBE750F80C30886804F0B1
:1027880031FD4A6840EA0800C2E723780133237024
:10279800A0E7C1F898300133C1F8A00068E74FF00E
:1027A800FF30C0E700ED00E0188F0008F10D0120B0
:1027B8000000F0FF0000021100000811F0B587B01A
:1027C80007460E4614460021102268461D4605F0AD
:1027D800ADFB02232A4621468DF802306846044B99
:1027E800CDE90476019302F00DFF07B0F0BD00BFFC
:1027F8000D72000808B5024B1B689847002008BDF9
:10280800640C0120034B044A1860937843F00203D8
:1028180093707047640C0120100001200649074896
:1028280021F00701C1F1005208B502F5A02203F01A
:102838009CFF002008BD00BF87350120680C0120DF
:1028480007B5094A6B4692E8030083E80300074886
:102858008268126822B11946904703B05DF804FBFC
:102868006FF05700F9E700BF708A0008B8830008C6
:1028780000F01F0201211F2801FA02F208B50346E1
:1028880005D90648064A04F0C3FB002008BD054BDD
:102898005B699A430CBF01200020F7E7E88900082C
:1028A80066990008003C014000F01F0201211F2822
:1028B80001FA02F208B5034606D90548054A04F0AC
:1028C800A7FB6FF0150008BD034B00205A61FAE71B
:1028D800E889000866990008003C0140044B184448
:1028E8000023013300F8012B9942FADC704700BF3E
:1028F800480001202DE9F041054600260F4F4FF012
:102908000108F4B26B78A34201D8BDE8F0812B78B6
:102918001C442046FFF7ACFF68B12046FFF7C4FF10
:1029280057F834303BB107EBC40204F01F04516878
:1029380008FA04F098470136E3E700BF740C012059
:10294800034660B1B0FA80F2C2F11F02D2B2054963
:102958008856054A11680B431360FFF707BCFF222E
:10296800F5E700BF48000120003C0140024A136817
:1029780023EA000313607047003C0140032921D873
:10298800DFE801F0020C10190F4B9A6822EA0002E6
:102998009A60DA6822EA0002DA6070470A4B9A689D
:1029A8000243F5E7084BDA680243DA609A6822EADC
:1029B80000029A607047044B9A6802439A60DA688A
:1029C8001043D860704700BF003C014030B5B0B13B
:1029D800B0FA80F3C3F11F03DBB20B4850F8334061
:1029E8008C4204D100EBC3056D68954205D044B90B
:1029F80040F8331000EBC3004260002030BDFF23D5
:102A0800EBE76FF00F00F9E7740C012060B1B0FA42
:102A180080F3C3F11F03DBB2044A002142F83310EC
:102A280002EBC30251607047FF23F5E7740C0120E5
:102A380000F003020F23043292009340074A43EA4E
:102A48009000C3B2023352F82320030C93FAA3F385
:102A580002EA1040B3FA83F3D840704700380140C7
:102A680038B5364B14460D4618680B888208C3F3F0
:102A78000B03142B1AD803B3013B132B1DD8DFE823
:102A880003F00C130A135127311C1C1C1C1C1C1CA2
:102A98001C3D4725530C4FF4FA4020602B68B3F5D2
:102AA800805F43D2002038BD0020F6E7382BF4D0F1
:102AB80006D823F00403302BEFD06FF08500F2E73F
:102AC800442B0DD0A82BE8D0402BF6D11046E4E7D4
:102AD80000F0F0F81923B0FBF3F04FF4D873584323
:102AE8004008DAE700F0E6F81923B0FBF3F04FF4FA
:102AF800D87358430923B0FBF3F0CEE700F00EF982
:102B08001923B0FBF3F04FF4C07358430523F2E7E1
:102B180000F004F91923B0FBF3F04FF4C0735843E5
:102B28002823E8E70648B8E75000B6E7C3F31333AD
:102B38000133B0FBF3F02060B4E700BF3800012098
:102B480040787D01142808D8054BC34013F0010FC5
:102B580014BF00206FF0850070476FF08500704744
:102B6800EA001F0070B54E4D00F0FEF84D4C2846A7
:102B780004F033FC01F0B8F9A3684B4AC3F303131C
:102B8800D35C20FA03F613781D41AE4202D22846E0
:102B980001F0D8F9236823F480232360236843F4E1
:102BA800803323603F4B1A689103FCD55A6F42F07B
:102BB80001025A675A6F9207FCD59A6802F00C0214
:102BC800082A17D11A68940707D41A6842F0010234
:102BD8001A60344A13689807FCD5324B9A6822F079
:102BE80003029A609A6812F00C0FFBD19A6822F0DF
:102BF800F0029A602B4C236823F0807323602368CB
:102C08009901FCD4294AD2F8043823F44033C2F895
:102C18000438D2F8043823F0706343F01063C2F824
:102C2800043800F04BF8236843F0807323601D4C90
:102C380023689A01FCD500F075F8236843F08053A7
:102C4800236023689B00FCD5A36823F0F003A360EE
:102C5800A36823F0030343F00203A360114CA368A5
:102C680003F00C03082BFAD1AE4202D3284601F038
:102C780069F90F4B00200A4A1A60A36823F4E0534D
:102C880043F4A053A360A36823F4604343F40043D0
:102C9800A360D4F88C3023F08073C4F88C3070BDF6
:102CA80000E6DF0C00380240319E00080030024088
:102CB800380001200048704740787D01114B1249C7
:102CC8005A681140114A0A4311495A605A6811401A
:102CD800104A0A435A601A6842F080721A60A3F5D3
:102CE800E4331A6842F480321A605A68D203FCD579
:102CF8001A6842F400321A60074A53689B03FCD5ED
:102D0800704700BF003802400080BCFF196C4000CB
:102D18000080BFF0196C40090070004000487047FF
:102D280040787D010E4A536823F4800323F03F0363
:102D380043F4800343F0190353600A4BD2F8881018
:102D48000B4043F0A04343F4C043C2F88830D2F8A4
:102D58008C3023F4403343F40033C2F88C3070478E
:102D6800003802403F80FF8F064B82B01A6C42F059
:102D780080521A641B6C03F080530193019B02B0CC
:102D8800704700BF0038024008B5074804F0A0FEAD
:102D980038B10648FFF736FD0448FEF7CFF80020A3
:102DA80008BD6FF01200FBE75C850008B92D00082C
:102DB8000A2838B50446074D04D1AB680D212846CA
:102DC8005B689847AB68E1B202485B689847204661
:102DD80038BD00BF5C8500082DE9F843D0F80490A1
:102DE800904607460D46D9F808001E4604F05EFADC
:102DF800B8F5001F044616D1D9F808402846FFF751
:102E080017FE84420CD1294604F050FA0446FFF715
:102E1800ADFD2046FFF7FAFD00212046FFF7AEFD85
:102E28000020BDE8F883B8F5800F20D0B6F1806F98
:102E380019D0B6F1C06F18D0B6F1007F1AD10226AA
:102E48003A460F492046FFF7C1FDB0B9D9F8081036
:102E5800284604F030FA20463146FFF78FFD204619
:102E6800FFF76EFDDCE70126EAE70326E8E76FF0E7
:102E78008500D6E76FF01500D3E76FF00F00D0E7B5
:102E88006975000808B5044A0121044804F0B7F838
:102E98006FF0040008BD00BFC5990008088A000843
:102EA80098B5426800AF0369D26883F8521029B90F
:102EB800136823F440131360BD4698BD6C468AB06E
:102EC80003686A460848D161C2E905034FF40073F4
:102ED8001384064B42F8103F00234FF41151044865
:102EE800FEF728FBA546E7E7E39900080400000180
:102EF800088A0008F7B50446436806690F461C4867
:102F08000022DD68596883680192DB684BB96FF06D
:102F18000404184A0121184804F071F8204603B047
:102F2800F0BD01AA98470028F1DB376206F11007C7
:102F38004FF0FF324FF0FF33384601F007FB2B68A4
:102F4800204623F001032B6096F85210FFF7A8FFE4
:102F58002046019900F0A0F896F8513004461BB1BC
:102F68002B6843F001032B60384601F0BBFAD5E724
:102F7800B8830008F7990008088A000870B5044665
:102F8800466805694FF0FF320021284604F0D2FD5B
:102F9800336820469847002385F8503085F852302A
:102FA800012205F11000114604F0C4FD204600F08E
:102FB8003FF83169184B994222D015D8174B9942DE
:102FC80020D0174BCB1A594259418900204641F06D
:102FD8001001FFF78FFF041E18DA124A0121124868
:102FE80004F00DF8204670BD104B99420CD003F543
:102FF800C31303F5206399420CBF0A210021E5E7BA
:103008000621E3E70221E1E70821DFE701230024A5
:1030180085F85030E6E700BF40420F00A086010067
:10302800801A0600259A0008088A000840E1330043
:1030380037B5456801AA0021686904F0B2FB041E8F
:1030480007DB019B00221979186804F0BDFB041EF8
:1030580008DA0D4A234601210C4803F0D9FF20461F
:1030680003B030BD0A48696883681B683BB9094AE0
:10307800012106486FF0040403F0C1FFEFE7984709
:1030880004460028EBD0F2E7639A0008F8890008A4
:10309800B8830008819A00082DE9F04F85B04FF0F9
:1030A8000C08DFF8609100AF446803690020E56808
:1030B8007B60DFF854A1E369DFF850B1BB60BB68FF
:1030C80083427B681B6AFB600DD1C3F34202012A6D
:1030D8003CD0022A7AD0444A4448012103F08FFFA9
:1030E8006FF015001EE008FB00FCD4F818E0404A19
:1030F8000EEB0C067368934220D017D853451FD0A7
:10310800A3EB0B02534253419B00FA68C2F34202FD
:10311800B2EB530F18D15EF80C308B4214D1B36860
:103128002B6100201437BD46BDE8F08F314A934229
:1031380008D04B450CBF0A230023E6E70623E4E743
:103148000223E2E70823E0E70130B8E741F25C290F
:103158004FF47A6840F2E24E4FF4FA7C0220DFF82E
:10316800B0A0421EB1FBF2F2BAFBF2F2B8FBF2F6E3
:10317800013EFF2E33D8B9FBF2F3013BFF2B2ED8CB
:10318800BCFBF2F40F2C2AD8BEFBF2F2013A0F2A4C
:1031980025D843EA0444023844EA007444EA025455
:1031A80044EA06246E4688B06A46134B5361134BB3
:1031B800C2E90634042342F8103F00234FF40451B7
:1031C8000A48FEF7B7F9B5462C61AAE740F2145948
:1031D8004FF416784FF4FA7E40F2771CBEE70130C0
:1031E8001128BED1064A77E7B19A0008008A00087C
:1031F80040420F0040E133002C9B0008A79B0008C9
:10320800429B0008404B4C00A0860100801A060033
:1032180000CA9A3B2DE9F04184B000AF3D1DBC8D3A
:10322800D7F828C085E80E0043680269D968BB68EA
:10323800556493647B68D3640023C2E90D33D36378
:1032480001238B610B6843F001030B604B68156A1F
:1032580023F07F738E69ED073D7B23F4423348BF2B
:1032680044F4006423F47F7323F003034CBF234327
:1032780043EA440315F0020453D1BCF1000F52D0C5
:103288009CF800C01CF0040F02D143F080730124A5
:1032980082F84040BC68FF2C8ABF43F0FF7343EAC2
:1032A800044343F48033360610D4EC073DD4946CC1
:1032B80044B1D46C24788C62946C013C9464D46CD2
:1032C8000134D46423F4806343F400534B600B68E7
:1032D80043F0F6030B6097F80C800469456841F2E7
:1032E80088320023204601F031F90646D4E90D3230
:1032F80072BB73BBE0B1E36B002B52D06C4688B055
:103308006A46324951613249C2E90613042342F838
:10331800103F00234FF404512E48FEF70BF9A54641
:103328003EE00024B4E76446B2E743F48063CBE7A9
:1033380094F851303BB918F0020F04D0EA681368CA
:1033480023F00103136030461037BD46BDE8F08115
:1033580093B1E84688B06A461F4B53611C4B936192
:10336800032342F8103F00234FF4C8511948FEF7D1
:10337800E1F8A36BC54683B1E84688B06A46174BA7
:103388005361134B9361032342F8103F00234FF41A
:10339800C8511048FEF7CEF8C546E36B002BADD1F7
:1033A80086B16C4688B06A460D4B5361084B9361F1
:1033B800032342F8103F00234FF4C8510548FEF795
:1033C800B9F8A5466FF00406B8E700BF779B000878
:1033D8008E9B0008008A0008659B00086E9B000809
:1033E800829B000870B5094D0446CE17B423A1FB93
:1033F80005015A43002305FB0611FCF7E1FE044AC8
:103408000023FCF7DDFEC4E9000270BD705EDF0139
:1034180040420F0030B5436889B0046999880DF1BE
:103428000F0218683B238DF80F300E23009304AB6E
:1034380004F048FA051E06DA1249134804F03EFA69
:10344800284609B030BDBDF8103000255BBA23808E
:10345800BDF812305BBA6380BDF814305BBAA38044
:10346800BDF816305BBA2381BDF818305BBA6381AA
:10347800BDF81A305BBAA381BDF81C305BBAE38192
:10348800DEE700BFE39B0008D8890008F8B51546B9
:103498000469072900F2AC80DFE801F06182850445
:1034A8009DA2A688544EB4F90000E188C317A0FB7A
:1034B800060CC1F1200206FB03CCC840B1F1200381
:1034C8000CFA02F24CFA01F158BF4CFA03F340EA45
:1034D80002004A4A58BF18430023FCF771FEC5E9A9
:1034E8000002B4F90200E188C317A0FB060CC1F181
:1034F800200206FB03CCC840B1F120030CFA02F20B
:103508004CFA01F158BF4CFA03F340EA02003B4A77
:1035180058BF18430023FCF753FEC5E90202B4F96B
:103528000400E188C317A0FB0607C1F1200206FBCF
:103538000377C840B1F1200307FA02F247FA01F114
:1035480058BF47FA03F340EA02002C4A58BF184311
:103558000023FCF735FEC5E904020020F8BDB4F9E4
:103568000000254BC217E188A0FB030603FB026697
:10357800C1F12002B1F1200320FA01F006FA02F2AB
:1035880046FA01F158BF46FA03F340EA02001B4A23
:1035980058BF18430023FCF713FEC5E90002DCE717
:1035A800B4F90200DDE7B4F90400DAE7228A284614
:1035B800B4F90A10FFF716FF228AB4F90C1005F1C6
:1035C8000800FFF70FFF228AB4F90E1005F110006A
:1035D800FFF708FFC1E7228AB4F90A102846F7E77F
:1035E800228AB4F90C10F9E7228AB4F90E10F5E72B
:1035F8006FF08500B2E700BF3AA3950040420F0084
:103608002DE9F04F89B04568066902AF286804F0D3
:103618005FFA0346D0B92A686C4688B0116802AAD6
:103628005E48C2E905014FF4007191835C4942F894
:10363800101F4FF4E2515B48FDF77CFFA5466FF081
:10364800120420461C37BD46BDE8F08F75234FF0A5
:103658000109286807F10C02A9883B73BB1DCDF846
:10366800009004F02FF9041E04DA4F494D4804F085
:1036780025F9E6E7BB79702B06D04C496FF0850435
:10368800484804F01BF9DCE7D5F800804FF06B0AD6
:1036980095F804B0FB1D87F80CA007F10C025946F9
:1036A8004046CDF8009004F00DF90446D8B9FB79EE
:1036B8005A061CD523F0400387F808A07B7207F14F
:1036C8000803FB6002233B613B753B7D07F10C015E
:1036D800D8F80820404643F002033B755B469468DF
:1036E8004A46A0470446002C01DA3149BEE7EB7A86
:1036F800032B07D92F4A01212A486FF0150403F03C
:1037080087FC9EE7DB001C21284603F0F80204F042
:10371800F5F8041E01DA2849A8E7EB7AC3F10E038D
:10372800F380AB7A032B01D9244AE4E7DB001B21A1
:10373800284603F0F80204F0E1F8041E01DA2049F3
:1037480094E76B7A072B01D91E4AD4E71A461A2147
:10375800284604F0D3F8041E01DA1B4986E72B7BC0
:10376800072B01D9194AC6E71A461D21284604F035
:10377800C5F8041E01DA164978E72A7A192128467D
:1037880004F0BCF8041E01DA12496FE7AA7A002493
:10379800114B33F81230338253E700BFFF9B000808
:1037A80003000001D8890008149C00082C9C00081C
:1037B8003D9C0008559C00086D9C0008959C0008DD
:1037C800AC9C0008D39C0008EC9C0008179D0008DE
:1037D800319D00085D9D0008649100082DE9F041C5
:1037E80082B080460D46436800AF1E68002936D077
:1037F800586819698368DB686BB13A1D9847041EDD
:103808000CDA1A4A01211A4803F0F9FB2046083756
:10381800BD46BDE8F0816FF05704F2E7336823F442
:10382800004333607B6803EB5503B3FBF5F30F2BC1
:1038380018D86C468AB0D8F800306A460D49D56168
:10384800C2E905134FF4007313840B4B42F8103F81
:1038580000234FF411510648FDF76CFEA5466FF0A2
:103868001504D3E79BB20024F360CFE7F79900086B
:10387800588A0008929D000804000001F8B50C461B
:10388800036941681D682379012B15D09F1E7E426C
:103898007E41B6026279022A96BF464F4FF400571E
:1038A80037F81270A279022A09D0042A30D0003BD6
:1038B80018BF01231B0306E04FF4C066EAE7B3FA1A
:1038C80083F35B091B07E2790968012A14BF4FF0EB
:1038D800000C4FF4407CA5421DD10A6822F08052AA
:1038E80022F4B05232431A430A604B6823F440531F
:1038F8003B434B6043681A68936823F4407343EA78
:103908000C0393602968FFF769FF00EAE070F8BDCF
:103918004FF48053D7E7D1F800E00EF4C06E764537
:1039280006D0D1F800E02EF4C06E4EEA06060E600E
:1039380041680E68716801F440518F4204D0716883
:1039480021F440513943716041680E68316801F0D3
:1039580010218B4204D0316821F010210B433360D1
:10396800436819688B6803F440739C4505D08B68DD
:1039780023F4407343EA0C038B6043681B6899681F
:10398800490405D5032A09D09A6822F4804204E044
:10399800032A03D19A6842F480429A6021682B680E
:1039A800994205D0FFF71AFF0028B0DB23682B6087
:1039B8000020ACE76C9100082DE9F04182B0064682
:1039C800456800AF6868296983681B685BB96FF050
:1039D8005704604A0121604803F011FB204608376C
:1039E800BD46BDE8F0819847044618BB3A1D002142
:1039F800686A03F0D6FE041EF0DB7B6800221979A2
:103A0800186803F0E1FE041EE8DB756833692C686A
:103A1800D3F80080236823F001032360A86804F02A
:103A280057F878B94D4A01214B486FF0120403F05A
:103A3800E6FAD3E7474A0121474803F0E0FA002CA9
:103A4800CCDBD3E7D5E902018368DB6803B198478B
:103A580054E8003F43F00C0344E80032002AF7D151
:103A680041463046FFF70AFF00284DDB2B7E1BB18D
:103A7800A36843F00803A3606B7E1BB1636843F43B
:103A880000436360AB7E1BB1636843F480336360BB
:103A9800EB7E1BB1636843F4003363602B7F002B1C
:103AA8004FD02F4B9C4232D0A3F54C439C422ED092
:103AB80003F580639C422AD003F580639C4226D09C
:103AC80003F580639C4222D003F544439C421ED0F8
:103AD800A3F51C439C421AD003F580639C4216D080
:103AE8006C4688B033686A461E49C2E905134FF42C
:103AF800007393831C4B42F8103F00234FF4E251AC
:103B08001548FDF717FDA5466FF0150466E77368BD
:103B18001A68936843F48043936023686A7F23F0AC
:103B2800787343EA425323602368AA7F23F4F81387
:103B380043EA02432360EB7F1BB1A36843F40043CD
:103B4800A360236843F001032360E3699B02FCD56B
:103B5800002443E7A99D0008588A0008C99D000869
:103B680000100140E49D000803000001F8B5436817
:103B780002460E4691F805E01C68036908791D683D
:103B880001288B7913D1BEF1020F69D9022B1F4688
:103B98004FF4C0614FF4005C7AD0042B73D0002836
:103BA8007BD0C31E012B70D86FF08500F8BD0228AA
:103BB8000AD1BEF1020F5FD9022B1F464FF4806174
:103BC8000BD04FF4005CE8E7BEF1020F57D9022B87
:103BD8001F4656D100286BD00021C31E012BE3D904
:103BE8000020022703237345DED103F0A2FEB8426A
:103BF800DAD1F37903B3012B62D1334B9C421BD04A
:103C0800A3F54C439C4217D003F580639C4213D024
:103C180003F580639C420FD003F580639C420BD070
:103C280003F544439C4207D0A3F51C439C4203D0B0
:103C380003F580639C42B7D123683146104623F0D0
:103C480001032360FFF71AFE0028ADDB236843F069
:103C58000103236096E8030085E803000020A5E738
:103C68004FF4C061194F022B37F81EC01F4694D17C
:103C780070B94FF0805010E04FF48061F2E70021F6
:103C8800F0E700219DE700288ED14FF4805004E032
:103C9800C31E012B88D902270020BCF5805F0BD0FA
:103CA800BCF5405F0AD0BCF1000F9BD101239AE715
:103CB80001464FF0805095E7002394E7022392E7EE
:103CC800032B9AD070E700BF001001406C910008E8
:103CD8004FF0E0230F4910B59C691A6908689B6981
:103CE80002F480320C4934B993B903464AB90A68D8
:103CF8001044C01A10BD002B08BF03460AB9A342DE
:103D0800F5D90A6802440A604FF0E0221269EEE72A
:103D18000446F3E7A00D01209C0D0120094B102259
:103D2800002083F8232045F26042074B1A6045F2D1
:103D38005F42064B18604FF0E0235A6107229861F2
:103D48001A61704700ED00E0A00D01209C0D0120D4
:103D5800684620F007018D4619B5FFF7B9FF1149EC
:103D6800114B0868D3E90042001942F10002C3E987
:103D780000020E4A00230B6045F26043D2E900417D
:103D8800001BB0FBF3F043431B1941F10001C2E9EA
:103D9800003101F0E5F9FEF7F1FABDE81940854672
:103DA800704700BF9C0D0120F8070120F007012093
:103DB8002DE9F041DFF8F08099B1421C0BD14FF0AA
:103DC800E022136923F0010313614FF07F43C8F821
:103DD8000030BDE8F081D8F80060012807DC002732
:103DE8000BE0431CD8F80060F7D140F20730B0F57B
:103DF800427FA8BF4FF44270471EEFF3118510238E
:103E080083F31288BFF36F8FFFF762FF224C4FF0E6
:103E1800E0239969D4E9002380184FF0000243F1A8
:103E28000003C4E900031D4B1A601D4B1A68831A6E
:103E38002ED445F2604C0CFB073303F5A8435F33DF
:103E4800B3FBFCF7131A40F246520CFB07339342BC
:103E580038BF1346134A934228BF1346C8F80030A8
:103E68004FF0E022013B9069536100238142936146
:103E7800A1EB0003D4E9001238BF9B195B1842F18B
:103E88000002C4E9003285F31188BFF36F8FA0E701
:103E980040F24653E2E700BFF80701209C0D0120DD
:103EA800F0070120A06EFF00A00D012038B5EFF348
:103EB8001185102383F31288BFF36F8F084B1C689A
:103EC800084B1B68E41AFFF703FF85F31188BFF35B
:103ED8006F8F45F260432044B0FBF3F038BD00BF5C
:103EE800F8070120F0070120134908B58B6803F093
:103EF8000C03042B1BD0082B1BD14A684B6849685C
:103F080002F03F0213F48003C1F388111ABF0B4873
:103F180000230B48A1FB0001FCF7A2F9064B5B68E4
:103F2800C3F3014301335B00B0FBF3F008BD034862
:103F3800FCE70348FAE700BF0038024040787D01FB
:103F48000024F40000285DD02F4B1A681B6802F487
:103F58004042B2F5404F33D113F4803310D102F10F
:103F68000F6202F58C52904248D8284A904247D8AE
:103F7800274A904235D8274A904209D902230DE0B2
:103F8800254B984238D8234B98424FF0060305D862
:103F9800224A904202D9012B38BF012320490A68DE
:103FA80022F00F021A430A600A6802F00F029342D5
:103FB80002D00A6802F00F02981A18BF0120704751
:103FC80003F44043B3F5004F05D103F10F6303F544
:103FD800A343984212D80D4B984211D80C4B9842E3
:103FE80001D90323DAE70B4B9842C7D80B4B984209
:103FF80094BF00230123D1E70723CFE70523CDE7AB
:104008000423CBE70120704700700040000E27070B
:10401800804A5D05008793038058840C80C3C901DA
:10402800003C024010B50446FDF7B4F903480121ED
:10403800034A02F0E4FF204603F055FD308A0008E9
:10404800419E00082DE9F843044600AF0D46EFF302
:104058001188102383F31288BFF36F8F0428294A2D
:10406800E9468AB098BF284B9668117C6A4694BF87
:1040780053F82030254BC2E9073140F20133244878
:104088009384244BC2E9050442F8103F00234FF4FF
:1040980031512148FDF74EFACD4645B1EB69C3F3DE
:1040A800080323B11D4A01211B4802F0A8FF2EB1C5
:1040B800304603F09FFD08B1037803B91848E94674
:1040C8008AB06A46174BD061C2E9053640F201331F
:1040D8001384154B42F8103F00234FF411510E483A
:1040E800FDF728FA29462046CD46FFF79BFF88F3BF
:1040F8001188BFF36F8F3046FEF750F9BD46BDE813
:10410800F88300BFA40D012080900008509E00088D
:10411800669E000805000001308A00088E9E00088F
:104128005E9E0008AF9E00080400000138B50A4BE7
:1041380053F82040013053F82050A54200D838BD2C
:10414800606830B1037EDB0701D403F0A9FC0834B2
:10415800F3E723689847FAE7949000082A4B01226E
:10416800032070B5294C86B0294D1A70FFF7DEFF81
:1041780001F022F90420FFF7D9FF26463034AE4279
:1041880010D3224C00F016FD224EAC4226D300F08C
:1041980025FDFCF7ABFA204A938923F001039381AC
:1041A80006B070BD54F80C3C059354F8103C0493C9
:1041B80054F8143C039354F8183C029354F81C3CEC
:1041C800019354F8203C009354E90A2354E90C0164
:1041D80000F056FB54F8303C5E65CEE7D4E90A237C
:1041E800B3F1FF3F08BFB2F1FF3F05D052EA030128
:1041F800206803D103F0B8FD3034C6E731461830E3
:1042080000F01EFFF8E700BFF20D0120E08800086B
:1042180040890008DD7C0008C008012070B5C02373
:10422800144E86B0012203FB00660023124D04469B
:1042380001931249CDE904230F2201EB4021CDE976
:10424800023218234FF4C07203FB00550C4B304662
:10425800009500F015FB337C0A4A23F00403EE6056
:104268002C7433744FF4086304FB033313446B60FA
:1042780006B070BD00080120A40D01200023012014
:10428800FF7A0008801A0120BFB50020FFF74EFF13
:10429800274B83F30888274D0024F023264F85F801
:1042A8002230EC772C766C76AC7685F820406B6AF9
:1042B80043F4E0236B62FDF717FFFEF759F84FF060
:1042C800FF33AB62EB62FEF7ADF91C4DFEF7EEF87B
:1042D800FCF7C2FF1A4800F04DFBFCF77BFE0120FB
:1042E800FFF724FF0220FFF721FF00F0A1FC154B88
:1042F80015494FF480629D612846144B009405933C
:104308000123CDE90144CDE903433B4600F0B8FA67
:104318002A7C0646284622F004022A7403F0A6FCEA
:104328002046FFF77BFF3A4631462846FDF7F4FF63
:104338000023012000ED00E065410008C0080120CD
:1043480080090120A40D01200025012049930008BF
:104358002DE9F34104460E469DF8200004F10808B3
:10436800EFF31187102181F31288BFF36F8F256A4D
:10437800E1688D4241D22568AC4219D0C5B12846C2
:1043880003F0C4FB05F1180003F047FDA268002400
:104398003146686903F0BCFD2846AC6703F066FC4B
:1043A8004046394603F0BCFC204602B0BDE8F08127
:1043B800A268A8B13146E06903F0AAFDE369A268E2
:1043C800134462699342E36101D12369E361236A7B
:1043D80000200133236287F31188BFF36F8FE4E76E
:1043E800A16923699942314604BF6369A361A06941
:1043F800801AA06103F08CFDE9E752EA03010AD0B4
:104408000649404689684E613946CDE9002322466F
:1044180000F09AFBC9E76FF02200DCE7A40D012049
:10442800F7B50446084604F10807EFF31186102192
:1044380081F31288BFF36F8F216A002939D0A268EF
:10444800A16903F065FDA369A26825681344626940
:104458009342A36104BF2369A361AC42236A03F1B9
:10446800FF33236233D02846002D31D003F04EFBB2
:1044780005F1180003F0D1FCA2686969E06903F04E
:1044880047FDE369A2682846134462699342E361E1
:1044980004BF2369E361236A013323620024AC6704
:1044A80003F0E4FB3846314603F03AFC204603B0FB
:1044B800F0BD52EA030110D00949896848613146C4
:1044C8003846CDE90023224600F03EFBEFE7002006
:1044D80086F31188BFF36F8FE9E76FF02200F7E7E3
:1044E800A40D012070B5EFF31186102383F3128811
:1044F800BFF36F8F0468A0421AD0CCB1002504F135
:104508001800D4E9003213605A60237CA56023F0B8
:104518000203C4E90055237403F07FFC2046A56715
:1045280003F0A4FB31460848BDE8704003F0F8BB2F
:10453800D0E902329A4218BF0133836086F31188AA
:10454800BFF36F8F70BD00BFF30D012013B5EFF3FC
:104558001181102484F31288BFF36F8F846844B1EB
:10456800013C846081F31188BFF36F8F002002B093
:1045780010BD52EA030406D181F31188BFF36F8F8F
:104588006FF00F00F3E7CDE900230246014800F081
:10459800DBFAECE7F30D01202DE9FF410446102773
:1045A8004E4EEFF3118887F31288BFF36F8FD4F85C
:1045B800C450F5B9022104F1DC0003F0C7FA002861
:1045C80068D004F1D40500220121284603F0ECFB51
:1045D8000028F8D100234FF0FF32414640480293AB
:1045E8004FF0FF33CDE9002304F1CC0200F04EFC7C
:1045F800D7E7D4F8C8202B689542C4F8C43008BF60
:10460800C4F8C830D4F8DC3043F00203C4F8DC3016
:10461800EB6823F0040343F00103EB606B6888F355
:104628001188BFF36F8F28469847EFF3118887F3F7
:104638001288BFF36F8FEB68D80623F0010236D4D7
:10464800EA60EB689A0716D523F002033068EB603E
:1046580088B10368002170B14268954235D103687A
:1046680069BB72683360824200D17360002340F8EE
:10467800083BFFF737FFD4F8DC3023F00203C4F817
:10468800DC3088F31188BFF36F8FDB0589D400F025
:10469800D7FA86E7D4F8DC30D9069BD5C4F8DC0015
:1046A80088F31188BFF36F8F04B0BDE8F08123F061
:1046B8001103EB6005F11000FFF714FFC1E70B6071
:1046C8007368834208BF7160D0E723B11A68014656
:1046D80018461346BFE71A46F9E700BFC80D012080
:1046E800F30D0120F8B5C36804460F469A07C3F3D3
:1046F80040062DD45B071BD40B680BB983680B608D
:10470800E368DD0745BFA368022601263B603D68D4
:10471800002D3CD01F4B9A68D5F8C0309A420AD079
:10472800D5F8DC30D807C3F3800214D46FF0120632
:1047380000233B6025E003F054FAD5F8DC3000286C
:10474800F0D1D907C3F3C002F0D552B15B0708D442
:104758006FF00F06ECE7002AFAD1C3F3C003002B71
:10476800F6D100232360D5F8C83063B9C5E93144D0
:10477800284603F005FAE36843F00403E3603B6866
:10478800A3603046F8BD1C60C5F8C840F0E76FF07C
:104798001506CDE7A40D0120F0B50446002089B028
:1047A800C4E9310004F1CC000E9DC4E9330004F1E2
:1047B800D400C4E9350055B32879002840F2011027
:1047C80008BF0120C4F8DC0000204FF0FF364FF08E
:1047D800FF370094CDE90330CDE901000D4B2046A9
:1047E800CDE9066700F09AF855B1296811B120465D
:1047F80003F0FDF96B791BB1A38943F00103A38191
:10480800204603F0B1FAC4F8C04009B0F0BD012059
:10481800D8E700BFA1450008F7B50C4616461D4667
:104828000190EFF31187102383F31288BFF36F8F82
:10483800084603F096F955EA060309D101A920466E
:10484800FFF750FF87F31188BFF36F8F03B0F0BDF8
:10485800E3683246064904F1100043F00803E360B8
:10486800019BA3622B4600F0EBFB0120EAE700BFA7
:10487800977B000801460148FFF7CEBF600A012078
:1048880007322DE9F04322F0070285B00E461F4695
:10489800109900F15803FF3204468181042122F067
:1048A8007F0206F1800901747F2AA2F18008C0E91D
:1048B80016334FF0000383600F98E373A073C4E9C5
:1048C800063305D883F31188BFF36F8F084602DFDC
:1048D800B51820462946FDF7C5F907300E9B314625
:1048E80020F00700C4E91898A0662D1A0293204604
:1048F8000D9B2A4601930C9B00933B46FDF78EFCCB
:1049080000236365044B9B6803B1DB6E2846E366AE
:1049180005B0BDE8F08300BFA40D0120F0B5002567
:1049280087B004460595109D04950F9D03950E9D2F
:1049380002950D9D01950C9DDDE912760095FFF716
:104948009FFFB6F1FF3F08BFB7F1FF3F05D056EA1A
:10495800070305D1204603F007FA204607B0F0BD4B
:104968003A46334604F11800014900F069FBF4E7C0
:10497800DD7C00080123037483810023C0E9183318
:10498800C366014B98607047A40D0120094A6FF077
:104998000A0193689967084958674B6843F0805340
:1049A8004B60002383F31188BFF36F8F9368986F70
:1049B800704700BFA40D012000ED00E070B590F92C
:1049C8001020037C002A36DBD90634D11B4C63F057
:1049D8007F0322460374216A52F81C3F934207D191
:1049E800C0E900210860206211E09942F8D01B68F4
:1049F800002BF5D090F90E5093F90E60B542F4D023
:104A0800AE42F2DD5968C0E9003108605860E569D6
:104A1800954200D005B9E568A3681A7CD20604D18E
:104A2800DA897F2A01D9AA6932B1AB4202D0284675
:104A380000F06EFAA56170BDA361FCE7A40D01202A
:104A480038B590F910200146037C002A04DA03F0F7
:104A58007F03037403F0D0F80D4D2A46AB6852F873
:104A68001C4F944200D004B9EC688B4207D01A7CE2
:104A7800D20604D1DA897F2A01D9A2692AB1A342D0
:104A880002D0204600F044FA2346AB6138BD00BF8F
:104A9800A40D0120B3F1FF3F08BFB2F1FF3F03D0DF
:104AA8000249183000F0CCBA704700BFDD7C00081E
:104AB800034648B9EFF3058232B9064A916992680C
:104AC800914201D0FFF762BF83F31188BFF36F8F64
:104AD800704700BFA40D012038B5194CA168206AA1
:104AE8000B68814214BF1A46002249680B6059605E
:104AF800A368216A2AB9134AC3E900210B6023621B
:104B08000CE093F90E0092F90E50A84214D0854299
:104B180012DD5168C3E900210B605360E569094B58
:104B28009D4200D005B9E568A3689D4202D0284699
:104B380000F0EEF9A56138BD9142DCD01268D9E7E2
:104B4800A40D0120C00D0120F8B50E4B0C461146EE
:104B58000D4A9868DDE906671060EFF311821022AC
:104B680082F31288BFF36F8F9D68284603F056F8CA
:104B7800284632463B46FFF78DFF2046BDE8F84001
:104B8800FFF704BFA40D0120D00D0120034648B94A
:104B9800EFF3058232B9064A91699268914201D0D1
:104BA800FFF7F4BE83F31188BFF36F8F704700BF20
:104BB800A40D0120EFF31181102383F31288BFF3B2
:104BC8006F8F054B9A68D37B013BD37381F31188B0
:104BD800BFF36F8F704700BFA40D012070B5EFF3CE
:104BE8001186102383F31288BFF36F8F0F4DAB68C4
:104BF800DA7B0132DA732A4652F81C4F944200D00D
:104C080004B9EC681A7CD20604D1DA897F2A01D962
:104C1800A2692AB19C4202D0204600F079F92346C5
:104C28003046AB61BDE87040FFF742BFA40D0120DC
:104C3800024B03F11C02C3E907227047A40D0120AF
:104C480070B5EFF31186102383F31288BFF36F8FCB
:104C58001B4CA168206A0B68814214BF1A460022C7
:104C680049680B605960A368216A2AB9154AC3E9E3
:104C780000210B6023620CE093F90E0092F90E50AC
:104C8800A84218D0854216DD5168C3E900210B609F
:104C98005360E5690B4B9D4200D005B9E568A368F0
:104CA8009D4202D0284600F033F93046A561BDE8A0
:104CB8007040FFF76BBE8A42D8D01268D5E700BFB4
:104CC800A40D0120C00D0120F8B550EA01030646E5
:104CD8000C4603D1FFF7B4FF0020F8BDEFF31187AE
:104CE800102383F31288BFF36F8F124D124BA868FD
:104CF8001860FFF7A5FEA868234632460F4918300A
:104D080000F09EF9AA6804463846137C43F0040371
:104D18001374FFF73BFEAB68D3E90A23B3F1004FE6
:104D280008BF002AD8D103F0BCF8201A20EAE070A6
:104D3800D3E700BFA40D0120D00D0120DD7C0008C1
:104D4800014B9868704700BFA40D01202DE9F84376
:104D580004468789EFF31185102383F31288BFF384
:104D68006F8F037C190705D585F31188BFF36F8F03
:104D7800BDE8F883D90943F008025DD10274A3683D
:104D880013B1204602F040FF04F1180004F158085E
:104D980003F043F8A66DB04511D04FF0000976B185
:104DA800304602F031FF06F1180003F036F83046BD
:104DB800C6F87890FFF702FEA66DB045EFD1DFF890
:104DC800C880D8F808309C423ED1EFF30589B9F184
:104DD800000918BF4FF00109D8F81C60284A96420C
:104DE80000D00EB9D8F80C60B34202D0304600F0BB
:104DF8008FF82046C8F8186002F0DEF9B9F1000F04
:104E080002D02048FFF7B6FDD8F808309C4231D1CF
:104E1800EFF3058373BBA289D20718D42846FFF79E
:104E2800B5FDFB07A4D5002383F31188BFF36F8F6B
:104E38000423184602DF9BE703F07F0343F00803CF
:104E4800037402F0D9FE9AE74FF00009C4E785F32E
:104E58001188BFF36F8F83F31188BFF36F8F04231B
:104E6800184602DFEFF31180102383F31288BFF393
:104E78006F8FD4E785F31188BFF36F8FD1E700BF39
:104E8800C00D012080090120A40D0120D3B5DDE962
:104E98000667089CCDE90067FFF756FE1CB1034B77
:104EA8009B685B69236002B0D0BD00BFA40D0120E0
:104EB800027C034612F01F0210D10A4988420DD025
:104EC8000949086868B1D9897F2909D893F90E205A
:104ED800064B1B689A42B8BF0020704700207047F5
:104EE80010467047000801203C000120D40D012025
:104EF800044B0122C01A044BC0105843034B1A54E8
:104F0800704700BF400A0120ABAAAAAAF30D0120EE
:104F18000D4B70B51E7CFFF7CBFF0C4D044606EB1E
:104F2800460305EBC305284602F077FF084B00222D
:104F38009A553CB1621E28460649D317BDE8704011
:104F480000F07EB870BD00BFA40D0120400A01200A
:104F5800F30D0120F94E000838B5EFF31185102341
:104F680083F31288BFF36F8F0F4B104A9C68106849
:104F7800A04206D1FFF7CCFF85F31188BFF36F8FEE
:104F880038BD00211B7C1160094AD35C002BF3D08B
:104F98002046FFF78DFF0028EED0237CDB0601D1E9
:104FA800FFF79AFD2046E5E7A40D0120D00D01206A
:104FB800F30D0120024B1868984208BF0020704783
:104FC80040000120034B1B680BB9FEF76FBF0020A0
:104FD800704700BFD80D012030B570B10B4B5B682E
:104FE80098420AD0036843B1D3E90421D0E90445C3
:104FF800121941EB0501C3E90421D0E9003213601D
:105008005A600023C0E9003330BD00BF40000120D2
:1050180070B50A490246FFF7CDFF034600204D68E8
:10502800014603B970BDD3E90446001941EB0601F6
:105038009342F7D09D42F5D01B68F2E7400001206B
:10504800B3F1FF3F08BFB2F1FF3F2DE9F84F044627
:10505800994615461F467AD08160EFF311881023D0
:1050680083F31288BFF36F8FB9F1000FDFF8E8A060
:1050780020DBFFF7A7FF0135064649F100092D1887
:10508800DAE9002749EBE0734FF00109C4E904535A
:10509800AD1843EB0707FFF78DFFDFF8C0E00346C5
:1050A800DEF804A0EBB9C4E900EACAF80040CEF87B
:1050B800044028E0DAE900126FF001035B1A4FF0B0
:1050C800FF3161EB02025B1B62EB0902012B4FF01F
:1050D800000972F10001BCBF01230022C0E90432BB
:1050E800D9E7D3E9041CD4E904208A4270EB0C0BFD
:1050F80024DA891A5A686CEB0000C3E90410C4E981
:10510800003214605C60FFF755FF84420ED1114BEA
:105118001B685BB9B9F1000F02D1FFF753FF0646D0
:10512800304602F063FE0021FEF742FE88F3118844
:10513800BFF36F8F28463946BDE8F88F521A60EBE7
:105148000C009A45C4E90420ADD01B68AAE70025E5
:105158002F46EFE7D80D0120580A01204000012012
:105168002DE9F047EFF31185102383F31288BFF37D
:105178006F8F264F4FF00008254E4FF0000938601A
:10518800FFF718FF3B68D6E9001E4FEAE37C50B1F1
:10519800D0E90442A3427CEB020A1ADAE41A62EB71
:1051A8000C02C0E904425B184FF000044EEB0C02FD
:1051B80020463C60C6E9003202F018FE2146FEF7A0
:1051C800F7FD85F31188BFF36F8FBDE8F047FFF750
:1051D800C3BE61184EEBE473C0E90489C6E9001345
:1051E800FFF7FAFE85F31188BFF36F8F836898473E
:1051F800EFF31185102383F31288BFF36F8F3B6899
:105208001B1B3B60FFF7D6FEBCE700BFD80D012093
:10521800580A012010B5EFF31184102383F3128884
:10522800BFF36F8FFFF7CEFE054A0346D2E90001B0
:10523800181841EBE37184F31188BFF36F8F10BD29
:10524800580A0120F8B50646EFF31187102383F3B7
:105258001288BFF36F8F026822B187F31188BFF3FA
:105268006F8FF8BDD0E90A54691C44F10003022984
:1052780073F1000334D3013D44F1FF34002CBCBF6B
:1052880015462C4602F011FE013041F1000140198B
:1052980044EB0101012871F1000149DB02F005FE30
:1052A80001306FF0020341F10001401944EB0101A4
:1052B80083426FF000438B413FDB02F0F6FD013083
:1052C8006FF001024FF0FF3341F10001401944EB48
:1052D8000104121A63EB04031A493046FFF7B0FEC3
:1052E800336B01333363336A6BB187F31188BFF3D0
:1052F8006F8F336A30469847EFF31187102383F393
:105308001288BFF36F8F334653F8184F9C42A4D0CE
:10531800002CA2D0204602F0B8FC0023A36787F334
:105328001188BFF36F8F2046BDE8F84002F09EBC9D
:105338006FF001024FF0FF33CEE700224FF0004339
:10534800CAE700BF4D5200082DE9F04105461C464A
:1053580090461F46EFF31186102383F31288BFF39C
:105368006F8FB4F1FF3F08BFB2F1FF3F05D186F35D
:105378001188BFF36F8FBDE8F081002C09DB012A8B
:1053880074F10003BCBF0122002412F1FF3844F17C
:10539800FF37284602F041FD28460649DDE9062385
:1053A800C5E90A23002342462B633B46FFF748FE24
:1053B800DDE700BF4D520008014801F06BBA00BF9D
:1053C800149F000838B5064C064DAC4201D30020A6
:1053D80038BDD4E901122046143402F090FDF4E7F8
:1053E800F8000120F8000120074B07B54FF4806250
:1053F800009306494FF0FF330548FFF7CDF9002029
:1054080003B05DF804FB00BFAC90000880290120C0
:10541800600A01200FB407B5064B04AA186852F8B1
:10542800041B019200F0EEF803B05DF804EB04B041
:10543800704700BF388F0008F8B50E4B1D68AB7871
:105448009B07064612D56F6816F8014B29462CB9FA
:105458000A20B847002805DB204609E02046B8475F
:105468000028F1DAAB7843F00403AB704FF0FF305B
:10547800F8BD00BF388F00080CB430B58BB00446B7
:105488000D462022002102A802F050FD02238DF8CB
:105498000A30002D0C4B0393069412DB01D06B1ECF
:1054A8001C440FAA0E99079402A8019200F0AAF8CA
:1054B80015B1069B00221A700BB0BDE8304002B04F
:1054C80070470024EDE700BFC98200082DE9F041CC
:1054D80001260746B24201DCBDE8F0813B461F4683
:1054E80013F8014B002CF7D0252CF8D11C78252C6B
:1054F80007F10207F2D00023DFF804819C461D461D
:105508001F2D18D8A4F1200EBEF1100F09D9A4F14F
:10551800300EBEF1090F1ED80A2404FB03E3202530
:1055280004E028FA0EFE1EF0010F06D017F8014B12
:10553800002CE5D128E07F2D1CD8A4F1300EBEF157
:10554800090FE9D9242C10D1BCF1000F46D0B34281
:1055580046D00023EAE724F0040EBEF12A0FF8D063
:105568006C2C09D145F08005E0E724F0040EBEF16B
:105578002A0FEED06C2C22D06C2C1BD8682C23D090
:105588006A2C28D04C2C26D0BCF1000FA4D0B445EE
:10559800A0D144F02007A7F1650CBCF1020F0B68FD
:1055A80001D9612F1ED1073323F0070308330B609D
:1055B80001368EE7742CB9D07A2CB7D0E4E72C06E4
:1055C80048BF45F40075CDE7EC0548BF45F40075C4
:1055D80045F48075AAE745F42075A7E79C46B8E727
:1055E8006324D6E7692C02D007D8632C03D02F0692
:1055F80001D5AC05D7D40433D9E7732CF6E700BF3F
:10560800892801002DE9F04F93B04368019383780E
:1056180080469807CDE9061217D50B920B46002550
:105628001F78A7B1252F16D001330593019B41465A
:1056380038469847002805F1010580F2358498F826
:10564800023043F0040388F802304FF0FF35284653
:1056580013B0BDE8F08F5F789A1C252F0592E5D02E
:1056680000242646A246A346BBF11F0F32D8A7F155
:105678002003102B0AD8DFE803F02409092A0909B6
:10568800091B09090922092709091900A7F130038B
:10569800092B2DD92A2F39D154B90B9B1BF0400F58
:1056A80053F8042B0B9329D0164601E04BF0010B5D
:1056B800059B13F8017B0593002FD5D15BE04BF0D8
:1056C800020B4BF0040BF3E74BF0080BF0E74BF041
:1056D800100BEDE7BBF17F0F3FD8A7F13003092B83
:1056E800D8D81BF0400F03D00A2202FB0636DFE7AA
:1056F8000A2202FB0A3A4BF0200BD9E7B2F1000A62
:10570800F9DACAF1000A4BF0280BD1E72E2F05D1A0
:105718001BF0400F9BD14BF0400BC9E7242F1CD145
:10572800002C00F04181079B0B931BF0400F0AD11E
:10573800524606980BA9FFF7C9FE0B9B1A1DD3F812
:1057480000A00B92B4E7324606980BA9FFF7BEFEFD
:105758000B9B1A1D1E680B92AAE76C2F00F0118193
:1057680000F20881682F00F014816A2F00F0198177
:105778004C2F00F0168134B1079B06980B932246F4
:105788000BA9FFF7A3FE002E47F02009B8BF2BF0A6
:10579800400BA9F16503BCBF1FFA8BFB0026022B47
:1057A80040F20781B9F1610F40F06482FF4307F0CE
:1057B800200304930B9B073323F007031BF0400FD0
:1057C80003F1080208BF4FF0FF3693ED000B0B9270
:1057D8003146049A0CA802F0DCFC0130C3B2B34293
:1057E8004BF4C054029301DB029B5E1E01230C9F05
:1057F8000393A3464FF0700907F10903122B0DD943
:1058080007F16303C62B40F20D8107F2E73340F23C
:10581800CE72934294BF0323042303939DF834204C
:1058280002F00C0312F0010240F017811BF0020F86
:1058380040F010811BF0040400F0F680002B40F0CB
:105848000F8120231BF4405F1FD1029A4832002E9B
:105858006A4408BF0126133A029921B112F8011DC2
:10586800302900F034811BF0100F029A18BF32461D
:10587800391DC0F23181B74280F22E81BA424BF411
:10588800005B40F32B817E1C961B1BF40052089290
:1058980000F0268127EAE774013403B10134002EB1
:1058A80000F02681721C1444A245CCBFAAEB040464
:1058B80000241BF0090F04D12C44A54240F01D819F
:1058C800002443B118464146019B9847002805F13A
:1058D8000105FFF6B4AE1BF4006F13D0019B4146DF
:1058E800302098470028FFF6AAAE049BC3F1780041
:1058F8004146019B00F0F8009847002805F1020591
:10590800FFF69DAE1BF0080F05D12C44AC4240F0C9
:10591800008125460024089B002B00F01A8127EA05
:10592800E77AA7EB0A077642029BBB4284BF0CAB1F
:10593800FB180AF1FF3A88BF5879019B98BF3020BD
:10594800564505F10109414600F3ED8098470028C6
:1059580007F10107FFF673AEBAF1FF3F08D1019BCB
:1059680041462E2098470028FFF669AE05F1020946
:105978004D46D9E7742F3FF49BAE7A2F3FF498AE8B
:10598800F9E61BF0800F18BF4BF4007B4BF0800B3F
:105998008EE61BF4807F18BF4BF4007B4BF4807BB2
:1059A80086E64BF4207B83E62646B3465446B24649
:1059B8007EE6FF4307F0200304930B9B073323F095
:1059C80007031BF0400F03F1080208BF0626B9F1D0
:1059D800650F93ED000B0B9211D1711C0022C9B217
:1059E8004BF4805B1346112928BF11210CA800F045
:1059F800FBFAC3B2029302230C9F0393FCE6B9F1AE
:105A0800660F05D14BF4005B334601221121EAE70A
:105A1800F1B201294FF0000238BF012113464FF0BF
:105A28006509E0E70223F8E6002B3FF40BAFBAF173
:105A3800030F3BDC9DF83430A54E13F0080FA54B3F
:105A480008BF1E463746B94617F8010BB0BBAE1B58
:105A5800B1447BE033BB2B23F4E62BBB2D23F1E6CB
:105A68002022BAF1040F13DD1BF0080FAAF1040479
:105A78000FD12C44019B02924146202098470028D0
:105A880005F10105FFF6DBADA542029AF2D19AB104
:105A98000024019B414610469847002805F101055E
:105AA800C8DACCE52B22DCE72D22DAE71BF0080F59
:105AB800AAF10304BED1DCE71446BBE7049BC01A75
:105AC8004146019BC0B298470028BCDAB7E5029965
